{
  "transactions": [
    {
      "hash": "0x1e243871ac92887295350fa056f319fc44808658b303aec4ce1141a35a750643",
      "transactionType": "CALL",
      "contractName": null,
      "contractAddress": "0x708d9b39d2d6891b4bb9902ff9dfb13ae022aeb0",
      "function": "transferCollectionOwnership(address,address)",
      "arguments": [
        "0x780c6fcA58013E4C49D922DDB1367763715fEAe9",
        "0x5875D12c3D008a4F12dBA95b16f1cd0Ba3b9df47"
      ],
      "transaction": {
        "from": "0x107a120f536c8bd891a3c04fca22a7814e260210",
        "to": "0x708d9b39d2d6891b4bb9902ff9dfb13ae022aeb0",
        "gas": "0x10851",
        "value": "0x0",
        "input": "0x1a27e2e9000000000000000000000000780c6fca58013e4c49d922ddb1367763715feae90000000000000000000000005875d12c3d008a4f12dba95b16f1cd0ba3b9df47",
        "nonce": "0x29",
        "chainId": "0xa869"
      },
      "additionalContracts": [],
      "isFixedGasLimit": false
    },
    {
      "hash": "0x8049b29fe32954f0592411579417a490d87934977bb9a87a7b1d3a7798f36e23",
      "transactionType": "CALL",
      "contractName": null,
      "contractAddress": "0x708d9b39d2d6891b4bb9902ff9dfb13ae022aeb0",
      "function": "transferCollectionOwnership(address,address)",
      "arguments": [
        "0x00E4db58d4F54A25735444e303691934D7fE4697",
        "0x5875D12c3D008a4F12dBA95b16f1cd0Ba3b9df47"
      ],
      "transaction": {
        "from": "0x107a120f536c8bd891a3c04fca22a7814e260210",
        "to": "0x708d9b39d2d6891b4bb9902ff9dfb13ae022aeb0",
        "gas": "0x1130a",
        "value": "0x0",
        "input": "0x1a27e2e900000000000000000000000000e4db58d4f54a25735444e303691934d7fe46970000000000000000000000005875d12c3d008a4f12dba95b16f1cd0ba3b9df47",
        "nonce": "0x2a",
        "chainId": "0xa869"
      },
      "additionalContracts": [],
      "isFixedGasLimit": false
    }
  ],
  "receipts": [
    {
      "status": "0x1",
      "cumulativeGasUsed": "0xbf5d",
      "logs": [
        {
          "address": "0x780c6fca58013e4c49d922ddb1367763715feae9",
          "topics": [
            "0x8be0079c531659141344cd1fd0a4f28419497f9722a3daafe3b4186f6b6457e0",
            "0x000000000000000000000000708d9b39d2d6891b4bb9902ff9dfb13ae022aeb0",
            "0x0000000000000000000000005875d12c3d008a4f12dba95b16f1cd0ba3b9df47"
          ],
          "data": "0x",
          "blockHash": "0xe4a20cf89ac5fb3a970902bfac3e5c189a2f17e5e64a0eba3efcc2e7c6371307",
          "blockNumber": "0x236e7f2",
          "transactionHash": "0x1e243871ac92887295350fa056f319fc44808658b303aec4ce1141a35a750643",
          "transactionIndex": "0x0",
          "logIndex": "0x0",
          "removed": false
        },
        {
          "address": "0x708d9b39d2d6891b4bb9902ff9dfb13ae022aeb0",
          "topics": [
            "0x171ccc46ca30ce15b8e391d7e1db8cf7644ed26a313b10df70a92b13da343541",
            "0x000000000000000000000000780c6fca58013e4c49d922ddb1367763715feae9",
            "0x0000000000000000000000005875d12c3d008a4f12dba95b16f1cd0ba3b9df47"
          ],
          "data": "0x",
          "blockHash": "0xe4a20cf89ac5fb3a970902bfac3e5c189a2f17e5e64a0eba3efcc2e7c6371307",
          "blockNumber": "0x236e7f2",
          "transactionHash": "0x1e243871ac92887295350fa056f319fc44808658b303aec4ce1141a35a750643",
          "transactionIndex": "0x0",
          "logIndex": "0x1",
          "removed": false
        }
      ],
      "logsBloom": "0x00000000000000000000000000000000000000400000000080800080000040000000000000000000000000000000000000000000020000000000000000000000000000000000000000000000000000000001000000000040000000000000000000000000000000000000000000000000000000000800000000000000400000400000000000000000000000004000000000000400000000000000000004000000000000000000000000000000000000000000000000000000002000000000000000000000000000000000020000000000000000000000400000000000000000000000000000000000002000002000000000000000000000000010000000400000",
      "type": "0x2",
      "transactionHash": "0x1e243871ac92887295350fa056f319fc44808658b303aec4ce1141a35a750643",
      "transactionIndex": "0x0",
      "blockHash": "0xe4a20cf89ac5fb3a970902bfac3e5c189a2f17e5e64a0eba3efcc2e7c6371307",
      "blockNumber": "0x236e7f2",
      "gasUsed": "0xbf5d",
      "effectiveGasPrice": "0x5d21dba00",
      "from": "0x107a120f536c8bd891a3c04fca22a7814e260210",
      "to": "0x708d9b39d2d6891b4bb9902ff9dfb13ae022aeb0",
      "contractAddress": null
    },
    {
      "status": "0x1",
      "cumulativeGasUsed": "0xc720",
      "logs": [
        {
          "address": "0x00e4db58d4f54a25735444e303691934d7fe4697",
          "topics": [
            "0x8be0079c531659141344cd1fd0a4f28419497f9722a3daafe3b4186f6b6457e0",
            "0x000000000000000000000000708d9b39d2d6891b4bb9902ff9dfb13ae022aeb0",
            "0x0000000000000000000000005875d12c3d008a4f12dba95b16f1cd0ba3b9df47"
          ],
          "data": "0x",
          "blockHash": "0xc28ac2d6786e8de688911ff4445085cbdd0b5bc461e72d22b6e0ccecbd2a1428",
          "blockNumber": "0x236e7f3",
          "transactionHash": "0x8049b29fe32954f0592411579417a490d87934977bb9a87a7b1d3a7798f36e23",
          "transactionIndex": "0x0",
          "logIndex": "0x0",
          "removed": false
        },
        {
          "address": "0x708d9b39d2d6891b4bb9902ff9dfb13ae022aeb0",
          "topics": [
            "0x171ccc46ca30ce15b8e391d7e1db8cf7644ed26a313b10df70a92b13da343541",
            "0x00000000000000000000000000e4db58d4f54a25735444e303691934d7fe4697",
            "0x0000000000000000000000005875d12c3d008a4f12dba95b16f1cd0ba3b9df47"
          ],
          "data": "0x",
          "blockHash": "0xc28ac2d6786e8de688911ff4445085cbdd0b5bc461e72d22b6e0ccecbd2a1428",
          "blockNumber": "0x236e7f3",
          "transactionHash": "0x8049b29fe32954f0592411579417a490d87934977bb9a87a7b1d3a7798f36e23",
          "transactionIndex": "0x0",
          "logIndex": "0x1",
          "removed": false
        }
      ],
      "logsBloom": "0x00000000000000000000000000000000000000000000000000804000000000000000000000000000000000000000000000010000000000000000000000000000000000000000000000000000000000000001000000000040100000000000000000000000000000000000000000000000000000000800000000000000000000400000000000000000000000004000000000000400000000000000000004000000000004000000000400000000000000000000000000000000002000000000000000000000000000000000020000000000000000000000400000000000000000000000000000000000002000002100000000000000000000000010000000400000",
      "type": "0x2",
      "transactionHash": "0x8049b29fe32954f0592411579417a490d87934977bb9a87a7b1d3a7798f36e23",
      "transactionIndex": "0x0",
      "blockHash": "0xc28ac2d6786e8de688911ff4445085cbdd0b5bc461e72d22b6e0ccecbd2a1428",
      "blockNumber": "0x236e7f3",
      "gasUsed": "0xc720",
      "effectiveGasPrice": "0x5d21dba00",
      "from": "0x107a120f536c8bd891a3c04fca22a7814e260210",
      "to": "0x708d9b39d2d6891b4bb9902ff9dfb13ae022aeb0",
      "contractAddress": null
    }
  ],
  "libraries": [],
  "pending": [],
  "returns": {},
  "timestamp": 1734287224,
  "chain": 43113,
  "commit": "e210adc"
}