{
  "transactions": [
    {
      "hash": "0x81feb184ae6574bf0c854ff7d1c315a6ebc671ce2f872559175a2063d44da3ee",
      "transactionType": "CALL",
      "contractName": null,
      "contractAddress": "0x161ab371a04755cd2eb1963ca8373fea7bf42d80",
      "function": "setCollectionFactory(address)",
      "arguments": [
        "0x52e7060fA1f2F9d56332bF2b40A40F6bc0e9cDB6"
      ],
      "transaction": {
        "from": "0x107a120f536c8bd891a3c04fca22a7814e260210",
        "to": "0x161ab371a04755cd2eb1963ca8373fea7bf42d80",
        "gas": "0x12cbc",
        "value": "0x0",
        "input": "0xbc72157a00000000000000000000000052e7060fa1f2f9d56332bf2b40a40f6bc0e9cdb6",
        "nonce": "0x45",
        "chainId": "0xa869"
      },
      "additionalContracts": [],
      "isFixedGasLimit": false
    }
  ],
  "receipts": [
    {
      "status": "0x1",
      "cumulativeGasUsed": "0xcda2",
      "logs": [
        {
          "address": "0x161ab371a04755cd2eb1963ca8373fea7bf42d80",
          "topics": [
            "0x6e8ea9e3ad345f413905cfd6108b8da07df1424f5990a84bc69a67749b9017ca",
            "0x0000000000000000000000000000000000000000000000000000000000000000",
            "0x00000000000000000000000052e7060fa1f2f9d56332bf2b40a40f6bc0e9cdb6"
          ],
          "data": "0x",
          "blockHash": "0x77882f3b340b55a25217fdf03f95ba39f185429fb1c09eac78ab56e7037796e4",
          "blockNumber": "0x23701e9",
          "transactionHash": "0x81feb184ae6574bf0c854ff7d1c315a6ebc671ce2f872559175a2063d44da3ee",
          "transactionIndex": "0x0",
          "logIndex": "0x0",
          "removed": false
        }
      ],
      "logsBloom": "0x00000000000000000000000000100000000000000000000000000000000000000004000000000000000000000000000000000000000000000000000000000000000000000000200000000000000000000000000000000000000000000000000000000000020100000000000000000800000000000001000000800000000000000000000000000000000000000000000000000200000000002000000000000000000000000000000000000000000000000000000000000000000000000000000000000000000000000000000000000000000000000000000000000000000020000000000000000000000000000000000000800000000000000000000000000000",
      "type": "0x2",
      "transactionHash": "0x81feb184ae6574bf0c854ff7d1c315a6ebc671ce2f872559175a2063d44da3ee",
      "transactionIndex": "0x0",
      "blockHash": "0x77882f3b340b55a25217fdf03f95ba39f185429fb1c09eac78ab56e7037796e4",
      "blockNumber": "0x23701e9",
      "gasUsed": "0xcda2",
      "effectiveGasPrice": "0x5d21dba00",
      "from": "0x107a120f536c8bd891a3c04fca22a7814e260210",
      "to": "0x161ab371a04755cd2eb1963ca8373fea7bf42d80",
      "contractAddress": null
    }
  ],
  "libraries": [],
  "pending": [],
  "returns": {},
  "timestamp": 1734328294,
  "chain": 43113,
  "commit": "bf91bda"
}