{
  "transactions": [
    {
      "hash": "0x15839c9f6d06bbf0f026e5dd7b478706d3ceeed26f8fd2563a5e8939136ed457",
      "transactionType": "CALL",
      "contractName": null,
      "contractAddress": "0x5875d12c3d008a4f12dba95b16f1cd0ba3b9df47",
      "function": "setCollectionFactory(address)",
      "arguments": [
        "0x708d9B39D2d6891B4bB9902fF9DFb13AE022aEb0"
      ],
      "transaction": {
        "from": "0x107a120f536c8bd891a3c04fca22a7814e260210",
        "to": "0x5875d12c3d008a4f12dba95b16f1cd0ba3b9df47",
        "gas": "0x12cbc",
        "value": "0x0",
        "input": "0xbc72157a000000000000000000000000708d9b39d2d6891b4bb9902ff9dfb13ae022aeb0",
        "nonce": "0x26",
        "chainId": "0xa869"
      },
      "additionalContracts": [],
      "isFixedGasLimit": false
    }
  ],
  "receipts": [
    {
      "status": "0x1",
      "cumulativeGasUsed": "0xcda2",
      "logs": [
        {
          "address": "0x5875d12c3d008a4f12dba95b16f1cd0ba3b9df47",
          "topics": [
            "0x6e8ea9e3ad345f413905cfd6108b8da07df1424f5990a84bc69a67749b9017ca",
            "0x0000000000000000000000000000000000000000000000000000000000000000",
            "0x000000000000000000000000708d9b39d2d6891b4bb9902ff9dfb13ae022aeb0"
          ],
          "data": "0x",
          "blockHash": "0xe5dba3c09adbf21feaee622d664506583b2e791df3941e509a3c94610a6d964d",
          "blockNumber": "0x236e6c5",
          "transactionHash": "0x15839c9f6d06bbf0f026e5dd7b478706d3ceeed26f8fd2563a5e8939136ed457",
          "transactionIndex": "0x0",
          "logIndex": "0x0",
          "removed": false
        }
      ],
      "logsBloom": "0x00000000000000000000000000100000000000100000000000000000000000000000000000000000000000000000000000000000000000000000000000000000000000000000000000000000000000000000000000000000000000000001000000000000020000000000000000000800000000000002000000000000000000000000000000000000000000000000000000000200000000000000000000000000000000000000000000000000000000000000000000000000002000000000000000000000000000000000000000000000000000000000400000000000000020000000000000000000000000002000000000800000000000000000000000000000",
      "type": "0x2",
      "transactionHash": "0x15839c9f6d06bbf0f026e5dd7b478706d3ceeed26f8fd2563a5e8939136ed457",
      "transactionIndex": "0x0",
      "blockHash": "0xe5dba3c09adbf21feaee622d664506583b2e791df3941e509a3c94610a6d964d",
      "blockNumber": "0x236e6c5",
      "gasUsed": "0xcda2",
      "effectiveGasPrice": "0x4190ab01",
      "from": "0x107a120f536c8bd891a3c04fca22a7814e260210",
      "to": "0x5875d12c3d008a4f12dba95b16f1cd0ba3b9df47",
      "contractAddress": null
    }
  ],
  "libraries": [],
  "pending": [],
  "returns": {},
  "timestamp": 1734285795,
  "chain": 43113,
  "commit": "e210adc"
}