{
  "transactions": [
    {
      "hash": "0x55c698349daa6549beb29f6653a7a4b7fc941eeb228830734862ccd909431ec2",
      "transactionType": "CALL",
      "contractName": null,
      "contractAddress": "0x12f084de536f41bcd29dfc7632db0261cec72c60",
      "function": "diamondCut((address,uint8,bytes4[])[],address,bytes)",
      "arguments": [
        "[(0x0000000000000000000000000000000000000000, 2, [0x7a0ed627, 0xadfca15e, 0x52ef6b2c, 0x7a070c2d, 0x01ffc9a7, 0x30d39a22, 0x941d4ea9, 0xdbdc386a, 0x62bbd81e]), (0x0000000000000000000000000000000000000000, 2, [0xf2fde38b, 0x8da5cb5b]), (0x0000000000000000000000000000000000000000, 2, [0x51f8472d, 0xb1526121, 0x90ebc295, 0x59e26be1, 0xee2f13cd, 0x36bfc264, 0x3697a679, 0xfa7643f4, 0xd3c6a6d6, 0x3ea7fbdb, 0x18bcb284, 0x29dfb6d8, 0x7ce87b43, 0x3564dab1, 0x2adbc37d, 0x1986166f, 0x2cf1dacb]), (0x0000000000000000000000000000000000000000, 2, [0x4ad06ddf, 0xbceeecc5, 0x60fadae9, 0x07b475d8, 0xce634cc8, 0x237b119f, 0x374c7be3, 0x1bfff628, 0xbb439487]), (0x0000000000000000000000000000000000000000, 2, [0xebc7fd7c, 0xa016e28e, 0xde3ba074]), (0x0000000000000000000000000000000000000000, 2, [0xbc72157a, 0xa8008080, 0x6abe1014, 0xbf5fcb59, 0x6fc0127d, 0x5fa15ebb, 0xc9b059df, 0x80aed2a9, 0x23f019fd, 0x026798da, 0x098f9cf3, 0x1b5d098d, 0xc3386c81]), (0x0000000000000000000000000000000000000000, 2, [0xc4d66de8, 0x392e53cd, 0x2d2d1451, 0x6bd50cef, 0x413bfd2d, 0x90ae68ea])]",
        "0x0000000000000000000000000000000000000000",
        "0x"
      ],
      "transaction": {
        "from": "0xa99526e4dc81b85c1d248ca974eadce81837ecf1",
        "to": "0x12f084de536f41bcd29dfc7632db0261cec72c60",
        "gas": "0xd4544",
        "value": "0x0",
        "input": "0x1f931c1c000000000000000000000000000000000000000000000000000000000000006000000000000000000000000000000000000000000000000000000000000000000000000000000000000000000000000000000000000000000000000000000c40000000000000000000000000000000000000000000000000000000000000000700000000000000000000000000000000000000000000000000000000000000e00000000000000000000000000000000000000000000000000000000000000280000000000000000000000000000000000000000000000000000000000000034000000000000000000000000000000000000000000000000000000000000005e0000000000000000000000000000000000000000000000000000000000000078000000000000000000000000000000000000000000000000000000000000008600000000000000000000000000000000000000000000000000000000000000a8000000000000000000000000000000000000000000000000000000000000000000000000000000000000000000000000000000000000000000000000000000002000000000000000000000000000000000000000000000000000000000000006000000000000000000000000000000000000000000000000000000000000000097a0ed62700000000000000000000000000000000000000000000000000000000adfca15e0000000000000000000000000000000000000000000000000000000052ef6b2c000000000000000000000000000000000000000000000000000000007a070c2d0000000000000000000000000000000000000000000000000000000001ffc9a70000000000000000000000000000000000000000000000000000000030d39a2200000000000000000000000000000000000000000000000000000000941d4ea900000000000000000000000000000000000000000000000000000000dbdc386a0000000000000000000000000000000000000000000000000000000062bbd81e000000000000000000000000000000000000000000000000000000000000000000000000000000000000000000000000000000000000000000000000000000000000000000000000000000000000000000000000000000000000000200000000000000000000000000000000000000000000000000000000000000600000000000000000000000000000000000000000000000000000000000000002f2fde38b000000000000000000000000000000000000000000000000000000008da5cb5b00000000000000000000000000000000000000000000000000000000000000000000000000000000000000000000000000000000000000000000000000000000000000000000000000000000000000000000000000000000000000020000000000000000000000000000000000000000000000000000000000000060000000000000000000000000000000000000000000000000000000000000001151f8472d00000000000000000000000000000000000000000000000000000000b15261210000000000000000000000000000000000000000000000000000000090ebc2950000000000000000000000000000000000000000000000000000000059e26be100000000000000000000000000000000000000000000000000000000ee2f13cd0000000000000000000000000000000000000000000000000000000036bfc264000000000000000000000000000000000000000000000000000000003697a67900000000000000000000000000000000000000000000000000000000fa7643f400000000000000000000000000000000000000000000000000000000d3c6a6d6000000000000000000000000000000000000000000000000000000003ea7fbdb0000000000000000000000000000000000000000000000000000000018bcb2840000000000000000000000000000000000000000000000000000000029dfb6d8000000000000000000000000000000000000000000000000000000007ce87b43000000000000000000000000000000000000000000000000000000003564dab1000000000000000000000000000000000000000000000000000000002adbc37d000000000000000000000000000000000000000000000000000000001986166f000000000000000000000000000000000000000000000000000000002cf1dacb0000000000000000000000000000000000000000000000000000000000000000000000000000000000000000000000000000000000000000000000000000000000000000000000000000000000000000000000000000000000000002000000000000000000000000000000000000000000000000000000000000006000000000000000000000000000000000000000000000000000000000000000094ad06ddf00000000000000000000000000000000000000000000000000000000bceeecc50000000000000000000000000000000000000000000000000000000060fadae90000000000000000000000000000000000000000000000000000000007b475d800000000000000000000000000000000000000000000000000000000ce634cc800000000000000000000000000000000000000000000000000000000237b119f00000000000000000000000000000000000000000000000000000000374c7be3000000000000000000000000000000000000000000000000000000001bfff62800000000000000000000000000000000000000000000000000000000bb439487000000000000000000000000000000000000000000000000000000000000000000000000000000000000000000000000000000000000000000000000000000000000000000000000000000000000000000000000000000000000000200000000000000000000000000000000000000000000000000000000000000600000000000000000000000000000000000000000000000000000000000000003ebc7fd7c00000000000000000000000000000000000000000000000000000000a016e28e00000000000000000000000000000000000000000000000000000000de3ba07400000000000000000000000000000000000000000000000000000000000000000000000000000000000000000000000000000000000000000000000000000000000000000000000000000000000000000000000000000000000000020000000000000000000000000000000000000000000000000000000000000060000000000000000000000000000000000000000000000000000000000000000dbc72157a00000000000000000000000000000000000000000000000000000000a8008080000000000000000000000000000000000000000000000000000000006abe101400000000000000000000000000000000000000000000000000000000bf5fcb59000000000000000000000000000000000000000000000000000000006fc0127d000000000000000000000000000000000000000000000000000000005fa15ebb00000000000000000000000000000000000000000000000000000000c9b059df0000000000000000000000000000000000000000000000000000000080aed2a90000000000000000000000000000000000000000000000000000000023f019fd00000000000000000000000000000000000000000000000000000000026798da00000000000000000000000000000000000000000000000000000000098f9cf3000000000000000000000000000000000000000000000000000000001b5d098d00000000000000000000000000000000000000000000000000000000c3386c81000000000000000000000000000000000000000000000000000000000000000000000000000000000000000000000000000000000000000000000000000000000000000000000000000000000000000000000000000000000000000200000000000000000000000000000000000000000000000000000000000000600000000000000000000000000000000000000000000000000000000000000006c4d66de800000000000000000000000000000000000000000000000000000000392e53cd000000000000000000000000000000000000000000000000000000002d2d1451000000000000000000000000000000000000000000000000000000006bd50cef00000000000000000000000000000000000000000000000000000000413bfd2d0000000000000000000000000000000000000000000000000000000090ae68ea000000000000000000000000000000000000000000000000000000000000000000000000000000000000000000000000000000000000000000000000",
        "nonce": "0x28",
        "chainId": "0xa4b1"
      },
      "additionalContracts": [],
      "isFixedGasLimit": false
    }
  ],
  "receipts": [
    {
      "status": "0x1",
      "cumulativeGasUsed": "0x85393",
      "logs": [
        {
          "address": "0x12f084de536f41bcd29dfc7632db0261cec72c60",
          "topics": [
            "0x8faa70878671ccd212d20771b795c50af8fd3ff6cf27f4bde57e5d4de0aeb673"
          ],
          "data": "0x000000000000000000000000000000000000000000000000000000000000006000000000000000000000000000000000000000000000000000000000000000000000000000000000000000000000000000000000000000000000000000000c40000000000000000000000000000000000000000000000000000000000000000700000000000000000000000000000000000000000000000000000000000000e00000000000000000000000000000000000000000000000000000000000000280000000000000000000000000000000000000000000000000000000000000034000000000000000000000000000000000000000000000000000000000000005e0000000000000000000000000000000000000000000000000000000000000078000000000000000000000000000000000000000000000000000000000000008600000000000000000000000000000000000000000000000000000000000000a8000000000000000000000000000000000000000000000000000000000000000000000000000000000000000000000000000000000000000000000000000000002000000000000000000000000000000000000000000000000000000000000006000000000000000000000000000000000000000000000000000000000000000097a0ed62700000000000000000000000000000000000000000000000000000000adfca15e0000000000000000000000000000000000000000000000000000000052ef6b2c000000000000000000000000000000000000000000000000000000007a070c2d0000000000000000000000000000000000000000000000000000000001ffc9a70000000000000000000000000000000000000000000000000000000030d39a2200000000000000000000000000000000000000000000000000000000941d4ea900000000000000000000000000000000000000000000000000000000dbdc386a0000000000000000000000000000000000000000000000000000000062bbd81e000000000000000000000000000000000000000000000000000000000000000000000000000000000000000000000000000000000000000000000000000000000000000000000000000000000000000000000000000000000000000200000000000000000000000000000000000000000000000000000000000000600000000000000000000000000000000000000000000000000000000000000002f2fde38b000000000000000000000000000000000000000000000000000000008da5cb5b00000000000000000000000000000000000000000000000000000000000000000000000000000000000000000000000000000000000000000000000000000000000000000000000000000000000000000000000000000000000000020000000000000000000000000000000000000000000000000000000000000060000000000000000000000000000000000000000000000000000000000000001151f8472d00000000000000000000000000000000000000000000000000000000b15261210000000000000000000000000000000000000000000000000000000090ebc2950000000000000000000000000000000000000000000000000000000059e26be100000000000000000000000000000000000000000000000000000000ee2f13cd0000000000000000000000000000000000000000000000000000000036bfc264000000000000000000000000000000000000000000000000000000003697a67900000000000000000000000000000000000000000000000000000000fa7643f400000000000000000000000000000000000000000000000000000000d3c6a6d6000000000000000000000000000000000000000000000000000000003ea7fbdb0000000000000000000000000000000000000000000000000000000018bcb2840000000000000000000000000000000000000000000000000000000029dfb6d8000000000000000000000000000000000000000000000000000000007ce87b43000000000000000000000000000000000000000000000000000000003564dab1000000000000000000000000000000000000000000000000000000002adbc37d000000000000000000000000000000000000000000000000000000001986166f000000000000000000000000000000000000000000000000000000002cf1dacb0000000000000000000000000000000000000000000000000000000000000000000000000000000000000000000000000000000000000000000000000000000000000000000000000000000000000000000000000000000000000002000000000000000000000000000000000000000000000000000000000000006000000000000000000000000000000000000000000000000000000000000000094ad06ddf00000000000000000000000000000000000000000000000000000000bceeecc50000000000000000000000000000000000000000000000000000000060fadae90000000000000000000000000000000000000000000000000000000007b475d800000000000000000000000000000000000000000000000000000000ce634cc800000000000000000000000000000000000000000000000000000000237b119f00000000000000000000000000000000000000000000000000000000374c7be3000000000000000000000000000000000000000000000000000000001bfff62800000000000000000000000000000000000000000000000000000000bb439487000000000000000000000000000000000000000000000000000000000000000000000000000000000000000000000000000000000000000000000000000000000000000000000000000000000000000000000000000000000000000200000000000000000000000000000000000000000000000000000000000000600000000000000000000000000000000000000000000000000000000000000003ebc7fd7c00000000000000000000000000000000000000000000000000000000a016e28e00000000000000000000000000000000000000000000000000000000de3ba07400000000000000000000000000000000000000000000000000000000000000000000000000000000000000000000000000000000000000000000000000000000000000000000000000000000000000000000000000000000000000020000000000000000000000000000000000000000000000000000000000000060000000000000000000000000000000000000000000000000000000000000000dbc72157a00000000000000000000000000000000000000000000000000000000a8008080000000000000000000000000000000000000000000000000000000006abe101400000000000000000000000000000000000000000000000000000000bf5fcb59000000000000000000000000000000000000000000000000000000006fc0127d000000000000000000000000000000000000000000000000000000005fa15ebb00000000000000000000000000000000000000000000000000000000c9b059df0000000000000000000000000000000000000000000000000000000080aed2a90000000000000000000000000000000000000000000000000000000023f019fd00000000000000000000000000000000000000000000000000000000026798da00000000000000000000000000000000000000000000000000000000098f9cf3000000000000000000000000000000000000000000000000000000001b5d098d00000000000000000000000000000000000000000000000000000000c3386c81000000000000000000000000000000000000000000000000000000000000000000000000000000000000000000000000000000000000000000000000000000000000000000000000000000000000000000000000000000000000000200000000000000000000000000000000000000000000000000000000000000600000000000000000000000000000000000000000000000000000000000000006c4d66de800000000000000000000000000000000000000000000000000000000392e53cd000000000000000000000000000000000000000000000000000000002d2d1451000000000000000000000000000000000000000000000000000000006bd50cef00000000000000000000000000000000000000000000000000000000413bfd2d0000000000000000000000000000000000000000000000000000000090ae68ea000000000000000000000000000000000000000000000000000000000000000000000000000000000000000000000000000000000000000000000000",
          "blockHash": "0xf5ad2ba3d0a8e02c3f122a05cbc2173b1eb059aeb9cbbd432357e363dec3878f",
          "blockNumber": "0x1239ba79",
          "transactionHash": "0x55c698349daa6549beb29f6653a7a4b7fc941eeb228830734862ccd909431ec2",
          "transactionIndex": "0x2",
          "logIndex": "0x0",
          "removed": false
        }
      ],
      "logsBloom": "0x00000000000000000000000000000000000000000000000000000000000000000000000000000000000000000004000000000000002000000000000000000000000000000000000000000000000000000000000001000000000800000000000000000000000000000000000000000000000000000000000000000000000000000020000000000000000000000000000000000000000000000000000000000000000000000800000000000000000000000000000000000000000000000000000000000000000000000000000000000000000000000000000000000000000000000000000000000000000000000000000000000000000000000000000000000000",
      "type": "0x2",
      "transactionHash": "0x55c698349daa6549beb29f6653a7a4b7fc941eeb228830734862ccd909431ec2",
      "transactionIndex": "0x2",
      "blockHash": "0xf5ad2ba3d0a8e02c3f122a05cbc2173b1eb059aeb9cbbd432357e363dec3878f",
      "blockNumber": "0x1239ba79",
      "gasUsed": "0x7f7f2",
      "effectiveGasPrice": "0x989680",
      "from": "0xa99526e4dc81b85c1d248ca974eadce81837ecf1",
      "to": "0x12f084de536f41bcd29dfc7632db0261cec72c60",
      "contractAddress": null,
      "gasUsedForL1": "0x347e",
      "l1BlockNumber": "0x14d4290"
    }
  ],
  "libraries": [],
  "pending": [],
  "returns": {},
  "timestamp": 1739485604,
  "chain": 42161,
  "commit": "c32a973"
}