{
  "transactions": [
    {
      "hash": "0x90d184b8582eb1d830ffbff4829e9fea1a142438bec9b235d8f0a72929925c85",
      "transactionType": "CALL",
      "contractName": null,
      "contractAddress": "0x5672f3b4ce39126d6ff8080ac2377f6a2413c6bb",
      "function": "createVaultCollection(string,string,uint8)",
      "arguments": [
        "Rare Pepe",
        "PEPE",
        "2"
      ],
      "transaction": {
        "from": "0xa99526e4dc81b85c1d248ca974eadce81837ecf1",
        "to": "0x5672f3b4ce39126d6ff8080ac2377f6a2413c6bb",
        "gas": "0x6a8e2",
        "value": "0x0",
        "input": "0xa8008080000000000000000000000000000000000000000000000000000000000000006000000000000000000000000000000000000000000000000000000000000000a000000000000000000000000000000000000000000000000000000000000000020000000000000000000000000000000000000000000000000000000000000009526172652050657065000000000000000000000000000000000000000000000000000000000000000000000000000000000000000000000000000000000000045045504500000000000000000000000000000000000000000000000000000000",
        "nonce": "0x25",
        "chainId": "0x1068"
      },
      "additionalContracts": [
        {
          "transactionType": "CREATE",
          "address": "0xe8fd668fc35b51942d64b0b690e89d0a82e56095",
          "initCode": "0x60803460b757601f6102dc38819003918201601f19168301916001600160401b0383118484101760bb5780849260209460405283398101031260b757516001600160a01b0381169081810360b757811560a8577fa3f0ad74e5423aebfd80d3ef4346578335a9a72aeaee59ff6cb3582b35133d5055604051907f367184f1bb13aa656fb065e5e2b1104b30f71206d03961639cac77f3a6b331765f80a261020c90816100d08239f35b63d92e233d60e01b5f5260045ffd5b5f80fd5b634e487b7160e01b5f52604160045260245ffdfe60806040526004361015610015575b3661011d57005b5f3560e01c6301ffc9a70361000e57346100cb5760203660031901126100cb5760043563ffffffff60e01b81168091036100cb5760206001600160a01b0361005b610141565b16916024604051809481936301ffc9a760e01b835260048301525afa80156100d7575f90610096575b604051901515815280602081015b0390f35b506020813d6020116100cf575b816100b0602093836100dc565b810103126100cb575180151581036100cb5761009290610084565b5f80fd5b3d91506100a3565b610112565b90601f8019910116810190811067ffffffffffffffff8211176100fe57604052565b634e487b7160e01b5f52604160045260245ffd5b6040513d5f823e3d90fd5b5f80610127610141565b368280378136915af43d5f803e1561013d573d5ff35b3d5ffd5b7fa3f0ad74e5423aebfd80d3ef4346578335a9a72aeaee59ff6cb3582b35133d5054604051635c60da1b60e01b815290602090829060049082906001600160a01b03165afa9081156100d7575f91610197575090565b90506020813d6020116101ce575b816101b2602093836100dc565b810103126100cb57516001600160a01b03811681036100cb5790565b3d91506101a556fea2646970667358221220b9aa4dcde91f06e0b875fe779d49781682719d788493724bc49bbfa1c806b86564736f6c634300081c00330000000000000000000000003b6f613f16c5b3c696ba1826bd2d3583258ca76c"
        }
      ],
      "isFixedGasLimit": false
    },
    {
      "hash": "0x967065980b117a54c027bca75fe8782f667f90c193693e5aea32da69e052af20",
      "transactionType": "CALL",
      "contractName": null,
      "contractAddress": "0x5672f3b4ce39126d6ff8080ac2377f6a2413c6bb",
      "function": "createVaultCollection(string,string,uint8)",
      "arguments": [
        "Spells of Genesis",
        "SOG",
        "2"
      ],
      "transaction": {
        "from": "0xa99526e4dc81b85c1d248ca974eadce81837ecf1",
        "to": "0x5672f3b4ce39126d6ff8080ac2377f6a2413c6bb",
        "gas": "0x70da7",
        "value": "0x0",
        "input": "0xa8008080000000000000000000000000000000000000000000000000000000000000006000000000000000000000000000000000000000000000000000000000000000a0000000000000000000000000000000000000000000000000000000000000000200000000000000000000000000000000000000000000000000000000000000115370656c6c73206f662047656e657369730000000000000000000000000000000000000000000000000000000000000000000000000000000000000000000003534f470000000000000000000000000000000000000000000000000000000000",
        "nonce": "0x26",
        "chainId": "0x1068"
      },
      "additionalContracts": [
        {
          "transactionType": "CREATE",
          "address": "0x7c2717244471e7a6bb8035dfb9fcae47d8743b76",
          "initCode": "0x60803460b757601f6102dc38819003918201601f19168301916001600160401b0383118484101760bb5780849260209460405283398101031260b757516001600160a01b0381169081810360b757811560a8577fa3f0ad74e5423aebfd80d3ef4346578335a9a72aeaee59ff6cb3582b35133d5055604051907f367184f1bb13aa656fb065e5e2b1104b30f71206d03961639cac77f3a6b331765f80a261020c90816100d08239f35b63d92e233d60e01b5f5260045ffd5b5f80fd5b634e487b7160e01b5f52604160045260245ffdfe60806040526004361015610015575b3661011d57005b5f3560e01c6301ffc9a70361000e57346100cb5760203660031901126100cb5760043563ffffffff60e01b81168091036100cb5760206001600160a01b0361005b610141565b16916024604051809481936301ffc9a760e01b835260048301525afa80156100d7575f90610096575b604051901515815280602081015b0390f35b506020813d6020116100cf575b816100b0602093836100dc565b810103126100cb575180151581036100cb5761009290610084565b5f80fd5b3d91506100a3565b610112565b90601f8019910116810190811067ffffffffffffffff8211176100fe57604052565b634e487b7160e01b5f52604160045260245ffd5b6040513d5f823e3d90fd5b5f80610127610141565b368280378136915af43d5f803e1561013d573d5ff35b3d5ffd5b7fa3f0ad74e5423aebfd80d3ef4346578335a9a72aeaee59ff6cb3582b35133d5054604051635c60da1b60e01b815290602090829060049082906001600160a01b03165afa9081156100d7575f91610197575090565b90506020813d6020116101ce575b816101b2602093836100dc565b810103126100cb57516001600160a01b03811681036100cb5790565b3d91506101a556fea2646970667358221220b9aa4dcde91f06e0b875fe779d49781682719d788493724bc49bbfa1c806b86564736f6c634300081c00330000000000000000000000003b6f613f16c5b3c696ba1826bd2d3583258ca76c"
        }
      ],
      "isFixedGasLimit": false
    },
    {
      "hash": "0xb7296b616e0bdc01197c2ac73dad297402b143c382fd3f2ead5ee5b6e01e26c8",
      "transactionType": "CALL",
      "contractName": null,
      "contractAddress": "0x5672f3b4ce39126d6ff8080ac2377f6a2413c6bb",
      "function": "createVaultCollection(string,string,uint8)",
      "arguments": [
        "Fake Rares",
        "FAKE",
        "2"
      ],
      "transaction": {
        "from": "0xa99526e4dc81b85c1d248ca974eadce81837ecf1",
        "to": "0x5672f3b4ce39126d6ff8080ac2377f6a2413c6bb",
        "gas": "0x70d3e",
        "value": "0x0",
        "input": "0xa8008080000000000000000000000000000000000000000000000000000000000000006000000000000000000000000000000000000000000000000000000000000000a00000000000000000000000000000000000000000000000000000000000000002000000000000000000000000000000000000000000000000000000000000000a46616b6520526172657300000000000000000000000000000000000000000000000000000000000000000000000000000000000000000000000000000000000446414b4500000000000000000000000000000000000000000000000000000000",
        "nonce": "0x27",
        "chainId": "0x1068"
      },
      "additionalContracts": [
        {
          "transactionType": "CREATE",
          "address": "0xefa60f6b6ecc6d954cf1a790a46de68693ade808",
          "initCode": "0x60803460b757601f6102dc38819003918201601f19168301916001600160401b0383118484101760bb5780849260209460405283398101031260b757516001600160a01b0381169081810360b757811560a8577fa3f0ad74e5423aebfd80d3ef4346578335a9a72aeaee59ff6cb3582b35133d5055604051907f367184f1bb13aa656fb065e5e2b1104b30f71206d03961639cac77f3a6b331765f80a261020c90816100d08239f35b63d92e233d60e01b5f5260045ffd5b5f80fd5b634e487b7160e01b5f52604160045260245ffdfe60806040526004361015610015575b3661011d57005b5f3560e01c6301ffc9a70361000e57346100cb5760203660031901126100cb5760043563ffffffff60e01b81168091036100cb5760206001600160a01b0361005b610141565b16916024604051809481936301ffc9a760e01b835260048301525afa80156100d7575f90610096575b604051901515815280602081015b0390f35b506020813d6020116100cf575b816100b0602093836100dc565b810103126100cb575180151581036100cb5761009290610084565b5f80fd5b3d91506100a3565b610112565b90601f8019910116810190811067ffffffffffffffff8211176100fe57604052565b634e487b7160e01b5f52604160045260245ffd5b6040513d5f823e3d90fd5b5f80610127610141565b368280378136915af43d5f803e1561013d573d5ff35b3d5ffd5b7fa3f0ad74e5423aebfd80d3ef4346578335a9a72aeaee59ff6cb3582b35133d5054604051635c60da1b60e01b815290602090829060049082906001600160a01b03165afa9081156100d7575f91610197575090565b90506020813d6020116101ce575b816101b2602093836100dc565b810103126100cb57516001600160a01b03811681036100cb5790565b3d91506101a556fea2646970667358221220b9aa4dcde91f06e0b875fe779d49781682719d788493724bc49bbfa1c806b86564736f6c634300081c00330000000000000000000000003b6f613f16c5b3c696ba1826bd2d3583258ca76c"
        }
      ],
      "isFixedGasLimit": false
    },
    {
      "hash": "0xa5ab2f0fc60c9392a820047b3f1c922e66581c31b405b00e033968e2cb1e5446",
      "transactionType": "CALL",
      "contractName": null,
      "contractAddress": "0x5672f3b4ce39126d6ff8080ac2377f6a2413c6bb",
      "function": "createVaultCollection(string,string,uint8)",
      "arguments": [
        "EmBells",
        "BELL",
        "1"
      ],
      "transaction": {
        "from": "0xa99526e4dc81b85c1d248ca974eadce81837ecf1",
        "to": "0x5672f3b4ce39126d6ff8080ac2377f6a2413c6bb",
        "gas": "0x89bfe",
        "value": "0x0",
        "input": "0xa8008080000000000000000000000000000000000000000000000000000000000000006000000000000000000000000000000000000000000000000000000000000000a000000000000000000000000000000000000000000000000000000000000000010000000000000000000000000000000000000000000000000000000000000007456d42656c6c7300000000000000000000000000000000000000000000000000000000000000000000000000000000000000000000000000000000000000000442454c4c00000000000000000000000000000000000000000000000000000000",
        "nonce": "0x28",
        "chainId": "0x1068"
      },
      "additionalContracts": [
        {
          "transactionType": "CREATE",
          "address": "0x3f80589f88ae11df8d51ba6685ce7f5a72f91aea",
          "initCode": "0x60803460b757601f6102dc38819003918201601f19168301916001600160401b0383118484101760bb5780849260209460405283398101031260b757516001600160a01b0381169081810360b757811560a8577fa3f0ad74e5423aebfd80d3ef4346578335a9a72aeaee59ff6cb3582b35133d5055604051907f367184f1bb13aa656fb065e5e2b1104b30f71206d03961639cac77f3a6b331765f80a261020c90816100d08239f35b63d92e233d60e01b5f5260045ffd5b5f80fd5b634e487b7160e01b5f52604160045260245ffdfe60806040526004361015610015575b3661011d57005b5f3560e01c6301ffc9a70361000e57346100cb5760203660031901126100cb5760043563ffffffff60e01b81168091036100cb5760206001600160a01b0361005b610141565b16916024604051809481936301ffc9a760e01b835260048301525afa80156100d7575f90610096575b604051901515815280602081015b0390f35b506020813d6020116100cf575b816100b0602093836100dc565b810103126100cb575180151581036100cb5761009290610084565b5f80fd5b3d91506100a3565b610112565b90601f8019910116810190811067ffffffffffffffff8211176100fe57604052565b634e487b7160e01b5f52604160045260245ffd5b6040513d5f823e3d90fd5b5f80610127610141565b368280378136915af43d5f803e1561013d573d5ff35b3d5ffd5b7fa3f0ad74e5423aebfd80d3ef4346578335a9a72aeaee59ff6cb3582b35133d5054604051635c60da1b60e01b815290602090829060049082906001600160a01b03165afa9081156100d7575f91610197575090565b90506020813d6020116101ce575b816101b2602093836100dc565b810103126100cb57516001600160a01b03811681036100cb5790565b3d91506101a556fea26469706673582212206ee762e682717726e2a88d1f11d5d6c4b60618285602632bd45443440f6accef64736f6c634300081c0033000000000000000000000000cd87972d278d7ce7a2b83415af963671cc0b82ba"
        }
      ],
      "isFixedGasLimit": false
    },
    {
      "hash": "0xa6c9a1409df1dbdcd3d24413dc945193cca9b5e982af678145069baa8c7de585",
      "transactionType": "CALL",
      "contractName": null,
      "contractAddress": "0x5672f3b4ce39126d6ff8080ac2377f6a2413c6bb",
      "function": "createVaultCollection(string,string,uint8)",
      "arguments": [
        "Emblem Open",
        "OPEN",
        "1"
      ],
      "transaction": {
        "from": "0xa99526e4dc81b85c1d248ca974eadce81837ecf1",
        "to": "0x5672f3b4ce39126d6ff8080ac2377f6a2413c6bb",
        "gas": "0x89c40",
        "value": "0x0",
        "input": "0xa8008080000000000000000000000000000000000000000000000000000000000000006000000000000000000000000000000000000000000000000000000000000000a00000000000000000000000000000000000000000000000000000000000000001000000000000000000000000000000000000000000000000000000000000000b456d626c656d204f70656e00000000000000000000000000000000000000000000000000000000000000000000000000000000000000000000000000000000044f50454e00000000000000000000000000000000000000000000000000000000",
        "nonce": "0x29",
        "chainId": "0x1068"
      },
      "additionalContracts": [
        {
          "transactionType": "CREATE",
          "address": "0x32e0db32f7cae22cc8113162f1e0c0911431f4ac",
          "initCode": "0x60803460b757601f6102dc38819003918201601f19168301916001600160401b0383118484101760bb5780849260209460405283398101031260b757516001600160a01b0381169081810360b757811560a8577fa3f0ad74e5423aebfd80d3ef4346578335a9a72aeaee59ff6cb3582b35133d5055604051907f367184f1bb13aa656fb065e5e2b1104b30f71206d03961639cac77f3a6b331765f80a261020c90816100d08239f35b63d92e233d60e01b5f5260045ffd5b5f80fd5b634e487b7160e01b5f52604160045260245ffdfe60806040526004361015610015575b3661011d57005b5f3560e01c6301ffc9a70361000e57346100cb5760203660031901126100cb5760043563ffffffff60e01b81168091036100cb5760206001600160a01b0361005b610141565b16916024604051809481936301ffc9a760e01b835260048301525afa80156100d7575f90610096575b604051901515815280602081015b0390f35b506020813d6020116100cf575b816100b0602093836100dc565b810103126100cb575180151581036100cb5761009290610084565b5f80fd5b3d91506100a3565b610112565b90601f8019910116810190811067ffffffffffffffff8211176100fe57604052565b634e487b7160e01b5f52604160045260245ffd5b6040513d5f823e3d90fd5b5f80610127610141565b368280378136915af43d5f803e1561013d573d5ff35b3d5ffd5b7fa3f0ad74e5423aebfd80d3ef4346578335a9a72aeaee59ff6cb3582b35133d5054604051635c60da1b60e01b815290602090829060049082906001600160a01b03165afa9081156100d7575f91610197575090565b90506020813d6020116101ce575b816101b2602093836100dc565b810103126100cb57516001600160a01b03811681036100cb5790565b3d91506101a556fea26469706673582212206ee762e682717726e2a88d1f11d5d6c4b60618285602632bd45443440f6accef64736f6c634300081c0033000000000000000000000000cd87972d278d7ce7a2b83415af963671cc0b82ba"
        }
      ],
      "isFixedGasLimit": false
    },
    {
      "hash": "0x651d644b268318bfd6902e7928215fe6535a1893b2721b374c2faad7f706ecd6",
      "transactionType": "CALL",
      "contractName": null,
      "contractAddress": "0x5672f3b4ce39126d6ff8080ac2377f6a2413c6bb",
      "function": "setCollectionURI(address,string)",
      "arguments": [
        "0xe8fD668fc35b51942d64b0b690e89d0A82E56095",
        "https://v2.emblemvault.io/v3/meta/0xe8fD668fc35b51942d64b0b690e89d0A82E56095/"
      ],
      "transaction": {
        "from": "0xa99526e4dc81b85c1d248ca974eadce81837ecf1",
        "to": "0x5672f3b4ce39126d6ff8080ac2377f6a2413c6bb",
        "gas": "0x2f1e2",
        "value": "0x0",
        "input": "0x23f019fd000000000000000000000000e8fd668fc35b51942d64b0b690e89d0a82e560950000000000000000000000000000000000000000000000000000000000000040000000000000000000000000000000000000000000000000000000000000004d68747470733a2f2f76322e656d626c656d7661756c742e696f2f76332f6d6574612f3078653866443636386663333562353139343264363462306236393065383964304138324535363039352f00000000000000000000000000000000000000",
        "nonce": "0x2a",
        "chainId": "0x1068"
      },
      "additionalContracts": [],
      "isFixedGasLimit": false
    },
    {
      "hash": "0xd2b369e518f9a7398da61c140acbee80ce394a3154c9c2a58d3a2c5d4646f262",
      "transactionType": "CALL",
      "contractName": null,
      "contractAddress": "0x5672f3b4ce39126d6ff8080ac2377f6a2413c6bb",
      "function": "setCollectionURI(address,string)",
      "arguments": [
        "0x7c2717244471E7A6Bb8035Dfb9fcAE47d8743B76",
        "https://v2.emblemvault.io/v3/meta/0x7c2717244471E7A6Bb8035Dfb9fcAE47d8743B76/"
      ],
      "transaction": {
        "from": "0xa99526e4dc81b85c1d248ca974eadce81837ecf1",
        "to": "0x5672f3b4ce39126d6ff8080ac2377f6a2413c6bb",
        "gas": "0x2f1e2",
        "value": "0x0",
        "input": "0x23f019fd0000000000000000000000007c2717244471e7a6bb8035dfb9fcae47d8743b760000000000000000000000000000000000000000000000000000000000000040000000000000000000000000000000000000000000000000000000000000004d68747470733a2f2f76322e656d626c656d7661756c742e696f2f76332f6d6574612f3078376332373137323434343731453741364262383033354466623966634145343764383734334237362f00000000000000000000000000000000000000",
        "nonce": "0x2b",
        "chainId": "0x1068"
      },
      "additionalContracts": [],
      "isFixedGasLimit": false
    },
    {
      "hash": "0x302fc18e2ade6f76009e47420405daa90e278d8d4235af310b8fef995126fc9e",
      "transactionType": "CALL",
      "contractName": null,
      "contractAddress": "0x5672f3b4ce39126d6ff8080ac2377f6a2413c6bb",
      "function": "setCollectionURI(address,string)",
      "arguments": [
        "0xEfa60F6B6eCC6d954Cf1a790a46De68693aDE808",
        "https://v2.emblemvault.io/v3/meta/0xEfa60F6B6eCC6d954Cf1a790a46De68693aDE808/"
      ],
      "transaction": {
        "from": "0xa99526e4dc81b85c1d248ca974eadce81837ecf1",
        "to": "0x5672f3b4ce39126d6ff8080ac2377f6a2413c6bb",
        "gas": "0x2f1e2",
        "value": "0x0",
        "input": "0x23f019fd000000000000000000000000efa60f6b6ecc6d954cf1a790a46de68693ade8080000000000000000000000000000000000000000000000000000000000000040000000000000000000000000000000000000000000000000000000000000004d68747470733a2f2f76322e656d626c656d7661756c742e696f2f76332f6d6574612f3078456661363046364236654343366439353443663161373930613436446536383639336144453830382f00000000000000000000000000000000000000",
        "nonce": "0x2c",
        "chainId": "0x1068"
      },
      "additionalContracts": [],
      "isFixedGasLimit": false
    },
    {
      "hash": "0xd00c60a12a848ba0e83fa53ebab34762f083ef4bd232229fd4bd76d0244f8cd1",
      "transactionType": "CALL",
      "contractName": null,
      "contractAddress": "0x5672f3b4ce39126d6ff8080ac2377f6a2413c6bb",
      "function": "setCollectionBaseURI(address,string)",
      "arguments": [
        "0x3F80589F88AE11Df8d51Ba6685cE7F5a72f91aeA",
        "https://v2.emblemvault.io/v3/meta/0x3F80589F88AE11Df8d51Ba6685cE7F5a72f91aeA/"
      ],
      "transaction": {
        "from": "0xa99526e4dc81b85c1d248ca974eadce81837ecf1",
        "to": "0x5672f3b4ce39126d6ff8080ac2377f6a2413c6bb",
        "gas": "0x2f388",
        "value": "0x0",
        "input": "0x80aed2a90000000000000000000000003f80589f88ae11df8d51ba6685ce7f5a72f91aea0000000000000000000000000000000000000000000000000000000000000040000000000000000000000000000000000000000000000000000000000000004d68747470733a2f2f76322e656d626c656d7661756c742e696f2f76332f6d6574612f3078334638303538394638384145313144663864353142613636383563453746356137326639316165412f00000000000000000000000000000000000000",
        "nonce": "0x2d",
        "chainId": "0x1068"
      },
      "additionalContracts": [],
      "isFixedGasLimit": false
    },
    {
      "hash": "0xd541c9648eff3a3b974c7b9f6b7dd7d7cf19b98cfc119539dff7312810c5ad23",
      "transactionType": "CALL",
      "contractName": null,
      "contractAddress": "0x5672f3b4ce39126d6ff8080ac2377f6a2413c6bb",
      "function": "setCollectionBaseURI(address,string)",
      "arguments": [
        "0x32E0db32f7CAe22CC8113162f1E0c0911431f4AC",
        "https://v2.emblemvault.io/v3/meta/0x32E0db32f7CAe22CC8113162f1E0c0911431f4AC/"
      ],
      "transaction": {
        "from": "0xa99526e4dc81b85c1d248ca974eadce81837ecf1",
        "to": "0x5672f3b4ce39126d6ff8080ac2377f6a2413c6bb",
        "gas": "0x2f388",
        "value": "0x0",
        "input": "0x80aed2a900000000000000000000000032e0db32f7cae22cc8113162f1e0c0911431f4ac0000000000000000000000000000000000000000000000000000000000000040000000000000000000000000000000000000000000000000000000000000004d68747470733a2f2f76322e656d626c656d7661756c742e696f2f76332f6d6574612f3078333245306462333266374341653232434338313133313632663145306330393131343331663441432f00000000000000000000000000000000000000",
        "nonce": "0x2e",
        "chainId": "0x1068"
      },
      "additionalContracts": [],
      "isFixedGasLimit": false
    }
  ],
  "receipts": [
    {
      "status": "0x1",
      "cumulativeGasUsed": "0x4d21f",
      "logs": [
        {
          "address": "0xe8fd668fc35b51942d64b0b690e89d0a82e56095",
          "topics": [
            "0x367184f1bb13aa656fb065e5e2b1104b30f71206d03961639cac77f3a6b33176",
            "0x0000000000000000000000003b6f613f16c5b3c696ba1826bd2d3583258ca76c"
          ],
          "data": "0x",
          "blockHash": "0x536adde2d7413f9222ee5ad75c048eda940eb76926ac7d7439acf592a4ef1554",
          "blockNumber": "0x12c7741",
          "transactionHash": "0x90d184b8582eb1d830ffbff4829e9fea1a142438bec9b235d8f0a72929925c85",
          "transactionIndex": "0x0",
          "logIndex": "0x0",
          "removed": false
        },
        {
          "address": "0xe8fd668fc35b51942d64b0b690e89d0a82e56095",
          "topics": [
            "0x8be0079c531659141344cd1fd0a4f28419497f9722a3daafe3b4186f6b6457e0",
            "0x0000000000000000000000000000000000000000000000000000000000000000",
            "0x000000000000000000000000d2de6b8cbf23cff0e62e18c9aefda12ed0c0cb2d"
          ],
          "data": "0x",
          "blockHash": "0x536adde2d7413f9222ee5ad75c048eda940eb76926ac7d7439acf592a4ef1554",
          "blockNumber": "0x12c7741",
          "transactionHash": "0x90d184b8582eb1d830ffbff4829e9fea1a142438bec9b235d8f0a72929925c85",
          "transactionIndex": "0x0",
          "logIndex": "0x1",
          "removed": false
        },
        {
          "address": "0xe8fd668fc35b51942d64b0b690e89d0a82e56095",
          "topics": [
            "0xc7f505b2f371ae2175ee4913f4499e1f2633a7b5936321eed1cdaeb6115181d2"
          ],
          "data": "0x0000000000000000000000000000000000000000000000000000000000000001",
          "blockHash": "0x536adde2d7413f9222ee5ad75c048eda940eb76926ac7d7439acf592a4ef1554",
          "blockNumber": "0x12c7741",
          "transactionHash": "0x90d184b8582eb1d830ffbff4829e9fea1a142438bec9b235d8f0a72929925c85",
          "transactionIndex": "0x0",
          "logIndex": "0x2",
          "removed": false
        },
        {
          "address": "0xe8fd668fc35b51942d64b0b690e89d0a82e56095",
          "topics": [
            "0x8be0079c531659141344cd1fd0a4f28419497f9722a3daafe3b4186f6b6457e0",
            "0x000000000000000000000000d2de6b8cbf23cff0e62e18c9aefda12ed0c0cb2d",
            "0x000000000000000000000000a99526e4dc81b85c1d248ca974eadce81837ecf1"
          ],
          "data": "0x",
          "blockHash": "0x536adde2d7413f9222ee5ad75c048eda940eb76926ac7d7439acf592a4ef1554",
          "blockNumber": "0x12c7741",
          "transactionHash": "0x90d184b8582eb1d830ffbff4829e9fea1a142438bec9b235d8f0a72929925c85",
          "transactionIndex": "0x0",
          "logIndex": "0x3",
          "removed": false
        },
        {
          "address": "0xd2de6b8cbf23cff0e62e18c9aefda12ed0c0cb2d",
          "topics": [
            "0x171ccc46ca30ce15b8e391d7e1db8cf7644ed26a313b10df70a92b13da343541",
            "0x000000000000000000000000e8fd668fc35b51942d64b0b690e89d0a82e56095",
            "0x000000000000000000000000a99526e4dc81b85c1d248ca974eadce81837ecf1"
          ],
          "data": "0x",
          "blockHash": "0x536adde2d7413f9222ee5ad75c048eda940eb76926ac7d7439acf592a4ef1554",
          "blockNumber": "0x12c7741",
          "transactionHash": "0x90d184b8582eb1d830ffbff4829e9fea1a142438bec9b235d8f0a72929925c85",
          "transactionIndex": "0x0",
          "logIndex": "0x4",
          "removed": false
        },
        {
          "address": "0xd2de6b8cbf23cff0e62e18c9aefda12ed0c0cb2d",
          "topics": [
            "0x2229e9930d25a4974976f5fb5461a33fcd0fefa19393ad50af745b5fa4ccce8b",
            "0x000000000000000000000000e8fd668fc35b51942d64b0b690e89d0a82e56095"
          ],
          "data": "0x000000000000000000000000000000000000000000000000000000000000002000000000000000000000000000000000000000000000000000000000000000045045504500000000000000000000000000000000000000000000000000000000",
          "blockHash": "0x536adde2d7413f9222ee5ad75c048eda940eb76926ac7d7439acf592a4ef1554",
          "blockNumber": "0x12c7741",
          "transactionHash": "0x90d184b8582eb1d830ffbff4829e9fea1a142438bec9b235d8f0a72929925c85",
          "transactionIndex": "0x0",
          "logIndex": "0x5",
          "removed": false
        },
        {
          "address": "0x5672f3b4ce39126d6ff8080ac2377f6a2413c6bb",
          "topics": [
            "0x5902eed5cd330f690551c9c5095eacb178efeaf6896420b9473fa373b2313f1a",
            "0x000000000000000000000000e8fd668fc35b51942d64b0b690e89d0a82e56095",
            "0x0000000000000000000000000000000000000000000000000000000000000002"
          ],
          "data": "0x000000000000000000000000000000000000000000000000000000000000002000000000000000000000000000000000000000000000000000000000000000095261726520506570650000000000000000000000000000000000000000000000",
          "blockHash": "0x536adde2d7413f9222ee5ad75c048eda940eb76926ac7d7439acf592a4ef1554",
          "blockNumber": "0x12c7741",
          "transactionHash": "0x90d184b8582eb1d830ffbff4829e9fea1a142438bec9b235d8f0a72929925c85",
          "transactionIndex": "0x0",
          "logIndex": "0x6",
          "removed": false
        }
      ],
      "logsBloom": "0x04000000000000000000000000000080000000000000010000810000000000004000000000000000000000000000000400000000000000000000004000000000002000000000800000000400000000000101200000000000000000000000000000000000020000000000000000000800000000000000000000000000010000408000000000000001000800004008000000002000000080000000100014000000000000000000000140000140000000000800000000000000003000000000000000001000004400000001000000000000000000000004000000000000000020000000000000000000000000000080000000000000008000800000000000400000",
      "type": "0x0",
      "transactionHash": "0x90d184b8582eb1d830ffbff4829e9fea1a142438bec9b235d8f0a72929925c85",
      "transactionIndex": "0x0",
      "blockHash": "0x536adde2d7413f9222ee5ad75c048eda940eb76926ac7d7439acf592a4ef1554",
      "blockNumber": "0x12c7741",
      "gasUsed": "0x4d21f",
      "effectiveGasPrice": "0x5b8d80",
      "from": "0xa99526e4dc81b85c1d248ca974eadce81837ecf1",
      "to": "0x5672f3b4ce39126d6ff8080ac2377f6a2413c6bb",
      "contractAddress": null
    },
    {
      "status": "0x1",
      "cumulativeGasUsed": "0x9a492",
      "logs": [
        {
          "address": "0x7c2717244471e7a6bb8035dfb9fcae47d8743b76",
          "topics": [
            "0x367184f1bb13aa656fb065e5e2b1104b30f71206d03961639cac77f3a6b33176",
            "0x0000000000000000000000003b6f613f16c5b3c696ba1826bd2d3583258ca76c"
          ],
          "data": "0x",
          "blockHash": "0x536adde2d7413f9222ee5ad75c048eda940eb76926ac7d7439acf592a4ef1554",
          "blockNumber": "0x12c7741",
          "transactionHash": "0x967065980b117a54c027bca75fe8782f667f90c193693e5aea32da69e052af20",
          "transactionIndex": "0x1",
          "logIndex": "0x7",
          "removed": false
        },
        {
          "address": "0x7c2717244471e7a6bb8035dfb9fcae47d8743b76",
          "topics": [
            "0x8be0079c531659141344cd1fd0a4f28419497f9722a3daafe3b4186f6b6457e0",
            "0x0000000000000000000000000000000000000000000000000000000000000000",
            "0x000000000000000000000000d2de6b8cbf23cff0e62e18c9aefda12ed0c0cb2d"
          ],
          "data": "0x",
          "blockHash": "0x536adde2d7413f9222ee5ad75c048eda940eb76926ac7d7439acf592a4ef1554",
          "blockNumber": "0x12c7741",
          "transactionHash": "0x967065980b117a54c027bca75fe8782f667f90c193693e5aea32da69e052af20",
          "transactionIndex": "0x1",
          "logIndex": "0x8",
          "removed": false
        },
        {
          "address": "0x7c2717244471e7a6bb8035dfb9fcae47d8743b76",
          "topics": [
            "0xc7f505b2f371ae2175ee4913f4499e1f2633a7b5936321eed1cdaeb6115181d2"
          ],
          "data": "0x0000000000000000000000000000000000000000000000000000000000000001",
          "blockHash": "0x536adde2d7413f9222ee5ad75c048eda940eb76926ac7d7439acf592a4ef1554",
          "blockNumber": "0x12c7741",
          "transactionHash": "0x967065980b117a54c027bca75fe8782f667f90c193693e5aea32da69e052af20",
          "transactionIndex": "0x1",
          "logIndex": "0x9",
          "removed": false
        },
        {
          "address": "0x7c2717244471e7a6bb8035dfb9fcae47d8743b76",
          "topics": [
            "0x8be0079c531659141344cd1fd0a4f28419497f9722a3daafe3b4186f6b6457e0",
            "0x000000000000000000000000d2de6b8cbf23cff0e62e18c9aefda12ed0c0cb2d",
            "0x000000000000000000000000a99526e4dc81b85c1d248ca974eadce81837ecf1"
          ],
          "data": "0x",
          "blockHash": "0x536adde2d7413f9222ee5ad75c048eda940eb76926ac7d7439acf592a4ef1554",
          "blockNumber": "0x12c7741",
          "transactionHash": "0x967065980b117a54c027bca75fe8782f667f90c193693e5aea32da69e052af20",
          "transactionIndex": "0x1",
          "logIndex": "0xa",
          "removed": false
        },
        {
          "address": "0xd2de6b8cbf23cff0e62e18c9aefda12ed0c0cb2d",
          "topics": [
            "0x171ccc46ca30ce15b8e391d7e1db8cf7644ed26a313b10df70a92b13da343541",
            "0x0000000000000000000000007c2717244471e7a6bb8035dfb9fcae47d8743b76",
            "0x000000000000000000000000a99526e4dc81b85c1d248ca974eadce81837ecf1"
          ],
          "data": "0x",
          "blockHash": "0x536adde2d7413f9222ee5ad75c048eda940eb76926ac7d7439acf592a4ef1554",
          "blockNumber": "0x12c7741",
          "transactionHash": "0x967065980b117a54c027bca75fe8782f667f90c193693e5aea32da69e052af20",
          "transactionIndex": "0x1",
          "logIndex": "0xb",
          "removed": false
        },
        {
          "address": "0xd2de6b8cbf23cff0e62e18c9aefda12ed0c0cb2d",
          "topics": [
            "0x2229e9930d25a4974976f5fb5461a33fcd0fefa19393ad50af745b5fa4ccce8b",
            "0x0000000000000000000000007c2717244471e7a6bb8035dfb9fcae47d8743b76"
          ],
          "data": "0x00000000000000000000000000000000000000000000000000000000000000200000000000000000000000000000000000000000000000000000000000000003534f470000000000000000000000000000000000000000000000000000000000",
          "blockHash": "0x536adde2d7413f9222ee5ad75c048eda940eb76926ac7d7439acf592a4ef1554",
          "blockNumber": "0x12c7741",
          "transactionHash": "0x967065980b117a54c027bca75fe8782f667f90c193693e5aea32da69e052af20",
          "transactionIndex": "0x1",
          "logIndex": "0xc",
          "removed": false
        },
        {
          "address": "0x5672f3b4ce39126d6ff8080ac2377f6a2413c6bb",
          "topics": [
            "0x5902eed5cd330f690551c9c5095eacb178efeaf6896420b9473fa373b2313f1a",
            "0x0000000000000000000000007c2717244471e7a6bb8035dfb9fcae47d8743b76",
            "0x0000000000000000000000000000000000000000000000000000000000000002"
          ],
          "data": "0x000000000000000000000000000000000000000000000000000000000000002000000000000000000000000000000000000000000000000000000000000000115370656c6c73206f662047656e65736973000000000000000000000000000000",
          "blockHash": "0x536adde2d7413f9222ee5ad75c048eda940eb76926ac7d7439acf592a4ef1554",
          "blockNumber": "0x12c7741",
          "transactionHash": "0x967065980b117a54c027bca75fe8782f667f90c193693e5aea32da69e052af20",
          "transactionIndex": "0x1",
          "logIndex": "0xd",
          "removed": false
        }
      ],
      "logsBloom": "0x04000000000000000000000000000000000000000000000000800000000000004000000000000000000000000000000400000000000000000000004000004010002000000000800000000400000000000101200000000000001000000000000000000000020000000000000000000800000000000000000000000000010000408000000000000001000800004000000000002000000080000000100014000000080000000000000140000140000000010840000000000000003000000000000000000000004400000000000000000000000000000004000000000000000020000000000000000000000000000080000000000000008000800000000000400000",
      "type": "0x0",
      "transactionHash": "0x967065980b117a54c027bca75fe8782f667f90c193693e5aea32da69e052af20",
      "transactionIndex": "0x1",
      "blockHash": "0x536adde2d7413f9222ee5ad75c048eda940eb76926ac7d7439acf592a4ef1554",
      "blockNumber": "0x12c7741",
      "gasUsed": "0x4d273",
      "effectiveGasPrice": "0x5b8d80",
      "from": "0xa99526e4dc81b85c1d248ca974eadce81837ecf1",
      "to": "0x5672f3b4ce39126d6ff8080ac2377f6a2413c6bb",
      "contractAddress": null
    },
    {
      "status": "0x1",
      "cumulativeGasUsed": "0xe76bd",
      "logs": [
        {
          "address": "0xefa60f6b6ecc6d954cf1a790a46de68693ade808",
          "topics": [
            "0x367184f1bb13aa656fb065e5e2b1104b30f71206d03961639cac77f3a6b33176",
            "0x0000000000000000000000003b6f613f16c5b3c696ba1826bd2d3583258ca76c"
          ],
          "data": "0x",
          "blockHash": "0x536adde2d7413f9222ee5ad75c048eda940eb76926ac7d7439acf592a4ef1554",
          "blockNumber": "0x12c7741",
          "transactionHash": "0xb7296b616e0bdc01197c2ac73dad297402b143c382fd3f2ead5ee5b6e01e26c8",
          "transactionIndex": "0x2",
          "logIndex": "0xe",
          "removed": false
        },
        {
          "address": "0xefa60f6b6ecc6d954cf1a790a46de68693ade808",
          "topics": [
            "0x8be0079c531659141344cd1fd0a4f28419497f9722a3daafe3b4186f6b6457e0",
            "0x0000000000000000000000000000000000000000000000000000000000000000",
            "0x000000000000000000000000d2de6b8cbf23cff0e62e18c9aefda12ed0c0cb2d"
          ],
          "data": "0x",
          "blockHash": "0x536adde2d7413f9222ee5ad75c048eda940eb76926ac7d7439acf592a4ef1554",
          "blockNumber": "0x12c7741",
          "transactionHash": "0xb7296b616e0bdc01197c2ac73dad297402b143c382fd3f2ead5ee5b6e01e26c8",
          "transactionIndex": "0x2",
          "logIndex": "0xf",
          "removed": false
        },
        {
          "address": "0xefa60f6b6ecc6d954cf1a790a46de68693ade808",
          "topics": [
            "0xc7f505b2f371ae2175ee4913f4499e1f2633a7b5936321eed1cdaeb6115181d2"
          ],
          "data": "0x0000000000000000000000000000000000000000000000000000000000000001",
          "blockHash": "0x536adde2d7413f9222ee5ad75c048eda940eb76926ac7d7439acf592a4ef1554",
          "blockNumber": "0x12c7741",
          "transactionHash": "0xb7296b616e0bdc01197c2ac73dad297402b143c382fd3f2ead5ee5b6e01e26c8",
          "transactionIndex": "0x2",
          "logIndex": "0x10",
          "removed": false
        },
        {
          "address": "0xefa60f6b6ecc6d954cf1a790a46de68693ade808",
          "topics": [
            "0x8be0079c531659141344cd1fd0a4f28419497f9722a3daafe3b4186f6b6457e0",
            "0x000000000000000000000000d2de6b8cbf23cff0e62e18c9aefda12ed0c0cb2d",
            "0x000000000000000000000000a99526e4dc81b85c1d248ca974eadce81837ecf1"
          ],
          "data": "0x",
          "blockHash": "0x536adde2d7413f9222ee5ad75c048eda940eb76926ac7d7439acf592a4ef1554",
          "blockNumber": "0x12c7741",
          "transactionHash": "0xb7296b616e0bdc01197c2ac73dad297402b143c382fd3f2ead5ee5b6e01e26c8",
          "transactionIndex": "0x2",
          "logIndex": "0x11",
          "removed": false
        },
        {
          "address": "0xd2de6b8cbf23cff0e62e18c9aefda12ed0c0cb2d",
          "topics": [
            "0x171ccc46ca30ce15b8e391d7e1db8cf7644ed26a313b10df70a92b13da343541",
            "0x000000000000000000000000efa60f6b6ecc6d954cf1a790a46de68693ade808",
            "0x000000000000000000000000a99526e4dc81b85c1d248ca974eadce81837ecf1"
          ],
          "data": "0x",
          "blockHash": "0x536adde2d7413f9222ee5ad75c048eda940eb76926ac7d7439acf592a4ef1554",
          "blockNumber": "0x12c7741",
          "transactionHash": "0xb7296b616e0bdc01197c2ac73dad297402b143c382fd3f2ead5ee5b6e01e26c8",
          "transactionIndex": "0x2",
          "logIndex": "0x12",
          "removed": false
        },
        {
          "address": "0xd2de6b8cbf23cff0e62e18c9aefda12ed0c0cb2d",
          "topics": [
            "0x2229e9930d25a4974976f5fb5461a33fcd0fefa19393ad50af745b5fa4ccce8b",
            "0x000000000000000000000000efa60f6b6ecc6d954cf1a790a46de68693ade808"
          ],
          "data": "0x0000000000000000000000000000000000000000000000000000000000000020000000000000000000000000000000000000000000000000000000000000000446414b4500000000000000000000000000000000000000000000000000000000",
          "blockHash": "0x536adde2d7413f9222ee5ad75c048eda940eb76926ac7d7439acf592a4ef1554",
          "blockNumber": "0x12c7741",
          "transactionHash": "0xb7296b616e0bdc01197c2ac73dad297402b143c382fd3f2ead5ee5b6e01e26c8",
          "transactionIndex": "0x2",
          "logIndex": "0x13",
          "removed": false
        },
        {
          "address": "0x5672f3b4ce39126d6ff8080ac2377f6a2413c6bb",
          "topics": [
            "0x5902eed5cd330f690551c9c5095eacb178efeaf6896420b9473fa373b2313f1a",
            "0x000000000000000000000000efa60f6b6ecc6d954cf1a790a46de68693ade808",
            "0x0000000000000000000000000000000000000000000000000000000000000002"
          ],
          "data": "0x0000000000000000000000000000000000000000000000000000000000000020000000000000000000000000000000000000000000000000000000000000000a46616b6520526172657300000000000000000000000000000000000000000000",
          "blockHash": "0x536adde2d7413f9222ee5ad75c048eda940eb76926ac7d7439acf592a4ef1554",
          "blockNumber": "0x12c7741",
          "transactionHash": "0xb7296b616e0bdc01197c2ac73dad297402b143c382fd3f2ead5ee5b6e01e26c8",
          "transactionIndex": "0x2",
          "logIndex": "0x14",
          "removed": false
        }
      ],
      "logsBloom": "0x04000000000000000000000000000000000000000000008000800000000000004000000000000000000000000000000400000000000000000000044000000000002008000000800000000400000000000101208000000000000000000000000000000000020000000000000000000800000000000000000000000000010000408000000000000001000800004000000000002000000080000000100014000000000000000000000140000140000000000800000000000000003000000000000000000000004400000000000000020000000000000004000000000000000020000000000000000000000000000080000000000000008000800000000000440000",
      "type": "0x0",
      "transactionHash": "0xb7296b616e0bdc01197c2ac73dad297402b143c382fd3f2ead5ee5b6e01e26c8",
      "transactionIndex": "0x2",
      "blockHash": "0x536adde2d7413f9222ee5ad75c048eda940eb76926ac7d7439acf592a4ef1554",
      "blockNumber": "0x12c7741",
      "gasUsed": "0x4d22b",
      "effectiveGasPrice": "0x5b8d80",
      "from": "0xa99526e4dc81b85c1d248ca974eadce81837ecf1",
      "to": "0x5672f3b4ce39126d6ff8080ac2377f6a2413c6bb",
      "contractAddress": null
    },
    {
      "status": "0x1",
      "cumulativeGasUsed": "0x154abc",
      "logs": [
        {
          "address": "0x3f80589f88ae11df8d51ba6685ce7f5a72f91aea",
          "topics": [
            "0x367184f1bb13aa656fb065e5e2b1104b30f71206d03961639cac77f3a6b33176",
            "0x000000000000000000000000cd87972d278d7ce7a2b83415af963671cc0b82ba"
          ],
          "data": "0x",
          "blockHash": "0x536adde2d7413f9222ee5ad75c048eda940eb76926ac7d7439acf592a4ef1554",
          "blockNumber": "0x12c7741",
          "transactionHash": "0xa5ab2f0fc60c9392a820047b3f1c922e66581c31b405b00e033968e2cb1e5446",
          "transactionIndex": "0x4",
          "logIndex": "0x16",
          "removed": false
        },
        {
          "address": "0x3f80589f88ae11df8d51ba6685ce7f5a72f91aea",
          "topics": [
            "0x8be0079c531659141344cd1fd0a4f28419497f9722a3daafe3b4186f6b6457e0",
            "0x0000000000000000000000000000000000000000000000000000000000000000",
            "0x000000000000000000000000d2de6b8cbf23cff0e62e18c9aefda12ed0c0cb2d"
          ],
          "data": "0x",
          "blockHash": "0x536adde2d7413f9222ee5ad75c048eda940eb76926ac7d7439acf592a4ef1554",
          "blockNumber": "0x12c7741",
          "transactionHash": "0xa5ab2f0fc60c9392a820047b3f1c922e66581c31b405b00e033968e2cb1e5446",
          "transactionIndex": "0x4",
          "logIndex": "0x17",
          "removed": false
        },
        {
          "address": "0x3f80589f88ae11df8d51ba6685ce7f5a72f91aea",
          "topics": [
            "0xc7f505b2f371ae2175ee4913f4499e1f2633a7b5936321eed1cdaeb6115181d2"
          ],
          "data": "0x0000000000000000000000000000000000000000000000000000000000000001",
          "blockHash": "0x536adde2d7413f9222ee5ad75c048eda940eb76926ac7d7439acf592a4ef1554",
          "blockNumber": "0x12c7741",
          "transactionHash": "0xa5ab2f0fc60c9392a820047b3f1c922e66581c31b405b00e033968e2cb1e5446",
          "transactionIndex": "0x4",
          "logIndex": "0x18",
          "removed": false
        },
        {
          "address": "0x3f80589f88ae11df8d51ba6685ce7f5a72f91aea",
          "topics": [
            "0x8be0079c531659141344cd1fd0a4f28419497f9722a3daafe3b4186f6b6457e0",
            "0x000000000000000000000000d2de6b8cbf23cff0e62e18c9aefda12ed0c0cb2d",
            "0x000000000000000000000000a99526e4dc81b85c1d248ca974eadce81837ecf1"
          ],
          "data": "0x",
          "blockHash": "0x536adde2d7413f9222ee5ad75c048eda940eb76926ac7d7439acf592a4ef1554",
          "blockNumber": "0x12c7741",
          "transactionHash": "0xa5ab2f0fc60c9392a820047b3f1c922e66581c31b405b00e033968e2cb1e5446",
          "transactionIndex": "0x4",
          "logIndex": "0x19",
          "removed": false
        },
        {
          "address": "0xd2de6b8cbf23cff0e62e18c9aefda12ed0c0cb2d",
          "topics": [
            "0x171ccc46ca30ce15b8e391d7e1db8cf7644ed26a313b10df70a92b13da343541",
            "0x0000000000000000000000003f80589f88ae11df8d51ba6685ce7f5a72f91aea",
            "0x000000000000000000000000a99526e4dc81b85c1d248ca974eadce81837ecf1"
          ],
          "data": "0x",
          "blockHash": "0x536adde2d7413f9222ee5ad75c048eda940eb76926ac7d7439acf592a4ef1554",
          "blockNumber": "0x12c7741",
          "transactionHash": "0xa5ab2f0fc60c9392a820047b3f1c922e66581c31b405b00e033968e2cb1e5446",
          "transactionIndex": "0x4",
          "logIndex": "0x1a",
          "removed": false
        },
        {
          "address": "0xd2de6b8cbf23cff0e62e18c9aefda12ed0c0cb2d",
          "topics": [
            "0xc235116ab1fd2ce09ba4690b74e2e7782ddf6f4a49eda5a12e0c320f7c65ccd6",
            "0x0000000000000000000000003f80589f88ae11df8d51ba6685ce7f5a72f91aea"
          ],
          "data": "0x000000000000000000000000000000000000000000000000000000000000004000000000000000000000000000000000000000000000000000000000000000800000000000000000000000000000000000000000000000000000000000000007456d42656c6c7300000000000000000000000000000000000000000000000000000000000000000000000000000000000000000000000000000000000000000442454c4c00000000000000000000000000000000000000000000000000000000",
          "blockHash": "0x536adde2d7413f9222ee5ad75c048eda940eb76926ac7d7439acf592a4ef1554",
          "blockNumber": "0x12c7741",
          "transactionHash": "0xa5ab2f0fc60c9392a820047b3f1c922e66581c31b405b00e033968e2cb1e5446",
          "transactionIndex": "0x4",
          "logIndex": "0x1b",
          "removed": false
        },
        {
          "address": "0x5672f3b4ce39126d6ff8080ac2377f6a2413c6bb",
          "topics": [
            "0x5902eed5cd330f690551c9c5095eacb178efeaf6896420b9473fa373b2313f1a",
            "0x0000000000000000000000003f80589f88ae11df8d51ba6685ce7f5a72f91aea",
            "0x0000000000000000000000000000000000000000000000000000000000000001"
          ],
          "data": "0x00000000000000000000000000000000000000000000000000000000000000200000000000000000000000000000000000000000000000000000000000000007456d42656c6c7300000000000000000000000000000000000000000000000000",
          "blockHash": "0x536adde2d7413f9222ee5ad75c048eda940eb76926ac7d7439acf592a4ef1554",
          "blockNumber": "0x12c7741",
          "transactionHash": "0xa5ab2f0fc60c9392a820047b3f1c922e66581c31b405b00e033968e2cb1e5446",
          "transactionIndex": "0x4",
          "logIndex": "0x1c",
          "removed": false
        }
      ],
      "logsBloom": "0x0000000000000008000000000010000000000000000000000080000000000080401000000000000000000000000000000000000000000000000000400004000000a000000000800000000400000000000101000000041000000000000000000020000000020000000000000000000800000000000000000000000000010000408000000000000001000800004000000000002000000080000000100004000000010000000000000140000040000000000000000000000000001000000000000000000000004000000000080000000000000010000004000000000000000060000000002000000400000000000080000000000000000000800000000000400000",
      "type": "0x0",
      "transactionHash": "0xa5ab2f0fc60c9392a820047b3f1c922e66581c31b405b00e033968e2cb1e5446",
      "transactionIndex": "0x4",
      "blockHash": "0x536adde2d7413f9222ee5ad75c048eda940eb76926ac7d7439acf592a4ef1554",
      "blockNumber": "0x12c7741",
      "gasUsed": "0x63b77",
      "effectiveGasPrice": "0x5b8d80",
      "from": "0xa99526e4dc81b85c1d248ca974eadce81837ecf1",
      "to": "0x5672f3b4ce39126d6ff8080ac2377f6a2413c6bb",
      "contractAddress": null
    },
    {
      "status": "0x1",
      "cumulativeGasUsed": "0x1b8663",
      "logs": [
        {
          "address": "0x32e0db32f7cae22cc8113162f1e0c0911431f4ac",
          "topics": [
            "0x367184f1bb13aa656fb065e5e2b1104b30f71206d03961639cac77f3a6b33176",
            "0x000000000000000000000000cd87972d278d7ce7a2b83415af963671cc0b82ba"
          ],
          "data": "0x",
          "blockHash": "0x536adde2d7413f9222ee5ad75c048eda940eb76926ac7d7439acf592a4ef1554",
          "blockNumber": "0x12c7741",
          "transactionHash": "0xa6c9a1409df1dbdcd3d24413dc945193cca9b5e982af678145069baa8c7de585",
          "transactionIndex": "0x5",
          "logIndex": "0x1d",
          "removed": false
        },
        {
          "address": "0x32e0db32f7cae22cc8113162f1e0c0911431f4ac",
          "topics": [
            "0x8be0079c531659141344cd1fd0a4f28419497f9722a3daafe3b4186f6b6457e0",
            "0x0000000000000000000000000000000000000000000000000000000000000000",
            "0x000000000000000000000000d2de6b8cbf23cff0e62e18c9aefda12ed0c0cb2d"
          ],
          "data": "0x",
          "blockHash": "0x536adde2d7413f9222ee5ad75c048eda940eb76926ac7d7439acf592a4ef1554",
          "blockNumber": "0x12c7741",
          "transactionHash": "0xa6c9a1409df1dbdcd3d24413dc945193cca9b5e982af678145069baa8c7de585",
          "transactionIndex": "0x5",
          "logIndex": "0x1e",
          "removed": false
        },
        {
          "address": "0x32e0db32f7cae22cc8113162f1e0c0911431f4ac",
          "topics": [
            "0xc7f505b2f371ae2175ee4913f4499e1f2633a7b5936321eed1cdaeb6115181d2"
          ],
          "data": "0x0000000000000000000000000000000000000000000000000000000000000001",
          "blockHash": "0x536adde2d7413f9222ee5ad75c048eda940eb76926ac7d7439acf592a4ef1554",
          "blockNumber": "0x12c7741",
          "transactionHash": "0xa6c9a1409df1dbdcd3d24413dc945193cca9b5e982af678145069baa8c7de585",
          "transactionIndex": "0x5",
          "logIndex": "0x1f",
          "removed": false
        },
        {
          "address": "0x32e0db32f7cae22cc8113162f1e0c0911431f4ac",
          "topics": [
            "0x8be0079c531659141344cd1fd0a4f28419497f9722a3daafe3b4186f6b6457e0",
            "0x000000000000000000000000d2de6b8cbf23cff0e62e18c9aefda12ed0c0cb2d",
            "0x000000000000000000000000a99526e4dc81b85c1d248ca974eadce81837ecf1"
          ],
          "data": "0x",
          "blockHash": "0x536adde2d7413f9222ee5ad75c048eda940eb76926ac7d7439acf592a4ef1554",
          "blockNumber": "0x12c7741",
          "transactionHash": "0xa6c9a1409df1dbdcd3d24413dc945193cca9b5e982af678145069baa8c7de585",
          "transactionIndex": "0x5",
          "logIndex": "0x20",
          "removed": false
        },
        {
          "address": "0xd2de6b8cbf23cff0e62e18c9aefda12ed0c0cb2d",
          "topics": [
            "0x171ccc46ca30ce15b8e391d7e1db8cf7644ed26a313b10df70a92b13da343541",
            "0x00000000000000000000000032e0db32f7cae22cc8113162f1e0c0911431f4ac",
            "0x000000000000000000000000a99526e4dc81b85c1d248ca974eadce81837ecf1"
          ],
          "data": "0x",
          "blockHash": "0x536adde2d7413f9222ee5ad75c048eda940eb76926ac7d7439acf592a4ef1554",
          "blockNumber": "0x12c7741",
          "transactionHash": "0xa6c9a1409df1dbdcd3d24413dc945193cca9b5e982af678145069baa8c7de585",
          "transactionIndex": "0x5",
          "logIndex": "0x21",
          "removed": false
        },
        {
          "address": "0xd2de6b8cbf23cff0e62e18c9aefda12ed0c0cb2d",
          "topics": [
            "0xc235116ab1fd2ce09ba4690b74e2e7782ddf6f4a49eda5a12e0c320f7c65ccd6",
            "0x00000000000000000000000032e0db32f7cae22cc8113162f1e0c0911431f4ac"
          ],
          "data": "0x00000000000000000000000000000000000000000000000000000000000000400000000000000000000000000000000000000000000000000000000000000080000000000000000000000000000000000000000000000000000000000000000b456d626c656d204f70656e00000000000000000000000000000000000000000000000000000000000000000000000000000000000000000000000000000000044f50454e00000000000000000000000000000000000000000000000000000000",
          "blockHash": "0x536adde2d7413f9222ee5ad75c048eda940eb76926ac7d7439acf592a4ef1554",
          "blockNumber": "0x12c7741",
          "transactionHash": "0xa6c9a1409df1dbdcd3d24413dc945193cca9b5e982af678145069baa8c7de585",
          "transactionIndex": "0x5",
          "logIndex": "0x22",
          "removed": false
        },
        {
          "address": "0x5672f3b4ce39126d6ff8080ac2377f6a2413c6bb",
          "topics": [
            "0x5902eed5cd330f690551c9c5095eacb178efeaf6896420b9473fa373b2313f1a",
            "0x00000000000000000000000032e0db32f7cae22cc8113162f1e0c0911431f4ac",
            "0x0000000000000000000000000000000000000000000000000000000000000001"
          ],
          "data": "0x0000000000000000000000000000000000000000000000000000000000000020000000000000000000000000000000000000000000000000000000000000000b456d626c656d204f70656e000000000000000000000000000000000000000000",
          "blockHash": "0x536adde2d7413f9222ee5ad75c048eda940eb76926ac7d7439acf592a4ef1554",
          "blockNumber": "0x12c7741",
          "transactionHash": "0xa6c9a1409df1dbdcd3d24413dc945193cca9b5e982af678145069baa8c7de585",
          "transactionIndex": "0x5",
          "logIndex": "0x23",
          "removed": false
        }
      ],
      "logsBloom": "0x0000000000800000000000000010000000000000000000000080400000000000401000000000000000000000000000000000000000000000000000400004000000a000000000800000000400000000000101000000041000000000000000000000000000020000000000000000000800000010000000000000000000010000408000000000000001000800004000000000002000000080000000100004000000010000000000000140000040000000000000000000000000001000000000000000000000004000000004000000000000000000000004000000000000000060000000002008000000000000000080000000000000000000800000000400400000",
      "type": "0x0",
      "transactionHash": "0xa6c9a1409df1dbdcd3d24413dc945193cca9b5e982af678145069baa8c7de585",
      "transactionIndex": "0x5",
      "blockHash": "0x536adde2d7413f9222ee5ad75c048eda940eb76926ac7d7439acf592a4ef1554",
      "blockNumber": "0x12c7741",
      "gasUsed": "0x63ba7",
      "effectiveGasPrice": "0x5b8d80",
      "from": "0xa99526e4dc81b85c1d248ca974eadce81837ecf1",
      "to": "0x5672f3b4ce39126d6ff8080ac2377f6a2413c6bb",
      "contractAddress": null
    },
    {
      "status": "0x1",
      "cumulativeGasUsed": "0x221cd",
      "logs": [
        {
          "address": "0x5672f3b4ce39126d6ff8080ac2377f6a2413c6bb",
          "topics": [
            "0x386488dff7e0422825a9a6550182ab7f1d7ef789131917bfd8dd6ffe29afe08d",
            "0x000000000000000000000000e8fd668fc35b51942d64b0b690e89d0a82e56095"
          ],
          "data": "0x0000000000000000000000000000000000000000000000000000000000000020000000000000000000000000000000000000000000000000000000000000004d68747470733a2f2f76322e656d626c656d7661756c742e696f2f76332f6d6574612f3078653866443636386663333562353139343264363462306236393065383964304138324535363039352f00000000000000000000000000000000000000",
          "blockHash": "0x5b6510f0cdc9bb5e67b1759919e8253ac1244c2194ce87eeb70ba10bac684eef",
          "blockNumber": "0x12c7742",
          "transactionHash": "0x651d644b268318bfd6902e7928215fe6535a1893b2721b374c2faad7f706ecd6",
          "transactionIndex": "0x0",
          "logIndex": "0x0",
          "removed": false
        }
      ],
      "logsBloom": "0x00000000000000000000000000000000000000000000010000010000000000000000000080000000000000000000000000000000000000000000000000000000000000000000000000000000000000000000000000000000000000000000000000000100000000000000000000000000000000000000000000000000000000000000000000000000000000000000000000000000000000000000000000000000000000000000000140000000000000000000000000000000000000000000000000001000000000000000000000000000000000000000000000000000000000200000000000000000000000000080000000000000000000000000000000000000",
      "type": "0x0",
      "transactionHash": "0x651d644b268318bfd6902e7928215fe6535a1893b2721b374c2faad7f706ecd6",
      "transactionIndex": "0x0",
      "blockHash": "0x5b6510f0cdc9bb5e67b1759919e8253ac1244c2194ce87eeb70ba10bac684eef",
      "blockNumber": "0x12c7742",
      "gasUsed": "0x221cd",
      "effectiveGasPrice": "0x5b8d80",
      "from": "0xa99526e4dc81b85c1d248ca974eadce81837ecf1",
      "to": "0x5672f3b4ce39126d6ff8080ac2377f6a2413c6bb",
      "contractAddress": null
    },
    {
      "status": "0x1",
      "cumulativeGasUsed": "0x4439a",
      "logs": [
        {
          "address": "0x5672f3b4ce39126d6ff8080ac2377f6a2413c6bb",
          "topics": [
            "0x386488dff7e0422825a9a6550182ab7f1d7ef789131917bfd8dd6ffe29afe08d",
            "0x0000000000000000000000007c2717244471e7a6bb8035dfb9fcae47d8743b76"
          ],
          "data": "0x0000000000000000000000000000000000000000000000000000000000000020000000000000000000000000000000000000000000000000000000000000004d68747470733a2f2f76322e656d626c656d7661756c742e696f2f76332f6d6574612f3078376332373137323434343731453741364262383033354466623966634145343764383734334237362f00000000000000000000000000000000000000",
          "blockHash": "0x5b6510f0cdc9bb5e67b1759919e8253ac1244c2194ce87eeb70ba10bac684eef",
          "blockNumber": "0x12c7742",
          "transactionHash": "0xd2b369e518f9a7398da61c140acbee80ce394a3154c9c2a58d3a2c5d4646f262",
          "transactionIndex": "0x1",
          "logIndex": "0x1",
          "removed": false
        }
      ],
      "logsBloom": "0x00000000000000000000000000000000000000000000000000000000000000000000000080000000000000000000000000000000000000000000000000004000000000000000000000000000000000000000000000000000001000000000000000000100000000000000000000000000000000000000000000000000000000000000000000000000000000000000000000000000000000000000000000000000000000000000000140000000000000010000000000000000000000000000000000000000000000000000000000000000000000000000000000000000000000200000000000000000000000000080000000000000000000000000000000000000",
      "type": "0x0",
      "transactionHash": "0xd2b369e518f9a7398da61c140acbee80ce394a3154c9c2a58d3a2c5d4646f262",
      "transactionIndex": "0x1",
      "blockHash": "0x5b6510f0cdc9bb5e67b1759919e8253ac1244c2194ce87eeb70ba10bac684eef",
      "blockNumber": "0x12c7742",
      "gasUsed": "0x221cd",
      "effectiveGasPrice": "0x5b8d80",
      "from": "0xa99526e4dc81b85c1d248ca974eadce81837ecf1",
      "to": "0x5672f3b4ce39126d6ff8080ac2377f6a2413c6bb",
      "contractAddress": null
    },
    {
      "status": "0x1",
      "cumulativeGasUsed": "0x66567",
      "logs": [
        {
          "address": "0x5672f3b4ce39126d6ff8080ac2377f6a2413c6bb",
          "topics": [
            "0x386488dff7e0422825a9a6550182ab7f1d7ef789131917bfd8dd6ffe29afe08d",
            "0x000000000000000000000000efa60f6b6ecc6d954cf1a790a46de68693ade808"
          ],
          "data": "0x0000000000000000000000000000000000000000000000000000000000000020000000000000000000000000000000000000000000000000000000000000004d68747470733a2f2f76322e656d626c656d7661756c742e696f2f76332f6d6574612f3078456661363046364236654343366439353443663161373930613436446536383639336144453830382f00000000000000000000000000000000000000",
          "blockHash": "0x5b6510f0cdc9bb5e67b1759919e8253ac1244c2194ce87eeb70ba10bac684eef",
          "blockNumber": "0x12c7742",
          "transactionHash": "0x302fc18e2ade6f76009e47420405daa90e278d8d4235af310b8fef995126fc9e",
          "transactionIndex": "0x2",
          "logIndex": "0x2",
          "removed": false
        }
      ],
      "logsBloom": "0x00000000000000000000000000000000000000000000008000000000000000000000000080000000000000000000000000000000000000000000000000000000000000000000000000000000000000000000000000000000000000000000000000000100000000000000000000000000000000000000000000000000000000000000000000000000000000000000000000000000000000000000000000000000000000000000000140000000000000000000000000000000000000000000000000000000000000000000000000020000000000000000000000000000000000200000000000000000000000000080000000000000000000000000000000040000",
      "type": "0x0",
      "transactionHash": "0x302fc18e2ade6f76009e47420405daa90e278d8d4235af310b8fef995126fc9e",
      "transactionIndex": "0x2",
      "blockHash": "0x5b6510f0cdc9bb5e67b1759919e8253ac1244c2194ce87eeb70ba10bac684eef",
      "blockNumber": "0x12c7742",
      "gasUsed": "0x221cd",
      "effectiveGasPrice": "0x5b8d80",
      "from": "0xa99526e4dc81b85c1d248ca974eadce81837ecf1",
      "to": "0x5672f3b4ce39126d6ff8080ac2377f6a2413c6bb",
      "contractAddress": null
    },
    {
      "status": "0x1",
      "cumulativeGasUsed": "0x88866",
      "logs": [
        {
          "address": "0x3f80589f88ae11df8d51ba6685ce7f5a72f91aea",
          "topics": [
            "0x6741b2fc379fad678116fe3d4d4b9a1a184ab53ba36b86ad0fa66340b1ab41ad"
          ],
          "data": "0x0000000000000000000000000000000000000000000000000000000000000020000000000000000000000000000000000000000000000000000000000000004d68747470733a2f2f76322e656d626c656d7661756c742e696f2f76332f6d6574612f3078334638303538394638384145313144663864353142613636383563453746356137326639316165412f00000000000000000000000000000000000000",
          "blockHash": "0x5b6510f0cdc9bb5e67b1759919e8253ac1244c2194ce87eeb70ba10bac684eef",
          "blockNumber": "0x12c7742",
          "transactionHash": "0xd00c60a12a848ba0e83fa53ebab34762f083ef4bd232229fd4bd76d0244f8cd1",
          "transactionIndex": "0x3",
          "logIndex": "0x3",
          "removed": false
        },
        {
          "address": "0x5672f3b4ce39126d6ff8080ac2377f6a2413c6bb",
          "topics": [
            "0x65936d1dee571c89e7bc171ad8e94e288d930f863c2a4a92a0593baef6573ee9",
            "0x0000000000000000000000003f80589f88ae11df8d51ba6685ce7f5a72f91aea"
          ],
          "data": "0x0000000000000000000000000000000000000000000000000000000000000020000000000000000000000000000000000000000000000000000000000000004d68747470733a2f2f76322e656d626c656d7661756c742e696f2f76332f6d6574612f3078334638303538394638384145313144663864353142613636383563453746356137326639316165412f00000000000000000000000000000000000000",
          "blockHash": "0x5b6510f0cdc9bb5e67b1759919e8253ac1244c2194ce87eeb70ba10bac684eef",
          "blockNumber": "0x12c7742",
          "transactionHash": "0xd00c60a12a848ba0e83fa53ebab34762f083ef4bd232229fd4bd76d0244f8cd1",
          "transactionIndex": "0x3",
          "logIndex": "0x4",
          "removed": false
        }
      ],
      "logsBloom": "0x00000000000000080000000000000000000004000000000000000000000000880000000000000000000000000000000000000000000000000000000000000000000000000000000000000000000000000000000000000000000000000000000020000000000000000000000000000000000000000000000000000000000000000000000000000000000000000000000000000000000000000000000000000000000001000000000140000000000000000000000000000000000000000000000000000000000000000000080200004000000010000000000000000000000000002000000000000400000000000080000000000000000000000000000000000000",
      "type": "0x0",
      "transactionHash": "0xd00c60a12a848ba0e83fa53ebab34762f083ef4bd232229fd4bd76d0244f8cd1",
      "transactionIndex": "0x3",
      "blockHash": "0x5b6510f0cdc9bb5e67b1759919e8253ac1244c2194ce87eeb70ba10bac684eef",
      "blockNumber": "0x12c7742",
      "gasUsed": "0x222ff",
      "effectiveGasPrice": "0x5b8d80",
      "from": "0xa99526e4dc81b85c1d248ca974eadce81837ecf1",
      "to": "0x5672f3b4ce39126d6ff8080ac2377f6a2413c6bb",
      "contractAddress": null
    },
    {
      "status": "0x1",
      "cumulativeGasUsed": "0xaab65",
      "logs": [
        {
          "address": "0x32e0db32f7cae22cc8113162f1e0c0911431f4ac",
          "topics": [
            "0x6741b2fc379fad678116fe3d4d4b9a1a184ab53ba36b86ad0fa66340b1ab41ad"
          ],
          "data": "0x0000000000000000000000000000000000000000000000000000000000000020000000000000000000000000000000000000000000000000000000000000004d68747470733a2f2f76322e656d626c656d7661756c742e696f2f76332f6d6574612f3078333245306462333266374341653232434338313133313632663145306330393131343331663441432f00000000000000000000000000000000000000",
          "blockHash": "0x5b6510f0cdc9bb5e67b1759919e8253ac1244c2194ce87eeb70ba10bac684eef",
          "blockNumber": "0x12c7742",
          "transactionHash": "0xd541c9648eff3a3b974c7b9f6b7dd7d7cf19b98cfc119539dff7312810c5ad23",
          "transactionIndex": "0x4",
          "logIndex": "0x5",
          "removed": false
        },
        {
          "address": "0x5672f3b4ce39126d6ff8080ac2377f6a2413c6bb",
          "topics": [
            "0x65936d1dee571c89e7bc171ad8e94e288d930f863c2a4a92a0593baef6573ee9",
            "0x00000000000000000000000032e0db32f7cae22cc8113162f1e0c0911431f4ac"
          ],
          "data": "0x0000000000000000000000000000000000000000000000000000000000000020000000000000000000000000000000000000000000000000000000000000004d68747470733a2f2f76322e656d626c656d7661756c742e696f2f76332f6d6574612f3078333245306462333266374341653232434338313133313632663145306330393131343331663441432f00000000000000000000000000000000000000",
          "blockHash": "0x5b6510f0cdc9bb5e67b1759919e8253ac1244c2194ce87eeb70ba10bac684eef",
          "blockNumber": "0x12c7742",
          "transactionHash": "0xd541c9648eff3a3b974c7b9f6b7dd7d7cf19b98cfc119539dff7312810c5ad23",
          "transactionIndex": "0x4",
          "logIndex": "0x6",
          "removed": false
        }
      ],
      "logsBloom": "0x00000000008000000000000000000000000004000000000000004000000000080000000000000000000000000000000000000000000000000000000000000000000000000000000000000000000000000000000000000000000000000000000000000000000000000000000000000000000010000000000000000000000000000000000000000000000000000000000000000000000000000000000000000000000001000000000140000000000000000000000000000000000000000000000000000000000000000004000200004000000000000000000000000000000000002000000008000000000000000080000000000000000000000000000400000000",
      "type": "0x0",
      "transactionHash": "0xd541c9648eff3a3b974c7b9f6b7dd7d7cf19b98cfc119539dff7312810c5ad23",
      "transactionIndex": "0x4",
      "blockHash": "0x5b6510f0cdc9bb5e67b1759919e8253ac1244c2194ce87eeb70ba10bac684eef",
      "blockNumber": "0x12c7742",
      "gasUsed": "0x222ff",
      "effectiveGasPrice": "0x5b8d80",
      "from": "0xa99526e4dc81b85c1d248ca974eadce81837ecf1",
      "to": "0x5672f3b4ce39126d6ff8080ac2377f6a2413c6bb",
      "contractAddress": null
    }
  ],
  "libraries": [],
  "pending": [],
  "returns": {},
  "timestamp": 1741846739,
  "chain": 4200,
  "commit": "b4b8675"
}