{
  "transactions": [
    {
      "hash": "0x5f7bc39e124c306145274c4d370e434bfccf848f7808b701d7e957a19da094a9",
      "transactionType": "CALL",
      "contractName": null,
      "contractAddress": "0x7cef9c60864538c81b6cac4acca5f263e0873b68",
      "function": "createVaultCollection(string,string,uint8)",
      "arguments": [
        "Rare Pepe",
        "PEPE",
        "2"
      ],
      "transaction": {
        "from": "0xa99526e4dc81b85c1d248ca974eadce81837ecf1",
        "to": "0x7cef9c60864538c81b6cac4acca5f263e0873b68",
        "gas": "0x6a8e2",
        "value": "0x0",
        "input": "0xa8008080000000000000000000000000000000000000000000000000000000000000006000000000000000000000000000000000000000000000000000000000000000a000000000000000000000000000000000000000000000000000000000000000020000000000000000000000000000000000000000000000000000000000000009526172652050657065000000000000000000000000000000000000000000000000000000000000000000000000000000000000000000000000000000000000045045504500000000000000000000000000000000000000000000000000000000",
        "nonce": "0x4d",
        "chainId": "0xa7b14"
      },
      "additionalContracts": [
        {
          "transactionType": "CREATE",
          "address": "0x734bcdd64edd612ff6635b54de3fa9871aeb981d",
          "initCode": "0x60803460b757601f6102dc38819003918201601f19168301916001600160401b0383118484101760bb5780849260209460405283398101031260b757516001600160a01b0381169081810360b757811560a8577fa3f0ad74e5423aebfd80d3ef4346578335a9a72aeaee59ff6cb3582b35133d5055604051907f367184f1bb13aa656fb065e5e2b1104b30f71206d03961639cac77f3a6b331765f80a261020c90816100d08239f35b63d92e233d60e01b5f5260045ffd5b5f80fd5b634e487b7160e01b5f52604160045260245ffdfe60806040526004361015610015575b3661011d57005b5f3560e01c6301ffc9a70361000e57346100cb5760203660031901126100cb5760043563ffffffff60e01b81168091036100cb5760206001600160a01b0361005b610141565b16916024604051809481936301ffc9a760e01b835260048301525afa80156100d7575f90610096575b604051901515815280602081015b0390f35b506020813d6020116100cf575b816100b0602093836100dc565b810103126100cb575180151581036100cb5761009290610084565b5f80fd5b3d91506100a3565b610112565b90601f8019910116810190811067ffffffffffffffff8211176100fe57604052565b634e487b7160e01b5f52604160045260245ffd5b6040513d5f823e3d90fd5b5f80610127610141565b368280378136915af43d5f803e1561013d573d5ff35b3d5ffd5b7fa3f0ad74e5423aebfd80d3ef4346578335a9a72aeaee59ff6cb3582b35133d5054604051635c60da1b60e01b815290602090829060049082906001600160a01b03165afa9081156100d7575f91610197575090565b90506020813d6020116101ce575b816101b2602093836100dc565b810103126100cb57516001600160a01b03811681036100cb5790565b3d91506101a556fea2646970667358221220b9aa4dcde91f06e0b875fe779d49781682719d788493724bc49bbfa1c806b86564736f6c634300081c003300000000000000000000000036b42e3c90775d495e63f8fe4d4c517de4c03e67"
        }
      ],
      "isFixedGasLimit": false
    },
    {
      "hash": "0xe6f1f3f48c7a4bdd4ad07547e617c0eeedf2f9f47056a79451a17381484cb2bc",
      "transactionType": "CALL",
      "contractName": null,
      "contractAddress": "0x7cef9c60864538c81b6cac4acca5f263e0873b68",
      "function": "createVaultCollection(string,string,uint8)",
      "arguments": [
        "Spells of Genesis",
        "SOG",
        "2"
      ],
      "transaction": {
        "from": "0xa99526e4dc81b85c1d248ca974eadce81837ecf1",
        "to": "0x7cef9c60864538c81b6cac4acca5f263e0873b68",
        "gas": "0x70da7",
        "value": "0x0",
        "input": "0xa8008080000000000000000000000000000000000000000000000000000000000000006000000000000000000000000000000000000000000000000000000000000000a0000000000000000000000000000000000000000000000000000000000000000200000000000000000000000000000000000000000000000000000000000000115370656c6c73206f662047656e657369730000000000000000000000000000000000000000000000000000000000000000000000000000000000000000000003534f470000000000000000000000000000000000000000000000000000000000",
        "nonce": "0x4e",
        "chainId": "0xa7b14"
      },
      "additionalContracts": [
        {
          "transactionType": "CREATE",
          "address": "0x4adb43b5f36edaa98f156b4861c3aa538f2b73e0",
          "initCode": "0x60803460b757601f6102dc38819003918201601f19168301916001600160401b0383118484101760bb5780849260209460405283398101031260b757516001600160a01b0381169081810360b757811560a8577fa3f0ad74e5423aebfd80d3ef4346578335a9a72aeaee59ff6cb3582b35133d5055604051907f367184f1bb13aa656fb065e5e2b1104b30f71206d03961639cac77f3a6b331765f80a261020c90816100d08239f35b63d92e233d60e01b5f5260045ffd5b5f80fd5b634e487b7160e01b5f52604160045260245ffdfe60806040526004361015610015575b3661011d57005b5f3560e01c6301ffc9a70361000e57346100cb5760203660031901126100cb5760043563ffffffff60e01b81168091036100cb5760206001600160a01b0361005b610141565b16916024604051809481936301ffc9a760e01b835260048301525afa80156100d7575f90610096575b604051901515815280602081015b0390f35b506020813d6020116100cf575b816100b0602093836100dc565b810103126100cb575180151581036100cb5761009290610084565b5f80fd5b3d91506100a3565b610112565b90601f8019910116810190811067ffffffffffffffff8211176100fe57604052565b634e487b7160e01b5f52604160045260245ffd5b6040513d5f823e3d90fd5b5f80610127610141565b368280378136915af43d5f803e1561013d573d5ff35b3d5ffd5b7fa3f0ad74e5423aebfd80d3ef4346578335a9a72aeaee59ff6cb3582b35133d5054604051635c60da1b60e01b815290602090829060049082906001600160a01b03165afa9081156100d7575f91610197575090565b90506020813d6020116101ce575b816101b2602093836100dc565b810103126100cb57516001600160a01b03811681036100cb5790565b3d91506101a556fea2646970667358221220b9aa4dcde91f06e0b875fe779d49781682719d788493724bc49bbfa1c806b86564736f6c634300081c003300000000000000000000000036b42e3c90775d495e63f8fe4d4c517de4c03e67"
        }
      ],
      "isFixedGasLimit": false
    },
    {
      "hash": "0xb6450e0cad138d5e3cc34fa4acc183ae6d71c834d24ec1453d69bdbfb69e8fff",
      "transactionType": "CALL",
      "contractName": null,
      "contractAddress": "0x7cef9c60864538c81b6cac4acca5f263e0873b68",
      "function": "createVaultCollection(string,string,uint8)",
      "arguments": [
        "Fake Rares",
        "FAKE",
        "2"
      ],
      "transaction": {
        "from": "0xa99526e4dc81b85c1d248ca974eadce81837ecf1",
        "to": "0x7cef9c60864538c81b6cac4acca5f263e0873b68",
        "gas": "0x70d3e",
        "value": "0x0",
        "input": "0xa8008080000000000000000000000000000000000000000000000000000000000000006000000000000000000000000000000000000000000000000000000000000000a00000000000000000000000000000000000000000000000000000000000000002000000000000000000000000000000000000000000000000000000000000000a46616b6520526172657300000000000000000000000000000000000000000000000000000000000000000000000000000000000000000000000000000000000446414b4500000000000000000000000000000000000000000000000000000000",
        "nonce": "0x4f",
        "chainId": "0xa7b14"
      },
      "additionalContracts": [
        {
          "transactionType": "CREATE",
          "address": "0xdc6e8dc6b1aa1e0a35adc3b5c10b3355d1954017",
          "initCode": "0x60803460b757601f6102dc38819003918201601f19168301916001600160401b0383118484101760bb5780849260209460405283398101031260b757516001600160a01b0381169081810360b757811560a8577fa3f0ad74e5423aebfd80d3ef4346578335a9a72aeaee59ff6cb3582b35133d5055604051907f367184f1bb13aa656fb065e5e2b1104b30f71206d03961639cac77f3a6b331765f80a261020c90816100d08239f35b63d92e233d60e01b5f5260045ffd5b5f80fd5b634e487b7160e01b5f52604160045260245ffdfe60806040526004361015610015575b3661011d57005b5f3560e01c6301ffc9a70361000e57346100cb5760203660031901126100cb5760043563ffffffff60e01b81168091036100cb5760206001600160a01b0361005b610141565b16916024604051809481936301ffc9a760e01b835260048301525afa80156100d7575f90610096575b604051901515815280602081015b0390f35b506020813d6020116100cf575b816100b0602093836100dc565b810103126100cb575180151581036100cb5761009290610084565b5f80fd5b3d91506100a3565b610112565b90601f8019910116810190811067ffffffffffffffff8211176100fe57604052565b634e487b7160e01b5f52604160045260245ffd5b6040513d5f823e3d90fd5b5f80610127610141565b368280378136915af43d5f803e1561013d573d5ff35b3d5ffd5b7fa3f0ad74e5423aebfd80d3ef4346578335a9a72aeaee59ff6cb3582b35133d5054604051635c60da1b60e01b815290602090829060049082906001600160a01b03165afa9081156100d7575f91610197575090565b90506020813d6020116101ce575b816101b2602093836100dc565b810103126100cb57516001600160a01b03811681036100cb5790565b3d91506101a556fea2646970667358221220b9aa4dcde91f06e0b875fe779d49781682719d788493724bc49bbfa1c806b86564736f6c634300081c003300000000000000000000000036b42e3c90775d495e63f8fe4d4c517de4c03e67"
        }
      ],
      "isFixedGasLimit": false
    },
    {
      "hash": "0x2f1c8363d82fc42bd03ae7c2e95262a61f1f230a4112a48f8308147ece2f55e6",
      "transactionType": "CALL",
      "contractName": null,
      "contractAddress": "0x7cef9c60864538c81b6cac4acca5f263e0873b68",
      "function": "createVaultCollection(string,string,uint8)",
      "arguments": [
        "EmBells",
        "BELL",
        "1"
      ],
      "transaction": {
        "from": "0xa99526e4dc81b85c1d248ca974eadce81837ecf1",
        "to": "0x7cef9c60864538c81b6cac4acca5f263e0873b68",
        "gas": "0x89bfe",
        "value": "0x0",
        "input": "0xa8008080000000000000000000000000000000000000000000000000000000000000006000000000000000000000000000000000000000000000000000000000000000a000000000000000000000000000000000000000000000000000000000000000010000000000000000000000000000000000000000000000000000000000000007456d42656c6c7300000000000000000000000000000000000000000000000000000000000000000000000000000000000000000000000000000000000000000442454c4c00000000000000000000000000000000000000000000000000000000",
        "nonce": "0x50",
        "chainId": "0xa7b14"
      },
      "additionalContracts": [
        {
          "transactionType": "CREATE",
          "address": "0xf393be102199f2f52cda2b60e3b7253d436f34e4",
          "initCode": "0x60803460b757601f6102dc38819003918201601f19168301916001600160401b0383118484101760bb5780849260209460405283398101031260b757516001600160a01b0381169081810360b757811560a8577fa3f0ad74e5423aebfd80d3ef4346578335a9a72aeaee59ff6cb3582b35133d5055604051907f367184f1bb13aa656fb065e5e2b1104b30f71206d03961639cac77f3a6b331765f80a261020c90816100d08239f35b63d92e233d60e01b5f5260045ffd5b5f80fd5b634e487b7160e01b5f52604160045260245ffdfe60806040526004361015610015575b3661011d57005b5f3560e01c6301ffc9a70361000e57346100cb5760203660031901126100cb5760043563ffffffff60e01b81168091036100cb5760206001600160a01b0361005b610141565b16916024604051809481936301ffc9a760e01b835260048301525afa80156100d7575f90610096575b604051901515815280602081015b0390f35b506020813d6020116100cf575b816100b0602093836100dc565b810103126100cb575180151581036100cb5761009290610084565b5f80fd5b3d91506100a3565b610112565b90601f8019910116810190811067ffffffffffffffff8211176100fe57604052565b634e487b7160e01b5f52604160045260245ffd5b6040513d5f823e3d90fd5b5f80610127610141565b368280378136915af43d5f803e1561013d573d5ff35b3d5ffd5b7fa3f0ad74e5423aebfd80d3ef4346578335a9a72aeaee59ff6cb3582b35133d5054604051635c60da1b60e01b815290602090829060049082906001600160a01b03165afa9081156100d7575f91610197575090565b90506020813d6020116101ce575b816101b2602093836100dc565b810103126100cb57516001600160a01b03811681036100cb5790565b3d91506101a556fea26469706673582212206ee762e682717726e2a88d1f11d5d6c4b60618285602632bd45443440f6accef64736f6c634300081c00330000000000000000000000008b6685c4dee810a119dc93f921c8d3945943128d"
        }
      ],
      "isFixedGasLimit": false
    },
    {
      "hash": "0x1199b8c3c8fce507546126c439676732fe9e53040aadfd754b020e5bede72291",
      "transactionType": "CALL",
      "contractName": null,
      "contractAddress": "0x7cef9c60864538c81b6cac4acca5f263e0873b68",
      "function": "createVaultCollection(string,string,uint8)",
      "arguments": [
        "Emblem Open",
        "OPEN",
        "1"
      ],
      "transaction": {
        "from": "0xa99526e4dc81b85c1d248ca974eadce81837ecf1",
        "to": "0x7cef9c60864538c81b6cac4acca5f263e0873b68",
        "gas": "0x89c40",
        "value": "0x0",
        "input": "0xa8008080000000000000000000000000000000000000000000000000000000000000006000000000000000000000000000000000000000000000000000000000000000a00000000000000000000000000000000000000000000000000000000000000001000000000000000000000000000000000000000000000000000000000000000b456d626c656d204f70656e00000000000000000000000000000000000000000000000000000000000000000000000000000000000000000000000000000000044f50454e00000000000000000000000000000000000000000000000000000000",
        "nonce": "0x51",
        "chainId": "0xa7b14"
      },
      "additionalContracts": [
        {
          "transactionType": "CREATE",
          "address": "0x2bbb34958c52a9658aa224244772005b34cd6704",
          "initCode": "0x60803460b757601f6102dc38819003918201601f19168301916001600160401b0383118484101760bb5780849260209460405283398101031260b757516001600160a01b0381169081810360b757811560a8577fa3f0ad74e5423aebfd80d3ef4346578335a9a72aeaee59ff6cb3582b35133d5055604051907f367184f1bb13aa656fb065e5e2b1104b30f71206d03961639cac77f3a6b331765f80a261020c90816100d08239f35b63d92e233d60e01b5f5260045ffd5b5f80fd5b634e487b7160e01b5f52604160045260245ffdfe60806040526004361015610015575b3661011d57005b5f3560e01c6301ffc9a70361000e57346100cb5760203660031901126100cb5760043563ffffffff60e01b81168091036100cb5760206001600160a01b0361005b610141565b16916024604051809481936301ffc9a760e01b835260048301525afa80156100d7575f90610096575b604051901515815280602081015b0390f35b506020813d6020116100cf575b816100b0602093836100dc565b810103126100cb575180151581036100cb5761009290610084565b5f80fd5b3d91506100a3565b610112565b90601f8019910116810190811067ffffffffffffffff8211176100fe57604052565b634e487b7160e01b5f52604160045260245ffd5b6040513d5f823e3d90fd5b5f80610127610141565b368280378136915af43d5f803e1561013d573d5ff35b3d5ffd5b7fa3f0ad74e5423aebfd80d3ef4346578335a9a72aeaee59ff6cb3582b35133d5054604051635c60da1b60e01b815290602090829060049082906001600160a01b03165afa9081156100d7575f91610197575090565b90506020813d6020116101ce575b816101b2602093836100dc565b810103126100cb57516001600160a01b03811681036100cb5790565b3d91506101a556fea26469706673582212206ee762e682717726e2a88d1f11d5d6c4b60618285602632bd45443440f6accef64736f6c634300081c00330000000000000000000000008b6685c4dee810a119dc93f921c8d3945943128d"
        }
      ],
      "isFixedGasLimit": false
    },
    {
      "hash": "0xe5c8a8c4bb67fde88084354beba0a3e3412a9d2716059196e6ce2cdcd40e40ee",
      "transactionType": "CALL",
      "contractName": null,
      "contractAddress": "0x7cef9c60864538c81b6cac4acca5f263e0873b68",
      "function": "setCollectionURI(address,string)",
      "arguments": [
        "0x734BCdd64edD612ff6635b54DE3fA9871AeB981D",
        "https://v2.emblemvault.io/v3/meta/0x734BCdd64edD612ff6635b54DE3fA9871AeB981D/"
      ],
      "transaction": {
        "from": "0xa99526e4dc81b85c1d248ca974eadce81837ecf1",
        "to": "0x7cef9c60864538c81b6cac4acca5f263e0873b68",
        "gas": "0x2f1e2",
        "value": "0x0",
        "input": "0x23f019fd000000000000000000000000734bcdd64edd612ff6635b54de3fa9871aeb981d0000000000000000000000000000000000000000000000000000000000000040000000000000000000000000000000000000000000000000000000000000004d68747470733a2f2f76322e656d626c656d7661756c742e696f2f76332f6d6574612f3078373334424364643634656444363132666636363335623534444533664139383731416542393831442f00000000000000000000000000000000000000",
        "nonce": "0x52",
        "chainId": "0xa7b14"
      },
      "additionalContracts": [],
      "isFixedGasLimit": false
    },
    {
      "hash": "0xbeb0342e6b7367f7483398beb43bf2d0eb10b5ede928f5aef76c86c1912f103a",
      "transactionType": "CALL",
      "contractName": null,
      "contractAddress": "0x7cef9c60864538c81b6cac4acca5f263e0873b68",
      "function": "setCollectionURI(address,string)",
      "arguments": [
        "0x4adB43B5F36eDaA98f156b4861c3aA538f2B73e0",
        "https://v2.emblemvault.io/v3/meta/0x4adB43B5F36eDaA98f156b4861c3aA538f2B73e0/"
      ],
      "transaction": {
        "from": "0xa99526e4dc81b85c1d248ca974eadce81837ecf1",
        "to": "0x7cef9c60864538c81b6cac4acca5f263e0873b68",
        "gas": "0x2f1e2",
        "value": "0x0",
        "input": "0x23f019fd0000000000000000000000004adb43b5f36edaa98f156b4861c3aa538f2b73e00000000000000000000000000000000000000000000000000000000000000040000000000000000000000000000000000000000000000000000000000000004d68747470733a2f2f76322e656d626c656d7661756c742e696f2f76332f6d6574612f3078346164423433423546333665446141393866313536623438363163336141353338663242373365302f00000000000000000000000000000000000000",
        "nonce": "0x53",
        "chainId": "0xa7b14"
      },
      "additionalContracts": [],
      "isFixedGasLimit": false
    },
    {
      "hash": "0x69b681c56b6f1cb0aff6d811f34bd5ff7a06fd2111d8f8cf3fe24c422c1a79f8",
      "transactionType": "CALL",
      "contractName": null,
      "contractAddress": "0x7cef9c60864538c81b6cac4acca5f263e0873b68",
      "function": "setCollectionURI(address,string)",
      "arguments": [
        "0xDc6e8dC6B1AA1e0a35aDc3B5c10B3355D1954017",
        "https://v2.emblemvault.io/v3/meta/0xDc6e8dC6B1AA1e0a35aDc3B5c10B3355D1954017/"
      ],
      "transaction": {
        "from": "0xa99526e4dc81b85c1d248ca974eadce81837ecf1",
        "to": "0x7cef9c60864538c81b6cac4acca5f263e0873b68",
        "gas": "0x2f1e2",
        "value": "0x0",
        "input": "0x23f019fd000000000000000000000000dc6e8dc6b1aa1e0a35adc3b5c10b3355d19540170000000000000000000000000000000000000000000000000000000000000040000000000000000000000000000000000000000000000000000000000000004d68747470733a2f2f76322e656d626c656d7661756c742e696f2f76332f6d6574612f3078446336653864433642314141316530613335614463334235633130423333353544313935343031372f00000000000000000000000000000000000000",
        "nonce": "0x54",
        "chainId": "0xa7b14"
      },
      "additionalContracts": [],
      "isFixedGasLimit": false
    },
    {
      "hash": "0x63c6d72f28e7567bad608bdf4b7722e97e2aec31720d450a8dfcc5db1c0464dd",
      "transactionType": "CALL",
      "contractName": null,
      "contractAddress": "0x7cef9c60864538c81b6cac4acca5f263e0873b68",
      "function": "setCollectionBaseURI(address,string)",
      "arguments": [
        "0xf393bE102199F2F52cdA2B60E3B7253D436f34E4",
        "https://v2.emblemvault.io/v3/meta/0xf393bE102199F2F52cdA2B60E3B7253D436f34E4/"
      ],
      "transaction": {
        "from": "0xa99526e4dc81b85c1d248ca974eadce81837ecf1",
        "to": "0x7cef9c60864538c81b6cac4acca5f263e0873b68",
        "gas": "0x2f388",
        "value": "0x0",
        "input": "0x80aed2a9000000000000000000000000f393be102199f2f52cda2b60e3b7253d436f34e40000000000000000000000000000000000000000000000000000000000000040000000000000000000000000000000000000000000000000000000000000004d68747470733a2f2f76322e656d626c656d7661756c742e696f2f76332f6d6574612f3078663339336245313032313939463246353263644132423630453342373235334434333666333445342f00000000000000000000000000000000000000",
        "nonce": "0x55",
        "chainId": "0xa7b14"
      },
      "additionalContracts": [],
      "isFixedGasLimit": false
    },
    {
      "hash": "0xda152bdb487673a02e60dfe4ede86894d2d6158b45e18bbfc84f38f5e3f94fa3",
      "transactionType": "CALL",
      "contractName": null,
      "contractAddress": "0x7cef9c60864538c81b6cac4acca5f263e0873b68",
      "function": "setCollectionBaseURI(address,string)",
      "arguments": [
        "0x2BbB34958C52a9658Aa224244772005B34CD6704",
        "https://v2.emblemvault.io/v3/meta/0x2BbB34958C52a9658Aa224244772005B34CD6704/"
      ],
      "transaction": {
        "from": "0xa99526e4dc81b85c1d248ca974eadce81837ecf1",
        "to": "0x7cef9c60864538c81b6cac4acca5f263e0873b68",
        "gas": "0x31fe9",
        "value": "0x0",
        "input": "0x80aed2a90000000000000000000000002bbb34958c52a9658aa224244772005b34cd67040000000000000000000000000000000000000000000000000000000000000040000000000000000000000000000000000000000000000000000000000000004d68747470733a2f2f76322e656d626c656d7661756c742e696f2f76332f6d6574612f3078324262423334393538433532613936353841613232343234343737323030354233344344363730342f00000000000000000000000000000000000000",
        "nonce": "0x56",
        "chainId": "0xa7b14"
      },
      "additionalContracts": [],
      "isFixedGasLimit": false
    }
  ],
  "receipts": [
    {
      "status": "0x1",
      "cumulativeGasUsed": "0x4d21f",
      "logs": [
        {
          "address": "0x734bcdd64edd612ff6635b54de3fa9871aeb981d",
          "topics": [
            "0x367184f1bb13aa656fb065e5e2b1104b30f71206d03961639cac77f3a6b33176",
            "0x00000000000000000000000036b42e3c90775d495e63f8fe4d4c517de4c03e67"
          ],
          "data": "0x",
          "blockHash": "0x784feb0553aa3fde13b84e1e4306962693c95fd815961081fa07aa88507d1f1a",
          "blockNumber": "0xfd196a",
          "transactionHash": "0x5f7bc39e124c306145274c4d370e434bfccf848f7808b701d7e957a19da094a9",
          "transactionIndex": "0x0",
          "logIndex": "0x0",
          "removed": false
        },
        {
          "address": "0x734bcdd64edd612ff6635b54de3fa9871aeb981d",
          "topics": [
            "0x8be0079c531659141344cd1fd0a4f28419497f9722a3daafe3b4186f6b6457e0",
            "0x0000000000000000000000000000000000000000000000000000000000000000",
            "0x0000000000000000000000008a5059369443997ad7b3859eb9f57fbf92645352"
          ],
          "data": "0x",
          "blockHash": "0x784feb0553aa3fde13b84e1e4306962693c95fd815961081fa07aa88507d1f1a",
          "blockNumber": "0xfd196a",
          "transactionHash": "0x5f7bc39e124c306145274c4d370e434bfccf848f7808b701d7e957a19da094a9",
          "transactionIndex": "0x0",
          "logIndex": "0x1",
          "removed": false
        },
        {
          "address": "0x734bcdd64edd612ff6635b54de3fa9871aeb981d",
          "topics": [
            "0xc7f505b2f371ae2175ee4913f4499e1f2633a7b5936321eed1cdaeb6115181d2"
          ],
          "data": "0x0000000000000000000000000000000000000000000000000000000000000001",
          "blockHash": "0x784feb0553aa3fde13b84e1e4306962693c95fd815961081fa07aa88507d1f1a",
          "blockNumber": "0xfd196a",
          "transactionHash": "0x5f7bc39e124c306145274c4d370e434bfccf848f7808b701d7e957a19da094a9",
          "transactionIndex": "0x0",
          "logIndex": "0x2",
          "removed": false
        },
        {
          "address": "0x734bcdd64edd612ff6635b54de3fa9871aeb981d",
          "topics": [
            "0x8be0079c531659141344cd1fd0a4f28419497f9722a3daafe3b4186f6b6457e0",
            "0x0000000000000000000000008a5059369443997ad7b3859eb9f57fbf92645352",
            "0x000000000000000000000000a99526e4dc81b85c1d248ca974eadce81837ecf1"
          ],
          "data": "0x",
          "blockHash": "0x784feb0553aa3fde13b84e1e4306962693c95fd815961081fa07aa88507d1f1a",
          "blockNumber": "0xfd196a",
          "transactionHash": "0x5f7bc39e124c306145274c4d370e434bfccf848f7808b701d7e957a19da094a9",
          "transactionIndex": "0x0",
          "logIndex": "0x3",
          "removed": false
        },
        {
          "address": "0x8a5059369443997ad7b3859eb9f57fbf92645352",
          "topics": [
            "0x171ccc46ca30ce15b8e391d7e1db8cf7644ed26a313b10df70a92b13da343541",
            "0x000000000000000000000000734bcdd64edd612ff6635b54de3fa9871aeb981d",
            "0x000000000000000000000000a99526e4dc81b85c1d248ca974eadce81837ecf1"
          ],
          "data": "0x",
          "blockHash": "0x784feb0553aa3fde13b84e1e4306962693c95fd815961081fa07aa88507d1f1a",
          "blockNumber": "0xfd196a",
          "transactionHash": "0x5f7bc39e124c306145274c4d370e434bfccf848f7808b701d7e957a19da094a9",
          "transactionIndex": "0x0",
          "logIndex": "0x4",
          "removed": false
        },
        {
          "address": "0x8a5059369443997ad7b3859eb9f57fbf92645352",
          "topics": [
            "0x2229e9930d25a4974976f5fb5461a33fcd0fefa19393ad50af745b5fa4ccce8b",
            "0x000000000000000000000000734bcdd64edd612ff6635b54de3fa9871aeb981d"
          ],
          "data": "0x000000000000000000000000000000000000000000000000000000000000002000000000000000000000000000000000000000000000000000000000000000045045504500000000000000000000000000000000000000000000000000000000",
          "blockHash": "0x784feb0553aa3fde13b84e1e4306962693c95fd815961081fa07aa88507d1f1a",
          "blockNumber": "0xfd196a",
          "transactionHash": "0x5f7bc39e124c306145274c4d370e434bfccf848f7808b701d7e957a19da094a9",
          "transactionIndex": "0x0",
          "logIndex": "0x5",
          "removed": false
        },
        {
          "address": "0x7cef9c60864538c81b6cac4acca5f263e0873b68",
          "topics": [
            "0x5902eed5cd330f690551c9c5095eacb178efeaf6896420b9473fa373b2313f1a",
            "0x000000000000000000000000734bcdd64edd612ff6635b54de3fa9871aeb981d",
            "0x0000000000000000000000000000000000000000000000000000000000000002"
          ],
          "data": "0x000000000000000000000000000000000000000000000000000000000000002000000000000000000000000000000000000000000000000000000000000000095261726520506570650000000000000000000000000000000000000000000000",
          "blockHash": "0x784feb0553aa3fde13b84e1e4306962693c95fd815961081fa07aa88507d1f1a",
          "blockNumber": "0xfd196a",
          "transactionHash": "0x5f7bc39e124c306145274c4d370e434bfccf848f7808b701d7e957a19da094a9",
          "transactionIndex": "0x0",
          "logIndex": "0x6",
          "removed": false
        }
      ],
      "logsBloom": "0x0400000100000000000000000000000000000000000800000080000000000000000000080000000000000000000000400000002000000000000000400004000000000000000000000400040000200000010120000000000000000000000000002000008002000000002000000000080000000000000000000000000000000040a000000000000000000800004000000040000100000080000080100004000000000000000000010000000140000000000800000000000000003000000000000000000000004000000000000000000000000000000004000000000000000020000000000000000000000000000000000000004000008000800000000000400000",
      "type": "0x0",
      "transactionHash": "0x5f7bc39e124c306145274c4d370e434bfccf848f7808b701d7e957a19da094a9",
      "transactionIndex": "0x0",
      "blockHash": "0x784feb0553aa3fde13b84e1e4306962693c95fd815961081fa07aa88507d1f1a",
      "blockNumber": "0xfd196a",
      "gasUsed": "0x4d21f",
      "effectiveGasPrice": "0x5f5e10",
      "from": "0xa99526e4dc81b85c1d248ca974eadce81837ecf1",
      "to": "0x7cef9c60864538c81b6cac4acca5f263e0873b68",
      "contractAddress": null
    },
    {
      "status": "0x1",
      "cumulativeGasUsed": "0x4d273",
      "logs": [
        {
          "address": "0x4adb43b5f36edaa98f156b4861c3aa538f2b73e0",
          "topics": [
            "0x367184f1bb13aa656fb065e5e2b1104b30f71206d03961639cac77f3a6b33176",
            "0x00000000000000000000000036b42e3c90775d495e63f8fe4d4c517de4c03e67"
          ],
          "data": "0x",
          "blockHash": "0x959c740e7b1a44f764737aa22faad2c56591f83cb20af15430b98636b45511c5",
          "blockNumber": "0xfd196c",
          "transactionHash": "0xe6f1f3f48c7a4bdd4ad07547e617c0eeedf2f9f47056a79451a17381484cb2bc",
          "transactionIndex": "0x0",
          "logIndex": "0x0",
          "removed": false
        },
        {
          "address": "0x4adb43b5f36edaa98f156b4861c3aa538f2b73e0",
          "topics": [
            "0x8be0079c531659141344cd1fd0a4f28419497f9722a3daafe3b4186f6b6457e0",
            "0x0000000000000000000000000000000000000000000000000000000000000000",
            "0x0000000000000000000000008a5059369443997ad7b3859eb9f57fbf92645352"
          ],
          "data": "0x",
          "blockHash": "0x959c740e7b1a44f764737aa22faad2c56591f83cb20af15430b98636b45511c5",
          "blockNumber": "0xfd196c",
          "transactionHash": "0xe6f1f3f48c7a4bdd4ad07547e617c0eeedf2f9f47056a79451a17381484cb2bc",
          "transactionIndex": "0x0",
          "logIndex": "0x1",
          "removed": false
        },
        {
          "address": "0x4adb43b5f36edaa98f156b4861c3aa538f2b73e0",
          "topics": [
            "0xc7f505b2f371ae2175ee4913f4499e1f2633a7b5936321eed1cdaeb6115181d2"
          ],
          "data": "0x0000000000000000000000000000000000000000000000000000000000000001",
          "blockHash": "0x959c740e7b1a44f764737aa22faad2c56591f83cb20af15430b98636b45511c5",
          "blockNumber": "0xfd196c",
          "transactionHash": "0xe6f1f3f48c7a4bdd4ad07547e617c0eeedf2f9f47056a79451a17381484cb2bc",
          "transactionIndex": "0x0",
          "logIndex": "0x2",
          "removed": false
        },
        {
          "address": "0x4adb43b5f36edaa98f156b4861c3aa538f2b73e0",
          "topics": [
            "0x8be0079c531659141344cd1fd0a4f28419497f9722a3daafe3b4186f6b6457e0",
            "0x0000000000000000000000008a5059369443997ad7b3859eb9f57fbf92645352",
            "0x000000000000000000000000a99526e4dc81b85c1d248ca974eadce81837ecf1"
          ],
          "data": "0x",
          "blockHash": "0x959c740e7b1a44f764737aa22faad2c56591f83cb20af15430b98636b45511c5",
          "blockNumber": "0xfd196c",
          "transactionHash": "0xe6f1f3f48c7a4bdd4ad07547e617c0eeedf2f9f47056a79451a17381484cb2bc",
          "transactionIndex": "0x0",
          "logIndex": "0x3",
          "removed": false
        },
        {
          "address": "0x8a5059369443997ad7b3859eb9f57fbf92645352",
          "topics": [
            "0x171ccc46ca30ce15b8e391d7e1db8cf7644ed26a313b10df70a92b13da343541",
            "0x0000000000000000000000004adb43b5f36edaa98f156b4861c3aa538f2b73e0",
            "0x000000000000000000000000a99526e4dc81b85c1d248ca974eadce81837ecf1"
          ],
          "data": "0x",
          "blockHash": "0x959c740e7b1a44f764737aa22faad2c56591f83cb20af15430b98636b45511c5",
          "blockNumber": "0xfd196c",
          "transactionHash": "0xe6f1f3f48c7a4bdd4ad07547e617c0eeedf2f9f47056a79451a17381484cb2bc",
          "transactionIndex": "0x0",
          "logIndex": "0x4",
          "removed": false
        },
        {
          "address": "0x8a5059369443997ad7b3859eb9f57fbf92645352",
          "topics": [
            "0x2229e9930d25a4974976f5fb5461a33fcd0fefa19393ad50af745b5fa4ccce8b",
            "0x0000000000000000000000004adb43b5f36edaa98f156b4861c3aa538f2b73e0"
          ],
          "data": "0x00000000000000000000000000000000000000000000000000000000000000200000000000000000000000000000000000000000000000000000000000000003534f470000000000000000000000000000000000000000000000000000000000",
          "blockHash": "0x959c740e7b1a44f764737aa22faad2c56591f83cb20af15430b98636b45511c5",
          "blockNumber": "0xfd196c",
          "transactionHash": "0xe6f1f3f48c7a4bdd4ad07547e617c0eeedf2f9f47056a79451a17381484cb2bc",
          "transactionIndex": "0x0",
          "logIndex": "0x5",
          "removed": false
        },
        {
          "address": "0x7cef9c60864538c81b6cac4acca5f263e0873b68",
          "topics": [
            "0x5902eed5cd330f690551c9c5095eacb178efeaf6896420b9473fa373b2313f1a",
            "0x0000000000000000000000004adb43b5f36edaa98f156b4861c3aa538f2b73e0",
            "0x0000000000000000000000000000000000000000000000000000000000000002"
          ],
          "data": "0x000000000000000000000000000000000000000000000000000000000000002000000000000000000000000000000000000000000000000000000000000000115370656c6c73206f662047656e65736973000000000000000000000000000000",
          "blockHash": "0x959c740e7b1a44f764737aa22faad2c56591f83cb20af15430b98636b45511c5",
          "blockNumber": "0xfd196c",
          "transactionHash": "0xe6f1f3f48c7a4bdd4ad07547e617c0eeedf2f9f47056a79451a17381484cb2bc",
          "transactionIndex": "0x0",
          "logIndex": "0x6",
          "removed": false
        }
      ],
      "logsBloom": "0x04000001000000000000020000000000000000000000000000800000000010000000000000000000000000000000000000100020000000000020004000000000000000000000000004000400002000000101200000000000000000000000000020000080020000000020000000000800000000000000000000000000000000408000000000000000000800004000000040000100000080000000100004000000000000000000010000000140008000000800000000000000003000000000000000000000004000000000000000000000000000000004000000000000000020008000000000000000000000000000000000004000008000800000000000400000",
      "type": "0x0",
      "transactionHash": "0xe6f1f3f48c7a4bdd4ad07547e617c0eeedf2f9f47056a79451a17381484cb2bc",
      "transactionIndex": "0x0",
      "blockHash": "0x959c740e7b1a44f764737aa22faad2c56591f83cb20af15430b98636b45511c5",
      "blockNumber": "0xfd196c",
      "gasUsed": "0x4d273",
      "effectiveGasPrice": "0x5f5e10",
      "from": "0xa99526e4dc81b85c1d248ca974eadce81837ecf1",
      "to": "0x7cef9c60864538c81b6cac4acca5f263e0873b68",
      "contractAddress": null
    },
    {
      "status": "0x1",
      "cumulativeGasUsed": "0x4d22b",
      "logs": [
        {
          "address": "0xdc6e8dc6b1aa1e0a35adc3b5c10b3355d1954017",
          "topics": [
            "0x367184f1bb13aa656fb065e5e2b1104b30f71206d03961639cac77f3a6b33176",
            "0x00000000000000000000000036b42e3c90775d495e63f8fe4d4c517de4c03e67"
          ],
          "data": "0x",
          "blockHash": "0xb7bc017faff9458a6b47a81661a414d3997eb05cc32d7be3529cfee39b5119dd",
          "blockNumber": "0xfd196e",
          "transactionHash": "0xb6450e0cad138d5e3cc34fa4acc183ae6d71c834d24ec1453d69bdbfb69e8fff",
          "transactionIndex": "0x0",
          "logIndex": "0x0",
          "removed": false
        },
        {
          "address": "0xdc6e8dc6b1aa1e0a35adc3b5c10b3355d1954017",
          "topics": [
            "0x8be0079c531659141344cd1fd0a4f28419497f9722a3daafe3b4186f6b6457e0",
            "0x0000000000000000000000000000000000000000000000000000000000000000",
            "0x0000000000000000000000008a5059369443997ad7b3859eb9f57fbf92645352"
          ],
          "data": "0x",
          "blockHash": "0xb7bc017faff9458a6b47a81661a414d3997eb05cc32d7be3529cfee39b5119dd",
          "blockNumber": "0xfd196e",
          "transactionHash": "0xb6450e0cad138d5e3cc34fa4acc183ae6d71c834d24ec1453d69bdbfb69e8fff",
          "transactionIndex": "0x0",
          "logIndex": "0x1",
          "removed": false
        },
        {
          "address": "0xdc6e8dc6b1aa1e0a35adc3b5c10b3355d1954017",
          "topics": [
            "0xc7f505b2f371ae2175ee4913f4499e1f2633a7b5936321eed1cdaeb6115181d2"
          ],
          "data": "0x0000000000000000000000000000000000000000000000000000000000000001",
          "blockHash": "0xb7bc017faff9458a6b47a81661a414d3997eb05cc32d7be3529cfee39b5119dd",
          "blockNumber": "0xfd196e",
          "transactionHash": "0xb6450e0cad138d5e3cc34fa4acc183ae6d71c834d24ec1453d69bdbfb69e8fff",
          "transactionIndex": "0x0",
          "logIndex": "0x2",
          "removed": false
        },
        {
          "address": "0xdc6e8dc6b1aa1e0a35adc3b5c10b3355d1954017",
          "topics": [
            "0x8be0079c531659141344cd1fd0a4f28419497f9722a3daafe3b4186f6b6457e0",
            "0x0000000000000000000000008a5059369443997ad7b3859eb9f57fbf92645352",
            "0x000000000000000000000000a99526e4dc81b85c1d248ca974eadce81837ecf1"
          ],
          "data": "0x",
          "blockHash": "0xb7bc017faff9458a6b47a81661a414d3997eb05cc32d7be3529cfee39b5119dd",
          "blockNumber": "0xfd196e",
          "transactionHash": "0xb6450e0cad138d5e3cc34fa4acc183ae6d71c834d24ec1453d69bdbfb69e8fff",
          "transactionIndex": "0x0",
          "logIndex": "0x3",
          "removed": false
        },
        {
          "address": "0x8a5059369443997ad7b3859eb9f57fbf92645352",
          "topics": [
            "0x171ccc46ca30ce15b8e391d7e1db8cf7644ed26a313b10df70a92b13da343541",
            "0x000000000000000000000000dc6e8dc6b1aa1e0a35adc3b5c10b3355d1954017",
            "0x000000000000000000000000a99526e4dc81b85c1d248ca974eadce81837ecf1"
          ],
          "data": "0x",
          "blockHash": "0xb7bc017faff9458a6b47a81661a414d3997eb05cc32d7be3529cfee39b5119dd",
          "blockNumber": "0xfd196e",
          "transactionHash": "0xb6450e0cad138d5e3cc34fa4acc183ae6d71c834d24ec1453d69bdbfb69e8fff",
          "transactionIndex": "0x0",
          "logIndex": "0x4",
          "removed": false
        },
        {
          "address": "0x8a5059369443997ad7b3859eb9f57fbf92645352",
          "topics": [
            "0x2229e9930d25a4974976f5fb5461a33fcd0fefa19393ad50af745b5fa4ccce8b",
            "0x000000000000000000000000dc6e8dc6b1aa1e0a35adc3b5c10b3355d1954017"
          ],
          "data": "0x0000000000000000000000000000000000000000000000000000000000000020000000000000000000000000000000000000000000000000000000000000000446414b4500000000000000000000000000000000000000000000000000000000",
          "blockHash": "0xb7bc017faff9458a6b47a81661a414d3997eb05cc32d7be3529cfee39b5119dd",
          "blockNumber": "0xfd196e",
          "transactionHash": "0xb6450e0cad138d5e3cc34fa4acc183ae6d71c834d24ec1453d69bdbfb69e8fff",
          "transactionIndex": "0x0",
          "logIndex": "0x5",
          "removed": false
        },
        {
          "address": "0x7cef9c60864538c81b6cac4acca5f263e0873b68",
          "topics": [
            "0x5902eed5cd330f690551c9c5095eacb178efeaf6896420b9473fa373b2313f1a",
            "0x000000000000000000000000dc6e8dc6b1aa1e0a35adc3b5c10b3355d1954017",
            "0x0000000000000000000000000000000000000000000000000000000000000002"
          ],
          "data": "0x0000000000000000000000000000000000000000000000000000000000000020000000000000000000000000000000000000000000000000000000000000000a46616b6520526172657300000000000000000000000000000000000000000000",
          "blockHash": "0xb7bc017faff9458a6b47a81661a414d3997eb05cc32d7be3529cfee39b5119dd",
          "blockNumber": "0xfd196e",
          "transactionHash": "0xb6450e0cad138d5e3cc34fa4acc183ae6d71c834d24ec1453d69bdbfb69e8fff",
          "transactionIndex": "0x0",
          "logIndex": "0x6",
          "removed": false
        }
      ],
      "logsBloom": "0x04000001000000000000000000000000000000000002000000800000000000000000000000000000000000000000000000000020000000000000004000000800000000000000000004000400002000000101200000000000000000000000000020000080020000000020000000000800000000000000000800000000000000408000000000000000000800004000000040000100000080000000100004000000000000000000010000000140000000000800000000000000003000080000000000000000004000000000000000000000000000000004000000000000000024000000000000000000400000000000000000004000008000800000000000400000",
      "type": "0x0",
      "transactionHash": "0xb6450e0cad138d5e3cc34fa4acc183ae6d71c834d24ec1453d69bdbfb69e8fff",
      "transactionIndex": "0x0",
      "blockHash": "0xb7bc017faff9458a6b47a81661a414d3997eb05cc32d7be3529cfee39b5119dd",
      "blockNumber": "0xfd196e",
      "gasUsed": "0x4d22b",
      "effectiveGasPrice": "0x5f5e10",
      "from": "0xa99526e4dc81b85c1d248ca974eadce81837ecf1",
      "to": "0x7cef9c60864538c81b6cac4acca5f263e0873b68",
      "contractAddress": null
    },
    {
      "status": "0x1",
      "cumulativeGasUsed": "0x63b77",
      "logs": [
        {
          "address": "0xf393be102199f2f52cda2b60e3b7253d436f34e4",
          "topics": [
            "0x367184f1bb13aa656fb065e5e2b1104b30f71206d03961639cac77f3a6b33176",
            "0x0000000000000000000000008b6685c4dee810a119dc93f921c8d3945943128d"
          ],
          "data": "0x",
          "blockHash": "0x3ac2e18c5326d1c05e9ded1a9a6a0f00df1429ce18db775f7816027293ea7886",
          "blockNumber": "0xfd1970",
          "transactionHash": "0x2f1c8363d82fc42bd03ae7c2e95262a61f1f230a4112a48f8308147ece2f55e6",
          "transactionIndex": "0x0",
          "logIndex": "0x0",
          "removed": false
        },
        {
          "address": "0xf393be102199f2f52cda2b60e3b7253d436f34e4",
          "topics": [
            "0x8be0079c531659141344cd1fd0a4f28419497f9722a3daafe3b4186f6b6457e0",
            "0x0000000000000000000000000000000000000000000000000000000000000000",
            "0x0000000000000000000000008a5059369443997ad7b3859eb9f57fbf92645352"
          ],
          "data": "0x",
          "blockHash": "0x3ac2e18c5326d1c05e9ded1a9a6a0f00df1429ce18db775f7816027293ea7886",
          "blockNumber": "0xfd1970",
          "transactionHash": "0x2f1c8363d82fc42bd03ae7c2e95262a61f1f230a4112a48f8308147ece2f55e6",
          "transactionIndex": "0x0",
          "logIndex": "0x1",
          "removed": false
        },
        {
          "address": "0xf393be102199f2f52cda2b60e3b7253d436f34e4",
          "topics": [
            "0xc7f505b2f371ae2175ee4913f4499e1f2633a7b5936321eed1cdaeb6115181d2"
          ],
          "data": "0x0000000000000000000000000000000000000000000000000000000000000001",
          "blockHash": "0x3ac2e18c5326d1c05e9ded1a9a6a0f00df1429ce18db775f7816027293ea7886",
          "blockNumber": "0xfd1970",
          "transactionHash": "0x2f1c8363d82fc42bd03ae7c2e95262a61f1f230a4112a48f8308147ece2f55e6",
          "transactionIndex": "0x0",
          "logIndex": "0x2",
          "removed": false
        },
        {
          "address": "0xf393be102199f2f52cda2b60e3b7253d436f34e4",
          "topics": [
            "0x8be0079c531659141344cd1fd0a4f28419497f9722a3daafe3b4186f6b6457e0",
            "0x0000000000000000000000008a5059369443997ad7b3859eb9f57fbf92645352",
            "0x000000000000000000000000a99526e4dc81b85c1d248ca974eadce81837ecf1"
          ],
          "data": "0x",
          "blockHash": "0x3ac2e18c5326d1c05e9ded1a9a6a0f00df1429ce18db775f7816027293ea7886",
          "blockNumber": "0xfd1970",
          "transactionHash": "0x2f1c8363d82fc42bd03ae7c2e95262a61f1f230a4112a48f8308147ece2f55e6",
          "transactionIndex": "0x0",
          "logIndex": "0x3",
          "removed": false
        },
        {
          "address": "0x8a5059369443997ad7b3859eb9f57fbf92645352",
          "topics": [
            "0x171ccc46ca30ce15b8e391d7e1db8cf7644ed26a313b10df70a92b13da343541",
            "0x000000000000000000000000f393be102199f2f52cda2b60e3b7253d436f34e4",
            "0x000000000000000000000000a99526e4dc81b85c1d248ca974eadce81837ecf1"
          ],
          "data": "0x",
          "blockHash": "0x3ac2e18c5326d1c05e9ded1a9a6a0f00df1429ce18db775f7816027293ea7886",
          "blockNumber": "0xfd1970",
          "transactionHash": "0x2f1c8363d82fc42bd03ae7c2e95262a61f1f230a4112a48f8308147ece2f55e6",
          "transactionIndex": "0x0",
          "logIndex": "0x4",
          "removed": false
        },
        {
          "address": "0x8a5059369443997ad7b3859eb9f57fbf92645352",
          "topics": [
            "0xc235116ab1fd2ce09ba4690b74e2e7782ddf6f4a49eda5a12e0c320f7c65ccd6",
            "0x000000000000000000000000f393be102199f2f52cda2b60e3b7253d436f34e4"
          ],
          "data": "0x000000000000000000000000000000000000000000000000000000000000004000000000000000000000000000000000000000000000000000000000000000800000000000000000000000000000000000000000000000000000000000000007456d42656c6c7300000000000000000000000000000000000000000000000000000000000000000000000000000000000000000000000000000000000000000442454c4c00000000000000000000000000000000000000000000000000000000",
          "blockHash": "0x3ac2e18c5326d1c05e9ded1a9a6a0f00df1429ce18db775f7816027293ea7886",
          "blockNumber": "0xfd1970",
          "transactionHash": "0x2f1c8363d82fc42bd03ae7c2e95262a61f1f230a4112a48f8308147ece2f55e6",
          "transactionIndex": "0x0",
          "logIndex": "0x5",
          "removed": false
        },
        {
          "address": "0x7cef9c60864538c81b6cac4acca5f263e0873b68",
          "topics": [
            "0x5902eed5cd330f690551c9c5095eacb178efeaf6896420b9473fa373b2313f1a",
            "0x000000000000000000000000f393be102199f2f52cda2b60e3b7253d436f34e4",
            "0x0000000000000000000000000000000000000000000000000000000000000001"
          ],
          "data": "0x00000000000000000000000000000000000000000000000000000000000000200000000000000000000000000000000000000000000000000000000000000007456d42656c6c7300000000000000000000000000000000000000000000000000",
          "blockHash": "0x3ac2e18c5326d1c05e9ded1a9a6a0f00df1429ce18db775f7816027293ea7886",
          "blockNumber": "0xfd1970",
          "transactionHash": "0x2f1c8363d82fc42bd03ae7c2e95262a61f1f230a4112a48f8308147ece2f55e6",
          "transactionIndex": "0x0",
          "logIndex": "0x6",
          "removed": false
        }
      ],
      "logsBloom": "0x00000000000000000000000000100000000600000000000000800000000000000010000000000000000000000080000000000020000000000000004000040000000000000000000000000400002000000101000000040000000000000000000020000080020000000020000000000800000000000000000000000000000000408000000000001000000800004000000040000100000080100000100004000000010000000000010000000040000000000000000000000000001000040000000000000000004000001000000400000000000000010004000000000000000060000000000000000000000000000000000000004000000000800000000000400000",
      "type": "0x0",
      "transactionHash": "0x2f1c8363d82fc42bd03ae7c2e95262a61f1f230a4112a48f8308147ece2f55e6",
      "transactionIndex": "0x0",
      "blockHash": "0x3ac2e18c5326d1c05e9ded1a9a6a0f00df1429ce18db775f7816027293ea7886",
      "blockNumber": "0xfd1970",
      "gasUsed": "0x63b77",
      "effectiveGasPrice": "0x5f5e10",
      "from": "0xa99526e4dc81b85c1d248ca974eadce81837ecf1",
      "to": "0x7cef9c60864538c81b6cac4acca5f263e0873b68",
      "contractAddress": null
    },
    {
      "status": "0x1",
      "cumulativeGasUsed": "0x63ba7",
      "logs": [
        {
          "address": "0x2bbb34958c52a9658aa224244772005b34cd6704",
          "topics": [
            "0x367184f1bb13aa656fb065e5e2b1104b30f71206d03961639cac77f3a6b33176",
            "0x0000000000000000000000008b6685c4dee810a119dc93f921c8d3945943128d"
          ],
          "data": "0x",
          "blockHash": "0x90a4403326b0f3fcd45b64f2dc3020e30c2505a93865106838af96502c0c939e",
          "blockNumber": "0xfd1972",
          "transactionHash": "0x1199b8c3c8fce507546126c439676732fe9e53040aadfd754b020e5bede72291",
          "transactionIndex": "0x0",
          "logIndex": "0x0",
          "removed": false
        },
        {
          "address": "0x2bbb34958c52a9658aa224244772005b34cd6704",
          "topics": [
            "0x8be0079c531659141344cd1fd0a4f28419497f9722a3daafe3b4186f6b6457e0",
            "0x0000000000000000000000000000000000000000000000000000000000000000",
            "0x0000000000000000000000008a5059369443997ad7b3859eb9f57fbf92645352"
          ],
          "data": "0x",
          "blockHash": "0x90a4403326b0f3fcd45b64f2dc3020e30c2505a93865106838af96502c0c939e",
          "blockNumber": "0xfd1972",
          "transactionHash": "0x1199b8c3c8fce507546126c439676732fe9e53040aadfd754b020e5bede72291",
          "transactionIndex": "0x0",
          "logIndex": "0x1",
          "removed": false
        },
        {
          "address": "0x2bbb34958c52a9658aa224244772005b34cd6704",
          "topics": [
            "0xc7f505b2f371ae2175ee4913f4499e1f2633a7b5936321eed1cdaeb6115181d2"
          ],
          "data": "0x0000000000000000000000000000000000000000000000000000000000000001",
          "blockHash": "0x90a4403326b0f3fcd45b64f2dc3020e30c2505a93865106838af96502c0c939e",
          "blockNumber": "0xfd1972",
          "transactionHash": "0x1199b8c3c8fce507546126c439676732fe9e53040aadfd754b020e5bede72291",
          "transactionIndex": "0x0",
          "logIndex": "0x2",
          "removed": false
        },
        {
          "address": "0x2bbb34958c52a9658aa224244772005b34cd6704",
          "topics": [
            "0x8be0079c531659141344cd1fd0a4f28419497f9722a3daafe3b4186f6b6457e0",
            "0x0000000000000000000000008a5059369443997ad7b3859eb9f57fbf92645352",
            "0x000000000000000000000000a99526e4dc81b85c1d248ca974eadce81837ecf1"
          ],
          "data": "0x",
          "blockHash": "0x90a4403326b0f3fcd45b64f2dc3020e30c2505a93865106838af96502c0c939e",
          "blockNumber": "0xfd1972",
          "transactionHash": "0x1199b8c3c8fce507546126c439676732fe9e53040aadfd754b020e5bede72291",
          "transactionIndex": "0x0",
          "logIndex": "0x3",
          "removed": false
        },
        {
          "address": "0x8a5059369443997ad7b3859eb9f57fbf92645352",
          "topics": [
            "0x171ccc46ca30ce15b8e391d7e1db8cf7644ed26a313b10df70a92b13da343541",
            "0x0000000000000000000000002bbb34958c52a9658aa224244772005b34cd6704",
            "0x000000000000000000000000a99526e4dc81b85c1d248ca974eadce81837ecf1"
          ],
          "data": "0x",
          "blockHash": "0x90a4403326b0f3fcd45b64f2dc3020e30c2505a93865106838af96502c0c939e",
          "blockNumber": "0xfd1972",
          "transactionHash": "0x1199b8c3c8fce507546126c439676732fe9e53040aadfd754b020e5bede72291",
          "transactionIndex": "0x0",
          "logIndex": "0x4",
          "removed": false
        },
        {
          "address": "0x8a5059369443997ad7b3859eb9f57fbf92645352",
          "topics": [
            "0xc235116ab1fd2ce09ba4690b74e2e7782ddf6f4a49eda5a12e0c320f7c65ccd6",
            "0x0000000000000000000000002bbb34958c52a9658aa224244772005b34cd6704"
          ],
          "data": "0x00000000000000000000000000000000000000000000000000000000000000400000000000000000000000000000000000000000000000000000000000000080000000000000000000000000000000000000000000000000000000000000000b456d626c656d204f70656e00000000000000000000000000000000000000000000000000000000000000000000000000000000000000000000000000000000044f50454e00000000000000000000000000000000000000000000000000000000",
          "blockHash": "0x90a4403326b0f3fcd45b64f2dc3020e30c2505a93865106838af96502c0c939e",
          "blockNumber": "0xfd1972",
          "transactionHash": "0x1199b8c3c8fce507546126c439676732fe9e53040aadfd754b020e5bede72291",
          "transactionIndex": "0x0",
          "logIndex": "0x5",
          "removed": false
        },
        {
          "address": "0x7cef9c60864538c81b6cac4acca5f263e0873b68",
          "topics": [
            "0x5902eed5cd330f690551c9c5095eacb178efeaf6896420b9473fa373b2313f1a",
            "0x0000000000000000000000002bbb34958c52a9658aa224244772005b34cd6704",
            "0x0000000000000000000000000000000000000000000000000000000000000001"
          ],
          "data": "0x0000000000000000000000000000000000000000000000000000000000000020000000000000000000000000000000000000000000000000000000000000000b456d626c656d204f70656e000000000000000000000000000000000000000000",
          "blockHash": "0x90a4403326b0f3fcd45b64f2dc3020e30c2505a93865106838af96502c0c939e",
          "blockNumber": "0xfd1972",
          "transactionHash": "0x1199b8c3c8fce507546126c439676732fe9e53040aadfd754b020e5bede72291",
          "transactionIndex": "0x0",
          "logIndex": "0x6",
          "removed": false
        }
      ],
      "logsBloom": "0x00000400000000000000000000100000000200000000000000800000000000000010000000000000000000000080000000000020000000000000004000040000000000000000000000000400002000000101800000040000000000000000000020000080020000000020000000000800000000000000000000000000000000408000000000000000000800004000000040000100100080000000100004000000010000000000010000000040000000000000000000000000001000040000000000000000004000000000000000000000000000002004000000000000000860000100000000000000000000000000000000004000000000800000000000400000",
      "type": "0x0",
      "transactionHash": "0x1199b8c3c8fce507546126c439676732fe9e53040aadfd754b020e5bede72291",
      "transactionIndex": "0x0",
      "blockHash": "0x90a4403326b0f3fcd45b64f2dc3020e30c2505a93865106838af96502c0c939e",
      "blockNumber": "0xfd1972",
      "gasUsed": "0x63ba7",
      "effectiveGasPrice": "0x5f5e10",
      "from": "0xa99526e4dc81b85c1d248ca974eadce81837ecf1",
      "to": "0x7cef9c60864538c81b6cac4acca5f263e0873b68",
      "contractAddress": null
    },
    {
      "status": "0x1",
      "cumulativeGasUsed": "0x221cd",
      "logs": [
        {
          "address": "0x7cef9c60864538c81b6cac4acca5f263e0873b68",
          "topics": [
            "0x386488dff7e0422825a9a6550182ab7f1d7ef789131917bfd8dd6ffe29afe08d",
            "0x000000000000000000000000734bcdd64edd612ff6635b54de3fa9871aeb981d"
          ],
          "data": "0x0000000000000000000000000000000000000000000000000000000000000020000000000000000000000000000000000000000000000000000000000000004d68747470733a2f2f76322e656d626c656d7661756c742e696f2f76332f6d6574612f3078373334424364643634656444363132666636363335623534444533664139383731416542393831442f00000000000000000000000000000000000000",
          "blockHash": "0xbb8f4b4e3842fab010cef0925eebb736bc62faea9e522385582cf6ac0b2de456",
          "blockNumber": "0xfd1974",
          "transactionHash": "0xe5c8a8c4bb67fde88084354beba0a3e3412a9d2716059196e6ce2cdcd40e40ee",
          "transactionIndex": "0x0",
          "logIndex": "0x0",
          "removed": false
        }
      ],
      "logsBloom": "0x00000000000000000000000000000000000000000008000000000000000000000000000080000000000000000000004000000000000000000000000000000000000000000000000000000000002000000000000000000000000000000000000020000100000000000000000000000000000000000000000000000000000000000000000000000000000000000000000000000000000000000080000000000000000000000000010000000000000000000000000000000000000000000000000000000000000000000000000000000000000000000000000000000000000000200000000000000000000000000000000000000000000000000000000000000000",
      "type": "0x0",
      "transactionHash": "0xe5c8a8c4bb67fde88084354beba0a3e3412a9d2716059196e6ce2cdcd40e40ee",
      "transactionIndex": "0x0",
      "blockHash": "0xbb8f4b4e3842fab010cef0925eebb736bc62faea9e522385582cf6ac0b2de456",
      "blockNumber": "0xfd1974",
      "gasUsed": "0x221cd",
      "effectiveGasPrice": "0x5f5e10",
      "from": "0xa99526e4dc81b85c1d248ca974eadce81837ecf1",
      "to": "0x7cef9c60864538c81b6cac4acca5f263e0873b68",
      "contractAddress": null
    },
    {
      "status": "0x1",
      "cumulativeGasUsed": "0x221cd",
      "logs": [
        {
          "address": "0x7cef9c60864538c81b6cac4acca5f263e0873b68",
          "topics": [
            "0x386488dff7e0422825a9a6550182ab7f1d7ef789131917bfd8dd6ffe29afe08d",
            "0x0000000000000000000000004adb43b5f36edaa98f156b4861c3aa538f2b73e0"
          ],
          "data": "0x0000000000000000000000000000000000000000000000000000000000000020000000000000000000000000000000000000000000000000000000000000004d68747470733a2f2f76322e656d626c656d7661756c742e696f2f76332f6d6574612f3078346164423433423546333665446141393866313536623438363163336141353338663242373365302f00000000000000000000000000000000000000",
          "blockHash": "0xc00c3589e4cdc69896106ad964e765e6ff61637bb3ca368334f7891884562482",
          "blockNumber": "0xfd1976",
          "transactionHash": "0xbeb0342e6b7367f7483398beb43bf2d0eb10b5ede928f5aef76c86c1912f103a",
          "transactionIndex": "0x0",
          "logIndex": "0x0",
          "removed": false
        }
      ],
      "logsBloom": "0x00000000000000000000020000000000000000000000000000000000000010000000000080000000000000000000000000000000000000000020000000000000000000000000000000000000002000000000000000000000000000000000000020000100000000000000000000000000000000000000000000000000000000000000000000000000000000000000000000000000000000000000000000000000000000000000010000000000000000000000000000000000000000000000000000000000000000000000000000000000000000000000000000000000000000200000000000000000000000000000000000000000000000000000000000000000",
      "type": "0x0",
      "transactionHash": "0xbeb0342e6b7367f7483398beb43bf2d0eb10b5ede928f5aef76c86c1912f103a",
      "transactionIndex": "0x0",
      "blockHash": "0xc00c3589e4cdc69896106ad964e765e6ff61637bb3ca368334f7891884562482",
      "blockNumber": "0xfd1976",
      "gasUsed": "0x221cd",
      "effectiveGasPrice": "0x5f5e10",
      "from": "0xa99526e4dc81b85c1d248ca974eadce81837ecf1",
      "to": "0x7cef9c60864538c81b6cac4acca5f263e0873b68",
      "contractAddress": null
    },
    {
      "status": "0x1",
      "cumulativeGasUsed": "0x221cd",
      "logs": [
        {
          "address": "0x7cef9c60864538c81b6cac4acca5f263e0873b68",
          "topics": [
            "0x386488dff7e0422825a9a6550182ab7f1d7ef789131917bfd8dd6ffe29afe08d",
            "0x000000000000000000000000dc6e8dc6b1aa1e0a35adc3b5c10b3355d1954017"
          ],
          "data": "0x0000000000000000000000000000000000000000000000000000000000000020000000000000000000000000000000000000000000000000000000000000004d68747470733a2f2f76322e656d626c656d7661756c742e696f2f76332f6d6574612f3078446336653864433642314141316530613335614463334235633130423333353544313935343031372f00000000000000000000000000000000000000",
          "blockHash": "0x5fd3a85042804f6b1d27ef1ac31d66353c44bb311beac535be22b0fcddde7fdd",
          "blockNumber": "0xfd1978",
          "transactionHash": "0x69b681c56b6f1cb0aff6d811f34bd5ff7a06fd2111d8f8cf3fe24c422c1a79f8",
          "transactionIndex": "0x0",
          "logIndex": "0x0",
          "removed": false
        }
      ],
      "logsBloom": "0x00000000000000000000000000000000000000000000000000000000000000000000000080000000000000000000000000000000000000000000000000000800000000000000000000000000002000000000000000000000000000000000000020000100000000000000000000000000000000000000000800000000000000000000000000000000000000000000000000000000000000000000000000000000000000000000010000000000000000000000000000000000000000080000000000000000000000000000000000000000000000000000000000000000000000200000000000000000000000000000000000000000000000000000000000000000",
      "type": "0x0",
      "transactionHash": "0x69b681c56b6f1cb0aff6d811f34bd5ff7a06fd2111d8f8cf3fe24c422c1a79f8",
      "transactionIndex": "0x0",
      "blockHash": "0x5fd3a85042804f6b1d27ef1ac31d66353c44bb311beac535be22b0fcddde7fdd",
      "blockNumber": "0xfd1978",
      "gasUsed": "0x221cd",
      "effectiveGasPrice": "0x5f5e10",
      "from": "0xa99526e4dc81b85c1d248ca974eadce81837ecf1",
      "to": "0x7cef9c60864538c81b6cac4acca5f263e0873b68",
      "contractAddress": null
    },
    {
      "status": "0x1",
      "cumulativeGasUsed": "0x222ff",
      "logs": [
        {
          "address": "0xf393be102199f2f52cda2b60e3b7253d436f34e4",
          "topics": [
            "0x6741b2fc379fad678116fe3d4d4b9a1a184ab53ba36b86ad0fa66340b1ab41ad"
          ],
          "data": "0x0000000000000000000000000000000000000000000000000000000000000020000000000000000000000000000000000000000000000000000000000000004d68747470733a2f2f76322e656d626c656d7661756c742e696f2f76332f6d6574612f3078663339336245313032313939463246353263644132423630453342373235334434333666333445342f00000000000000000000000000000000000000",
          "blockHash": "0xa0b569a325faea23a9f66257cb7ec90c81e4b461d9bfd36651ea1e8e0b2fb505",
          "blockNumber": "0xfd197a",
          "transactionHash": "0x63c6d72f28e7567bad608bdf4b7722e97e2aec31720d450a8dfcc5db1c0464dd",
          "transactionIndex": "0x0",
          "logIndex": "0x0",
          "removed": false
        },
        {
          "address": "0x7cef9c60864538c81b6cac4acca5f263e0873b68",
          "topics": [
            "0x65936d1dee571c89e7bc171ad8e94e288d930f863c2a4a92a0593baef6573ee9",
            "0x000000000000000000000000f393be102199f2f52cda2b60e3b7253d436f34e4"
          ],
          "data": "0x0000000000000000000000000000000000000000000000000000000000000020000000000000000000000000000000000000000000000000000000000000004d68747470733a2f2f76322e656d626c656d7661756c742e696f2f76332f6d6574612f3078663339336245313032313939463246353263644132423630453342373235334434333666333445342f00000000000000000000000000000000000000",
          "blockHash": "0xa0b569a325faea23a9f66257cb7ec90c81e4b461d9bfd36651ea1e8e0b2fb505",
          "blockNumber": "0xfd197a",
          "transactionHash": "0x63c6d72f28e7567bad608bdf4b7722e97e2aec31720d450a8dfcc5db1c0464dd",
          "transactionIndex": "0x0",
          "logIndex": "0x1",
          "removed": false
        }
      ],
      "logsBloom": "0x00000000000000000000000000000000000404000000000000000000000000080000000000000000000000000000000000000000000000000000000000000000000000000000000000000000002000000000000000000000000000000000000020000000000000000000000000000000000000000000000000000000000000000000000000001000000000000000000000000000000000100000000000000000000001000000010000000000000000000000000000000000000000000000000000000000000000001000000600004000000000010000000000000000000000002000000000000000000000000000000000000000000000000000000000000000",
      "type": "0x0",
      "transactionHash": "0x63c6d72f28e7567bad608bdf4b7722e97e2aec31720d450a8dfcc5db1c0464dd",
      "transactionIndex": "0x0",
      "blockHash": "0xa0b569a325faea23a9f66257cb7ec90c81e4b461d9bfd36651ea1e8e0b2fb505",
      "blockNumber": "0xfd197a",
      "gasUsed": "0x222ff",
      "effectiveGasPrice": "0x5f5e10",
      "from": "0xa99526e4dc81b85c1d248ca974eadce81837ecf1",
      "to": "0x7cef9c60864538c81b6cac4acca5f263e0873b68",
      "contractAddress": null
    },
    {
      "status": "0x1",
      "cumulativeGasUsed": "0x222f3",
      "logs": [
        {
          "address": "0x2bbb34958c52a9658aa224244772005b34cd6704",
          "topics": [
            "0x6741b2fc379fad678116fe3d4d4b9a1a184ab53ba36b86ad0fa66340b1ab41ad"
          ],
          "data": "0x0000000000000000000000000000000000000000000000000000000000000020000000000000000000000000000000000000000000000000000000000000004d68747470733a2f2f76322e656d626c656d7661756c742e696f2f76332f6d6574612f3078324262423334393538433532613936353841613232343234343737323030354233344344363730342f00000000000000000000000000000000000000",
          "blockHash": "0x7a5a9c8f3033c296b0294112d31af5528274ad77f74b9b78ada0bf35f6c5cd83",
          "blockNumber": "0xfd197c",
          "transactionHash": "0xda152bdb487673a02e60dfe4ede86894d2d6158b45e18bbfc84f38f5e3f94fa3",
          "transactionIndex": "0x0",
          "logIndex": "0x0",
          "removed": false
        },
        {
          "address": "0x7cef9c60864538c81b6cac4acca5f263e0873b68",
          "topics": [
            "0x65936d1dee571c89e7bc171ad8e94e288d930f863c2a4a92a0593baef6573ee9",
            "0x0000000000000000000000002bbb34958c52a9658aa224244772005b34cd6704"
          ],
          "data": "0x0000000000000000000000000000000000000000000000000000000000000020000000000000000000000000000000000000000000000000000000000000004d68747470733a2f2f76322e656d626c656d7661756c742e696f2f76332f6d6574612f3078324262423334393538433532613936353841613232343234343737323030354233344344363730342f00000000000000000000000000000000000000",
          "blockHash": "0x7a5a9c8f3033c296b0294112d31af5528274ad77f74b9b78ada0bf35f6c5cd83",
          "blockNumber": "0xfd197c",
          "transactionHash": "0xda152bdb487673a02e60dfe4ede86894d2d6158b45e18bbfc84f38f5e3f94fa3",
          "transactionIndex": "0x0",
          "logIndex": "0x1",
          "removed": false
        }
      ],
      "logsBloom": "0x00000400000000000000000000000000000004000000000000000000000000080000000000000000000000000000000000000000000000000000000000000000000000000000000000000000002000000000800000000000000000000000000020000000000000000000000000000000000000000000000000000000000000000000000000000000000000000000000000000000100000000000000000000000000001000000010000000000000000000000000000000000000000000000000000000000000000000000000200004000000000002000000000000000000800002100000000000000000000000000000000000000000000000000000000000000",
      "type": "0x0",
      "transactionHash": "0xda152bdb487673a02e60dfe4ede86894d2d6158b45e18bbfc84f38f5e3f94fa3",
      "transactionIndex": "0x0",
      "blockHash": "0x7a5a9c8f3033c296b0294112d31af5528274ad77f74b9b78ada0bf35f6c5cd83",
      "blockNumber": "0xfd197c",
      "gasUsed": "0x222f3",
      "effectiveGasPrice": "0x5f5e10",
      "from": "0xa99526e4dc81b85c1d248ca974eadce81837ecf1",
      "to": "0x7cef9c60864538c81b6cac4acca5f263e0873b68",
      "contractAddress": null
    }
  ],
  "libraries": [],
  "pending": [],
  "returns": {},
  "timestamp": 1741820244,
  "chain": 686868,
  "commit": null
}