{
  "transactions": [
    {
      "hash": "0x72235da622abb64a189ea5a07435b6b437e4c896662385efcb44c66a160b1f0e",
      "transactionType": "CALL",
      "contractName": null,
      "contractAddress": "0x12f084de536f41bcd29dfc7632db0261cec72c60",
      "function": "createVaultCollection(string,string,uint8)",
      "arguments": [
        "Rare Pepe",
        "PEPE",
        "2"
      ],
      "transaction": {
        "from": "0xa99526e4dc81b85c1d248ca974eadce81837ecf1",
        "to": "0x12f084de536f41bcd29dfc7632db0261cec72c60",
        "gas": "0x6a8e2",
        "value": "0x0",
        "input": "0xa8008080000000000000000000000000000000000000000000000000000000000000006000000000000000000000000000000000000000000000000000000000000000a000000000000000000000000000000000000000000000000000000000000000020000000000000000000000000000000000000000000000000000000000000009526172652050657065000000000000000000000000000000000000000000000000000000000000000000000000000000000000000000000000000000000000045045504500000000000000000000000000000000000000000000000000000000",
        "nonce": "0x11",
        "chainId": "0xaa36a7"
      },
      "additionalContracts": [
        {
          "transactionType": "CREATE",
          "address": "0xafe0130bad95763a66871e1f2fd73b8e7ee18037",
          "initCode": "0x60803460b757601f6102dc38819003918201601f19168301916001600160401b0383118484101760bb5780849260209460405283398101031260b757516001600160a01b0381169081810360b757811560a8577fa3f0ad74e5423aebfd80d3ef4346578335a9a72aeaee59ff6cb3582b35133d5055604051907f367184f1bb13aa656fb065e5e2b1104b30f71206d03961639cac77f3a6b331765f80a261020c90816100d08239f35b63d92e233d60e01b5f5260045ffd5b5f80fd5b634e487b7160e01b5f52604160045260245ffdfe60806040526004361015610015575b3661011d57005b5f3560e01c6301ffc9a70361000e57346100cb5760203660031901126100cb5760043563ffffffff60e01b81168091036100cb5760206001600160a01b0361005b610141565b16916024604051809481936301ffc9a760e01b835260048301525afa80156100d7575f90610096575b604051901515815280602081015b0390f35b506020813d6020116100cf575b816100b0602093836100dc565b810103126100cb575180151581036100cb5761009290610084565b5f80fd5b3d91506100a3565b610112565b90601f8019910116810190811067ffffffffffffffff8211176100fe57604052565b634e487b7160e01b5f52604160045260245ffd5b6040513d5f823e3d90fd5b5f80610127610141565b368280378136915af43d5f803e1561013d573d5ff35b3d5ffd5b7fa3f0ad74e5423aebfd80d3ef4346578335a9a72aeaee59ff6cb3582b35133d5054604051635c60da1b60e01b815290602090829060049082906001600160a01b03165afa9081156100d7575f91610197575090565b90506020813d6020116101ce575b816101b2602093836100dc565b810103126100cb57516001600160a01b03811681036100cb5790565b3d91506101a556fea2646970667358221220b9aa4dcde91f06e0b875fe779d49781682719d788493724bc49bbfa1c806b86564736f6c634300081c00330000000000000000000000002b05d2ec965e10db70eeee8a62ffc39e399601a6"
        }
      ],
      "isFixedGasLimit": false
    },
    {
      "hash": "0x86413088a5848e871200de7fc2367ceaae0acc0ba08285fb7b27c9210a59012d",
      "transactionType": "CALL",
      "contractName": null,
      "contractAddress": "0x12f084de536f41bcd29dfc7632db0261cec72c60",
      "function": "createVaultCollection(string,string,uint8)",
      "arguments": [
        "Spells of Genesis",
        "SOG",
        "2"
      ],
      "transaction": {
        "from": "0xa99526e4dc81b85c1d248ca974eadce81837ecf1",
        "to": "0x12f084de536f41bcd29dfc7632db0261cec72c60",
        "gas": "0x70da7",
        "value": "0x0",
        "input": "0xa8008080000000000000000000000000000000000000000000000000000000000000006000000000000000000000000000000000000000000000000000000000000000a0000000000000000000000000000000000000000000000000000000000000000200000000000000000000000000000000000000000000000000000000000000115370656c6c73206f662047656e657369730000000000000000000000000000000000000000000000000000000000000000000000000000000000000000000003534f470000000000000000000000000000000000000000000000000000000000",
        "nonce": "0x12",
        "chainId": "0xaa36a7"
      },
      "additionalContracts": [
        {
          "transactionType": "CREATE",
          "address": "0xaaa86841631dba89f0841655a679f12b768e2fb8",
          "initCode": "0x60803460b757601f6102dc38819003918201601f19168301916001600160401b0383118484101760bb5780849260209460405283398101031260b757516001600160a01b0381169081810360b757811560a8577fa3f0ad74e5423aebfd80d3ef4346578335a9a72aeaee59ff6cb3582b35133d5055604051907f367184f1bb13aa656fb065e5e2b1104b30f71206d03961639cac77f3a6b331765f80a261020c90816100d08239f35b63d92e233d60e01b5f5260045ffd5b5f80fd5b634e487b7160e01b5f52604160045260245ffdfe60806040526004361015610015575b3661011d57005b5f3560e01c6301ffc9a70361000e57346100cb5760203660031901126100cb5760043563ffffffff60e01b81168091036100cb5760206001600160a01b0361005b610141565b16916024604051809481936301ffc9a760e01b835260048301525afa80156100d7575f90610096575b604051901515815280602081015b0390f35b506020813d6020116100cf575b816100b0602093836100dc565b810103126100cb575180151581036100cb5761009290610084565b5f80fd5b3d91506100a3565b610112565b90601f8019910116810190811067ffffffffffffffff8211176100fe57604052565b634e487b7160e01b5f52604160045260245ffd5b6040513d5f823e3d90fd5b5f80610127610141565b368280378136915af43d5f803e1561013d573d5ff35b3d5ffd5b7fa3f0ad74e5423aebfd80d3ef4346578335a9a72aeaee59ff6cb3582b35133d5054604051635c60da1b60e01b815290602090829060049082906001600160a01b03165afa9081156100d7575f91610197575090565b90506020813d6020116101ce575b816101b2602093836100dc565b810103126100cb57516001600160a01b03811681036100cb5790565b3d91506101a556fea2646970667358221220b9aa4dcde91f06e0b875fe779d49781682719d788493724bc49bbfa1c806b86564736f6c634300081c00330000000000000000000000002b05d2ec965e10db70eeee8a62ffc39e399601a6"
        }
      ],
      "isFixedGasLimit": false
    },
    {
      "hash": "0x9ae00bfe4cb72601719255849a34a0d4dfb271774a7a407c339855e69ba52ab6",
      "transactionType": "CALL",
      "contractName": null,
      "contractAddress": "0x12f084de536f41bcd29dfc7632db0261cec72c60",
      "function": "createVaultCollection(string,string,uint8)",
      "arguments": [
        "Fake Rares",
        "FAKE",
        "2"
      ],
      "transaction": {
        "from": "0xa99526e4dc81b85c1d248ca974eadce81837ecf1",
        "to": "0x12f084de536f41bcd29dfc7632db0261cec72c60",
        "gas": "0x70d3e",
        "value": "0x0",
        "input": "0xa8008080000000000000000000000000000000000000000000000000000000000000006000000000000000000000000000000000000000000000000000000000000000a00000000000000000000000000000000000000000000000000000000000000002000000000000000000000000000000000000000000000000000000000000000a46616b6520526172657300000000000000000000000000000000000000000000000000000000000000000000000000000000000000000000000000000000000446414b4500000000000000000000000000000000000000000000000000000000",
        "nonce": "0x13",
        "chainId": "0xaa36a7"
      },
      "additionalContracts": [
        {
          "transactionType": "CREATE",
          "address": "0x6b31e7c15b0db1fab86f4be94d5d8cbc27bff98b",
          "initCode": "0x60803460b757601f6102dc38819003918201601f19168301916001600160401b0383118484101760bb5780849260209460405283398101031260b757516001600160a01b0381169081810360b757811560a8577fa3f0ad74e5423aebfd80d3ef4346578335a9a72aeaee59ff6cb3582b35133d5055604051907f367184f1bb13aa656fb065e5e2b1104b30f71206d03961639cac77f3a6b331765f80a261020c90816100d08239f35b63d92e233d60e01b5f5260045ffd5b5f80fd5b634e487b7160e01b5f52604160045260245ffdfe60806040526004361015610015575b3661011d57005b5f3560e01c6301ffc9a70361000e57346100cb5760203660031901126100cb5760043563ffffffff60e01b81168091036100cb5760206001600160a01b0361005b610141565b16916024604051809481936301ffc9a760e01b835260048301525afa80156100d7575f90610096575b604051901515815280602081015b0390f35b506020813d6020116100cf575b816100b0602093836100dc565b810103126100cb575180151581036100cb5761009290610084565b5f80fd5b3d91506100a3565b610112565b90601f8019910116810190811067ffffffffffffffff8211176100fe57604052565b634e487b7160e01b5f52604160045260245ffd5b6040513d5f823e3d90fd5b5f80610127610141565b368280378136915af43d5f803e1561013d573d5ff35b3d5ffd5b7fa3f0ad74e5423aebfd80d3ef4346578335a9a72aeaee59ff6cb3582b35133d5054604051635c60da1b60e01b815290602090829060049082906001600160a01b03165afa9081156100d7575f91610197575090565b90506020813d6020116101ce575b816101b2602093836100dc565b810103126100cb57516001600160a01b03811681036100cb5790565b3d91506101a556fea2646970667358221220b9aa4dcde91f06e0b875fe779d49781682719d788493724bc49bbfa1c806b86564736f6c634300081c00330000000000000000000000002b05d2ec965e10db70eeee8a62ffc39e399601a6"
        }
      ],
      "isFixedGasLimit": false
    },
    {
      "hash": "0x8ee9b65161e99a1bf153a0b8c302c2e91681c2b3eca67b044870b6a5a1f34782",
      "transactionType": "CALL",
      "contractName": null,
      "contractAddress": "0x12f084de536f41bcd29dfc7632db0261cec72c60",
      "function": "createVaultCollection(string,string,uint8)",
      "arguments": [
        "EmBells",
        "BELL",
        "1"
      ],
      "transaction": {
        "from": "0xa99526e4dc81b85c1d248ca974eadce81837ecf1",
        "to": "0x12f084de536f41bcd29dfc7632db0261cec72c60",
        "gas": "0x89bfe",
        "value": "0x0",
        "input": "0xa8008080000000000000000000000000000000000000000000000000000000000000006000000000000000000000000000000000000000000000000000000000000000a000000000000000000000000000000000000000000000000000000000000000010000000000000000000000000000000000000000000000000000000000000007456d42656c6c7300000000000000000000000000000000000000000000000000000000000000000000000000000000000000000000000000000000000000000442454c4c00000000000000000000000000000000000000000000000000000000",
        "nonce": "0x14",
        "chainId": "0xaa36a7"
      },
      "additionalContracts": [
        {
          "transactionType": "CREATE",
          "address": "0xc9eb32bc9d7162d8ce3b9b1955cecedfdda3afcf",
          "initCode": "0x60803460b757601f6102dc38819003918201601f19168301916001600160401b0383118484101760bb5780849260209460405283398101031260b757516001600160a01b0381169081810360b757811560a8577fa3f0ad74e5423aebfd80d3ef4346578335a9a72aeaee59ff6cb3582b35133d5055604051907f367184f1bb13aa656fb065e5e2b1104b30f71206d03961639cac77f3a6b331765f80a261020c90816100d08239f35b63d92e233d60e01b5f5260045ffd5b5f80fd5b634e487b7160e01b5f52604160045260245ffdfe60806040526004361015610015575b3661011d57005b5f3560e01c6301ffc9a70361000e57346100cb5760203660031901126100cb5760043563ffffffff60e01b81168091036100cb5760206001600160a01b0361005b610141565b16916024604051809481936301ffc9a760e01b835260048301525afa80156100d7575f90610096575b604051901515815280602081015b0390f35b506020813d6020116100cf575b816100b0602093836100dc565b810103126100cb575180151581036100cb5761009290610084565b5f80fd5b3d91506100a3565b610112565b90601f8019910116810190811067ffffffffffffffff8211176100fe57604052565b634e487b7160e01b5f52604160045260245ffd5b6040513d5f823e3d90fd5b5f80610127610141565b368280378136915af43d5f803e1561013d573d5ff35b3d5ffd5b7fa3f0ad74e5423aebfd80d3ef4346578335a9a72aeaee59ff6cb3582b35133d5054604051635c60da1b60e01b815290602090829060049082906001600160a01b03165afa9081156100d7575f91610197575090565b90506020813d6020116101ce575b816101b2602093836100dc565b810103126100cb57516001600160a01b03811681036100cb5790565b3d91506101a556fea26469706673582212206ee762e682717726e2a88d1f11d5d6c4b60618285602632bd45443440f6accef64736f6c634300081c00330000000000000000000000008977704a454fe2063336324027440d7bc56689aa"
        }
      ],
      "isFixedGasLimit": false
    },
    {
      "hash": "0xe2e2e2bf46474f2a9a2e0ce17166cbbcb7793d66dfb89a4e0f01aade861cad94",
      "transactionType": "CALL",
      "contractName": null,
      "contractAddress": "0x12f084de536f41bcd29dfc7632db0261cec72c60",
      "function": "createVaultCollection(string,string,uint8)",
      "arguments": [
        "Emblem Open",
        "OPEN",
        "1"
      ],
      "transaction": {
        "from": "0xa99526e4dc81b85c1d248ca974eadce81837ecf1",
        "to": "0x12f084de536f41bcd29dfc7632db0261cec72c60",
        "gas": "0x89c40",
        "value": "0x0",
        "input": "0xa8008080000000000000000000000000000000000000000000000000000000000000006000000000000000000000000000000000000000000000000000000000000000a00000000000000000000000000000000000000000000000000000000000000001000000000000000000000000000000000000000000000000000000000000000b456d626c656d204f70656e00000000000000000000000000000000000000000000000000000000000000000000000000000000000000000000000000000000044f50454e00000000000000000000000000000000000000000000000000000000",
        "nonce": "0x15",
        "chainId": "0xaa36a7"
      },
      "additionalContracts": [
        {
          "transactionType": "CREATE",
          "address": "0x8cb5ac17520ba1aefbccf632576283c7d8cba816",
          "initCode": "0x60803460b757601f6102dc38819003918201601f19168301916001600160401b0383118484101760bb5780849260209460405283398101031260b757516001600160a01b0381169081810360b757811560a8577fa3f0ad74e5423aebfd80d3ef4346578335a9a72aeaee59ff6cb3582b35133d5055604051907f367184f1bb13aa656fb065e5e2b1104b30f71206d03961639cac77f3a6b331765f80a261020c90816100d08239f35b63d92e233d60e01b5f5260045ffd5b5f80fd5b634e487b7160e01b5f52604160045260245ffdfe60806040526004361015610015575b3661011d57005b5f3560e01c6301ffc9a70361000e57346100cb5760203660031901126100cb5760043563ffffffff60e01b81168091036100cb5760206001600160a01b0361005b610141565b16916024604051809481936301ffc9a760e01b835260048301525afa80156100d7575f90610096575b604051901515815280602081015b0390f35b506020813d6020116100cf575b816100b0602093836100dc565b810103126100cb575180151581036100cb5761009290610084565b5f80fd5b3d91506100a3565b610112565b90601f8019910116810190811067ffffffffffffffff8211176100fe57604052565b634e487b7160e01b5f52604160045260245ffd5b6040513d5f823e3d90fd5b5f80610127610141565b368280378136915af43d5f803e1561013d573d5ff35b3d5ffd5b7fa3f0ad74e5423aebfd80d3ef4346578335a9a72aeaee59ff6cb3582b35133d5054604051635c60da1b60e01b815290602090829060049082906001600160a01b03165afa9081156100d7575f91610197575090565b90506020813d6020116101ce575b816101b2602093836100dc565b810103126100cb57516001600160a01b03811681036100cb5790565b3d91506101a556fea26469706673582212206ee762e682717726e2a88d1f11d5d6c4b60618285602632bd45443440f6accef64736f6c634300081c00330000000000000000000000008977704a454fe2063336324027440d7bc56689aa"
        }
      ],
      "isFixedGasLimit": false
    },
    {
      "hash": "0xa0dd78370ddf5815d90a4521175f55d6c931c1bad29e1f0313b93850102a488e",
      "transactionType": "CALL",
      "contractName": null,
      "contractAddress": "0x12f084de536f41bcd29dfc7632db0261cec72c60",
      "function": "setCollectionURI(address,string)",
      "arguments": [
        "0xAfE0130Bad95763A66871e1F2fd73B8e7ee18037",
        "https://v2.emblemvault.io/v3/meta/0xAfE0130Bad95763A66871e1F2fd73B8e7ee18037/"
      ],
      "transaction": {
        "from": "0xa99526e4dc81b85c1d248ca974eadce81837ecf1",
        "to": "0x12f084de536f41bcd29dfc7632db0261cec72c60",
        "gas": "0x2f1e2",
        "value": "0x0",
        "input": "0x23f019fd000000000000000000000000afe0130bad95763a66871e1f2fd73b8e7ee180370000000000000000000000000000000000000000000000000000000000000040000000000000000000000000000000000000000000000000000000000000004d68747470733a2f2f76322e656d626c656d7661756c742e696f2f76332f6d6574612f3078416645303133304261643935373633413636383731653146326664373342386537656531383033372f00000000000000000000000000000000000000",
        "nonce": "0x16",
        "chainId": "0xaa36a7"
      },
      "additionalContracts": [],
      "isFixedGasLimit": false
    },
    {
      "hash": "0xf8089701333fe7cc2d452d56919c38d7718f4f33f8ddb6a54ca1988cce7e0b2f",
      "transactionType": "CALL",
      "contractName": null,
      "contractAddress": "0x12f084de536f41bcd29dfc7632db0261cec72c60",
      "function": "setCollectionURI(address,string)",
      "arguments": [
        "0xAAA86841631DbA89F0841655a679F12b768E2FB8",
        "https://v2.emblemvault.io/v3/meta/0xAAA86841631DbA89F0841655a679F12b768E2FB8/"
      ],
      "transaction": {
        "from": "0xa99526e4dc81b85c1d248ca974eadce81837ecf1",
        "to": "0x12f084de536f41bcd29dfc7632db0261cec72c60",
        "gas": "0x2f1e2",
        "value": "0x0",
        "input": "0x23f019fd000000000000000000000000aaa86841631dba89f0841655a679f12b768e2fb80000000000000000000000000000000000000000000000000000000000000040000000000000000000000000000000000000000000000000000000000000004d68747470733a2f2f76322e656d626c656d7661756c742e696f2f76332f6d6574612f3078414141383638343136333144624138394630383431363535613637394631326237363845324642382f00000000000000000000000000000000000000",
        "nonce": "0x17",
        "chainId": "0xaa36a7"
      },
      "additionalContracts": [],
      "isFixedGasLimit": false
    },
    {
      "hash": "0xb4ebc0afedb04c97d879bb4dcc3dded9515318d2709e08813228926c058c90d0",
      "transactionType": "CALL",
      "contractName": null,
      "contractAddress": "0x12f084de536f41bcd29dfc7632db0261cec72c60",
      "function": "setCollectionURI(address,string)",
      "arguments": [
        "0x6b31E7c15B0db1Fab86F4BE94d5D8cBC27BFF98b",
        "https://v2.emblemvault.io/v3/meta/0x6b31E7c15B0db1Fab86F4BE94d5D8cBC27BFF98b/"
      ],
      "transaction": {
        "from": "0xa99526e4dc81b85c1d248ca974eadce81837ecf1",
        "to": "0x12f084de536f41bcd29dfc7632db0261cec72c60",
        "gas": "0x2f1e2",
        "value": "0x0",
        "input": "0x23f019fd0000000000000000000000006b31e7c15b0db1fab86f4be94d5d8cbc27bff98b0000000000000000000000000000000000000000000000000000000000000040000000000000000000000000000000000000000000000000000000000000004d68747470733a2f2f76322e656d626c656d7661756c742e696f2f76332f6d6574612f3078366233314537633135423064623146616238364634424539346435443863424332374246463938622f00000000000000000000000000000000000000",
        "nonce": "0x18",
        "chainId": "0xaa36a7"
      },
      "additionalContracts": [],
      "isFixedGasLimit": false
    },
    {
      "hash": "0xf20bf6e56371648bdc99a0b5d85db51dfa88b5903566c27a15dc0d95133e6bc6",
      "transactionType": "CALL",
      "contractName": null,
      "contractAddress": "0x12f084de536f41bcd29dfc7632db0261cec72c60",
      "function": "setCollectionBaseURI(address,string)",
      "arguments": [
        "0xC9eB32bC9D7162d8Ce3B9b1955cecEdfDda3AfCf",
        "https://v2.emblemvault.io/v3/meta/0xC9eB32bC9D7162d8Ce3B9b1955cecEdfDda3AfCf/"
      ],
      "transaction": {
        "from": "0xa99526e4dc81b85c1d248ca974eadce81837ecf1",
        "to": "0x12f084de536f41bcd29dfc7632db0261cec72c60",
        "gas": "0x2f388",
        "value": "0x0",
        "input": "0x80aed2a9000000000000000000000000c9eb32bc9d7162d8ce3b9b1955cecedfdda3afcf0000000000000000000000000000000000000000000000000000000000000040000000000000000000000000000000000000000000000000000000000000004d68747470733a2f2f76322e656d626c656d7661756c742e696f2f76332f6d6574612f3078433965423332624339443731363264384365334239623139353563656345646644646133416643662f00000000000000000000000000000000000000",
        "nonce": "0x19",
        "chainId": "0xaa36a7"
      },
      "additionalContracts": [],
      "isFixedGasLimit": false
    },
    {
      "hash": "0xb7af9cd285a0858d7255c39d64079d865cd5c0dcbf68597101e2b1cebbcea344",
      "transactionType": "CALL",
      "contractName": null,
      "contractAddress": "0x12f084de536f41bcd29dfc7632db0261cec72c60",
      "function": "setCollectionBaseURI(address,string)",
      "arguments": [
        "0x8CB5Ac17520ba1aeFBccF632576283c7d8CbA816",
        "https://v2.emblemvault.io/v3/meta/0x8CB5Ac17520ba1aeFBccF632576283c7d8CbA816/"
      ],
      "transaction": {
        "from": "0xa99526e4dc81b85c1d248ca974eadce81837ecf1",
        "to": "0x12f084de536f41bcd29dfc7632db0261cec72c60",
        "gas": "0x2f388",
        "value": "0x0",
        "input": "0x80aed2a90000000000000000000000008cb5ac17520ba1aefbccf632576283c7d8cba8160000000000000000000000000000000000000000000000000000000000000040000000000000000000000000000000000000000000000000000000000000004d68747470733a2f2f76322e656d626c656d7661756c742e696f2f76332f6d6574612f3078384342354163313735323062613161654642636346363332353736323833633764384362413831362f00000000000000000000000000000000000000",
        "nonce": "0x1a",
        "chainId": "0xaa36a7"
      },
      "additionalContracts": [],
      "isFixedGasLimit": false
    }
  ],
  "receipts": [
    {
      "status": "0x1",
      "cumulativeGasUsed": "0x12b6735",
      "logs": [
        {
          "address": "0xafe0130bad95763a66871e1f2fd73b8e7ee18037",
          "topics": [
            "0x367184f1bb13aa656fb065e5e2b1104b30f71206d03961639cac77f3a6b33176",
            "0x0000000000000000000000002b05d2ec965e10db70eeee8a62ffc39e399601a6"
          ],
          "data": "0x",
          "blockHash": "0xb0650746053b21ea9941819564ce472dc83eadeb54de6b1ba4751b9005ce3a59",
          "blockNumber": "0x786b34",
          "blockTimestamp": "0x67d26b90",
          "transactionHash": "0x72235da622abb64a189ea5a07435b6b437e4c896662385efcb44c66a160b1f0e",
          "transactionIndex": "0xa6",
          "logIndex": "0x1c9",
          "removed": false
        },
        {
          "address": "0xafe0130bad95763a66871e1f2fd73b8e7ee18037",
          "topics": [
            "0x8be0079c531659141344cd1fd0a4f28419497f9722a3daafe3b4186f6b6457e0",
            "0x0000000000000000000000000000000000000000000000000000000000000000",
            "0x000000000000000000000000109de29e0fb4de58a66ce077253e0604d81ad14c"
          ],
          "data": "0x",
          "blockHash": "0xb0650746053b21ea9941819564ce472dc83eadeb54de6b1ba4751b9005ce3a59",
          "blockNumber": "0x786b34",
          "blockTimestamp": "0x67d26b90",
          "transactionHash": "0x72235da622abb64a189ea5a07435b6b437e4c896662385efcb44c66a160b1f0e",
          "transactionIndex": "0xa6",
          "logIndex": "0x1ca",
          "removed": false
        },
        {
          "address": "0xafe0130bad95763a66871e1f2fd73b8e7ee18037",
          "topics": [
            "0xc7f505b2f371ae2175ee4913f4499e1f2633a7b5936321eed1cdaeb6115181d2"
          ],
          "data": "0x0000000000000000000000000000000000000000000000000000000000000001",
          "blockHash": "0xb0650746053b21ea9941819564ce472dc83eadeb54de6b1ba4751b9005ce3a59",
          "blockNumber": "0x786b34",
          "blockTimestamp": "0x67d26b90",
          "transactionHash": "0x72235da622abb64a189ea5a07435b6b437e4c896662385efcb44c66a160b1f0e",
          "transactionIndex": "0xa6",
          "logIndex": "0x1cb",
          "removed": false
        },
        {
          "address": "0xafe0130bad95763a66871e1f2fd73b8e7ee18037",
          "topics": [
            "0x8be0079c531659141344cd1fd0a4f28419497f9722a3daafe3b4186f6b6457e0",
            "0x000000000000000000000000109de29e0fb4de58a66ce077253e0604d81ad14c",
            "0x000000000000000000000000a99526e4dc81b85c1d248ca974eadce81837ecf1"
          ],
          "data": "0x",
          "blockHash": "0xb0650746053b21ea9941819564ce472dc83eadeb54de6b1ba4751b9005ce3a59",
          "blockNumber": "0x786b34",
          "blockTimestamp": "0x67d26b90",
          "transactionHash": "0x72235da622abb64a189ea5a07435b6b437e4c896662385efcb44c66a160b1f0e",
          "transactionIndex": "0xa6",
          "logIndex": "0x1cc",
          "removed": false
        },
        {
          "address": "0x109de29e0fb4de58a66ce077253e0604d81ad14c",
          "topics": [
            "0x171ccc46ca30ce15b8e391d7e1db8cf7644ed26a313b10df70a92b13da343541",
            "0x000000000000000000000000afe0130bad95763a66871e1f2fd73b8e7ee18037",
            "0x000000000000000000000000a99526e4dc81b85c1d248ca974eadce81837ecf1"
          ],
          "data": "0x",
          "blockHash": "0xb0650746053b21ea9941819564ce472dc83eadeb54de6b1ba4751b9005ce3a59",
          "blockNumber": "0x786b34",
          "blockTimestamp": "0x67d26b90",
          "transactionHash": "0x72235da622abb64a189ea5a07435b6b437e4c896662385efcb44c66a160b1f0e",
          "transactionIndex": "0xa6",
          "logIndex": "0x1cd",
          "removed": false
        },
        {
          "address": "0x109de29e0fb4de58a66ce077253e0604d81ad14c",
          "topics": [
            "0x2229e9930d25a4974976f5fb5461a33fcd0fefa19393ad50af745b5fa4ccce8b",
            "0x000000000000000000000000afe0130bad95763a66871e1f2fd73b8e7ee18037"
          ],
          "data": "0x000000000000000000000000000000000000000000000000000000000000002000000000000000000000000000000000000000000000000000000000000000045045504500000000000000000000000000000000000000000000000000000000",
          "blockHash": "0xb0650746053b21ea9941819564ce472dc83eadeb54de6b1ba4751b9005ce3a59",
          "blockNumber": "0x786b34",
          "blockTimestamp": "0x67d26b90",
          "transactionHash": "0x72235da622abb64a189ea5a07435b6b437e4c896662385efcb44c66a160b1f0e",
          "transactionIndex": "0xa6",
          "logIndex": "0x1ce",
          "removed": false
        },
        {
          "address": "0x12f084de536f41bcd29dfc7632db0261cec72c60",
          "topics": [
            "0x5902eed5cd330f690551c9c5095eacb178efeaf6896420b9473fa373b2313f1a",
            "0x000000000000000000000000afe0130bad95763a66871e1f2fd73b8e7ee18037",
            "0x0000000000000000000000000000000000000000000000000000000000000002"
          ],
          "data": "0x000000000000000000000000000000000000000000000000000000000000002000000000000000000000000000000000000000000000000000000000000000095261726520506570650000000000000000000000000000000000000000000000",
          "blockHash": "0xb0650746053b21ea9941819564ce472dc83eadeb54de6b1ba4751b9005ce3a59",
          "blockNumber": "0x786b34",
          "blockTimestamp": "0x67d26b90",
          "transactionHash": "0x72235da622abb64a189ea5a07435b6b437e4c896662385efcb44c66a160b1f0e",
          "transactionIndex": "0xa6",
          "logIndex": "0x1cf",
          "removed": false
        }
      ],
      "logsBloom": "0x04000000000000000800000000000000004008800000000000800000002000000000000000000800000000000004000000000000002000000000004000000000000000000000000000000400800000000101200000010000000000400800000000000080020000000000040000000800000000000000000000000000000000408000000000000000000800004000000000000000000080000000100004000000000000000800004000000140000000000800000000000000003000000000000000000000004000000000000000080000000000000004000000000000000020000000000000000000000000000000000000000000008000800040000000400000",
      "type": "0x2",
      "transactionHash": "0x72235da622abb64a189ea5a07435b6b437e4c896662385efcb44c66a160b1f0e",
      "transactionIndex": "0xa6",
      "blockHash": "0xb0650746053b21ea9941819564ce472dc83eadeb54de6b1ba4751b9005ce3a59",
      "blockNumber": "0x786b34",
      "gasUsed": "0x4d24f",
      "effectiveGasPrice": "0xe21153cd",
      "from": "0xa99526e4dc81b85c1d248ca974eadce81837ecf1",
      "to": "0x12f084de536f41bcd29dfc7632db0261cec72c60",
      "contractAddress": null
    },
    {
      "status": "0x1",
      "cumulativeGasUsed": "0xaeba12",
      "logs": [
        {
          "address": "0xaaa86841631dba89f0841655a679f12b768e2fb8",
          "topics": [
            "0x367184f1bb13aa656fb065e5e2b1104b30f71206d03961639cac77f3a6b33176",
            "0x0000000000000000000000002b05d2ec965e10db70eeee8a62ffc39e399601a6"
          ],
          "data": "0x",
          "blockHash": "0xafa9e0af05d0218321b50065e788a57ff246030d59f1de5c39aca98e00d4fc39",
          "blockNumber": "0x786b35",
          "blockTimestamp": "0x67d26b9c",
          "transactionHash": "0x86413088a5848e871200de7fc2367ceaae0acc0ba08285fb7b27c9210a59012d",
          "transactionIndex": "0x43",
          "logIndex": "0xda",
          "removed": false
        },
        {
          "address": "0xaaa86841631dba89f0841655a679f12b768e2fb8",
          "topics": [
            "0x8be0079c531659141344cd1fd0a4f28419497f9722a3daafe3b4186f6b6457e0",
            "0x0000000000000000000000000000000000000000000000000000000000000000",
            "0x000000000000000000000000109de29e0fb4de58a66ce077253e0604d81ad14c"
          ],
          "data": "0x",
          "blockHash": "0xafa9e0af05d0218321b50065e788a57ff246030d59f1de5c39aca98e00d4fc39",
          "blockNumber": "0x786b35",
          "blockTimestamp": "0x67d26b9c",
          "transactionHash": "0x86413088a5848e871200de7fc2367ceaae0acc0ba08285fb7b27c9210a59012d",
          "transactionIndex": "0x43",
          "logIndex": "0xdb",
          "removed": false
        },
        {
          "address": "0xaaa86841631dba89f0841655a679f12b768e2fb8",
          "topics": [
            "0xc7f505b2f371ae2175ee4913f4499e1f2633a7b5936321eed1cdaeb6115181d2"
          ],
          "data": "0x0000000000000000000000000000000000000000000000000000000000000001",
          "blockHash": "0xafa9e0af05d0218321b50065e788a57ff246030d59f1de5c39aca98e00d4fc39",
          "blockNumber": "0x786b35",
          "blockTimestamp": "0x67d26b9c",
          "transactionHash": "0x86413088a5848e871200de7fc2367ceaae0acc0ba08285fb7b27c9210a59012d",
          "transactionIndex": "0x43",
          "logIndex": "0xdc",
          "removed": false
        },
        {
          "address": "0xaaa86841631dba89f0841655a679f12b768e2fb8",
          "topics": [
            "0x8be0079c531659141344cd1fd0a4f28419497f9722a3daafe3b4186f6b6457e0",
            "0x000000000000000000000000109de29e0fb4de58a66ce077253e0604d81ad14c",
            "0x000000000000000000000000a99526e4dc81b85c1d248ca974eadce81837ecf1"
          ],
          "data": "0x",
          "blockHash": "0xafa9e0af05d0218321b50065e788a57ff246030d59f1de5c39aca98e00d4fc39",
          "blockNumber": "0x786b35",
          "blockTimestamp": "0x67d26b9c",
          "transactionHash": "0x86413088a5848e871200de7fc2367ceaae0acc0ba08285fb7b27c9210a59012d",
          "transactionIndex": "0x43",
          "logIndex": "0xdd",
          "removed": false
        },
        {
          "address": "0x109de29e0fb4de58a66ce077253e0604d81ad14c",
          "topics": [
            "0x171ccc46ca30ce15b8e391d7e1db8cf7644ed26a313b10df70a92b13da343541",
            "0x000000000000000000000000aaa86841631dba89f0841655a679f12b768e2fb8",
            "0x000000000000000000000000a99526e4dc81b85c1d248ca974eadce81837ecf1"
          ],
          "data": "0x",
          "blockHash": "0xafa9e0af05d0218321b50065e788a57ff246030d59f1de5c39aca98e00d4fc39",
          "blockNumber": "0x786b35",
          "blockTimestamp": "0x67d26b9c",
          "transactionHash": "0x86413088a5848e871200de7fc2367ceaae0acc0ba08285fb7b27c9210a59012d",
          "transactionIndex": "0x43",
          "logIndex": "0xde",
          "removed": false
        },
        {
          "address": "0x109de29e0fb4de58a66ce077253e0604d81ad14c",
          "topics": [
            "0x2229e9930d25a4974976f5fb5461a33fcd0fefa19393ad50af745b5fa4ccce8b",
            "0x000000000000000000000000aaa86841631dba89f0841655a679f12b768e2fb8"
          ],
          "data": "0x00000000000000000000000000000000000000000000000000000000000000200000000000000000000000000000000000000000000000000000000000000003534f470000000000000000000000000000000000000000000000000000000000",
          "blockHash": "0xafa9e0af05d0218321b50065e788a57ff246030d59f1de5c39aca98e00d4fc39",
          "blockNumber": "0x786b35",
          "blockTimestamp": "0x67d26b9c",
          "transactionHash": "0x86413088a5848e871200de7fc2367ceaae0acc0ba08285fb7b27c9210a59012d",
          "transactionIndex": "0x43",
          "logIndex": "0xdf",
          "removed": false
        },
        {
          "address": "0x12f084de536f41bcd29dfc7632db0261cec72c60",
          "topics": [
            "0x5902eed5cd330f690551c9c5095eacb178efeaf6896420b9473fa373b2313f1a",
            "0x000000000000000000000000aaa86841631dba89f0841655a679f12b768e2fb8",
            "0x0000000000000000000000000000000000000000000000000000000000000002"
          ],
          "data": "0x000000000000000000000000000000000000000000000000000000000000002000000000000000000000000000000000000000000000000000000000000000115370656c6c73206f662047656e65736973000000000000000000000000000000",
          "blockHash": "0xafa9e0af05d0218321b50065e788a57ff246030d59f1de5c39aca98e00d4fc39",
          "blockNumber": "0x786b35",
          "blockTimestamp": "0x67d26b9c",
          "transactionHash": "0x86413088a5848e871200de7fc2367ceaae0acc0ba08285fb7b27c9210a59012d",
          "transactionIndex": "0x43",
          "logIndex": "0xe0",
          "removed": false
        }
      ],
      "logsBloom": "0x04000000000000000800000000000000000008800000000000800000002000000000000000000000000000000004000000000000002000000000004000000000000000000000000000000400800000000101200000000000000000000800000000000080020000000000040000000800000000000000000000000000000000408000200000000000000800004000000000000000000080000000100004000000000000000880084000000140000000000840000000000000003000800000000000000000004000000000000000080000000000000004000000000000000020000000000000000000000000000000000000000000008000800000000000400000",
      "type": "0x2",
      "transactionHash": "0x86413088a5848e871200de7fc2367ceaae0acc0ba08285fb7b27c9210a59012d",
      "transactionIndex": "0x43",
      "blockHash": "0xafa9e0af05d0218321b50065e788a57ff246030d59f1de5c39aca98e00d4fc39",
      "blockNumber": "0x786b35",
      "gasUsed": "0x4d2a3",
      "effectiveGasPrice": "0xfbfea98f",
      "from": "0xa99526e4dc81b85c1d248ca974eadce81837ecf1",
      "to": "0x12f084de536f41bcd29dfc7632db0261cec72c60",
      "contractAddress": null
    },
    {
      "status": "0x1",
      "cumulativeGasUsed": "0xb9e485",
      "logs": [
        {
          "address": "0x6b31e7c15b0db1fab86f4be94d5d8cbc27bff98b",
          "topics": [
            "0x367184f1bb13aa656fb065e5e2b1104b30f71206d03961639cac77f3a6b33176",
            "0x0000000000000000000000002b05d2ec965e10db70eeee8a62ffc39e399601a6"
          ],
          "data": "0x",
          "blockHash": "0x849d3ddc7dd18f4214245aa43e2b6cd37f3c5b9ec4bbe67f558ae3b6e7963bbf",
          "blockNumber": "0x786b36",
          "blockTimestamp": "0x67d26ba8",
          "transactionHash": "0x9ae00bfe4cb72601719255849a34a0d4dfb271774a7a407c339855e69ba52ab6",
          "transactionIndex": "0x3e",
          "logIndex": "0x92",
          "removed": false
        },
        {
          "address": "0x6b31e7c15b0db1fab86f4be94d5d8cbc27bff98b",
          "topics": [
            "0x8be0079c531659141344cd1fd0a4f28419497f9722a3daafe3b4186f6b6457e0",
            "0x0000000000000000000000000000000000000000000000000000000000000000",
            "0x000000000000000000000000109de29e0fb4de58a66ce077253e0604d81ad14c"
          ],
          "data": "0x",
          "blockHash": "0x849d3ddc7dd18f4214245aa43e2b6cd37f3c5b9ec4bbe67f558ae3b6e7963bbf",
          "blockNumber": "0x786b36",
          "blockTimestamp": "0x67d26ba8",
          "transactionHash": "0x9ae00bfe4cb72601719255849a34a0d4dfb271774a7a407c339855e69ba52ab6",
          "transactionIndex": "0x3e",
          "logIndex": "0x93",
          "removed": false
        },
        {
          "address": "0x6b31e7c15b0db1fab86f4be94d5d8cbc27bff98b",
          "topics": [
            "0xc7f505b2f371ae2175ee4913f4499e1f2633a7b5936321eed1cdaeb6115181d2"
          ],
          "data": "0x0000000000000000000000000000000000000000000000000000000000000001",
          "blockHash": "0x849d3ddc7dd18f4214245aa43e2b6cd37f3c5b9ec4bbe67f558ae3b6e7963bbf",
          "blockNumber": "0x786b36",
          "blockTimestamp": "0x67d26ba8",
          "transactionHash": "0x9ae00bfe4cb72601719255849a34a0d4dfb271774a7a407c339855e69ba52ab6",
          "transactionIndex": "0x3e",
          "logIndex": "0x94",
          "removed": false
        },
        {
          "address": "0x6b31e7c15b0db1fab86f4be94d5d8cbc27bff98b",
          "topics": [
            "0x8be0079c531659141344cd1fd0a4f28419497f9722a3daafe3b4186f6b6457e0",
            "0x000000000000000000000000109de29e0fb4de58a66ce077253e0604d81ad14c",
            "0x000000000000000000000000a99526e4dc81b85c1d248ca974eadce81837ecf1"
          ],
          "data": "0x",
          "blockHash": "0x849d3ddc7dd18f4214245aa43e2b6cd37f3c5b9ec4bbe67f558ae3b6e7963bbf",
          "blockNumber": "0x786b36",
          "blockTimestamp": "0x67d26ba8",
          "transactionHash": "0x9ae00bfe4cb72601719255849a34a0d4dfb271774a7a407c339855e69ba52ab6",
          "transactionIndex": "0x3e",
          "logIndex": "0x95",
          "removed": false
        },
        {
          "address": "0x109de29e0fb4de58a66ce077253e0604d81ad14c",
          "topics": [
            "0x171ccc46ca30ce15b8e391d7e1db8cf7644ed26a313b10df70a92b13da343541",
            "0x0000000000000000000000006b31e7c15b0db1fab86f4be94d5d8cbc27bff98b",
            "0x000000000000000000000000a99526e4dc81b85c1d248ca974eadce81837ecf1"
          ],
          "data": "0x",
          "blockHash": "0x849d3ddc7dd18f4214245aa43e2b6cd37f3c5b9ec4bbe67f558ae3b6e7963bbf",
          "blockNumber": "0x786b36",
          "blockTimestamp": "0x67d26ba8",
          "transactionHash": "0x9ae00bfe4cb72601719255849a34a0d4dfb271774a7a407c339855e69ba52ab6",
          "transactionIndex": "0x3e",
          "logIndex": "0x96",
          "removed": false
        },
        {
          "address": "0x109de29e0fb4de58a66ce077253e0604d81ad14c",
          "topics": [
            "0x2229e9930d25a4974976f5fb5461a33fcd0fefa19393ad50af745b5fa4ccce8b",
            "0x0000000000000000000000006b31e7c15b0db1fab86f4be94d5d8cbc27bff98b"
          ],
          "data": "0x0000000000000000000000000000000000000000000000000000000000000020000000000000000000000000000000000000000000000000000000000000000446414b4500000000000000000000000000000000000000000000000000000000",
          "blockHash": "0x849d3ddc7dd18f4214245aa43e2b6cd37f3c5b9ec4bbe67f558ae3b6e7963bbf",
          "blockNumber": "0x786b36",
          "blockTimestamp": "0x67d26ba8",
          "transactionHash": "0x9ae00bfe4cb72601719255849a34a0d4dfb271774a7a407c339855e69ba52ab6",
          "transactionIndex": "0x3e",
          "logIndex": "0x97",
          "removed": false
        },
        {
          "address": "0x12f084de536f41bcd29dfc7632db0261cec72c60",
          "topics": [
            "0x5902eed5cd330f690551c9c5095eacb178efeaf6896420b9473fa373b2313f1a",
            "0x0000000000000000000000006b31e7c15b0db1fab86f4be94d5d8cbc27bff98b",
            "0x0000000000000000000000000000000000000000000000000000000000000002"
          ],
          "data": "0x0000000000000000000000000000000000000000000000000000000000000020000000000000000000000000000000000000000000000000000000000000000a46616b6520526172657300000000000000000000000000000000000000000000",
          "blockHash": "0x849d3ddc7dd18f4214245aa43e2b6cd37f3c5b9ec4bbe67f558ae3b6e7963bbf",
          "blockNumber": "0x786b36",
          "blockTimestamp": "0x67d26ba8",
          "transactionHash": "0x9ae00bfe4cb72601719255849a34a0d4dfb271774a7a407c339855e69ba52ab6",
          "transactionIndex": "0x3e",
          "logIndex": "0x98",
          "removed": false
        }
      ],
      "logsBloom": "0x04000000000000000800000000000000000008800000000000800000000000000010000000000000000000000004000000000000002000000000004000000000000400000000000000000400800000000101200000020000001000000800000000000080020000000000040000000800000000000080000000000000000000408000000000004000000800004000000000000000000080000000100004000000000000000800004000000140000000000800000000000000003000000000000000000000004000000000000000080000000000000004000000000000000020000000000000000000000000000000000000000000008000800000000000400000",
      "type": "0x2",
      "transactionHash": "0x9ae00bfe4cb72601719255849a34a0d4dfb271774a7a407c339855e69ba52ab6",
      "transactionIndex": "0x3e",
      "blockHash": "0x849d3ddc7dd18f4214245aa43e2b6cd37f3c5b9ec4bbe67f558ae3b6e7963bbf",
      "blockNumber": "0x786b36",
      "gasUsed": "0x4d25b",
      "effectiveGasPrice": "0xfeb84072",
      "from": "0xa99526e4dc81b85c1d248ca974eadce81837ecf1",
      "to": "0x12f084de536f41bcd29dfc7632db0261cec72c60",
      "contractAddress": null
    },
    {
      "status": "0x1",
      "cumulativeGasUsed": "0x17cec57",
      "logs": [
        {
          "address": "0xc9eb32bc9d7162d8ce3b9b1955cecedfdda3afcf",
          "topics": [
            "0x367184f1bb13aa656fb065e5e2b1104b30f71206d03961639cac77f3a6b33176",
            "0x0000000000000000000000008977704a454fe2063336324027440d7bc56689aa"
          ],
          "data": "0x",
          "blockHash": "0x36b0e95b911e88bbe5a47097fb16be4390369f21e704f565dd4a398b9828dc79",
          "blockNumber": "0x786b37",
          "blockTimestamp": "0x67d26bc0",
          "transactionHash": "0x8ee9b65161e99a1bf153a0b8c302c2e91681c2b3eca67b044870b6a5a1f34782",
          "transactionIndex": "0xc7",
          "logIndex": "0x1b2",
          "removed": false
        },
        {
          "address": "0xc9eb32bc9d7162d8ce3b9b1955cecedfdda3afcf",
          "topics": [
            "0x8be0079c531659141344cd1fd0a4f28419497f9722a3daafe3b4186f6b6457e0",
            "0x0000000000000000000000000000000000000000000000000000000000000000",
            "0x000000000000000000000000109de29e0fb4de58a66ce077253e0604d81ad14c"
          ],
          "data": "0x",
          "blockHash": "0x36b0e95b911e88bbe5a47097fb16be4390369f21e704f565dd4a398b9828dc79",
          "blockNumber": "0x786b37",
          "blockTimestamp": "0x67d26bc0",
          "transactionHash": "0x8ee9b65161e99a1bf153a0b8c302c2e91681c2b3eca67b044870b6a5a1f34782",
          "transactionIndex": "0xc7",
          "logIndex": "0x1b3",
          "removed": false
        },
        {
          "address": "0xc9eb32bc9d7162d8ce3b9b1955cecedfdda3afcf",
          "topics": [
            "0xc7f505b2f371ae2175ee4913f4499e1f2633a7b5936321eed1cdaeb6115181d2"
          ],
          "data": "0x0000000000000000000000000000000000000000000000000000000000000001",
          "blockHash": "0x36b0e95b911e88bbe5a47097fb16be4390369f21e704f565dd4a398b9828dc79",
          "blockNumber": "0x786b37",
          "blockTimestamp": "0x67d26bc0",
          "transactionHash": "0x8ee9b65161e99a1bf153a0b8c302c2e91681c2b3eca67b044870b6a5a1f34782",
          "transactionIndex": "0xc7",
          "logIndex": "0x1b4",
          "removed": false
        },
        {
          "address": "0xc9eb32bc9d7162d8ce3b9b1955cecedfdda3afcf",
          "topics": [
            "0x8be0079c531659141344cd1fd0a4f28419497f9722a3daafe3b4186f6b6457e0",
            "0x000000000000000000000000109de29e0fb4de58a66ce077253e0604d81ad14c",
            "0x000000000000000000000000a99526e4dc81b85c1d248ca974eadce81837ecf1"
          ],
          "data": "0x",
          "blockHash": "0x36b0e95b911e88bbe5a47097fb16be4390369f21e704f565dd4a398b9828dc79",
          "blockNumber": "0x786b37",
          "blockTimestamp": "0x67d26bc0",
          "transactionHash": "0x8ee9b65161e99a1bf153a0b8c302c2e91681c2b3eca67b044870b6a5a1f34782",
          "transactionIndex": "0xc7",
          "logIndex": "0x1b5",
          "removed": false
        },
        {
          "address": "0x109de29e0fb4de58a66ce077253e0604d81ad14c",
          "topics": [
            "0x171ccc46ca30ce15b8e391d7e1db8cf7644ed26a313b10df70a92b13da343541",
            "0x000000000000000000000000c9eb32bc9d7162d8ce3b9b1955cecedfdda3afcf",
            "0x000000000000000000000000a99526e4dc81b85c1d248ca974eadce81837ecf1"
          ],
          "data": "0x",
          "blockHash": "0x36b0e95b911e88bbe5a47097fb16be4390369f21e704f565dd4a398b9828dc79",
          "blockNumber": "0x786b37",
          "blockTimestamp": "0x67d26bc0",
          "transactionHash": "0x8ee9b65161e99a1bf153a0b8c302c2e91681c2b3eca67b044870b6a5a1f34782",
          "transactionIndex": "0xc7",
          "logIndex": "0x1b6",
          "removed": false
        },
        {
          "address": "0x109de29e0fb4de58a66ce077253e0604d81ad14c",
          "topics": [
            "0xc235116ab1fd2ce09ba4690b74e2e7782ddf6f4a49eda5a12e0c320f7c65ccd6",
            "0x000000000000000000000000c9eb32bc9d7162d8ce3b9b1955cecedfdda3afcf"
          ],
          "data": "0x000000000000000000000000000000000000000000000000000000000000004000000000000000000000000000000000000000000000000000000000000000800000000000000000000000000000000000000000000000000000000000000007456d42656c6c7300000000000000000000000000000000000000000000000000000000000000000000000000000000000000000000000000000000000000000442454c4c00000000000000000000000000000000000000000000000000000000",
          "blockHash": "0x36b0e95b911e88bbe5a47097fb16be4390369f21e704f565dd4a398b9828dc79",
          "blockNumber": "0x786b37",
          "blockTimestamp": "0x67d26bc0",
          "transactionHash": "0x8ee9b65161e99a1bf153a0b8c302c2e91681c2b3eca67b044870b6a5a1f34782",
          "transactionIndex": "0xc7",
          "logIndex": "0x1b7",
          "removed": false
        },
        {
          "address": "0x12f084de536f41bcd29dfc7632db0261cec72c60",
          "topics": [
            "0x5902eed5cd330f690551c9c5095eacb178efeaf6896420b9473fa373b2313f1a",
            "0x000000000000000000000000c9eb32bc9d7162d8ce3b9b1955cecedfdda3afcf",
            "0x0000000000000000000000000000000000000000000000000000000000000001"
          ],
          "data": "0x00000000000000000000000000000000000000000000000000000000000000200000000000000000000000000000000000000000000000000000000000000007456d42656c6c7300000000000000000000000000000000000000000000000000",
          "blockHash": "0x36b0e95b911e88bbe5a47097fb16be4390369f21e704f565dd4a398b9828dc79",
          "blockNumber": "0x786b37",
          "blockTimestamp": "0x67d26bc0",
          "transactionHash": "0x8ee9b65161e99a1bf153a0b8c302c2e91681c2b3eca67b044870b6a5a1f34782",
          "transactionIndex": "0xc7",
          "logIndex": "0x1b8",
          "removed": false
        }
      ],
      "logsBloom": "0x00000004000000000800000000100000000008800000000000800000000000000010000000000000000000000004000000000000002000000000004000040000000000000400000000000400000000000101000000140000000000000000000000000080020080000000040000000800000000000000000000000000000000408000000000000000000800004000000000000000000080000000100004000000010000000800004020000040008000000000000000000000001000000000000000000000004000000000000000000000000000000004000000000000000268000000000000000000000000000000000000000000000000800000000000400000",
      "type": "0x2",
      "transactionHash": "0x8ee9b65161e99a1bf153a0b8c302c2e91681c2b3eca67b044870b6a5a1f34782",
      "transactionIndex": "0xc7",
      "blockHash": "0x36b0e95b911e88bbe5a47097fb16be4390369f21e704f565dd4a398b9828dc79",
      "blockNumber": "0x786b37",
      "gasUsed": "0x63ba7",
      "effectiveGasPrice": "0xfe023739",
      "from": "0xa99526e4dc81b85c1d248ca974eadce81837ecf1",
      "to": "0x12f084de536f41bcd29dfc7632db0261cec72c60",
      "contractAddress": null
    },
    {
      "status": "0x1",
      "cumulativeGasUsed": "0xb18b83",
      "logs": [
        {
          "address": "0x8cb5ac17520ba1aefbccf632576283c7d8cba816",
          "topics": [
            "0x367184f1bb13aa656fb065e5e2b1104b30f71206d03961639cac77f3a6b33176",
            "0x0000000000000000000000008977704a454fe2063336324027440d7bc56689aa"
          ],
          "data": "0x",
          "blockHash": "0x8d89cf34c92a5732eefbdd4eb94a042f6ffe5a6196f4376ddaa361410134958d",
          "blockNumber": "0x786b38",
          "blockTimestamp": "0x67d26bcc",
          "transactionHash": "0xe2e2e2bf46474f2a9a2e0ce17166cbbcb7793d66dfb89a4e0f01aade861cad94",
          "transactionIndex": "0x73",
          "logIndex": "0xc0",
          "removed": false
        },
        {
          "address": "0x8cb5ac17520ba1aefbccf632576283c7d8cba816",
          "topics": [
            "0x8be0079c531659141344cd1fd0a4f28419497f9722a3daafe3b4186f6b6457e0",
            "0x0000000000000000000000000000000000000000000000000000000000000000",
            "0x000000000000000000000000109de29e0fb4de58a66ce077253e0604d81ad14c"
          ],
          "data": "0x",
          "blockHash": "0x8d89cf34c92a5732eefbdd4eb94a042f6ffe5a6196f4376ddaa361410134958d",
          "blockNumber": "0x786b38",
          "blockTimestamp": "0x67d26bcc",
          "transactionHash": "0xe2e2e2bf46474f2a9a2e0ce17166cbbcb7793d66dfb89a4e0f01aade861cad94",
          "transactionIndex": "0x73",
          "logIndex": "0xc1",
          "removed": false
        },
        {
          "address": "0x8cb5ac17520ba1aefbccf632576283c7d8cba816",
          "topics": [
            "0xc7f505b2f371ae2175ee4913f4499e1f2633a7b5936321eed1cdaeb6115181d2"
          ],
          "data": "0x0000000000000000000000000000000000000000000000000000000000000001",
          "blockHash": "0x8d89cf34c92a5732eefbdd4eb94a042f6ffe5a6196f4376ddaa361410134958d",
          "blockNumber": "0x786b38",
          "blockTimestamp": "0x67d26bcc",
          "transactionHash": "0xe2e2e2bf46474f2a9a2e0ce17166cbbcb7793d66dfb89a4e0f01aade861cad94",
          "transactionIndex": "0x73",
          "logIndex": "0xc2",
          "removed": false
        },
        {
          "address": "0x8cb5ac17520ba1aefbccf632576283c7d8cba816",
          "topics": [
            "0x8be0079c531659141344cd1fd0a4f28419497f9722a3daafe3b4186f6b6457e0",
            "0x000000000000000000000000109de29e0fb4de58a66ce077253e0604d81ad14c",
            "0x000000000000000000000000a99526e4dc81b85c1d248ca974eadce81837ecf1"
          ],
          "data": "0x",
          "blockHash": "0x8d89cf34c92a5732eefbdd4eb94a042f6ffe5a6196f4376ddaa361410134958d",
          "blockNumber": "0x786b38",
          "blockTimestamp": "0x67d26bcc",
          "transactionHash": "0xe2e2e2bf46474f2a9a2e0ce17166cbbcb7793d66dfb89a4e0f01aade861cad94",
          "transactionIndex": "0x73",
          "logIndex": "0xc3",
          "removed": false
        },
        {
          "address": "0x109de29e0fb4de58a66ce077253e0604d81ad14c",
          "topics": [
            "0x171ccc46ca30ce15b8e391d7e1db8cf7644ed26a313b10df70a92b13da343541",
            "0x0000000000000000000000008cb5ac17520ba1aefbccf632576283c7d8cba816",
            "0x000000000000000000000000a99526e4dc81b85c1d248ca974eadce81837ecf1"
          ],
          "data": "0x",
          "blockHash": "0x8d89cf34c92a5732eefbdd4eb94a042f6ffe5a6196f4376ddaa361410134958d",
          "blockNumber": "0x786b38",
          "blockTimestamp": "0x67d26bcc",
          "transactionHash": "0xe2e2e2bf46474f2a9a2e0ce17166cbbcb7793d66dfb89a4e0f01aade861cad94",
          "transactionIndex": "0x73",
          "logIndex": "0xc4",
          "removed": false
        },
        {
          "address": "0x109de29e0fb4de58a66ce077253e0604d81ad14c",
          "topics": [
            "0xc235116ab1fd2ce09ba4690b74e2e7782ddf6f4a49eda5a12e0c320f7c65ccd6",
            "0x0000000000000000000000008cb5ac17520ba1aefbccf632576283c7d8cba816"
          ],
          "data": "0x00000000000000000000000000000000000000000000000000000000000000400000000000000000000000000000000000000000000000000000000000000080000000000000000000000000000000000000000000000000000000000000000b456d626c656d204f70656e00000000000000000000000000000000000000000000000000000000000000000000000000000000000000000000000000000000044f50454e00000000000000000000000000000000000000000000000000000000",
          "blockHash": "0x8d89cf34c92a5732eefbdd4eb94a042f6ffe5a6196f4376ddaa361410134958d",
          "blockNumber": "0x786b38",
          "blockTimestamp": "0x67d26bcc",
          "transactionHash": "0xe2e2e2bf46474f2a9a2e0ce17166cbbcb7793d66dfb89a4e0f01aade861cad94",
          "transactionIndex": "0x73",
          "logIndex": "0xc5",
          "removed": false
        },
        {
          "address": "0x12f084de536f41bcd29dfc7632db0261cec72c60",
          "topics": [
            "0x5902eed5cd330f690551c9c5095eacb178efeaf6896420b9473fa373b2313f1a",
            "0x0000000000000000000000008cb5ac17520ba1aefbccf632576283c7d8cba816",
            "0x0000000000000000000000000000000000000000000000000000000000000001"
          ],
          "data": "0x0000000000000000000000000000000000000000000000000000000000000020000000000000000000000000000000000000000000000000000000000000000b456d626c656d204f70656e000000000000000000000000000000000000000000",
          "blockHash": "0x8d89cf34c92a5732eefbdd4eb94a042f6ffe5a6196f4376ddaa361410134958d",
          "blockNumber": "0x786b38",
          "blockTimestamp": "0x67d26bcc",
          "transactionHash": "0xe2e2e2bf46474f2a9a2e0ce17166cbbcb7793d66dfb89a4e0f01aade861cad94",
          "transactionIndex": "0x73",
          "logIndex": "0xc6",
          "removed": false
        }
      ],
      "logsBloom": "0x00000004000000000800000000100000000008800000000400800000000000000010000000000000000000000004000000000000002000000000004000040000000000000000000000000400400000000101000000040000000000000000000000000080020080000000040000000800000000000000000000000000000000408000000000000000000800004000000000000000000080000000100004000000010000000800004000008040000000000000000000000000001000010000000000000000004000000000000000000000000000000004000000000000000260000000000000000000000000000000000000400000000000800000000000400000",
      "type": "0x2",
      "transactionHash": "0xe2e2e2bf46474f2a9a2e0ce17166cbbcb7793d66dfb89a4e0f01aade861cad94",
      "transactionIndex": "0x73",
      "blockHash": "0x8d89cf34c92a5732eefbdd4eb94a042f6ffe5a6196f4376ddaa361410134958d",
      "blockNumber": "0x786b38",
      "gasUsed": "0x63bd7",
      "effectiveGasPrice": "0x11615aac7",
      "from": "0xa99526e4dc81b85c1d248ca974eadce81837ecf1",
      "to": "0x12f084de536f41bcd29dfc7632db0261cec72c60",
      "contractAddress": null
    },
    {
      "status": "0x1",
      "cumulativeGasUsed": "0xb20051",
      "logs": [
        {
          "address": "0x12f084de536f41bcd29dfc7632db0261cec72c60",
          "topics": [
            "0x386488dff7e0422825a9a6550182ab7f1d7ef789131917bfd8dd6ffe29afe08d",
            "0x000000000000000000000000afe0130bad95763a66871e1f2fd73b8e7ee18037"
          ],
          "data": "0x0000000000000000000000000000000000000000000000000000000000000020000000000000000000000000000000000000000000000000000000000000004d68747470733a2f2f76322e656d626c656d7661756c742e696f2f76332f6d6574612f3078416645303133304261643935373633413636383731653146326664373342386537656531383033372f00000000000000000000000000000000000000",
          "blockHash": "0x9b0853a9cb7e09cfb607a3bca1b1a8f560af195cad98db99cbf95ab0b670c137",
          "blockNumber": "0x786b39",
          "blockTimestamp": "0x67d26bd8",
          "transactionHash": "0xa0dd78370ddf5815d90a4521175f55d6c931c1bad29e1f0313b93850102a488e",
          "transactionIndex": "0x74",
          "logIndex": "0xc9",
          "removed": false
        }
      ],
      "logsBloom": "0x00000000000000000000000000000000004000000000000000000000000000000000000080000000000000000004000000000000002000000000000000000000000000000000000000000000000000000000000000000000000000400000000000000100000000000000000000000000000000000000000000000000000000000000000000000000000000000000000000000000000000000000000000000000000000000800000000000000000000000000000000000000000000000000000000000000000000000000000000000000000000000000000000000000000000200000000000000000000000000000000000000000000000000040000000000000",
      "type": "0x2",
      "transactionHash": "0xa0dd78370ddf5815d90a4521175f55d6c931c1bad29e1f0313b93850102a488e",
      "transactionIndex": "0x74",
      "blockHash": "0x9b0853a9cb7e09cfb607a3bca1b1a8f560af195cad98db99cbf95ab0b670c137",
      "blockNumber": "0x786b39",
      "gasUsed": "0x221cd",
      "effectiveGasPrice": "0x10db7147d",
      "from": "0xa99526e4dc81b85c1d248ca974eadce81837ecf1",
      "to": "0x12f084de536f41bcd29dfc7632db0261cec72c60",
      "contractAddress": null
    },
    {
      "status": "0x1",
      "cumulativeGasUsed": "0x119fbe3",
      "logs": [
        {
          "address": "0x12f084de536f41bcd29dfc7632db0261cec72c60",
          "topics": [
            "0x386488dff7e0422825a9a6550182ab7f1d7ef789131917bfd8dd6ffe29afe08d",
            "0x000000000000000000000000aaa86841631dba89f0841655a679f12b768e2fb8"
          ],
          "data": "0x0000000000000000000000000000000000000000000000000000000000000020000000000000000000000000000000000000000000000000000000000000004d68747470733a2f2f76322e656d626c656d7661756c742e696f2f76332f6d6574612f3078414141383638343136333144624138394630383431363535613637394631326237363845324642382f00000000000000000000000000000000000000",
          "blockHash": "0x14c3eeaf2fe851fda314ca41b077b2d9d76ec9cf2fa186bacdbcf9d23e74086d",
          "blockNumber": "0x786b3a",
          "blockTimestamp": "0x67d26be4",
          "transactionHash": "0xf8089701333fe7cc2d452d56919c38d7718f4f33f8ddb6a54ca1988cce7e0b2f",
          "transactionIndex": "0x8f",
          "logIndex": "0x14d",
          "removed": false
        }
      ],
      "logsBloom": "0x00000000000000000000000000000000000000000000000000000000000000000000000080000000000000000004000000000000002000000000000000000000000000000000000000000000000000000000000000000000000000000000000000000100000000000000000000000000000000000000000000000000000000000000200000000000000000000000000000000000000000000000000000000000000000000880000000000000000000000040000000000000000000000000000000000000000000000000000000000000000000000000000000000000000000200000000000000000000000000000000000000000000000000000000000000000",
      "type": "0x2",
      "transactionHash": "0xf8089701333fe7cc2d452d56919c38d7718f4f33f8ddb6a54ca1988cce7e0b2f",
      "transactionIndex": "0x8f",
      "blockHash": "0x14c3eeaf2fe851fda314ca41b077b2d9d76ec9cf2fa186bacdbcf9d23e74086d",
      "blockNumber": "0x786b3a",
      "gasUsed": "0x221cd",
      "effectiveGasPrice": "0x107bb7e25",
      "from": "0xa99526e4dc81b85c1d248ca974eadce81837ecf1",
      "to": "0x12f084de536f41bcd29dfc7632db0261cec72c60",
      "contractAddress": null
    },
    {
      "status": "0x1",
      "cumulativeGasUsed": "0x1c7ce35",
      "logs": [
        {
          "address": "0x12f084de536f41bcd29dfc7632db0261cec72c60",
          "topics": [
            "0x386488dff7e0422825a9a6550182ab7f1d7ef789131917bfd8dd6ffe29afe08d",
            "0x0000000000000000000000006b31e7c15b0db1fab86f4be94d5d8cbc27bff98b"
          ],
          "data": "0x0000000000000000000000000000000000000000000000000000000000000020000000000000000000000000000000000000000000000000000000000000004d68747470733a2f2f76322e656d626c656d7661756c742e696f2f76332f6d6574612f3078366233314537633135423064623146616238364634424539346435443863424332374246463938622f00000000000000000000000000000000000000",
          "blockHash": "0x2667ee8f816f061c1d4c06f2cc082b1812e27a57c9d0aa49b8819e41daaae662",
          "blockNumber": "0x786b3b",
          "blockTimestamp": "0x67d26bf0",
          "transactionHash": "0xb4ebc0afedb04c97d879bb4dcc3dded9515318d2709e08813228926c058c90d0",
          "transactionIndex": "0x83",
          "logIndex": "0x1b3",
          "removed": false
        }
      ],
      "logsBloom": "0x00000000000000000000000000000000000000000000000000000000000000000000000080000000000000000004000000000000002000000000000000000000000000000000000000000000000000000000000000020000001000000000000000000100000000000000000000000000000000000080000000000000000000000000000000000000000000000000000000000000000000000000000000000000000000000800000000000000000000000000000000000000000000000000000000000000000000000000000000000000000000000000000000000000000000200000000000000000000000000000000000000000000000000000000000000000",
      "type": "0x2",
      "transactionHash": "0xb4ebc0afedb04c97d879bb4dcc3dded9515318d2709e08813228926c058c90d0",
      "transactionIndex": "0x83",
      "blockHash": "0x2667ee8f816f061c1d4c06f2cc082b1812e27a57c9d0aa49b8819e41daaae662",
      "blockNumber": "0x786b3b",
      "gasUsed": "0x221cd",
      "effectiveGasPrice": "0x10d1a4f37",
      "from": "0xa99526e4dc81b85c1d248ca974eadce81837ecf1",
      "to": "0x12f084de536f41bcd29dfc7632db0261cec72c60",
      "contractAddress": null
    },
    {
      "status": "0x1",
      "cumulativeGasUsed": "0x1685c73",
      "logs": [
        {
          "address": "0xc9eb32bc9d7162d8ce3b9b1955cecedfdda3afcf",
          "topics": [
            "0x6741b2fc379fad678116fe3d4d4b9a1a184ab53ba36b86ad0fa66340b1ab41ad"
          ],
          "data": "0x0000000000000000000000000000000000000000000000000000000000000020000000000000000000000000000000000000000000000000000000000000004d68747470733a2f2f76322e656d626c656d7661756c742e696f2f76332f6d6574612f3078433965423332624339443731363264384365334239623139353563656345646644646133416643662f00000000000000000000000000000000000000",
          "blockHash": "0x073935d2a9c17342ef871fdcff0afd5b8ccf5512bd9e44913ad3cf0ef9e72ae6",
          "blockNumber": "0x786b3c",
          "blockTimestamp": "0x67d26c08",
          "transactionHash": "0xf20bf6e56371648bdc99a0b5d85db51dfa88b5903566c27a15dc0d95133e6bc6",
          "transactionIndex": "0xe5",
          "logIndex": "0x18b",
          "removed": false
        },
        {
          "address": "0x12f084de536f41bcd29dfc7632db0261cec72c60",
          "topics": [
            "0x65936d1dee571c89e7bc171ad8e94e288d930f863c2a4a92a0593baef6573ee9",
            "0x000000000000000000000000c9eb32bc9d7162d8ce3b9b1955cecedfdda3afcf"
          ],
          "data": "0x0000000000000000000000000000000000000000000000000000000000000020000000000000000000000000000000000000000000000000000000000000004d68747470733a2f2f76322e656d626c656d7661756c742e696f2f76332f6d6574612f3078433965423332624339443731363264384365334239623139353563656345646644646133416643662f00000000000000000000000000000000000000",
          "blockHash": "0x073935d2a9c17342ef871fdcff0afd5b8ccf5512bd9e44913ad3cf0ef9e72ae6",
          "blockNumber": "0x786b3c",
          "blockTimestamp": "0x67d26c08",
          "transactionHash": "0xf20bf6e56371648bdc99a0b5d85db51dfa88b5903566c27a15dc0d95133e6bc6",
          "transactionIndex": "0xe5",
          "logIndex": "0x18c",
          "removed": false
        }
      ],
      "logsBloom": "0x00000000000000000000000000000000000004000000000000000000000000080000000000000000000000000004000000000000002000000000000000000000000000000400000000000000000000000000000000100000000000000000000000000000000000000000000000000800000000000000000000000000000000000000000000000000000000000000000000000000000000000000000000000000000001000800000020000000008000000000000000000000000000000000000000000000000000000000000200004000000000000000000000000000000008002000000000000000000000000000000000000000000000000000000000000000",
      "type": "0x2",
      "transactionHash": "0xf20bf6e56371648bdc99a0b5d85db51dfa88b5903566c27a15dc0d95133e6bc6",
      "transactionIndex": "0xe5",
      "blockHash": "0x073935d2a9c17342ef871fdcff0afd5b8ccf5512bd9e44913ad3cf0ef9e72ae6",
      "blockNumber": "0x786b3c",
      "gasUsed": "0x222ff",
      "effectiveGasPrice": "0x127166df3",
      "from": "0xa99526e4dc81b85c1d248ca974eadce81837ecf1",
      "to": "0x12f084de536f41bcd29dfc7632db0261cec72c60",
      "contractAddress": null
    },
    {
      "status": "0x1",
      "cumulativeGasUsed": "0xd68c26",
      "logs": [
        {
          "address": "0x8cb5ac17520ba1aefbccf632576283c7d8cba816",
          "topics": [
            "0x6741b2fc379fad678116fe3d4d4b9a1a184ab53ba36b86ad0fa66340b1ab41ad"
          ],
          "data": "0x0000000000000000000000000000000000000000000000000000000000000020000000000000000000000000000000000000000000000000000000000000004d68747470733a2f2f76322e656d626c656d7661756c742e696f2f76332f6d6574612f3078384342354163313735323062613161654642636346363332353736323833633764384362413831362f00000000000000000000000000000000000000",
          "blockHash": "0x42274c72de179a72f472b5a0a134407c1ffa790ca4a3adbaad4a9d9a6f255a84",
          "blockNumber": "0x786b3d",
          "blockTimestamp": "0x67d26c14",
          "transactionHash": "0xb7af9cd285a0858d7255c39d64079d865cd5c0dcbf68597101e2b1cebbcea344",
          "transactionIndex": "0x73",
          "logIndex": "0xd1",
          "removed": false
        },
        {
          "address": "0x12f084de536f41bcd29dfc7632db0261cec72c60",
          "topics": [
            "0x65936d1dee571c89e7bc171ad8e94e288d930f863c2a4a92a0593baef6573ee9",
            "0x0000000000000000000000008cb5ac17520ba1aefbccf632576283c7d8cba816"
          ],
          "data": "0x0000000000000000000000000000000000000000000000000000000000000020000000000000000000000000000000000000000000000000000000000000004d68747470733a2f2f76322e656d626c656d7661756c742e696f2f76332f6d6574612f3078384342354163313735323062613161654642636346363332353736323833633764384362413831362f00000000000000000000000000000000000000",
          "blockHash": "0x42274c72de179a72f472b5a0a134407c1ffa790ca4a3adbaad4a9d9a6f255a84",
          "blockNumber": "0x786b3d",
          "blockTimestamp": "0x67d26c14",
          "transactionHash": "0xb7af9cd285a0858d7255c39d64079d865cd5c0dcbf68597101e2b1cebbcea344",
          "transactionIndex": "0x73",
          "logIndex": "0xd2",
          "removed": false
        }
      ],
      "logsBloom": "0x00000000000000000000000000000000000004000000000400000000000000080000000000000000000000000004000000000000002000000000000000000000000000000000000000000000400000000100000000000000000000000000000000000000000000000000000000000000000000000000000000000000000000000000000000000000000000000000000000000000000000000000000000000000000001000800000000008000000000000000000000000000000000010000000000000000000000000000000200004000000000000000000000000000000000002000000000000000000000000000000000400000000000000000000000000000",
      "type": "0x2",
      "transactionHash": "0xb7af9cd285a0858d7255c39d64079d865cd5c0dcbf68597101e2b1cebbcea344",
      "transactionIndex": "0x73",
      "blockHash": "0x42274c72de179a72f472b5a0a134407c1ffa790ca4a3adbaad4a9d9a6f255a84",
      "blockNumber": "0x786b3d",
      "gasUsed": "0x222ff",
      "effectiveGasPrice": "0x1469b820f",
      "from": "0xa99526e4dc81b85c1d248ca974eadce81837ecf1",
      "to": "0x12f084de536f41bcd29dfc7632db0261cec72c60",
      "contractAddress": null
    }
  ],
  "libraries": [],
  "pending": [],
  "returns": {},
  "timestamp": 1741843563,
  "chain": 11155111,
  "commit": "b4b8675"
}