{
  "transactions": [
    {
      "hash": "0x2b890984f5283e3f81df31a76f7a19b72fd5e59bb7292b67c9bf2737980a1296",
      "transactionType": "CALL",
      "contractName": null,
      "contractAddress": "0x5657a10c1aae46ae383342d7516290b4fecd9295",
      "function": "createVaultCollection(string,string,uint8)",
      "arguments": [
        "Rare Pepe",
        "PEPE",
        "2"
      ],
      "transaction": {
        "from": "0xa99526e4dc81b85c1d248ca974eadce81837ecf1",
        "to": "0x5657a10c1aae46ae383342d7516290b4fecd9295",
        "gas": "0x68d18",
        "value": "0x0",
        "input": "0xa8008080000000000000000000000000000000000000000000000000000000000000006000000000000000000000000000000000000000000000000000000000000000a000000000000000000000000000000000000000000000000000000000000000020000000000000000000000000000000000000000000000000000000000000009526172652050657065000000000000000000000000000000000000000000000000000000000000000000000000000000000000000000000000000000000000045045504500000000000000000000000000000000000000000000000000000000",
        "nonce": "0x1e",
        "chainId": "0xa4b1"
      },
      "additionalContracts": [
        {
          "transactionType": "CREATE",
          "address": "0xc4f75736c494b05ee55a66537b60fc3eb2f10e33",
          "initCode": "0x60803460b757601f6102dc38819003918201601f19168301916001600160401b0383118484101760bb5780849260209460405283398101031260b757516001600160a01b0381169081810360b757811560a8577fa3f0ad74e5423aebfd80d3ef4346578335a9a72aeaee59ff6cb3582b35133d5055604051907f367184f1bb13aa656fb065e5e2b1104b30f71206d03961639cac77f3a6b331765f80a261020c90816100d08239f35b63d92e233d60e01b5f5260045ffd5b5f80fd5b634e487b7160e01b5f52604160045260245ffdfe60806040526004361015610015575b3661011d57005b5f3560e01c6301ffc9a70361000e57346100cb5760203660031901126100cb5760043563ffffffff60e01b81168091036100cb5760206001600160a01b0361005b610141565b16916024604051809481936301ffc9a760e01b835260048301525afa80156100d7575f90610096575b604051901515815280602081015b0390f35b506020813d6020116100cf575b816100b0602093836100dc565b810103126100cb575180151581036100cb5761009290610084565b5f80fd5b3d91506100a3565b610112565b90601f8019910116810190811067ffffffffffffffff8211176100fe57604052565b634e487b7160e01b5f52604160045260245ffd5b6040513d5f823e3d90fd5b5f80610127610141565b368280378136915af43d5f803e1561013d573d5ff35b3d5ffd5b7fa3f0ad74e5423aebfd80d3ef4346578335a9a72aeaee59ff6cb3582b35133d5054604051635c60da1b60e01b815290602090829060049082906001600160a01b03165afa9081156100d7575f91610197575090565b90506020813d6020116101ce575b816101b2602093836100dc565b810103126100cb57516001600160a01b03811681036100cb5790565b3d91506101a556fea26469706673582212205186540d9246daea2d596da38307e987a79caff5523e7590a3e843059f9dc9e364736f6c634300081c00330000000000000000000000007726fadb63a4148a54ab9b47979a4c49f028acc7"
        }
      ],
      "isFixedGasLimit": false
    },
    {
      "hash": "0xa361d3f8d78f356cabd9cf7c39c80b1c421931a6a0f92a9b144151567f351b24",
      "transactionType": "CALL",
      "contractName": null,
      "contractAddress": "0x5657a10c1aae46ae383342d7516290b4fecd9295",
      "function": "createVaultCollection(string,string,uint8)",
      "arguments": [
        "Spells of Genesis",
        "SOG",
        "2"
      ],
      "transaction": {
        "from": "0xa99526e4dc81b85c1d248ca974eadce81837ecf1",
        "to": "0x5657a10c1aae46ae383342d7516290b4fecd9295",
        "gas": "0x68ee3",
        "value": "0x0",
        "input": "0xa8008080000000000000000000000000000000000000000000000000000000000000006000000000000000000000000000000000000000000000000000000000000000a0000000000000000000000000000000000000000000000000000000000000000200000000000000000000000000000000000000000000000000000000000000115370656c6c73206f662047656e657369730000000000000000000000000000000000000000000000000000000000000000000000000000000000000000000003534f470000000000000000000000000000000000000000000000000000000000",
        "nonce": "0x1f",
        "chainId": "0xa4b1"
      },
      "additionalContracts": [
        {
          "transactionType": "CREATE",
          "address": "0x6372b17ce84ecf3ba8f70a420a2ecddf6e52e8aa",
          "initCode": "0x60803460b757601f6102dc38819003918201601f19168301916001600160401b0383118484101760bb5780849260209460405283398101031260b757516001600160a01b0381169081810360b757811560a8577fa3f0ad74e5423aebfd80d3ef4346578335a9a72aeaee59ff6cb3582b35133d5055604051907f367184f1bb13aa656fb065e5e2b1104b30f71206d03961639cac77f3a6b331765f80a261020c90816100d08239f35b63d92e233d60e01b5f5260045ffd5b5f80fd5b634e487b7160e01b5f52604160045260245ffdfe60806040526004361015610015575b3661011d57005b5f3560e01c6301ffc9a70361000e57346100cb5760203660031901126100cb5760043563ffffffff60e01b81168091036100cb5760206001600160a01b0361005b610141565b16916024604051809481936301ffc9a760e01b835260048301525afa80156100d7575f90610096575b604051901515815280602081015b0390f35b506020813d6020116100cf575b816100b0602093836100dc565b810103126100cb575180151581036100cb5761009290610084565b5f80fd5b3d91506100a3565b610112565b90601f8019910116810190811067ffffffffffffffff8211176100fe57604052565b634e487b7160e01b5f52604160045260245ffd5b6040513d5f823e3d90fd5b5f80610127610141565b368280378136915af43d5f803e1561013d573d5ff35b3d5ffd5b7fa3f0ad74e5423aebfd80d3ef4346578335a9a72aeaee59ff6cb3582b35133d5054604051635c60da1b60e01b815290602090829060049082906001600160a01b03165afa9081156100d7575f91610197575090565b90506020813d6020116101ce575b816101b2602093836100dc565b810103126100cb57516001600160a01b03811681036100cb5790565b3d91506101a556fea26469706673582212205186540d9246daea2d596da38307e987a79caff5523e7590a3e843059f9dc9e364736f6c634300081c00330000000000000000000000007726fadb63a4148a54ab9b47979a4c49f028acc7"
        }
      ],
      "isFixedGasLimit": false
    },
    {
      "hash": "0xb23e4efdd58fd471bb2df268a911def3db7ec5db053efd963b43574553e5eb32",
      "transactionType": "CALL",
      "contractName": null,
      "contractAddress": "0x5657a10c1aae46ae383342d7516290b4fecd9295",
      "function": "createVaultCollection(string,string,uint8)",
      "arguments": [
        "Fake Rares",
        "FAKE",
        "2"
      ],
      "transaction": {
        "from": "0xa99526e4dc81b85c1d248ca974eadce81837ecf1",
        "to": "0x5657a10c1aae46ae383342d7516290b4fecd9295",
        "gas": "0x68dfa",
        "value": "0x0",
        "input": "0xa8008080000000000000000000000000000000000000000000000000000000000000006000000000000000000000000000000000000000000000000000000000000000a00000000000000000000000000000000000000000000000000000000000000002000000000000000000000000000000000000000000000000000000000000000a46616b6520526172657300000000000000000000000000000000000000000000000000000000000000000000000000000000000000000000000000000000000446414b4500000000000000000000000000000000000000000000000000000000",
        "nonce": "0x20",
        "chainId": "0xa4b1"
      },
      "additionalContracts": [
        {
          "transactionType": "CREATE",
          "address": "0x907caee2d12ed9f5f093bf8aca907a9ca9d54ec5",
          "initCode": "0x60803460b757601f6102dc38819003918201601f19168301916001600160401b0383118484101760bb5780849260209460405283398101031260b757516001600160a01b0381169081810360b757811560a8577fa3f0ad74e5423aebfd80d3ef4346578335a9a72aeaee59ff6cb3582b35133d5055604051907f367184f1bb13aa656fb065e5e2b1104b30f71206d03961639cac77f3a6b331765f80a261020c90816100d08239f35b63d92e233d60e01b5f5260045ffd5b5f80fd5b634e487b7160e01b5f52604160045260245ffdfe60806040526004361015610015575b3661011d57005b5f3560e01c6301ffc9a70361000e57346100cb5760203660031901126100cb5760043563ffffffff60e01b81168091036100cb5760206001600160a01b0361005b610141565b16916024604051809481936301ffc9a760e01b835260048301525afa80156100d7575f90610096575b604051901515815280602081015b0390f35b506020813d6020116100cf575b816100b0602093836100dc565b810103126100cb575180151581036100cb5761009290610084565b5f80fd5b3d91506100a3565b610112565b90601f8019910116810190811067ffffffffffffffff8211176100fe57604052565b634e487b7160e01b5f52604160045260245ffd5b6040513d5f823e3d90fd5b5f80610127610141565b368280378136915af43d5f803e1561013d573d5ff35b3d5ffd5b7fa3f0ad74e5423aebfd80d3ef4346578335a9a72aeaee59ff6cb3582b35133d5054604051635c60da1b60e01b815290602090829060049082906001600160a01b03165afa9081156100d7575f91610197575090565b90506020813d6020116101ce575b816101b2602093836100dc565b810103126100cb57516001600160a01b03811681036100cb5790565b3d91506101a556fea26469706673582212205186540d9246daea2d596da38307e987a79caff5523e7590a3e843059f9dc9e364736f6c634300081c00330000000000000000000000007726fadb63a4148a54ab9b47979a4c49f028acc7"
        }
      ],
      "isFixedGasLimit": false
    },
    {
      "hash": "0xd817bb6e54716a37ca47d2563cf1266c85bd02553dcf26360deb86cfe8a4d6e7",
      "transactionType": "CALL",
      "contractName": null,
      "contractAddress": "0x5657a10c1aae46ae383342d7516290b4fecd9295",
      "function": "createVaultCollection(string,string,uint8)",
      "arguments": [
        "EmBells",
        "BELL",
        "1"
      ],
      "transaction": {
        "from": "0xa99526e4dc81b85c1d248ca974eadce81837ecf1",
        "to": "0x5657a10c1aae46ae383342d7516290b4fecd9295",
        "gas": "0x879aa",
        "value": "0x0",
        "input": "0xa8008080000000000000000000000000000000000000000000000000000000000000006000000000000000000000000000000000000000000000000000000000000000a000000000000000000000000000000000000000000000000000000000000000010000000000000000000000000000000000000000000000000000000000000007456d42656c6c7300000000000000000000000000000000000000000000000000000000000000000000000000000000000000000000000000000000000000000442454c4c00000000000000000000000000000000000000000000000000000000",
        "nonce": "0x21",
        "chainId": "0xa4b1"
      },
      "additionalContracts": [
        {
          "transactionType": "CREATE",
          "address": "0x01d3e79fc2518d15eb02fcd7dd61fd003e133ea3",
          "initCode": "0x60803460b757601f6102dc38819003918201601f19168301916001600160401b0383118484101760bb5780849260209460405283398101031260b757516001600160a01b0381169081810360b757811560a8577fa3f0ad74e5423aebfd80d3ef4346578335a9a72aeaee59ff6cb3582b35133d5055604051907f367184f1bb13aa656fb065e5e2b1104b30f71206d03961639cac77f3a6b331765f80a261020c90816100d08239f35b63d92e233d60e01b5f5260045ffd5b5f80fd5b634e487b7160e01b5f52604160045260245ffdfe60806040526004361015610015575b3661011d57005b5f3560e01c6301ffc9a70361000e57346100cb5760203660031901126100cb5760043563ffffffff60e01b81168091036100cb5760206001600160a01b0361005b610141565b16916024604051809481936301ffc9a760e01b835260048301525afa80156100d7575f90610096575b604051901515815280602081015b0390f35b506020813d6020116100cf575b816100b0602093836100dc565b810103126100cb575180151581036100cb5761009290610084565b5f80fd5b3d91506100a3565b610112565b90601f8019910116810190811067ffffffffffffffff8211176100fe57604052565b634e487b7160e01b5f52604160045260245ffd5b6040513d5f823e3d90fd5b5f80610127610141565b368280378136915af43d5f803e1561013d573d5ff35b3d5ffd5b7fa3f0ad74e5423aebfd80d3ef4346578335a9a72aeaee59ff6cb3582b35133d5054604051635c60da1b60e01b815290602090829060049082906001600160a01b03165afa9081156100d7575f91610197575090565b90506020813d6020116101ce575b816101b2602093836100dc565b810103126100cb57516001600160a01b03811681036100cb5790565b3d91506101a556fea2646970667358221220fd058f8f6583f312edd36ca1cba22721ceb1df298598d2e86986cc36fb65341464736f6c634300081c0033000000000000000000000000360a89688b2672a70e298cab74ea48883340fff6"
        }
      ],
      "isFixedGasLimit": false
    },
    {
      "hash": "0xb724c5ff5c9e59db32bf183d11094c91e589cb6c367edd5d48bf040bad23b8ee",
      "transactionType": "CALL",
      "contractName": null,
      "contractAddress": "0x5657a10c1aae46ae383342d7516290b4fecd9295",
      "function": "createVaultCollection(string,string,uint8)",
      "arguments": [
        "Emblem Open",
        "OPEN",
        "1"
      ],
      "transaction": {
        "from": "0xa99526e4dc81b85c1d248ca974eadce81837ecf1",
        "to": "0x5657a10c1aae46ae383342d7516290b4fecd9295",
        "gas": "0x87a9a",
        "value": "0x0",
        "input": "0xa8008080000000000000000000000000000000000000000000000000000000000000006000000000000000000000000000000000000000000000000000000000000000a00000000000000000000000000000000000000000000000000000000000000001000000000000000000000000000000000000000000000000000000000000000b456d626c656d204f70656e00000000000000000000000000000000000000000000000000000000000000000000000000000000000000000000000000000000044f50454e00000000000000000000000000000000000000000000000000000000",
        "nonce": "0x22",
        "chainId": "0xa4b1"
      },
      "additionalContracts": [
        {
          "transactionType": "CREATE",
          "address": "0x53f74639688dc71d0071367cef0daa10deff77e3",
          "initCode": "0x60803460b757601f6102dc38819003918201601f19168301916001600160401b0383118484101760bb5780849260209460405283398101031260b757516001600160a01b0381169081810360b757811560a8577fa3f0ad74e5423aebfd80d3ef4346578335a9a72aeaee59ff6cb3582b35133d5055604051907f367184f1bb13aa656fb065e5e2b1104b30f71206d03961639cac77f3a6b331765f80a261020c90816100d08239f35b63d92e233d60e01b5f5260045ffd5b5f80fd5b634e487b7160e01b5f52604160045260245ffdfe60806040526004361015610015575b3661011d57005b5f3560e01c6301ffc9a70361000e57346100cb5760203660031901126100cb5760043563ffffffff60e01b81168091036100cb5760206001600160a01b0361005b610141565b16916024604051809481936301ffc9a760e01b835260048301525afa80156100d7575f90610096575b604051901515815280602081015b0390f35b506020813d6020116100cf575b816100b0602093836100dc565b810103126100cb575180151581036100cb5761009290610084565b5f80fd5b3d91506100a3565b610112565b90601f8019910116810190811067ffffffffffffffff8211176100fe57604052565b634e487b7160e01b5f52604160045260245ffd5b6040513d5f823e3d90fd5b5f80610127610141565b368280378136915af43d5f803e1561013d573d5ff35b3d5ffd5b7fa3f0ad74e5423aebfd80d3ef4346578335a9a72aeaee59ff6cb3582b35133d5054604051635c60da1b60e01b815290602090829060049082906001600160a01b03165afa9081156100d7575f91610197575090565b90506020813d6020116101ce575b816101b2602093836100dc565b810103126100cb57516001600160a01b03811681036100cb5790565b3d91506101a556fea2646970667358221220fd058f8f6583f312edd36ca1cba22721ceb1df298598d2e86986cc36fb65341464736f6c634300081c0033000000000000000000000000360a89688b2672a70e298cab74ea48883340fff6"
        }
      ],
      "isFixedGasLimit": false
    },
    {
      "hash": "0x7735f32b06bf064d2fd47e1d2728b5b2af8c1a94dc30b3cff0a69cafa420f394",
      "transactionType": "CALL",
      "contractName": null,
      "contractAddress": "0x5657a10c1aae46ae383342d7516290b4fecd9295",
      "function": "setCollectionURI(address,string)",
      "arguments": [
        "0xC4f75736c494b05ee55a66537b60fC3eB2F10E33",
        "https://v2.emblemvault.io/v3/meta/0xC4f75736c494b05ee55a66537b60fC3eB2F10E33/"
      ],
      "transaction": {
        "from": "0xa99526e4dc81b85c1d248ca974eadce81837ecf1",
        "to": "0x5657a10c1aae46ae383342d7516290b4fecd9295",
        "gas": "0x2ef35",
        "value": "0x0",
        "input": "0x23f019fd000000000000000000000000c4f75736c494b05ee55a66537b60fc3eb2f10e330000000000000000000000000000000000000000000000000000000000000040000000000000000000000000000000000000000000000000000000000000004d68747470733a2f2f76322e656d626c656d7661756c742e696f2f76332f6d6574612f3078433466373537333663343934623035656535356136363533376236306643336542324631304533332f00000000000000000000000000000000000000",
        "nonce": "0x23",
        "chainId": "0xa4b1"
      },
      "additionalContracts": [],
      "isFixedGasLimit": false
    },
    {
      "hash": "0xd03d40aad4471fa1f00ee198314016a86374444d2898968f8f5a8405f29678ee",
      "transactionType": "CALL",
      "contractName": null,
      "contractAddress": "0x5657a10c1aae46ae383342d7516290b4fecd9295",
      "function": "setCollectionURI(address,string)",
      "arguments": [
        "0x6372B17cE84Ecf3Ba8f70a420A2ecddf6e52E8aA",
        "https://v2.emblemvault.io/v3/meta/0x6372B17cE84Ecf3Ba8f70a420A2ecddf6e52E8aA/"
      ],
      "transaction": {
        "from": "0xa99526e4dc81b85c1d248ca974eadce81837ecf1",
        "to": "0x5657a10c1aae46ae383342d7516290b4fecd9295",
        "gas": "0x2ef35",
        "value": "0x0",
        "input": "0x23f019fd0000000000000000000000006372b17ce84ecf3ba8f70a420a2ecddf6e52e8aa0000000000000000000000000000000000000000000000000000000000000040000000000000000000000000000000000000000000000000000000000000004d68747470733a2f2f76322e656d626c656d7661756c742e696f2f76332f6d6574612f3078363337324231376345383445636633426138663730613432304132656364646636653532453861412f00000000000000000000000000000000000000",
        "nonce": "0x24",
        "chainId": "0xa4b1"
      },
      "additionalContracts": [],
      "isFixedGasLimit": false
    },
    {
      "hash": "0x16fb4d52dd46f0ebec996876ea6776263d5a5354048b1e4557b9f4e2ce7480bb",
      "transactionType": "CALL",
      "contractName": null,
      "contractAddress": "0x5657a10c1aae46ae383342d7516290b4fecd9295",
      "function": "setCollectionURI(address,string)",
      "arguments": [
        "0x907CAEE2D12ED9f5f093BF8aCa907a9Ca9d54ec5",
        "https://v2.emblemvault.io/v3/meta/0x907CAEE2D12ED9f5f093BF8aCa907a9Ca9d54ec5/"
      ],
      "transaction": {
        "from": "0xa99526e4dc81b85c1d248ca974eadce81837ecf1",
        "to": "0x5657a10c1aae46ae383342d7516290b4fecd9295",
        "gas": "0x2ef35",
        "value": "0x0",
        "input": "0x23f019fd000000000000000000000000907caee2d12ed9f5f093bf8aca907a9ca9d54ec50000000000000000000000000000000000000000000000000000000000000040000000000000000000000000000000000000000000000000000000000000004d68747470733a2f2f76322e656d626c656d7661756c742e696f2f76332f6d6574612f3078393037434145453244313245443966356630393342463861436139303761394361396435346563352f00000000000000000000000000000000000000",
        "nonce": "0x25",
        "chainId": "0xa4b1"
      },
      "additionalContracts": [],
      "isFixedGasLimit": false
    },
    {
      "hash": "0x0a68756c0f7ff27fa666cce594d2f47b459f93c78ca0fcb40375b6a1017515f1",
      "transactionType": "CALL",
      "contractName": null,
      "contractAddress": "0x5657a10c1aae46ae383342d7516290b4fecd9295",
      "function": "setCollectionBaseURI(address,string)",
      "arguments": [
        "0x01D3e79Fc2518d15EB02Fcd7Dd61Fd003E133ea3",
        "https://v2.emblemvault.io/v3/meta/0x01D3e79Fc2518d15EB02Fcd7Dd61Fd003E133ea3/"
      ],
      "transaction": {
        "from": "0xa99526e4dc81b85c1d248ca974eadce81837ecf1",
        "to": "0x5657a10c1aae46ae383342d7516290b4fecd9295",
        "gas": "0x31d13",
        "value": "0x0",
        "input": "0x80aed2a900000000000000000000000001d3e79fc2518d15eb02fcd7dd61fd003e133ea30000000000000000000000000000000000000000000000000000000000000040000000000000000000000000000000000000000000000000000000000000004d68747470733a2f2f76322e656d626c656d7661756c742e696f2f76332f6d6574612f3078303144336537394663323531386431354542303246636437446436314664303033453133336561332f00000000000000000000000000000000000000",
        "nonce": "0x26",
        "chainId": "0xa4b1"
      },
      "additionalContracts": [],
      "isFixedGasLimit": false
    },
    {
      "hash": "0x963ba9295ccde82790459b55f667fdffb32fff3392457b5a23d61c61ff13e523",
      "transactionType": "CALL",
      "contractName": null,
      "contractAddress": "0x5657a10c1aae46ae383342d7516290b4fecd9295",
      "function": "setCollectionBaseURI(address,string)",
      "arguments": [
        "0x53f74639688DC71D0071367CEF0daa10DEff77e3",
        "https://v2.emblemvault.io/v3/meta/0x53f74639688DC71D0071367CEF0daa10DEff77e3/"
      ],
      "transaction": {
        "from": "0xa99526e4dc81b85c1d248ca974eadce81837ecf1",
        "to": "0x5657a10c1aae46ae383342d7516290b4fecd9295",
        "gas": "0x31d13",
        "value": "0x0",
        "input": "0x80aed2a900000000000000000000000053f74639688dc71d0071367cef0daa10deff77e30000000000000000000000000000000000000000000000000000000000000040000000000000000000000000000000000000000000000000000000000000004d68747470733a2f2f76322e656d626c656d7661756c742e696f2f76332f6d6574612f3078353366373436333936383844433731443030373133363743454630646161313044456666373765332f00000000000000000000000000000000000000",
        "nonce": "0x27",
        "chainId": "0xa4b1"
      },
      "additionalContracts": [],
      "isFixedGasLimit": false
    }
  ],
  "receipts": [
    {
      "status": "0x1",
      "cumulativeGasUsed": "0x6cb57",
      "logs": [
        {
          "address": "0xc4f75736c494b05ee55a66537b60fc3eb2f10e33",
          "topics": [
            "0x367184f1bb13aa656fb065e5e2b1104b30f71206d03961639cac77f3a6b33176",
            "0x0000000000000000000000007726fadb63a4148a54ab9b47979a4c49f028acc7"
          ],
          "data": "0x",
          "blockHash": "0x9e9a6f072208199e96b556ed008131664f9c84970b57ff922aacb3b65c9cce23",
          "blockNumber": "0x12399312",
          "transactionHash": "0x2b890984f5283e3f81df31a76f7a19b72fd5e59bb7292b67c9bf2737980a1296",
          "transactionIndex": "0x3",
          "logIndex": "0x2",
          "removed": false
        },
        {
          "address": "0xc4f75736c494b05ee55a66537b60fc3eb2f10e33",
          "topics": [
            "0x8be0079c531659141344cd1fd0a4f28419497f9722a3daafe3b4186f6b6457e0",
            "0x0000000000000000000000000000000000000000000000000000000000000000",
            "0x0000000000000000000000005672f3b4ce39126d6ff8080ac2377f6a2413c6bb"
          ],
          "data": "0x",
          "blockHash": "0x9e9a6f072208199e96b556ed008131664f9c84970b57ff922aacb3b65c9cce23",
          "blockNumber": "0x12399312",
          "transactionHash": "0x2b890984f5283e3f81df31a76f7a19b72fd5e59bb7292b67c9bf2737980a1296",
          "transactionIndex": "0x3",
          "logIndex": "0x3",
          "removed": false
        },
        {
          "address": "0xc4f75736c494b05ee55a66537b60fc3eb2f10e33",
          "topics": [
            "0xc7f505b2f371ae2175ee4913f4499e1f2633a7b5936321eed1cdaeb6115181d2"
          ],
          "data": "0x0000000000000000000000000000000000000000000000000000000000000001",
          "blockHash": "0x9e9a6f072208199e96b556ed008131664f9c84970b57ff922aacb3b65c9cce23",
          "blockNumber": "0x12399312",
          "transactionHash": "0x2b890984f5283e3f81df31a76f7a19b72fd5e59bb7292b67c9bf2737980a1296",
          "transactionIndex": "0x3",
          "logIndex": "0x4",
          "removed": false
        },
        {
          "address": "0xc4f75736c494b05ee55a66537b60fc3eb2f10e33",
          "topics": [
            "0x8be0079c531659141344cd1fd0a4f28419497f9722a3daafe3b4186f6b6457e0",
            "0x0000000000000000000000005672f3b4ce39126d6ff8080ac2377f6a2413c6bb",
            "0x000000000000000000000000a99526e4dc81b85c1d248ca974eadce81837ecf1"
          ],
          "data": "0x",
          "blockHash": "0x9e9a6f072208199e96b556ed008131664f9c84970b57ff922aacb3b65c9cce23",
          "blockNumber": "0x12399312",
          "transactionHash": "0x2b890984f5283e3f81df31a76f7a19b72fd5e59bb7292b67c9bf2737980a1296",
          "transactionIndex": "0x3",
          "logIndex": "0x5",
          "removed": false
        },
        {
          "address": "0x5672f3b4ce39126d6ff8080ac2377f6a2413c6bb",
          "topics": [
            "0x171ccc46ca30ce15b8e391d7e1db8cf7644ed26a313b10df70a92b13da343541",
            "0x000000000000000000000000c4f75736c494b05ee55a66537b60fc3eb2f10e33",
            "0x000000000000000000000000a99526e4dc81b85c1d248ca974eadce81837ecf1"
          ],
          "data": "0x",
          "blockHash": "0x9e9a6f072208199e96b556ed008131664f9c84970b57ff922aacb3b65c9cce23",
          "blockNumber": "0x12399312",
          "transactionHash": "0x2b890984f5283e3f81df31a76f7a19b72fd5e59bb7292b67c9bf2737980a1296",
          "transactionIndex": "0x3",
          "logIndex": "0x6",
          "removed": false
        },
        {
          "address": "0x5672f3b4ce39126d6ff8080ac2377f6a2413c6bb",
          "topics": [
            "0x2229e9930d25a4974976f5fb5461a33fcd0fefa19393ad50af745b5fa4ccce8b",
            "0x000000000000000000000000c4f75736c494b05ee55a66537b60fc3eb2f10e33"
          ],
          "data": "0x000000000000000000000000000000000000000000000000000000000000002000000000000000000000000000000000000000000000000000000000000000045045504500000000000000000000000000000000000000000000000000000000",
          "blockHash": "0x9e9a6f072208199e96b556ed008131664f9c84970b57ff922aacb3b65c9cce23",
          "blockNumber": "0x12399312",
          "transactionHash": "0x2b890984f5283e3f81df31a76f7a19b72fd5e59bb7292b67c9bf2737980a1296",
          "transactionIndex": "0x3",
          "logIndex": "0x7",
          "removed": false
        },
        {
          "address": "0x5657a10c1aae46ae383342d7516290b4fecd9295",
          "topics": [
            "0x5902eed5cd330f690551c9c5095eacb178efeaf6896420b9473fa373b2313f1a",
            "0x000000000000000000000000c4f75736c494b05ee55a66537b60fc3eb2f10e33",
            "0x0000000000000000000000000000000000000000000000000000000000000002"
          ],
          "data": "0x000000000000000000000000000000000000000000000000000000000000002000000000000000000000000000000000000000000000000000000000000000095261726520506570650000000000000000000000000000000000000000000000",
          "blockHash": "0x9e9a6f072208199e96b556ed008131664f9c84970b57ff922aacb3b65c9cce23",
          "blockNumber": "0x12399312",
          "transactionHash": "0x2b890984f5283e3f81df31a76f7a19b72fd5e59bb7292b67c9bf2737980a1296",
          "transactionIndex": "0x3",
          "logIndex": "0x8",
          "removed": false
        }
      ],
      "logsBloom": "0x04000000000100000000000000000000000000000000008000800010000000000000000000000000000000000000000000000000000000000000004000000000000000000000000000000400000000000101200000000000000002040000000000000000020000000000000000000800000000000000000000000000000000408000000000000000000800004000200000000008000080000000100004008004000000000100000140000140000000000800000000240000003000000000000000000000004000000040000000000000000000000004000000000000000020000000000000000000004000000080000000000000008000800000000000400200",
      "type": "0x2",
      "transactionHash": "0x2b890984f5283e3f81df31a76f7a19b72fd5e59bb7292b67c9bf2737980a1296",
      "transactionIndex": "0x3",
      "blockHash": "0x9e9a6f072208199e96b556ed008131664f9c84970b57ff922aacb3b65c9cce23",
      "blockNumber": "0x12399312",
      "gasUsed": "0x4e8ba",
      "effectiveGasPrice": "0x989680",
      "from": "0xa99526e4dc81b85c1d248ca974eadce81837ecf1",
      "to": "0x5657a10c1aae46ae383342d7516290b4fecd9295",
      "contractAddress": null,
      "gasUsedForL1": "0x17e3",
      "l1BlockNumber": "0x14d41bd"
    },
    {
      "status": "0x1",
      "cumulativeGasUsed": "0x119aa0",
      "logs": [
        {
          "address": "0x6372b17ce84ecf3ba8f70a420a2ecddf6e52e8aa",
          "topics": [
            "0x367184f1bb13aa656fb065e5e2b1104b30f71206d03961639cac77f3a6b33176",
            "0x0000000000000000000000007726fadb63a4148a54ab9b47979a4c49f028acc7"
          ],
          "data": "0x",
          "blockHash": "0xeb0fffcbd4ea2c9323f23ffe5df86c337ac9eccb3af85224c3dd2701501c6e07",
          "blockNumber": "0x12399316",
          "transactionHash": "0xa361d3f8d78f356cabd9cf7c39c80b1c421931a6a0f92a9b144151567f351b24",
          "transactionIndex": "0x5",
          "logIndex": "0x8",
          "removed": false
        },
        {
          "address": "0x6372b17ce84ecf3ba8f70a420a2ecddf6e52e8aa",
          "topics": [
            "0x8be0079c531659141344cd1fd0a4f28419497f9722a3daafe3b4186f6b6457e0",
            "0x0000000000000000000000000000000000000000000000000000000000000000",
            "0x0000000000000000000000005672f3b4ce39126d6ff8080ac2377f6a2413c6bb"
          ],
          "data": "0x",
          "blockHash": "0xeb0fffcbd4ea2c9323f23ffe5df86c337ac9eccb3af85224c3dd2701501c6e07",
          "blockNumber": "0x12399316",
          "transactionHash": "0xa361d3f8d78f356cabd9cf7c39c80b1c421931a6a0f92a9b144151567f351b24",
          "transactionIndex": "0x5",
          "logIndex": "0x9",
          "removed": false
        },
        {
          "address": "0x6372b17ce84ecf3ba8f70a420a2ecddf6e52e8aa",
          "topics": [
            "0xc7f505b2f371ae2175ee4913f4499e1f2633a7b5936321eed1cdaeb6115181d2"
          ],
          "data": "0x0000000000000000000000000000000000000000000000000000000000000001",
          "blockHash": "0xeb0fffcbd4ea2c9323f23ffe5df86c337ac9eccb3af85224c3dd2701501c6e07",
          "blockNumber": "0x12399316",
          "transactionHash": "0xa361d3f8d78f356cabd9cf7c39c80b1c421931a6a0f92a9b144151567f351b24",
          "transactionIndex": "0x5",
          "logIndex": "0xa",
          "removed": false
        },
        {
          "address": "0x6372b17ce84ecf3ba8f70a420a2ecddf6e52e8aa",
          "topics": [
            "0x8be0079c531659141344cd1fd0a4f28419497f9722a3daafe3b4186f6b6457e0",
            "0x0000000000000000000000005672f3b4ce39126d6ff8080ac2377f6a2413c6bb",
            "0x000000000000000000000000a99526e4dc81b85c1d248ca974eadce81837ecf1"
          ],
          "data": "0x",
          "blockHash": "0xeb0fffcbd4ea2c9323f23ffe5df86c337ac9eccb3af85224c3dd2701501c6e07",
          "blockNumber": "0x12399316",
          "transactionHash": "0xa361d3f8d78f356cabd9cf7c39c80b1c421931a6a0f92a9b144151567f351b24",
          "transactionIndex": "0x5",
          "logIndex": "0xb",
          "removed": false
        },
        {
          "address": "0x5672f3b4ce39126d6ff8080ac2377f6a2413c6bb",
          "topics": [
            "0x171ccc46ca30ce15b8e391d7e1db8cf7644ed26a313b10df70a92b13da343541",
            "0x0000000000000000000000006372b17ce84ecf3ba8f70a420a2ecddf6e52e8aa",
            "0x000000000000000000000000a99526e4dc81b85c1d248ca974eadce81837ecf1"
          ],
          "data": "0x",
          "blockHash": "0xeb0fffcbd4ea2c9323f23ffe5df86c337ac9eccb3af85224c3dd2701501c6e07",
          "blockNumber": "0x12399316",
          "transactionHash": "0xa361d3f8d78f356cabd9cf7c39c80b1c421931a6a0f92a9b144151567f351b24",
          "transactionIndex": "0x5",
          "logIndex": "0xc",
          "removed": false
        },
        {
          "address": "0x5672f3b4ce39126d6ff8080ac2377f6a2413c6bb",
          "topics": [
            "0x2229e9930d25a4974976f5fb5461a33fcd0fefa19393ad50af745b5fa4ccce8b",
            "0x0000000000000000000000006372b17ce84ecf3ba8f70a420a2ecddf6e52e8aa"
          ],
          "data": "0x00000000000000000000000000000000000000000000000000000000000000200000000000000000000000000000000000000000000000000000000000000003534f470000000000000000000000000000000000000000000000000000000000",
          "blockHash": "0xeb0fffcbd4ea2c9323f23ffe5df86c337ac9eccb3af85224c3dd2701501c6e07",
          "blockNumber": "0x12399316",
          "transactionHash": "0xa361d3f8d78f356cabd9cf7c39c80b1c421931a6a0f92a9b144151567f351b24",
          "transactionIndex": "0x5",
          "logIndex": "0xd",
          "removed": false
        },
        {
          "address": "0x5657a10c1aae46ae383342d7516290b4fecd9295",
          "topics": [
            "0x5902eed5cd330f690551c9c5095eacb178efeaf6896420b9473fa373b2313f1a",
            "0x0000000000000000000000006372b17ce84ecf3ba8f70a420a2ecddf6e52e8aa",
            "0x0000000000000000000000000000000000000000000000000000000000000002"
          ],
          "data": "0x000000000000000000000000000000000000000000000000000000000000002000000000000000000000000000000000000000000000000000000000000000115370656c6c73206f662047656e65736973000000000000000000000000000000",
          "blockHash": "0xeb0fffcbd4ea2c9323f23ffe5df86c337ac9eccb3af85224c3dd2701501c6e07",
          "blockNumber": "0x12399316",
          "transactionHash": "0xa361d3f8d78f356cabd9cf7c39c80b1c421931a6a0f92a9b144151567f351b24",
          "transactionIndex": "0x5",
          "logIndex": "0xe",
          "removed": false
        }
      ],
      "logsBloom": "0x040000000001000000000000000000000000000c0000000000800010000000000000000000000000000000000000000000000000000000000080004000000000000000000000000000000440000000000101200000000000020002000000000000000000020000000000000080000800000000000000000000000000000000408000000000000000000800004000200000000008000080000000100004000004000000000100000140000140000000000800000000200000003000000000000000000000004000000000000000000000000000000004000000000000000020000000000000000000004000000080000000000000008000800000000000400000",
      "type": "0x2",
      "transactionHash": "0xa361d3f8d78f356cabd9cf7c39c80b1c421931a6a0f92a9b144151567f351b24",
      "transactionIndex": "0x5",
      "blockHash": "0xeb0fffcbd4ea2c9323f23ffe5df86c337ac9eccb3af85224c3dd2701501c6e07",
      "blockNumber": "0x12399316",
      "gasUsed": "0x4e87f",
      "effectiveGasPrice": "0x989680",
      "from": "0xa99526e4dc81b85c1d248ca974eadce81837ecf1",
      "to": "0x5657a10c1aae46ae383342d7516290b4fecd9295",
      "contractAddress": null,
      "gasUsedForL1": "0x1754",
      "l1BlockNumber": "0x14d41bd"
    },
    {
      "status": "0x1",
      "cumulativeGasUsed": "0x4e896",
      "logs": [
        {
          "address": "0x907caee2d12ed9f5f093bf8aca907a9ca9d54ec5",
          "topics": [
            "0x367184f1bb13aa656fb065e5e2b1104b30f71206d03961639cac77f3a6b33176",
            "0x0000000000000000000000007726fadb63a4148a54ab9b47979a4c49f028acc7"
          ],
          "data": "0x",
          "blockHash": "0x112f8ddd4a4b1532132ae49939c1a16ca2067e2dacb74d9b268568319bfae6a7",
          "blockNumber": "0x1239931b",
          "transactionHash": "0xb23e4efdd58fd471bb2df268a911def3db7ec5db053efd963b43574553e5eb32",
          "transactionIndex": "0x1",
          "logIndex": "0x0",
          "removed": false
        },
        {
          "address": "0x907caee2d12ed9f5f093bf8aca907a9ca9d54ec5",
          "topics": [
            "0x8be0079c531659141344cd1fd0a4f28419497f9722a3daafe3b4186f6b6457e0",
            "0x0000000000000000000000000000000000000000000000000000000000000000",
            "0x0000000000000000000000005672f3b4ce39126d6ff8080ac2377f6a2413c6bb"
          ],
          "data": "0x",
          "blockHash": "0x112f8ddd4a4b1532132ae49939c1a16ca2067e2dacb74d9b268568319bfae6a7",
          "blockNumber": "0x1239931b",
          "transactionHash": "0xb23e4efdd58fd471bb2df268a911def3db7ec5db053efd963b43574553e5eb32",
          "transactionIndex": "0x1",
          "logIndex": "0x1",
          "removed": false
        },
        {
          "address": "0x907caee2d12ed9f5f093bf8aca907a9ca9d54ec5",
          "topics": [
            "0xc7f505b2f371ae2175ee4913f4499e1f2633a7b5936321eed1cdaeb6115181d2"
          ],
          "data": "0x0000000000000000000000000000000000000000000000000000000000000001",
          "blockHash": "0x112f8ddd4a4b1532132ae49939c1a16ca2067e2dacb74d9b268568319bfae6a7",
          "blockNumber": "0x1239931b",
          "transactionHash": "0xb23e4efdd58fd471bb2df268a911def3db7ec5db053efd963b43574553e5eb32",
          "transactionIndex": "0x1",
          "logIndex": "0x2",
          "removed": false
        },
        {
          "address": "0x907caee2d12ed9f5f093bf8aca907a9ca9d54ec5",
          "topics": [
            "0x8be0079c531659141344cd1fd0a4f28419497f9722a3daafe3b4186f6b6457e0",
            "0x0000000000000000000000005672f3b4ce39126d6ff8080ac2377f6a2413c6bb",
            "0x000000000000000000000000a99526e4dc81b85c1d248ca974eadce81837ecf1"
          ],
          "data": "0x",
          "blockHash": "0x112f8ddd4a4b1532132ae49939c1a16ca2067e2dacb74d9b268568319bfae6a7",
          "blockNumber": "0x1239931b",
          "transactionHash": "0xb23e4efdd58fd471bb2df268a911def3db7ec5db053efd963b43574553e5eb32",
          "transactionIndex": "0x1",
          "logIndex": "0x3",
          "removed": false
        },
        {
          "address": "0x5672f3b4ce39126d6ff8080ac2377f6a2413c6bb",
          "topics": [
            "0x171ccc46ca30ce15b8e391d7e1db8cf7644ed26a313b10df70a92b13da343541",
            "0x000000000000000000000000907caee2d12ed9f5f093bf8aca907a9ca9d54ec5",
            "0x000000000000000000000000a99526e4dc81b85c1d248ca974eadce81837ecf1"
          ],
          "data": "0x",
          "blockHash": "0x112f8ddd4a4b1532132ae49939c1a16ca2067e2dacb74d9b268568319bfae6a7",
          "blockNumber": "0x1239931b",
          "transactionHash": "0xb23e4efdd58fd471bb2df268a911def3db7ec5db053efd963b43574553e5eb32",
          "transactionIndex": "0x1",
          "logIndex": "0x4",
          "removed": false
        },
        {
          "address": "0x5672f3b4ce39126d6ff8080ac2377f6a2413c6bb",
          "topics": [
            "0x2229e9930d25a4974976f5fb5461a33fcd0fefa19393ad50af745b5fa4ccce8b",
            "0x000000000000000000000000907caee2d12ed9f5f093bf8aca907a9ca9d54ec5"
          ],
          "data": "0x0000000000000000000000000000000000000000000000000000000000000020000000000000000000000000000000000000000000000000000000000000000446414b4500000000000000000000000000000000000000000000000000000000",
          "blockHash": "0x112f8ddd4a4b1532132ae49939c1a16ca2067e2dacb74d9b268568319bfae6a7",
          "blockNumber": "0x1239931b",
          "transactionHash": "0xb23e4efdd58fd471bb2df268a911def3db7ec5db053efd963b43574553e5eb32",
          "transactionIndex": "0x1",
          "logIndex": "0x5",
          "removed": false
        },
        {
          "address": "0x5657a10c1aae46ae383342d7516290b4fecd9295",
          "topics": [
            "0x5902eed5cd330f690551c9c5095eacb178efeaf6896420b9473fa373b2313f1a",
            "0x000000000000000000000000907caee2d12ed9f5f093bf8aca907a9ca9d54ec5",
            "0x0000000000000000000000000000000000000000000000000000000000000002"
          ],
          "data": "0x0000000000000000000000000000000000000000000000000000000000000020000000000000000000000000000000000000000000000000000000000000000a46616b6520526172657300000000000000000000000000000000000000000000",
          "blockHash": "0x112f8ddd4a4b1532132ae49939c1a16ca2067e2dacb74d9b268568319bfae6a7",
          "blockNumber": "0x1239931b",
          "transactionHash": "0xb23e4efdd58fd471bb2df268a911def3db7ec5db053efd963b43574553e5eb32",
          "transactionIndex": "0x1",
          "logIndex": "0x6",
          "removed": false
        }
      ],
      "logsBloom": "0x04000000000100000000000000000000000000200000000100800010000000000000000000000000000000000000000000000000000000000000004000000000000000000000000000000400000000000101200000000000000002000000000000000000020000000000000000000800000000000000000000000000000000408000800000000000000800004000200000000008000080000000100004000004000000000100000140000140000000000800000000200000003000000000000000000000004000000000002000000000000040000004000000000000000020000000000000000000004000000080000000000000008000c00000000000400000",
      "type": "0x2",
      "transactionHash": "0xb23e4efdd58fd471bb2df268a911def3db7ec5db053efd963b43574553e5eb32",
      "transactionIndex": "0x1",
      "blockHash": "0x112f8ddd4a4b1532132ae49939c1a16ca2067e2dacb74d9b268568319bfae6a7",
      "blockNumber": "0x1239931b",
      "gasUsed": "0x4e896",
      "effectiveGasPrice": "0x989680",
      "from": "0xa99526e4dc81b85c1d248ca974eadce81837ecf1",
      "to": "0x5657a10c1aae46ae383342d7516290b4fecd9295",
      "contractAddress": null,
      "gasUsedForL1": "0x17b3",
      "l1BlockNumber": "0x14d41bd"
    },
    {
      "status": "0x1",
      "cumulativeGasUsed": "0xa5db5",
      "logs": [
        {
          "address": "0x01d3e79fc2518d15eb02fcd7dd61fd003e133ea3",
          "topics": [
            "0x367184f1bb13aa656fb065e5e2b1104b30f71206d03961639cac77f3a6b33176",
            "0x000000000000000000000000360a89688b2672a70e298cab74ea48883340fff6"
          ],
          "data": "0x",
          "blockHash": "0x782f9a3ccd886164418cb057a4b72c5bd697c64dbfbb245b528a116c8a922f17",
          "blockNumber": "0x1239931f",
          "transactionHash": "0xd817bb6e54716a37ca47d2563cf1266c85bd02553dcf26360deb86cfe8a4d6e7",
          "transactionIndex": "0x4",
          "logIndex": "0x2",
          "removed": false
        },
        {
          "address": "0x01d3e79fc2518d15eb02fcd7dd61fd003e133ea3",
          "topics": [
            "0x8be0079c531659141344cd1fd0a4f28419497f9722a3daafe3b4186f6b6457e0",
            "0x0000000000000000000000000000000000000000000000000000000000000000",
            "0x0000000000000000000000005672f3b4ce39126d6ff8080ac2377f6a2413c6bb"
          ],
          "data": "0x",
          "blockHash": "0x782f9a3ccd886164418cb057a4b72c5bd697c64dbfbb245b528a116c8a922f17",
          "blockNumber": "0x1239931f",
          "transactionHash": "0xd817bb6e54716a37ca47d2563cf1266c85bd02553dcf26360deb86cfe8a4d6e7",
          "transactionIndex": "0x4",
          "logIndex": "0x3",
          "removed": false
        },
        {
          "address": "0x01d3e79fc2518d15eb02fcd7dd61fd003e133ea3",
          "topics": [
            "0xc7f505b2f371ae2175ee4913f4499e1f2633a7b5936321eed1cdaeb6115181d2"
          ],
          "data": "0x0000000000000000000000000000000000000000000000000000000000000001",
          "blockHash": "0x782f9a3ccd886164418cb057a4b72c5bd697c64dbfbb245b528a116c8a922f17",
          "blockNumber": "0x1239931f",
          "transactionHash": "0xd817bb6e54716a37ca47d2563cf1266c85bd02553dcf26360deb86cfe8a4d6e7",
          "transactionIndex": "0x4",
          "logIndex": "0x4",
          "removed": false
        },
        {
          "address": "0x01d3e79fc2518d15eb02fcd7dd61fd003e133ea3",
          "topics": [
            "0x8be0079c531659141344cd1fd0a4f28419497f9722a3daafe3b4186f6b6457e0",
            "0x0000000000000000000000005672f3b4ce39126d6ff8080ac2377f6a2413c6bb",
            "0x000000000000000000000000a99526e4dc81b85c1d248ca974eadce81837ecf1"
          ],
          "data": "0x",
          "blockHash": "0x782f9a3ccd886164418cb057a4b72c5bd697c64dbfbb245b528a116c8a922f17",
          "blockNumber": "0x1239931f",
          "transactionHash": "0xd817bb6e54716a37ca47d2563cf1266c85bd02553dcf26360deb86cfe8a4d6e7",
          "transactionIndex": "0x4",
          "logIndex": "0x5",
          "removed": false
        },
        {
          "address": "0x5672f3b4ce39126d6ff8080ac2377f6a2413c6bb",
          "topics": [
            "0x171ccc46ca30ce15b8e391d7e1db8cf7644ed26a313b10df70a92b13da343541",
            "0x00000000000000000000000001d3e79fc2518d15eb02fcd7dd61fd003e133ea3",
            "0x000000000000000000000000a99526e4dc81b85c1d248ca974eadce81837ecf1"
          ],
          "data": "0x",
          "blockHash": "0x782f9a3ccd886164418cb057a4b72c5bd697c64dbfbb245b528a116c8a922f17",
          "blockNumber": "0x1239931f",
          "transactionHash": "0xd817bb6e54716a37ca47d2563cf1266c85bd02553dcf26360deb86cfe8a4d6e7",
          "transactionIndex": "0x4",
          "logIndex": "0x6",
          "removed": false
        },
        {
          "address": "0x5672f3b4ce39126d6ff8080ac2377f6a2413c6bb",
          "topics": [
            "0xc235116ab1fd2ce09ba4690b74e2e7782ddf6f4a49eda5a12e0c320f7c65ccd6",
            "0x00000000000000000000000001d3e79fc2518d15eb02fcd7dd61fd003e133ea3"
          ],
          "data": "0x000000000000000000000000000000000000000000000000000000000000004000000000000000000000000000000000000000000000000000000000000000800000000000000000000000000000000000000000000000000000000000000007456d42656c6c7300000000000000000000000000000000000000000000000000000000000000000000000000000000000000000000000000000000000000000442454c4c00000000000000000000000000000000000000000000000000000000",
          "blockHash": "0x782f9a3ccd886164418cb057a4b72c5bd697c64dbfbb245b528a116c8a922f17",
          "blockNumber": "0x1239931f",
          "transactionHash": "0xd817bb6e54716a37ca47d2563cf1266c85bd02553dcf26360deb86cfe8a4d6e7",
          "transactionIndex": "0x4",
          "logIndex": "0x7",
          "removed": false
        },
        {
          "address": "0x5657a10c1aae46ae383342d7516290b4fecd9295",
          "topics": [
            "0x5902eed5cd330f690551c9c5095eacb178efeaf6896420b9473fa373b2313f1a",
            "0x00000000000000000000000001d3e79fc2518d15eb02fcd7dd61fd003e133ea3",
            "0x0000000000000000000000000000000000000000000000000000000000000001"
          ],
          "data": "0x00000000000000000000000000000000000000000000000000000000000000200000000000000000000000000000000000000000000000000000000000000007456d42656c6c7300000000000000000000000000000000000000000000000000",
          "blockHash": "0x782f9a3ccd886164418cb057a4b72c5bd697c64dbfbb245b528a116c8a922f17",
          "blockNumber": "0x1239931f",
          "transactionHash": "0xd817bb6e54716a37ca47d2563cf1266c85bd02553dcf26360deb86cfe8a4d6e7",
          "transactionIndex": "0x4",
          "logIndex": "0x8",
          "removed": false
        }
      ],
      "logsBloom": "0x00000000000000008000000000100000000000000000000000800010000000000010000000000000000000000000000000000000000000000000004000040000000000000000000000000400000000000101000000040000000002000000040000000000020000000000000000000800010000000000000000000000000000488400000000000000000800004008200000000008000080000000100004000000010000000000000140000040020000000000000000200000001000000000000000000000004000000000000000000000000000000004000000000010000060000000000000000000004000000080000000000000000000800000000040400000",
      "type": "0x2",
      "transactionHash": "0xd817bb6e54716a37ca47d2563cf1266c85bd02553dcf26360deb86cfe8a4d6e7",
      "transactionIndex": "0x4",
      "blockHash": "0x782f9a3ccd886164418cb057a4b72c5bd697c64dbfbb245b528a116c8a922f17",
      "blockNumber": "0x1239931f",
      "gasUsed": "0x64fc2",
      "effectiveGasPrice": "0x989680",
      "from": "0xa99526e4dc81b85c1d248ca974eadce81837ecf1",
      "to": "0x5657a10c1aae46ae383342d7516290b4fecd9295",
      "contractAddress": null,
      "gasUsedForL1": "0x16ad",
      "l1BlockNumber": "0x14d41bd"
    },
    {
      "status": "0x1",
      "cumulativeGasUsed": "0x800a3",
      "logs": [
        {
          "address": "0x53f74639688dc71d0071367cef0daa10deff77e3",
          "topics": [
            "0x367184f1bb13aa656fb065e5e2b1104b30f71206d03961639cac77f3a6b33176",
            "0x000000000000000000000000360a89688b2672a70e298cab74ea48883340fff6"
          ],
          "data": "0x",
          "blockHash": "0x5ea947c8d86b172fc701318dbbeb779bf58822de9ad672b8555578b9a4ea6544",
          "blockNumber": "0x12399323",
          "transactionHash": "0xb724c5ff5c9e59db32bf183d11094c91e589cb6c367edd5d48bf040bad23b8ee",
          "transactionIndex": "0x2",
          "logIndex": "0x4",
          "removed": false
        },
        {
          "address": "0x53f74639688dc71d0071367cef0daa10deff77e3",
          "topics": [
            "0x8be0079c531659141344cd1fd0a4f28419497f9722a3daafe3b4186f6b6457e0",
            "0x0000000000000000000000000000000000000000000000000000000000000000",
            "0x0000000000000000000000005672f3b4ce39126d6ff8080ac2377f6a2413c6bb"
          ],
          "data": "0x",
          "blockHash": "0x5ea947c8d86b172fc701318dbbeb779bf58822de9ad672b8555578b9a4ea6544",
          "blockNumber": "0x12399323",
          "transactionHash": "0xb724c5ff5c9e59db32bf183d11094c91e589cb6c367edd5d48bf040bad23b8ee",
          "transactionIndex": "0x2",
          "logIndex": "0x5",
          "removed": false
        },
        {
          "address": "0x53f74639688dc71d0071367cef0daa10deff77e3",
          "topics": [
            "0xc7f505b2f371ae2175ee4913f4499e1f2633a7b5936321eed1cdaeb6115181d2"
          ],
          "data": "0x0000000000000000000000000000000000000000000000000000000000000001",
          "blockHash": "0x5ea947c8d86b172fc701318dbbeb779bf58822de9ad672b8555578b9a4ea6544",
          "blockNumber": "0x12399323",
          "transactionHash": "0xb724c5ff5c9e59db32bf183d11094c91e589cb6c367edd5d48bf040bad23b8ee",
          "transactionIndex": "0x2",
          "logIndex": "0x6",
          "removed": false
        },
        {
          "address": "0x53f74639688dc71d0071367cef0daa10deff77e3",
          "topics": [
            "0x8be0079c531659141344cd1fd0a4f28419497f9722a3daafe3b4186f6b6457e0",
            "0x0000000000000000000000005672f3b4ce39126d6ff8080ac2377f6a2413c6bb",
            "0x000000000000000000000000a99526e4dc81b85c1d248ca974eadce81837ecf1"
          ],
          "data": "0x",
          "blockHash": "0x5ea947c8d86b172fc701318dbbeb779bf58822de9ad672b8555578b9a4ea6544",
          "blockNumber": "0x12399323",
          "transactionHash": "0xb724c5ff5c9e59db32bf183d11094c91e589cb6c367edd5d48bf040bad23b8ee",
          "transactionIndex": "0x2",
          "logIndex": "0x7",
          "removed": false
        },
        {
          "address": "0x5672f3b4ce39126d6ff8080ac2377f6a2413c6bb",
          "topics": [
            "0x171ccc46ca30ce15b8e391d7e1db8cf7644ed26a313b10df70a92b13da343541",
            "0x00000000000000000000000053f74639688dc71d0071367cef0daa10deff77e3",
            "0x000000000000000000000000a99526e4dc81b85c1d248ca974eadce81837ecf1"
          ],
          "data": "0x",
          "blockHash": "0x5ea947c8d86b172fc701318dbbeb779bf58822de9ad672b8555578b9a4ea6544",
          "blockNumber": "0x12399323",
          "transactionHash": "0xb724c5ff5c9e59db32bf183d11094c91e589cb6c367edd5d48bf040bad23b8ee",
          "transactionIndex": "0x2",
          "logIndex": "0x8",
          "removed": false
        },
        {
          "address": "0x5672f3b4ce39126d6ff8080ac2377f6a2413c6bb",
          "topics": [
            "0xc235116ab1fd2ce09ba4690b74e2e7782ddf6f4a49eda5a12e0c320f7c65ccd6",
            "0x00000000000000000000000053f74639688dc71d0071367cef0daa10deff77e3"
          ],
          "data": "0x00000000000000000000000000000000000000000000000000000000000000400000000000000000000000000000000000000000000000000000000000000080000000000000000000000000000000000000000000000000000000000000000b456d626c656d204f70656e00000000000000000000000000000000000000000000000000000000000000000000000000000000000000000000000000000000044f50454e00000000000000000000000000000000000000000000000000000000",
          "blockHash": "0x5ea947c8d86b172fc701318dbbeb779bf58822de9ad672b8555578b9a4ea6544",
          "blockNumber": "0x12399323",
          "transactionHash": "0xb724c5ff5c9e59db32bf183d11094c91e589cb6c367edd5d48bf040bad23b8ee",
          "transactionIndex": "0x2",
          "logIndex": "0x9",
          "removed": false
        },
        {
          "address": "0x5657a10c1aae46ae383342d7516290b4fecd9295",
          "topics": [
            "0x5902eed5cd330f690551c9c5095eacb178efeaf6896420b9473fa373b2313f1a",
            "0x00000000000000000000000053f74639688dc71d0071367cef0daa10deff77e3",
            "0x0000000000000000000000000000000000000000000000000000000000000001"
          ],
          "data": "0x0000000000000000000000000000000000000000000000000000000000000020000000000000000000000000000000000000000000000000000000000000000b456d626c656d204f70656e000000000000000000000000000000000000000000",
          "blockHash": "0x5ea947c8d86b172fc701318dbbeb779bf58822de9ad672b8555578b9a4ea6544",
          "blockNumber": "0x12399323",
          "transactionHash": "0xb724c5ff5c9e59db32bf183d11094c91e589cb6c367edd5d48bf040bad23b8ee",
          "transactionIndex": "0x2",
          "logIndex": "0xa",
          "removed": false
        }
      ],
      "logsBloom": "0x00001000800000000000000000100000000000000000000000800010000000000010000000000000000000000000000000000000000000000000004000040000000000000000000000000400000000000101000000040000000002000000000000000000020000000000000000000800010000000000000000000000000000408000000000000000000800004000200000000008000080000000100004000000018000000000000140000040020000000000000000200000001000000000000000000000004000000000000000000000000000000004000000000090000060000000000000000002004000000080000000000000000000804000000000400000",
      "type": "0x2",
      "transactionHash": "0xb724c5ff5c9e59db32bf183d11094c91e589cb6c367edd5d48bf040bad23b8ee",
      "transactionIndex": "0x2",
      "blockHash": "0x5ea947c8d86b172fc701318dbbeb779bf58822de9ad672b8555578b9a4ea6544",
      "blockNumber": "0x12399323",
      "gasUsed": "0x64fda",
      "effectiveGasPrice": "0x989680",
      "from": "0xa99526e4dc81b85c1d248ca974eadce81837ecf1",
      "to": "0x5657a10c1aae46ae383342d7516290b4fecd9295",
      "contractAddress": null,
      "gasUsedForL1": "0x1695",
      "l1BlockNumber": "0x14d41bd"
    },
    {
      "status": "0x1",
      "cumulativeGasUsed": "0x23cca",
      "logs": [
        {
          "address": "0x5657a10c1aae46ae383342d7516290b4fecd9295",
          "topics": [
            "0x386488dff7e0422825a9a6550182ab7f1d7ef789131917bfd8dd6ffe29afe08d",
            "0x000000000000000000000000c4f75736c494b05ee55a66537b60fc3eb2f10e33"
          ],
          "data": "0x0000000000000000000000000000000000000000000000000000000000000020000000000000000000000000000000000000000000000000000000000000004d68747470733a2f2f76322e656d626c656d7661756c742e696f2f76332f6d6574612f3078433466373537333663343934623035656535356136363533376236306643336542324631304533332f00000000000000000000000000000000000000",
          "blockHash": "0x6c19867eaf233ae2a1a251376315ebea912d1ea807c4832861aa0c2e08ba3150",
          "blockNumber": "0x12399328",
          "transactionHash": "0x7735f32b06bf064d2fd47e1d2728b5b2af8c1a94dc30b3cff0a69cafa420f394",
          "transactionIndex": "0x1",
          "logIndex": "0x0",
          "removed": false
        }
      ],
      "logsBloom": "0x00000000000000000000000000000000000000000000000000000010000000000000000080000000000000000000000000000000000000000000000000000000000000000000000000000000000000000000000000000000000002040000000000000100000000000000000000000000000000000000000000000000000000000000000000000000000000000000200000000000000000000000000000000000000000000000000000000000000000000000000000040000000000000000000000000000000000000000000000000000000000000000000000000000000000200000000000000000000000000000000000000000000000000000000000000200",
      "type": "0x2",
      "transactionHash": "0x7735f32b06bf064d2fd47e1d2728b5b2af8c1a94dc30b3cff0a69cafa420f394",
      "transactionIndex": "0x1",
      "blockHash": "0x6c19867eaf233ae2a1a251376315ebea912d1ea807c4832861aa0c2e08ba3150",
      "blockNumber": "0x12399328",
      "gasUsed": "0x23cca",
      "effectiveGasPrice": "0x989680",
      "from": "0xa99526e4dc81b85c1d248ca974eadce81837ecf1",
      "to": "0x5657a10c1aae46ae383342d7516290b4fecd9295",
      "contractAddress": null,
      "gasUsedForL1": "0x1ced",
      "l1BlockNumber": "0x14d41bd"
    },
    {
      "status": "0x1",
      "cumulativeGasUsed": "0x18338e",
      "logs": [
        {
          "address": "0x5657a10c1aae46ae383342d7516290b4fecd9295",
          "topics": [
            "0x386488dff7e0422825a9a6550182ab7f1d7ef789131917bfd8dd6ffe29afe08d",
            "0x0000000000000000000000006372b17ce84ecf3ba8f70a420a2ecddf6e52e8aa"
          ],
          "data": "0x0000000000000000000000000000000000000000000000000000000000000020000000000000000000000000000000000000000000000000000000000000004d68747470733a2f2f76322e656d626c656d7661756c742e696f2f76332f6d6574612f3078363337324231376345383445636633426138663730613432304132656364646636653532453861412f00000000000000000000000000000000000000",
          "blockHash": "0x6f11ade1ebfcfc91746addc2e843dc9bba916e5942f2a8c6e3c77a87c0831822",
          "blockNumber": "0x1239932c",
          "transactionHash": "0xd03d40aad4471fa1f00ee198314016a86374444d2898968f8f5a8405f29678ee",
          "transactionIndex": "0x3",
          "logIndex": "0x2c",
          "removed": false
        }
      ],
      "logsBloom": "0x00000000000000000000000000000000000000080000000000000010000000000000000080000000000000000000000000000000000000000080000000000000000000000000000000000000000000000000000000000000020002000000000000000100000000000000000000000000000000000000000000000000000000000000000000000000000000000000200000000000000000000000000000000000000000000000000000000000000000000000000000000000000000000000000000000000000000000000000000000000000000000000000000000000000000200000000000000000000000000000000000000000000000000000000000000000",
      "type": "0x2",
      "transactionHash": "0xd03d40aad4471fa1f00ee198314016a86374444d2898968f8f5a8405f29678ee",
      "transactionIndex": "0x3",
      "blockHash": "0x6f11ade1ebfcfc91746addc2e843dc9bba916e5942f2a8c6e3c77a87c0831822",
      "blockNumber": "0x1239932c",
      "gasUsed": "0x23cca",
      "effectiveGasPrice": "0x989680",
      "from": "0xa99526e4dc81b85c1d248ca974eadce81837ecf1",
      "to": "0x5657a10c1aae46ae383342d7516290b4fecd9295",
      "contractAddress": null,
      "gasUsedForL1": "0x1ced",
      "l1BlockNumber": "0x14d41bd"
    },
    {
      "status": "0x1",
      "cumulativeGasUsed": "0x5e002",
      "logs": [
        {
          "address": "0x5657a10c1aae46ae383342d7516290b4fecd9295",
          "topics": [
            "0x386488dff7e0422825a9a6550182ab7f1d7ef789131917bfd8dd6ffe29afe08d",
            "0x000000000000000000000000907caee2d12ed9f5f093bf8aca907a9ca9d54ec5"
          ],
          "data": "0x0000000000000000000000000000000000000000000000000000000000000020000000000000000000000000000000000000000000000000000000000000004d68747470733a2f2f76322e656d626c656d7661756c742e696f2f76332f6d6574612f3078393037434145453244313245443966356630393342463861436139303761394361396435346563352f00000000000000000000000000000000000000",
          "blockHash": "0xdcfb52bebca9fadc7c36055a4332b7afc01d7c000d9602a7372af3318c6d24e0",
          "blockNumber": "0x12399330",
          "transactionHash": "0x16fb4d52dd46f0ebec996876ea6776263d5a5354048b1e4557b9f4e2ce7480bb",
          "transactionIndex": "0x2",
          "logIndex": "0x4",
          "removed": false
        }
      ],
      "logsBloom": "0x00000000000000000000000000000000000000000000000000000010000000000000000080000000000000000000000000000000000000000000000000000000000000000000000000000000000000000000000000000000000002000000000000000100000000000000000000000000000000000000000000000000000000000000800000000000000000000000200000000000000000000000000000000000000000000000000000000000000000000000000000000000000000000000000000000000000000000000000000000000000040000000000000000000000000200000000000000000000000000000000000000000000000400000000000000000",
      "type": "0x2",
      "transactionHash": "0x16fb4d52dd46f0ebec996876ea6776263d5a5354048b1e4557b9f4e2ce7480bb",
      "transactionIndex": "0x2",
      "blockHash": "0xdcfb52bebca9fadc7c36055a4332b7afc01d7c000d9602a7372af3318c6d24e0",
      "blockNumber": "0x12399330",
      "gasUsed": "0x23cca",
      "effectiveGasPrice": "0x989680",
      "from": "0xa99526e4dc81b85c1d248ca974eadce81837ecf1",
      "to": "0x5657a10c1aae46ae383342d7516290b4fecd9295",
      "contractAddress": null,
      "gasUsedForL1": "0x1ced",
      "l1BlockNumber": "0x14d41bd"
    },
    {
      "status": "0x1",
      "cumulativeGasUsed": "0x23df0",
      "logs": [
        {
          "address": "0x01d3e79fc2518d15eb02fcd7dd61fd003e133ea3",
          "topics": [
            "0x6741b2fc379fad678116fe3d4d4b9a1a184ab53ba36b86ad0fa66340b1ab41ad"
          ],
          "data": "0x0000000000000000000000000000000000000000000000000000000000000020000000000000000000000000000000000000000000000000000000000000004d68747470733a2f2f76322e656d626c656d7661756c742e696f2f76332f6d6574612f3078303144336537394663323531386431354542303246636437446436314664303033453133336561332f00000000000000000000000000000000000000",
          "blockHash": "0x27dd045d1869198d0ac1ca3f42686a24642faf0bc1143004fb99016c2c916fa2",
          "blockNumber": "0x12399334",
          "transactionHash": "0x0a68756c0f7ff27fa666cce594d2f47b459f93c78ca0fcb40375b6a1017515f1",
          "transactionIndex": "0x1",
          "logIndex": "0x0",
          "removed": false
        },
        {
          "address": "0x5657a10c1aae46ae383342d7516290b4fecd9295",
          "topics": [
            "0x65936d1dee571c89e7bc171ad8e94e288d930f863c2a4a92a0593baef6573ee9",
            "0x00000000000000000000000001d3e79fc2518d15eb02fcd7dd61fd003e133ea3"
          ],
          "data": "0x0000000000000000000000000000000000000000000000000000000000000020000000000000000000000000000000000000000000000000000000000000004d68747470733a2f2f76322e656d626c656d7661756c742e696f2f76332f6d6574612f3078303144336537394663323531386431354542303246636437446436314664303033453133336561332f00000000000000000000000000000000000000",
          "blockHash": "0x27dd045d1869198d0ac1ca3f42686a24642faf0bc1143004fb99016c2c916fa2",
          "blockNumber": "0x12399334",
          "transactionHash": "0x0a68756c0f7ff27fa666cce594d2f47b459f93c78ca0fcb40375b6a1017515f1",
          "transactionIndex": "0x1",
          "logIndex": "0x1",
          "removed": false
        }
      ],
      "logsBloom": "0x00000000000000008000000000000000000004000000000000000010000000080000000000000000000000000000000000000000000000000000000000000000000000000000000000000000000000000000000000000000000002000000040000000000000000000000000000000000000000000000000000000000000000080400000000000000000000000008200000000000000000000000000000000000000001000000000000000000000000000000000000000000000000000000000000000000000000000000000200004000000000000000000000000000000000002000000000000000000000000000000000000000000000000000000040000000",
      "type": "0x2",
      "transactionHash": "0x0a68756c0f7ff27fa666cce594d2f47b459f93c78ca0fcb40375b6a1017515f1",
      "transactionIndex": "0x1",
      "blockHash": "0x27dd045d1869198d0ac1ca3f42686a24642faf0bc1143004fb99016c2c916fa2",
      "blockNumber": "0x12399334",
      "gasUsed": "0x23df0",
      "effectiveGasPrice": "0x989680",
      "from": "0xa99526e4dc81b85c1d248ca974eadce81837ecf1",
      "to": "0x5657a10c1aae46ae383342d7516290b4fecd9295",
      "contractAddress": null,
      "gasUsedForL1": "0x1ced",
      "l1BlockNumber": "0x14d41bd"
    },
    {
      "status": "0x1",
      "cumulativeGasUsed": "0x5974b",
      "logs": [
        {
          "address": "0x53f74639688dc71d0071367cef0daa10deff77e3",
          "topics": [
            "0x6741b2fc379fad678116fe3d4d4b9a1a184ab53ba36b86ad0fa66340b1ab41ad"
          ],
          "data": "0x0000000000000000000000000000000000000000000000000000000000000020000000000000000000000000000000000000000000000000000000000000004d68747470733a2f2f76322e656d626c656d7661756c742e696f2f76332f6d6574612f3078353366373436333936383844433731443030373133363743454630646161313044456666373765332f00000000000000000000000000000000000000",
          "blockHash": "0x6ce7acd7b5e025febfef25f0e33cef7b5f57c39dfd1be1620a25323c5aab5251",
          "blockNumber": "0x12399338",
          "transactionHash": "0x963ba9295ccde82790459b55f667fdffb32fff3392457b5a23d61c61ff13e523",
          "transactionIndex": "0x2",
          "logIndex": "0x5",
          "removed": false
        },
        {
          "address": "0x5657a10c1aae46ae383342d7516290b4fecd9295",
          "topics": [
            "0x65936d1dee571c89e7bc171ad8e94e288d930f863c2a4a92a0593baef6573ee9",
            "0x00000000000000000000000053f74639688dc71d0071367cef0daa10deff77e3"
          ],
          "data": "0x0000000000000000000000000000000000000000000000000000000000000020000000000000000000000000000000000000000000000000000000000000004d68747470733a2f2f76322e656d626c656d7661756c742e696f2f76332f6d6574612f3078353366373436333936383844433731443030373133363743454630646161313044456666373765332f00000000000000000000000000000000000000",
          "blockHash": "0x6ce7acd7b5e025febfef25f0e33cef7b5f57c39dfd1be1620a25323c5aab5251",
          "blockNumber": "0x12399338",
          "transactionHash": "0x963ba9295ccde82790459b55f667fdffb32fff3392457b5a23d61c61ff13e523",
          "transactionIndex": "0x2",
          "logIndex": "0x6",
          "removed": false
        }
      ],
      "logsBloom": "0x00001000800000000000000000000000000004000000000000000010000000080000000000000000000000000000000000000000000000000000000000000000000000000000000000000000000000000000000000000000000002000000000000000000000000000000000000000000000000000000000000000000000000000000000000000000000000000000200000000000000000000000000000000000008001000000000000000000000000000000000000000000000000000000000000000000000000000000000200004000000000000000000000000080000000002000000000000002000000000000000000000000000000004000000000000000",
      "type": "0x2",
      "transactionHash": "0x963ba9295ccde82790459b55f667fdffb32fff3392457b5a23d61c61ff13e523",
      "transactionIndex": "0x2",
      "blockHash": "0x6ce7acd7b5e025febfef25f0e33cef7b5f57c39dfd1be1620a25323c5aab5251",
      "blockNumber": "0x12399338",
      "gasUsed": "0x23df0",
      "effectiveGasPrice": "0x989680",
      "from": "0xa99526e4dc81b85c1d248ca974eadce81837ecf1",
      "to": "0x5657a10c1aae46ae383342d7516290b4fecd9295",
      "contractAddress": null,
      "gasUsedForL1": "0x1ced",
      "l1BlockNumber": "0x14d41bd"
    }
  ],
  "libraries": [],
  "pending": [],
  "returns": {},
  "timestamp": 1739483134,
  "chain": 42161,
  "commit": "56a2184"
}