{
  "transactions": [
    {
      "hash": "0x0964198e37f59b82a13b0728e9b485fb6f756610fcbb109af1cdbe9210ce891d",
      "transactionType": "CALL",
      "contractName": null,
      "contractAddress": "0x161ab371a04755cd2eb1963ca8373fea7bf42d80",
      "function": "buyWithSignedPrice(address,address,uint256,address,uint256,uint256,bytes,bytes,uint256)",
      "arguments": [
        "0x9D64037413969f3DF07E336Bd776B785f9c0Eb9D",
        "0x0000000000000000000000000000000000000000",
        "0",
        "0x107A120f536c8BD891A3c04fcA22a7814E260210",
        "2",
        "1734337978",
        "0x39b85c8440b53b79e51764bc115a78d3826f63cce51e77a653321f87756aadd14204ad1244343e07be24a0cf3b8dc87dcde746650f18799dd0dd262e148cc2081b",
        "0x0000000000000000000000000000000000000000000000000000000000000001000000000000000000000000b97ef9ef8734c71904d8002f8b6bc66dd9c48a6e00000000000000000000000000000000000000000000000000000000000000000000000000000000000000000000000000000000000000000de0b6b3a76400000000000000000000000000000000000000000000000000000000000000000000",
        "1"
      ],
      "transaction": {
        "from": "0x107a120f536c8bd891a3c04fca22a7814e260210",
        "to": "0x161ab371a04755cd2eb1963ca8373fea7bf42d80",
        "gas": "0x373c4",
        "value": "0x0",
        "input": "0xebc7fd7c0000000000000000000000009d64037413969f3df07e336bd776b785f9c0eb9d00000000000000000000000000000000000000000000000000000000000000000000000000000000000000000000000000000000000000000000000000000000000000000000000000000000107a120f536c8bd891a3c04fca22a7814e260210000000000000000000000000000000000000000000000000000000000000000200000000000000000000000000000000000000000000000000000000675fe5ba000000000000000000000000000000000000000000000000000000000000012000000000000000000000000000000000000000000000000000000000000001a00000000000000000000000000000000000000000000000000000000000000001000000000000000000000000000000000000000000000000000000000000004139b85c8440b53b79e51764bc115a78d3826f63cce51e77a653321f87756aadd14204ad1244343e07be24a0cf3b8dc87dcde746650f18799dd0dd262e148cc2081b0000000000000000000000000000000000000000000000000000000000000000000000000000000000000000000000000000000000000000000000000000a00000000000000000000000000000000000000000000000000000000000000001000000000000000000000000b97ef9ef8734c71904d8002f8b6bc66dd9c48a6e00000000000000000000000000000000000000000000000000000000000000000000000000000000000000000000000000000000000000000de0b6b3a76400000000000000000000000000000000000000000000000000000000000000000000",
        "nonce": "0x52",
        "chainId": "0xa869"
      },
      "additionalContracts": [],
      "isFixedGasLimit": false
    }
  ],
  "receipts": [
    {
      "status": "0x1",
      "cumulativeGasUsed": "0x2cd91",
      "logs": [
        {
          "address": "0x9d64037413969f3df07e336bd776b785f9c0eb9d",
          "topics": [
            "0xddf252ad1be2c89b69c2b068fc378daa952ba7f163c4a11628f55a4df523b3ef",
            "0x0000000000000000000000000000000000000000000000000000000000000000",
            "0x000000000000000000000000107a120f536c8bd891a3c04fca22a7814e260210",
            "0x0000000000000000000000000000000000000000000000000000000000000002"
          ],
          "data": "0x",
          "blockHash": "0xe1c9d36fd8113fbcb500da80fc9a46640d5466b2e062ee0d83f9eac1f4397ca4",
          "blockNumber": "0x2370763",
          "transactionHash": "0x0964198e37f59b82a13b0728e9b485fb6f756610fcbb109af1cdbe9210ce891d",
          "transactionIndex": "0x0",
          "logIndex": "0x0",
          "removed": false
        },
        {
          "address": "0x9d64037413969f3df07e336bd776b785f9c0eb9d",
          "topics": [
            "0x992c36651c4df7327a1bba185e1011897742ab72b49adf46c5eb90ae8c4e16dd",
            "0x000000000000000000000000107a120f536c8bd891a3c04fca22a7814e260210",
            "0x0000000000000000000000000000000000000000000000000000000000000002",
            "0x0000000000000000000000000000000000000000000000000000000000000002"
          ],
          "data": "0x000000000000000000000000000000000000000000000000000000000000002000000000000000000000000000000000000000000000000000000000000000a00000000000000000000000000000000000000000000000000000000000000001000000000000000000000000b97ef9ef8734c71904d8002f8b6bc66dd9c48a6e00000000000000000000000000000000000000000000000000000000000000000000000000000000000000000000000000000000000000000de0b6b3a76400000000000000000000000000000000000000000000000000000000000000000000",
          "blockHash": "0xe1c9d36fd8113fbcb500da80fc9a46640d5466b2e062ee0d83f9eac1f4397ca4",
          "blockNumber": "0x2370763",
          "transactionHash": "0x0964198e37f59b82a13b0728e9b485fb6f756610fcbb109af1cdbe9210ce891d",
          "transactionIndex": "0x0",
          "logIndex": "0x1",
          "removed": false
        },
        {
          "address": "0x161ab371a04755cd2eb1963ca8373fea7bf42d80",
          "topics": [
            "0xd983e10441907f6414e5acb1bb96abb0fa16cdbf7d114aba33dc74e9cc03e95d",
            "0x0000000000000000000000009d64037413969f3df07e336bd776b785f9c0eb9d",
            "0x000000000000000000000000107a120f536c8bd891a3c04fca22a7814e260210",
            "0x0000000000000000000000000000000000000000000000000000000000000002"
          ],
          "data": "0x000000000000000000000000000000000000000000000000000000000000000100000000000000000000000000000000000000000000000000000000000000000000000000000000000000000000000000000000000000000000000000000000000000000000000000000000000000000000000000000000000000000000008000000000000000000000000000000000000000000000000000000000000000a00000000000000000000000000000000000000000000000000000000000000001000000000000000000000000b97ef9ef8734c71904d8002f8b6bc66dd9c48a6e00000000000000000000000000000000000000000000000000000000000000000000000000000000000000000000000000000000000000000de0b6b3a76400000000000000000000000000000000000000000000000000000000000000000000",
          "blockHash": "0xe1c9d36fd8113fbcb500da80fc9a46640d5466b2e062ee0d83f9eac1f4397ca4",
          "blockNumber": "0x2370763",
          "transactionHash": "0x0964198e37f59b82a13b0728e9b485fb6f756610fcbb109af1cdbe9210ce891d",
          "transactionIndex": "0x0",
          "logIndex": "0x2",
          "removed": false
        }
      ],
      "logsBloom": "0x04000000000000020000000000000000000000000000000000000000000000000000000000000000000020000000000001000000000000000000000000000000000000000000000000000008000002000000000000000000000000000004004000000000020000000000000000000800000000000001000000800010000400000040000000000000000001000000000000000000000000082000000000000000000000000000000101000100000000000800000000000000000000000000000000000002000000000002000000000000000000000000000000000000000020000000000000000000000000000000000002000000008000000000000000000000",
      "type": "0x2",
      "transactionHash": "0x0964198e37f59b82a13b0728e9b485fb6f756610fcbb109af1cdbe9210ce891d",
      "transactionIndex": "0x0",
      "blockHash": "0xe1c9d36fd8113fbcb500da80fc9a46640d5466b2e062ee0d83f9eac1f4397ca4",
      "blockNumber": "0x2370763",
      "gasUsed": "0x2cd91",
      "effectiveGasPrice": "0xa3e9ab81",
      "from": "0x107a120f536c8bd891a3c04fca22a7814e260210",
      "to": "0x161ab371a04755cd2eb1963ca8373fea7bf42d80",
      "contractAddress": null
    }
  ],
  "libraries": [],
  "pending": [],
  "returns": {},
  "timestamp": 1734337995,
  "chain": 43113,
  "commit": "bf91bda"
}