{
  "transactions": [
    {
      "hash": "0xb567530c7d1d8428ce241a0fa583256176b6b888840bd46ff1a5e1b80e00df84",
      "transactionType": "CALL",
      "contractName": null,
      "contractAddress": "0x79ac7f72699a2938a975b873fb2fbef86f5d6e4d",
      "function": "buyWithSignedPrice(address,address,uint256,address,uint256,uint256,bytes,bytes,uint256)",
      "arguments": [
        "0x12a84432093C56D9235C7cd390Bb6A7adDA78301",
        "0x0000000000000000000000000000000000000000",
        "0",
        "0x107A120f536c8BD891A3c04fcA22a7814E260210",
        "1",
        "1735057606",
        "0xa02a0e74e726cd7e6930d599bce104779876fc999b44b2358cd9c0f5a5a6e3ca32cbf8ee195085fb23e5ff28cc3f8121b89717db508ddda46d2714b1d31adf5b1b",
        "0x0000000000000000000000000000000000000000000000000000000000000000",
        "1"
      ],
      "transaction": {
        "from": "0x107a120f536c8bd891a3c04fca22a7814e260210",
        "to": "0x79ac7f72699a2938a975b873fb2fbef86f5d6e4d",
        "gas": "0x3bfd1",
        "value": "0x0",
        "input": "0xebc7fd7c00000000000000000000000012a84432093c56d9235c7cd390bb6a7adda7830100000000000000000000000000000000000000000000000000000000000000000000000000000000000000000000000000000000000000000000000000000000000000000000000000000000107a120f536c8bd891a3c04fca22a7814e260210000000000000000000000000000000000000000000000000000000000000000100000000000000000000000000000000000000000000000000000000676ae0c6000000000000000000000000000000000000000000000000000000000000012000000000000000000000000000000000000000000000000000000000000001a000000000000000000000000000000000000000000000000000000000000000010000000000000000000000000000000000000000000000000000000000000041a02a0e74e726cd7e6930d599bce104779876fc999b44b2358cd9c0f5a5a6e3ca32cbf8ee195085fb23e5ff28cc3f8121b89717db508ddda46d2714b1d31adf5b1b0000000000000000000000000000000000000000000000000000000000000000000000000000000000000000000000000000000000000000000000000000200000000000000000000000000000000000000000000000000000000000000000",
        "nonce": "0x6c",
        "chainId": "0xa869"
      },
      "additionalContracts": [],
      "isFixedGasLimit": false
    }
  ],
  "receipts": [
    {
      "status": "0x1",
      "cumulativeGasUsed": "0x304a0",
      "logs": [
        {
          "address": "0x12a84432093c56d9235c7cd390bb6a7adda78301",
          "topics": [
            "0xddf252ad1be2c89b69c2b068fc378daa952ba7f163c4a11628f55a4df523b3ef",
            "0x0000000000000000000000000000000000000000000000000000000000000000",
            "0x000000000000000000000000107a120f536c8bd891a3c04fca22a7814e260210",
            "0x0000000000000000000000000000000000000000000000000000000000000001"
          ],
          "data": "0x",
          "blockHash": "0xf9a0d0ebf3b52aee30a45d7f54e3d518d6f2aca2b97870bccd0a680fdbfee165",
          "blockNumber": "0x238e531",
          "transactionHash": "0xb567530c7d1d8428ce241a0fa583256176b6b888840bd46ff1a5e1b80e00df84",
          "transactionIndex": "0x0",
          "logIndex": "0x0",
          "removed": false
        },
        {
          "address": "0x12a84432093c56d9235c7cd390bb6a7adda78301",
          "topics": [
            "0x992c36651c4df7327a1bba185e1011897742ab72b49adf46c5eb90ae8c4e16dd",
            "0x000000000000000000000000107a120f536c8bd891a3c04fca22a7814e260210",
            "0x0000000000000000000000000000000000000000000000000000000000000001",
            "0x0000000000000000000000000000000000000000000000000000000000000001"
          ],
          "data": "0x000000000000000000000000000000000000000000000000000000000000002000000000000000000000000000000000000000000000000000000000000000200000000000000000000000000000000000000000000000000000000000000000",
          "blockHash": "0xf9a0d0ebf3b52aee30a45d7f54e3d518d6f2aca2b97870bccd0a680fdbfee165",
          "blockNumber": "0x238e531",
          "transactionHash": "0xb567530c7d1d8428ce241a0fa583256176b6b888840bd46ff1a5e1b80e00df84",
          "transactionIndex": "0x0",
          "logIndex": "0x1",
          "removed": false
        },
        {
          "address": "0x79ac7f72699a2938a975b873fb2fbef86f5d6e4d",
          "topics": [
            "0xd983e10441907f6414e5acb1bb96abb0fa16cdbf7d114aba33dc74e9cc03e95d",
            "0x00000000000000000000000012a84432093c56d9235c7cd390bb6a7adda78301",
            "0x000000000000000000000000107a120f536c8bd891a3c04fca22a7814e260210",
            "0x0000000000000000000000000000000000000000000000000000000000000001"
          ],
          "data": "0x000000000000000000000000000000000000000000000000000000000000000100000000000000000000000000000000000000000000000000000000000000000000000000000000000000000000000000000000000000000000000000000000000000000000000000000000000000000000000000000000000000000000008000000000000000000000000000000000000000000000000000000000000000200000000000000000000000000000000000000000000000000000000000000000",
          "blockHash": "0xf9a0d0ebf3b52aee30a45d7f54e3d518d6f2aca2b97870bccd0a680fdbfee165",
          "blockNumber": "0x238e531",
          "transactionHash": "0xb567530c7d1d8428ce241a0fa583256176b6b888840bd46ff1a5e1b80e00df84",
          "transactionIndex": "0x0",
          "logIndex": "0x2",
          "removed": false
        }
      ],
      "logsBloom": "0x00000100000000000000000000000000000100000000000000000000000000000000000000000000000020000000000001000000000000000000000200040000000000000000000000000008000002000000000000040000100000000004000000000000020000000000000000000800000000000000000008000010800400000040000000000000000001000000000000000000000000000000000000000000000000000000000100000000000000000800000000000000000000000200000000000002000000000002000000000000000000000000000000000000000060000000000000000000000000000000000000000000000000004000000000000000",
      "type": "0x2",
      "transactionHash": "0xb567530c7d1d8428ce241a0fa583256176b6b888840bd46ff1a5e1b80e00df84",
      "transactionIndex": "0x0",
      "blockHash": "0xf9a0d0ebf3b52aee30a45d7f54e3d518d6f2aca2b97870bccd0a680fdbfee165",
      "blockNumber": "0x238e531",
      "gasUsed": "0x304a0",
      "effectiveGasPrice": "0x47868c01",
      "from": "0x107a120f536c8bd891a3c04fca22a7814e260210",
      "to": "0x79ac7f72699a2938a975b873fb2fbef86f5d6e4d",
      "contractAddress": null
    }
  ],
  "libraries": [],
  "pending": [],
  "returns": {},
  "timestamp": 1735057624,
  "chain": 43113,
  "commit": "fb88bfc"
}