{
  "transactions": [
    {
      "hash": "0x3e7aa8a9c02dcf02c2bd7f9cf0856c4ac0cf7bb63d2215315c51916c8a4212b4",
      "transactionType": "CALL",
      "contractName": null,
      "contractAddress": "0xc125eb48fbd6dc3d4afbba5dd2a6684f83424dea",
      "function": "setCollectionBaseURI(address,string)",
      "arguments": [
        "0x7587d6A2e67eD18cA8279820e608894cC5c145A5",
        "https://api.emblem.finance/erc721/metadata/"
      ],
      "transaction": {
        "from": "0x107a120f536c8bd891a3c04fca22a7814e260210",
        "to": "0xc125eb48fbd6dc3d4afbba5dd2a6684f83424dea",
        "gas": "0x194e6",
        "value": "0x0",
        "input": "0x80aed2a90000000000000000000000007587d6a2e67ed18ca8279820e608894cc5c145a50000000000000000000000000000000000000000000000000000000000000040000000000000000000000000000000000000000000000000000000000000002b68747470733a2f2f6170692e656d626c656d2e66696e616e63652f6572633732312f6d657461646174612f000000000000000000000000000000000000000000",
        "nonce": "0x21",
        "chainId": "0x61"
      },
      "additionalContracts": [],
      "isFixedGasLimit": false
    }
  ],
  "receipts": [
    {
      "status": "0x1",
      "cumulativeGasUsed": "0x166e3",
      "logs": [
        {
          "address": "0xc125eb48fbd6dc3d4afbba5dd2a6684f83424dea",
          "topics": [
            "0x65936d1dee571c89e7bc171ad8e94e288d930f863c2a4a92a0593baef6573ee9",
            "0x0000000000000000000000007587d6a2e67ed18ca8279820e608894cc5c145a5"
          ],
          "data": "0x0000000000000000000000000000000000000000000000000000000000000020000000000000000000000000000000000000000000000000000000000000002b68747470733a2f2f6170692e656d626c656d2e66696e616e63652f6572633732312f6d657461646174612f000000000000000000000000000000000000000000",
          "blockHash": "0xdc0de943940c6810a42eb7b120e8a7cbd128377d9fce7558b124d33e96e75327",
          "blockNumber": "0x2c31344",
          "transactionHash": "0x3e7aa8a9c02dcf02c2bd7f9cf0856c4ac0cf7bb63d2215315c51916c8a4212b4",
          "transactionIndex": "0x1",
          "logIndex": "0x0",
          "removed": false
        }
      ],
      "logsBloom": "0x00000000000000000000000080000000000004000040000000000000000000000000000000000000000000000000000000000000000000000000000000000000000000000000000000000000000000000000000000000000000000000000000100000000000000000000000000000000000000000000000000000000000000000080000000000000000000000000000008000000000000000000000000000000000001000000000000000000000000000000000000000000000000000000000000000000000000000000000200000000000000000000000000040000000000000000000000000000000000000000000000000000000000000000000000000000",
      "type": "0x0",
      "transactionHash": "0x3e7aa8a9c02dcf02c2bd7f9cf0856c4ac0cf7bb63d2215315c51916c8a4212b4",
      "transactionIndex": "0x1",
      "blockHash": "0xdc0de943940c6810a42eb7b120e8a7cbd128377d9fce7558b124d33e96e75327",
      "blockNumber": "0x2c31344",
      "gasUsed": "0x114db",
      "effectiveGasPrice": "0x2540be400",
      "from": "0x107a120f536c8bd891a3c04fca22a7814e260210",
      "to": "0xc125eb48fbd6dc3d4afbba5dd2a6684f83424dea",
      "contractAddress": null
    }
  ],
  "libraries": [],
  "pending": [],
  "returns": {},
  "timestamp": 1733737941,
  "chain": 97,
  "commit": "b627d86"
}