{
  "transactions": [
    {
      "hash": "0x72beeb93e604f0a705030166388de1de20e6fa916c6a3cefe76de845345de9d9",
      "transactionType": "CALL",
      "contractName": null,
      "contractAddress": "0xc125eb48fbd6dc3d4afbba5dd2a6684f83424dea",
      "function": "setCollectionURI(address,string)",
      "arguments": [
        "0x064724D71E0B3C2bB03384d1188A2F34144a13bd",
        "https://api.emblem.finance/erc1155/metadata/{id}.json"
      ],
      "transaction": {
        "from": "0x107a120f536c8bd891a3c04fca22a7814e260210",
        "to": "0xc125eb48fbd6dc3d4afbba5dd2a6684f83424dea",
        "gas": "0x1877b",
        "value": "0x0",
        "input": "0x23f019fd000000000000000000000000064724d71e0b3c2bb03384d1188a2f34144a13bd0000000000000000000000000000000000000000000000000000000000000040000000000000000000000000000000000000000000000000000000000000003568747470733a2f2f6170692e656d626c656d2e66696e616e63652f657263313135352f6d657461646174612f7b69647d2e6a736f6e0000000000000000000000",
        "nonce": "0x24",
        "chainId": "0x61"
      },
      "additionalContracts": [],
      "isFixedGasLimit": false
    }
  ],
  "receipts": [
    {
      "status": "0x1",
      "cumulativeGasUsed": "0x11b6e",
      "logs": [
        {
          "address": "0xc125eb48fbd6dc3d4afbba5dd2a6684f83424dea",
          "topics": [
            "0x386488dff7e0422825a9a6550182ab7f1d7ef789131917bfd8dd6ffe29afe08d",
            "0x000000000000000000000000064724d71e0b3c2bb03384d1188a2f34144a13bd"
          ],
          "data": "0x0000000000000000000000000000000000000000000000000000000000000020000000000000000000000000000000000000000000000000000000000000003568747470733a2f2f6170692e656d626c656d2e66696e616e63652f657263313135352f6d657461646174612f7b69647d2e6a736f6e0000000000000000000000",
          "blockHash": "0xc29450801177dbcce244b4d7109d482746a33998ab218365eb9370437bbf396b",
          "blockNumber": "0x2c313a1",
          "transactionHash": "0x72beeb93e604f0a705030166388de1de20e6fa916c6a3cefe76de845345de9d9",
          "transactionIndex": "0x0",
          "logIndex": "0x0",
          "removed": false
        }
      ],
      "logsBloom": "0x00000000000000000000000080000000000000200020000000000000000000000000000080000000000000000000000000000000000000000000000000000000000000000000000000000000000000000000000000000000000000000000000000000100000000000000000000000000000000000000000000000000000000000080000000000000000000000000000000000100000000000000000000000000000000000000000000000000000000000000000000000000000000000000000000000000000000000000000000000000000000000000000000040000000000200000000000000000000000000000000000000000000000000000000000000000",
      "type": "0x0",
      "transactionHash": "0x72beeb93e604f0a705030166388de1de20e6fa916c6a3cefe76de845345de9d9",
      "transactionIndex": "0x0",
      "blockHash": "0xc29450801177dbcce244b4d7109d482746a33998ab218365eb9370437bbf396b",
      "blockNumber": "0x2c313a1",
      "gasUsed": "0x11b6e",
      "effectiveGasPrice": "0x4a817c800",
      "from": "0x107a120f536c8bd891a3c04fca22a7814e260210",
      "to": "0xc125eb48fbd6dc3d4afbba5dd2a6684f83424dea",
      "contractAddress": null
    }
  ],
  "libraries": [],
  "pending": [],
  "returns": {},
  "timestamp": 1733738219,
  "chain": 97,
  "commit": "b627d86"
}