{
  "transactions": [
    {
      "hash": "0xd53e05b770a9867439a1506caaa0af2e1fe83b1fe650e36646bab14d988e225a",
      "transactionType": "CALL",
      "contractName": null,
      "contractAddress": "0xc125eb48fbd6dc3d4afbba5dd2a6684f83424dea",
      "function": "setCollectionBaseURI(address,string)",
      "arguments": [
        "0x7587d6A2e67eD18cA8279820e608894cC5c145A5",
        "https://api.emblem.finance/erc721/metadata/"
      ],
      "transaction": {
        "from": "0x107a120f536c8bd891a3c04fca22a7814e260210",
        "to": "0xc125eb48fbd6dc3d4afbba5dd2a6684f83424dea",
        "gas": "0x26372",
        "value": "0x0",
        "input": "0x80aed2a90000000000000000000000007587d6a2e67ed18ca8279820e608894cc5c145a50000000000000000000000000000000000000000000000000000000000000040000000000000000000000000000000000000000000000000000000000000002b68747470733a2f2f6170692e656d626c656d2e66696e616e63652f6572633732312f6d657461646174612f000000000000000000000000000000000000000000",
        "nonce": "0x1e",
        "chainId": "0x61"
      },
      "additionalContracts": [],
      "isFixedGasLimit": false
    }
  ],
  "receipts": [
    {
      "status": "0x1",
      "cumulativeGasUsed": "0x1baae",
      "logs": [
        {
          "address": "0xc125eb48fbd6dc3d4afbba5dd2a6684f83424dea",
          "topics": [
            "0x65936d1dee571c89e7bc171ad8e94e288d930f863c2a4a92a0593baef6573ee9",
            "0x0000000000000000000000007587d6a2e67ed18ca8279820e608894cc5c145a5"
          ],
          "data": "0x0000000000000000000000000000000000000000000000000000000000000020000000000000000000000000000000000000000000000000000000000000002b68747470733a2f2f6170692e656d626c656d2e66696e616e63652f6572633732312f6d657461646174612f000000000000000000000000000000000000000000",
          "blockHash": "0xf41a69d3987633adb7d040d58f41ea9d5a39224a4c84e30d1446a8ac9dded3f3",
          "blockNumber": "0x2c312d2",
          "transactionHash": "0xd53e05b770a9867439a1506caaa0af2e1fe83b1fe650e36646bab14d988e225a",
          "transactionIndex": "0x0",
          "logIndex": "0x0",
          "removed": false
        }
      ],
      "logsBloom": "0x00000000000000000000000080000000000004000040000000000000000000000000000000000000000000000000000000000000000000000000000000000000000000000000000000000000000000000000000000000000000000000000000100000000000000000000000000000000000000000000000000000000000000000080000000000000000000000000000008000000000000000000000000000000000001000000000000000000000000000000000000000000000000000000000000000000000000000000000200000000000000000000000000040000000000000000000000000000000000000000000000000000000000000000000000000000",
      "type": "0x0",
      "transactionHash": "0xd53e05b770a9867439a1506caaa0af2e1fe83b1fe650e36646bab14d988e225a",
      "transactionIndex": "0x0",
      "blockHash": "0xf41a69d3987633adb7d040d58f41ea9d5a39224a4c84e30d1446a8ac9dded3f3",
      "blockNumber": "0x2c312d2",
      "gasUsed": "0x1baae",
      "effectiveGasPrice": "0x1dcd65000",
      "from": "0x107a120f536c8bd891a3c04fca22a7814e260210",
      "to": "0xc125eb48fbd6dc3d4afbba5dd2a6684f83424dea",
      "contractAddress": null
    }
  ],
  "libraries": [],
  "pending": [],
  "returns": {},
  "timestamp": 1733737599,
  "chain": 97,
  "commit": "b627d86"
}