{
  "transactions": [
    {
      "hash": "0x9d14dd1396cdc5099933bd144fb63f714ed550c8ef46e343ba3efd6dc9a37560",
      "transactionType": "CALL",
      "contractName": null,
      "contractAddress": "0x939cc34de4edc8ddb21326963bc028299ccbdc3e",
      "function": "createVaultCollection(string,string,uint8)",
      "arguments": [
        "Rare Pepe",
        "PEPE",
        "2"
      ],
      "transaction": {
        "from": "0xa99526e4dc81b85c1d248ca974eadce81837ecf1",
        "to": "0x939cc34de4edc8ddb21326963bc028299ccbdc3e",
        "gas": "0x81a77",
        "value": "0x0",
        "input": "0xa8008080000000000000000000000000000000000000000000000000000000000000006000000000000000000000000000000000000000000000000000000000000000a000000000000000000000000000000000000000000000000000000000000000020000000000000000000000000000000000000000000000000000000000000009526172652050657065000000000000000000000000000000000000000000000000000000000000000000000000000000000000000000000000000000000000045045504500000000000000000000000000000000000000000000000000000000",
        "nonce": "0x1d",
        "chainId": "0x2b74",
        "zksync": {
          "factoryDeps": [],
          "paymasterData": null
        }
      },
      "additionalContracts": [
        {
          "transactionType": "CREATE",
          "address": "0x01fc118cebc15293782464de58836ff2a67a2380",
          "initCode": "0x0000000000000000000000003eeecc9baba5d3537fdc926dc84ccc761cea481b"
        }
      ],
      "isFixedGasLimit": false
    },
    {
      "hash": "0xcced0f63551a728b0135ab8a072d2d50071b48310278433e4c94ede487f8c7b7",
      "transactionType": "CALL",
      "contractName": null,
      "contractAddress": "0x939cc34de4edc8ddb21326963bc028299ccbdc3e",
      "function": "createVaultCollection(string,string,uint8)",
      "arguments": [
        "Spells of Genesis",
        "SOG",
        "2"
      ],
      "transaction": {
        "from": "0xa99526e4dc81b85c1d248ca974eadce81837ecf1",
        "to": "0x939cc34de4edc8ddb21326963bc028299ccbdc3e",
        "gas": "0x81a77",
        "value": "0x0",
        "input": "0xa8008080000000000000000000000000000000000000000000000000000000000000006000000000000000000000000000000000000000000000000000000000000000a0000000000000000000000000000000000000000000000000000000000000000200000000000000000000000000000000000000000000000000000000000000115370656c6c73206f662047656e657369730000000000000000000000000000000000000000000000000000000000000000000000000000000000000000000003534f470000000000000000000000000000000000000000000000000000000000",
        "nonce": "0x1e",
        "chainId": "0x2b74",
        "zksync": {
          "factoryDeps": [],
          "paymasterData": null
        }
      },
      "additionalContracts": [
        {
          "transactionType": "CREATE",
          "address": "0xee8deb37d8fb422a6f77b06657556cd2ee36da3d",
          "initCode": "0x0000000000000000000000003eeecc9baba5d3537fdc926dc84ccc761cea481b"
        }
      ],
      "isFixedGasLimit": false
    },
    {
      "hash": "0xd723fe1777a57f257ea0d4ed80f8c2b516a1d7c7e480fbb32cad1565457928be",
      "transactionType": "CALL",
      "contractName": null,
      "contractAddress": "0x939cc34de4edc8ddb21326963bc028299ccbdc3e",
      "function": "createVaultCollection(string,string,uint8)",
      "arguments": [
        "Fake Rares",
        "FAKE",
        "2"
      ],
      "transaction": {
        "from": "0xa99526e4dc81b85c1d248ca974eadce81837ecf1",
        "to": "0x939cc34de4edc8ddb21326963bc028299ccbdc3e",
        "gas": "0x81a77",
        "value": "0x0",
        "input": "0xa8008080000000000000000000000000000000000000000000000000000000000000006000000000000000000000000000000000000000000000000000000000000000a00000000000000000000000000000000000000000000000000000000000000002000000000000000000000000000000000000000000000000000000000000000a46616b6520526172657300000000000000000000000000000000000000000000000000000000000000000000000000000000000000000000000000000000000446414b4500000000000000000000000000000000000000000000000000000000",
        "nonce": "0x1f",
        "chainId": "0x2b74",
        "zksync": {
          "factoryDeps": [],
          "paymasterData": null
        }
      },
      "additionalContracts": [
        {
          "transactionType": "CREATE",
          "address": "0xdb0ac65d5c899513506a6cb80a60fba782d0a29c",
          "initCode": "0x0000000000000000000000003eeecc9baba5d3537fdc926dc84ccc761cea481b"
        }
      ],
      "isFixedGasLimit": false
    },
    {
      "hash": "0x6d65f41666d556890671ac1ec7d06b3737844579465d710197945c6bd36ddbab",
      "transactionType": "CALL",
      "contractName": null,
      "contractAddress": "0x939cc34de4edc8ddb21326963bc028299ccbdc3e",
      "function": "createVaultCollection(string,string,uint8)",
      "arguments": [
        "EmBells",
        "BELL",
        "1"
      ],
      "transaction": {
        "from": "0xa99526e4dc81b85c1d248ca974eadce81837ecf1",
        "to": "0x939cc34de4edc8ddb21326963bc028299ccbdc3e",
        "gas": "0xa6e5f",
        "value": "0x0",
        "input": "0xa8008080000000000000000000000000000000000000000000000000000000000000006000000000000000000000000000000000000000000000000000000000000000a000000000000000000000000000000000000000000000000000000000000000010000000000000000000000000000000000000000000000000000000000000007456d42656c6c7300000000000000000000000000000000000000000000000000000000000000000000000000000000000000000000000000000000000000000442454c4c00000000000000000000000000000000000000000000000000000000",
        "nonce": "0x20",
        "chainId": "0x2b74",
        "zksync": {
          "factoryDeps": [],
          "paymasterData": null
        }
      },
      "additionalContracts": [
        {
          "transactionType": "CREATE",
          "address": "0xf98f9abbc52d738ec1f11a42dfbf558f687e45b3",
          "initCode": "0x0000000000000000000000007eca29e1fb3d77b51a3a0764b77382eaa63d31fa"
        }
      ],
      "isFixedGasLimit": false
    },
    {
      "hash": "0x00b35f958d34452b53a69b51525826d19b8a3d128ac8ef164bea0de2985ef89a",
      "transactionType": "CALL",
      "contractName": null,
      "contractAddress": "0x939cc34de4edc8ddb21326963bc028299ccbdc3e",
      "function": "createVaultCollection(string,string,uint8)",
      "arguments": [
        "Emblem Open",
        "OPEN",
        "1"
      ],
      "transaction": {
        "from": "0xa99526e4dc81b85c1d248ca974eadce81837ecf1",
        "to": "0x939cc34de4edc8ddb21326963bc028299ccbdc3e",
        "gas": "0xa6e5f",
        "value": "0x0",
        "input": "0xa8008080000000000000000000000000000000000000000000000000000000000000006000000000000000000000000000000000000000000000000000000000000000a00000000000000000000000000000000000000000000000000000000000000001000000000000000000000000000000000000000000000000000000000000000b456d626c656d204f70656e00000000000000000000000000000000000000000000000000000000000000000000000000000000000000000000000000000000044f50454e00000000000000000000000000000000000000000000000000000000",
        "nonce": "0x21",
        "chainId": "0x2b74",
        "zksync": {
          "factoryDeps": [],
          "paymasterData": null
        }
      },
      "additionalContracts": [
        {
          "transactionType": "CREATE",
          "address": "0x14acd43719888a2b48271f548d64b6dccfc0f572",
          "initCode": "0x0000000000000000000000007eca29e1fb3d77b51a3a0764b77382eaa63d31fa"
        }
      ],
      "isFixedGasLimit": false
    },
    {
      "hash": "0xd6b1af51f23bb790efdb8e980d96d196d73f0e0a1e45d76c99cf33f1b66e04e8",
      "transactionType": "CALL",
      "contractName": null,
      "contractAddress": "0x939cc34de4edc8ddb21326963bc028299ccbdc3e",
      "function": "setCollectionURI(address,string)",
      "arguments": [
        "0x01fc118CEbC15293782464DE58836FF2a67a2380",
        "https://v2.emblemvault.io/v3/meta/0x01fc118CEbC15293782464DE58836FF2a67a2380/"
      ],
      "transaction": {
        "from": "0xa99526e4dc81b85c1d248ca974eadce81837ecf1",
        "to": "0x939cc34de4edc8ddb21326963bc028299ccbdc3e",
        "gas": "0x61230",
        "value": "0x0",
        "input": "0x23f019fd00000000000000000000000001fc118cebc15293782464de58836ff2a67a23800000000000000000000000000000000000000000000000000000000000000040000000000000000000000000000000000000000000000000000000000000004d68747470733a2f2f76322e656d626c656d7661756c742e696f2f76332f6d6574612f3078303166633131384345624331353239333738323436344445353838333646463261363761323338302f00000000000000000000000000000000000000",
        "nonce": "0x22",
        "chainId": "0x2b74",
        "zksync": {
          "factoryDeps": [],
          "paymasterData": null
        }
      },
      "additionalContracts": [],
      "isFixedGasLimit": false
    },
    {
      "hash": "0x8063097064c1a5e92c4fcb77cd8da65f307a324bbdfe4571a7b0e1b0e586e2ed",
      "transactionType": "CALL",
      "contractName": null,
      "contractAddress": "0x939cc34de4edc8ddb21326963bc028299ccbdc3e",
      "function": "setCollectionURI(address,string)",
      "arguments": [
        "0xeE8Deb37D8FB422a6F77b06657556CD2ee36da3d",
        "https://v2.emblemvault.io/v3/meta/0xeE8Deb37D8FB422a6F77b06657556CD2ee36da3d/"
      ],
      "transaction": {
        "from": "0xa99526e4dc81b85c1d248ca974eadce81837ecf1",
        "to": "0x939cc34de4edc8ddb21326963bc028299ccbdc3e",
        "gas": "0x61230",
        "value": "0x0",
        "input": "0x23f019fd000000000000000000000000ee8deb37d8fb422a6f77b06657556cd2ee36da3d0000000000000000000000000000000000000000000000000000000000000040000000000000000000000000000000000000000000000000000000000000004d68747470733a2f2f76322e656d626c656d7661756c742e696f2f76332f6d6574612f3078654538446562333744384642343232613646373762303636353735353643443265653336646133642f00000000000000000000000000000000000000",
        "nonce": "0x23",
        "chainId": "0x2b74",
        "zksync": {
          "factoryDeps": [],
          "paymasterData": null
        }
      },
      "additionalContracts": [],
      "isFixedGasLimit": false
    },
    {
      "hash": "0x52da210984b29b4a9d2621199ad03ca501398c0bd4cb7cc92f5396dcefc78b78",
      "transactionType": "CALL",
      "contractName": null,
      "contractAddress": "0x939cc34de4edc8ddb21326963bc028299ccbdc3e",
      "function": "setCollectionURI(address,string)",
      "arguments": [
        "0xDB0ac65d5c899513506A6cB80A60Fba782D0a29c",
        "https://v2.emblemvault.io/v3/meta/0xDB0ac65d5c899513506A6cB80A60Fba782D0a29c/"
      ],
      "transaction": {
        "from": "0xa99526e4dc81b85c1d248ca974eadce81837ecf1",
        "to": "0x939cc34de4edc8ddb21326963bc028299ccbdc3e",
        "gas": "0x61230",
        "value": "0x0",
        "input": "0x23f019fd000000000000000000000000db0ac65d5c899513506a6cb80a60fba782d0a29c0000000000000000000000000000000000000000000000000000000000000040000000000000000000000000000000000000000000000000000000000000004d68747470733a2f2f76322e656d626c656d7661756c742e696f2f76332f6d6574612f3078444230616336356435633839393531333530364136634238304136304662613738324430613239632f00000000000000000000000000000000000000",
        "nonce": "0x24",
        "chainId": "0x2b74",
        "zksync": {
          "factoryDeps": [],
          "paymasterData": null
        }
      },
      "additionalContracts": [],
      "isFixedGasLimit": false
    },
    {
      "hash": "0x9386155997c745c2f22a61a55f490a624c591b4cce0d79f1370b3750c91030af",
      "transactionType": "CALL",
      "contractName": null,
      "contractAddress": "0x939cc34de4edc8ddb21326963bc028299ccbdc3e",
      "function": "setCollectionBaseURI(address,string)",
      "arguments": [
        "0xf98F9ABbC52D738Ec1F11a42DfBF558F687e45b3",
        "https://v2.emblemvault.io/v3/meta/0xf98F9ABbC52D738Ec1F11a42DfBF558F687e45b3/"
      ],
      "transaction": {
        "from": "0xa99526e4dc81b85c1d248ca974eadce81837ecf1",
        "to": "0x939cc34de4edc8ddb21326963bc028299ccbdc3e",
        "gas": "0x60a01",
        "value": "0x0",
        "input": "0x80aed2a9000000000000000000000000f98f9abbc52d738ec1f11a42dfbf558f687e45b30000000000000000000000000000000000000000000000000000000000000040000000000000000000000000000000000000000000000000000000000000004d68747470733a2f2f76322e656d626c656d7661756c742e696f2f76332f6d6574612f3078663938463941426243353244373338456331463131613432446642463535384636383765343562332f00000000000000000000000000000000000000",
        "nonce": "0x25",
        "chainId": "0x2b74",
        "zksync": {
          "factoryDeps": [],
          "paymasterData": null
        }
      },
      "additionalContracts": [],
      "isFixedGasLimit": false
    },
    {
      "hash": "0x1056b87a9eef3662545830a54df33fa3a5e2f4af4f081e8a9bdfd88ccab0c243",
      "transactionType": "CALL",
      "contractName": null,
      "contractAddress": "0x939cc34de4edc8ddb21326963bc028299ccbdc3e",
      "function": "setCollectionBaseURI(address,string)",
      "arguments": [
        "0x14acD43719888A2B48271f548D64b6DCcFC0F572",
        "https://v2.emblemvault.io/v3/meta/0x14acD43719888A2B48271f548D64b6DCcFC0F572/"
      ],
      "transaction": {
        "from": "0xa99526e4dc81b85c1d248ca974eadce81837ecf1",
        "to": "0x939cc34de4edc8ddb21326963bc028299ccbdc3e",
        "gas": "0x60a01",
        "value": "0x0",
        "input": "0x80aed2a900000000000000000000000014acd43719888a2b48271f548d64b6dccfc0f5720000000000000000000000000000000000000000000000000000000000000040000000000000000000000000000000000000000000000000000000000000004d68747470733a2f2f76322e656d626c656d7661756c742e696f2f76332f6d6574612f3078313461634434333731393838384132423438323731663534384436346236444363464330463537322f00000000000000000000000000000000000000",
        "nonce": "0x26",
        "chainId": "0x2b74",
        "zksync": {
          "factoryDeps": [],
          "paymasterData": null
        }
      },
      "additionalContracts": [],
      "isFixedGasLimit": false
    }
  ],
  "receipts": [
    {
      "status": "0x1",
      "cumulativeGasUsed": "0x0",
      "logs": [
        {
          "address": "0x000000000000000000000000000000000000800a",
          "topics": [
            "0xddf252ad1be2c89b69c2b068fc378daa952ba7f163c4a11628f55a4df523b3ef",
            "0x000000000000000000000000a99526e4dc81b85c1d248ca974eadce81837ecf1",
            "0x0000000000000000000000000000000000000000000000000000000000008001"
          ],
          "data": "0x000000000000000000000000000000000000000000000000000008c6fc091340",
          "blockHash": "0xfe182df83d8592b607eff509bfe4eff823c766449b8b2df7a7616895de7e47d0",
          "blockNumber": "0x7da72a",
          "blockTimestamp": "0x67e39564",
          "transactionHash": "0x9d14dd1396cdc5099933bd144fb63f714ed550c8ef46e343ba3efd6dc9a37560",
          "transactionIndex": "0x1",
          "logIndex": "0x3",
          "removed": false
        },
        {
          "address": "0x01fc118cebc15293782464de58836ff2a67a2380",
          "topics": [
            "0x367184f1bb13aa656fb065e5e2b1104b30f71206d03961639cac77f3a6b33176",
            "0x0000000000000000000000003eeecc9baba5d3537fdc926dc84ccc761cea481b"
          ],
          "data": "0x",
          "blockHash": "0xfe182df83d8592b607eff509bfe4eff823c766449b8b2df7a7616895de7e47d0",
          "blockNumber": "0x7da72a",
          "blockTimestamp": "0x67e39564",
          "transactionHash": "0x9d14dd1396cdc5099933bd144fb63f714ed550c8ef46e343ba3efd6dc9a37560",
          "transactionIndex": "0x1",
          "logIndex": "0x4",
          "removed": false
        },
        {
          "address": "0x0000000000000000000000000000000000008006",
          "topics": [
            "0x290afdae231a3fc0bbae8b1af63698b0a1d79b21ad17df0342dfb952fe74f8e5",
            "0x0000000000000000000000009b1333975887420fe20c172eb926eef6ed4d9bd6",
            "0x0100007333a2d77a8d9bf79c65af3ac6a0f37721e02d9ec2b0f662128ea4e23e",
            "0x00000000000000000000000001fc118cebc15293782464de58836ff2a67a2380"
          ],
          "data": "0x",
          "blockHash": "0xfe182df83d8592b607eff509bfe4eff823c766449b8b2df7a7616895de7e47d0",
          "blockNumber": "0x7da72a",
          "blockTimestamp": "0x67e39564",
          "transactionHash": "0x9d14dd1396cdc5099933bd144fb63f714ed550c8ef46e343ba3efd6dc9a37560",
          "transactionIndex": "0x1",
          "logIndex": "0x5",
          "removed": false
        },
        {
          "address": "0x01fc118cebc15293782464de58836ff2a67a2380",
          "topics": [
            "0x8be0079c531659141344cd1fd0a4f28419497f9722a3daafe3b4186f6b6457e0",
            "0x0000000000000000000000000000000000000000000000000000000000000000",
            "0x0000000000000000000000009b1333975887420fe20c172eb926eef6ed4d9bd6"
          ],
          "data": "0x",
          "blockHash": "0xfe182df83d8592b607eff509bfe4eff823c766449b8b2df7a7616895de7e47d0",
          "blockNumber": "0x7da72a",
          "blockTimestamp": "0x67e39564",
          "transactionHash": "0x9d14dd1396cdc5099933bd144fb63f714ed550c8ef46e343ba3efd6dc9a37560",
          "transactionIndex": "0x1",
          "logIndex": "0x6",
          "removed": false
        },
        {
          "address": "0x01fc118cebc15293782464de58836ff2a67a2380",
          "topics": [
            "0xc7f505b2f371ae2175ee4913f4499e1f2633a7b5936321eed1cdaeb6115181d2"
          ],
          "data": "0x0000000000000000000000000000000000000000000000000000000000000001",
          "blockHash": "0xfe182df83d8592b607eff509bfe4eff823c766449b8b2df7a7616895de7e47d0",
          "blockNumber": "0x7da72a",
          "blockTimestamp": "0x67e39564",
          "transactionHash": "0x9d14dd1396cdc5099933bd144fb63f714ed550c8ef46e343ba3efd6dc9a37560",
          "transactionIndex": "0x1",
          "logIndex": "0x7",
          "removed": false
        },
        {
          "address": "0x01fc118cebc15293782464de58836ff2a67a2380",
          "topics": [
            "0x8be0079c531659141344cd1fd0a4f28419497f9722a3daafe3b4186f6b6457e0",
            "0x0000000000000000000000009b1333975887420fe20c172eb926eef6ed4d9bd6",
            "0x000000000000000000000000a99526e4dc81b85c1d248ca974eadce81837ecf1"
          ],
          "data": "0x",
          "blockHash": "0xfe182df83d8592b607eff509bfe4eff823c766449b8b2df7a7616895de7e47d0",
          "blockNumber": "0x7da72a",
          "blockTimestamp": "0x67e39564",
          "transactionHash": "0x9d14dd1396cdc5099933bd144fb63f714ed550c8ef46e343ba3efd6dc9a37560",
          "transactionIndex": "0x1",
          "logIndex": "0x8",
          "removed": false
        },
        {
          "address": "0x9b1333975887420fe20c172eb926eef6ed4d9bd6",
          "topics": [
            "0x171ccc46ca30ce15b8e391d7e1db8cf7644ed26a313b10df70a92b13da343541",
            "0x00000000000000000000000001fc118cebc15293782464de58836ff2a67a2380",
            "0x000000000000000000000000a99526e4dc81b85c1d248ca974eadce81837ecf1"
          ],
          "data": "0x",
          "blockHash": "0xfe182df83d8592b607eff509bfe4eff823c766449b8b2df7a7616895de7e47d0",
          "blockNumber": "0x7da72a",
          "blockTimestamp": "0x67e39564",
          "transactionHash": "0x9d14dd1396cdc5099933bd144fb63f714ed550c8ef46e343ba3efd6dc9a37560",
          "transactionIndex": "0x1",
          "logIndex": "0x9",
          "removed": false
        },
        {
          "address": "0x9b1333975887420fe20c172eb926eef6ed4d9bd6",
          "topics": [
            "0x2229e9930d25a4974976f5fb5461a33fcd0fefa19393ad50af745b5fa4ccce8b",
            "0x00000000000000000000000001fc118cebc15293782464de58836ff2a67a2380"
          ],
          "data": "0x000000000000000000000000000000000000000000000000000000000000002000000000000000000000000000000000000000000000000000000000000000045045504500000000000000000000000000000000000000000000000000000000",
          "blockHash": "0xfe182df83d8592b607eff509bfe4eff823c766449b8b2df7a7616895de7e47d0",
          "blockNumber": "0x7da72a",
          "blockTimestamp": "0x67e39564",
          "transactionHash": "0x9d14dd1396cdc5099933bd144fb63f714ed550c8ef46e343ba3efd6dc9a37560",
          "transactionIndex": "0x1",
          "logIndex": "0xa",
          "removed": false
        },
        {
          "address": "0x939cc34de4edc8ddb21326963bc028299ccbdc3e",
          "topics": [
            "0x5902eed5cd330f690551c9c5095eacb178efeaf6896420b9473fa373b2313f1a",
            "0x00000000000000000000000001fc118cebc15293782464de58836ff2a67a2380",
            "0x0000000000000000000000000000000000000000000000000000000000000002"
          ],
          "data": "0x000000000000000000000000000000000000000000000000000000000000002000000000000000000000000000000000000000000000000000000000000000095261726520506570650000000000000000000000000000000000000000000000",
          "blockHash": "0xfe182df83d8592b607eff509bfe4eff823c766449b8b2df7a7616895de7e47d0",
          "blockNumber": "0x7da72a",
          "blockTimestamp": "0x67e39564",
          "transactionHash": "0x9d14dd1396cdc5099933bd144fb63f714ed550c8ef46e343ba3efd6dc9a37560",
          "transactionIndex": "0x1",
          "logIndex": "0xb",
          "removed": false
        },
        {
          "address": "0x000000000000000000000000000000000000800a",
          "topics": [
            "0xddf252ad1be2c89b69c2b068fc378daa952ba7f163c4a11628f55a4df523b3ef",
            "0x0000000000000000000000000000000000000000000000000000000000008001",
            "0x000000000000000000000000a99526e4dc81b85c1d248ca974eadce81837ecf1"
          ],
          "data": "0x000000000000000000000000000000000000000000000000000003d42ba23200",
          "blockHash": "0xfe182df83d8592b607eff509bfe4eff823c766449b8b2df7a7616895de7e47d0",
          "blockNumber": "0x7da72a",
          "blockTimestamp": "0x67e39564",
          "transactionHash": "0x9d14dd1396cdc5099933bd144fb63f714ed550c8ef46e343ba3efd6dc9a37560",
          "transactionIndex": "0x1",
          "logIndex": "0xc",
          "removed": false
        }
      ],
      "logsBloom": "0x0400000000040020000000000000200000000000000010000080000000000000000000000000000000000000000000000000000000000000000000400000000000000010000004000000040800004002010120000001000040000000000008000000000002000000000000000000080000000001040000000000001020000040800000000000000000080400400002000000010000008000000010000400000000000000100410000040015080000000080000000000000000300001000000000000000200c000000000000000000000000000000104000000010200000020000010000000000000000000000000000000000000008000800000000040401000",
      "type": "0x71",
      "transactionHash": "0x9d14dd1396cdc5099933bd144fb63f714ed550c8ef46e343ba3efd6dc9a37560",
      "transactionIndex": "0x1",
      "blockHash": "0xfe182df83d8592b607eff509bfe4eff823c766449b8b2df7a7616895de7e47d0",
      "blockNumber": "0x7da72a",
      "gasUsed": "0x35225",
      "effectiveGasPrice": "0x17d7840",
      "from": "0xa99526e4dc81b85c1d248ca974eadce81837ecf1",
      "to": "0x939cc34de4edc8ddb21326963bc028299ccbdc3e",
      "contractAddress": "0x01fc118cebc15293782464de58836ff2a67a2380",
      "l1BatchNumber": null,
      "l1BatchTxIndex": null,
      "l2ToL1Logs": []
    },
    {
      "status": "0x1",
      "cumulativeGasUsed": "0x0",
      "logs": [
        {
          "address": "0x000000000000000000000000000000000000800a",
          "topics": [
            "0xddf252ad1be2c89b69c2b068fc378daa952ba7f163c4a11628f55a4df523b3ef",
            "0x000000000000000000000000a99526e4dc81b85c1d248ca974eadce81837ecf1",
            "0x0000000000000000000000000000000000000000000000000000000000008001"
          ],
          "data": "0x000000000000000000000000000000000000000000000000000008c6fc091340",
          "blockHash": "0x865022fed47805df6dd91fa6fd7a9c3353943451a715c81d1bad1876d7fdc2e5",
          "blockNumber": "0x7da72b",
          "blockTimestamp": "0x67e39567",
          "transactionHash": "0xcced0f63551a728b0135ab8a072d2d50071b48310278433e4c94ede487f8c7b7",
          "transactionIndex": "0x0",
          "logIndex": "0x0",
          "removed": false
        },
        {
          "address": "0xee8deb37d8fb422a6f77b06657556cd2ee36da3d",
          "topics": [
            "0x367184f1bb13aa656fb065e5e2b1104b30f71206d03961639cac77f3a6b33176",
            "0x0000000000000000000000003eeecc9baba5d3537fdc926dc84ccc761cea481b"
          ],
          "data": "0x",
          "blockHash": "0x865022fed47805df6dd91fa6fd7a9c3353943451a715c81d1bad1876d7fdc2e5",
          "blockNumber": "0x7da72b",
          "blockTimestamp": "0x67e39567",
          "transactionHash": "0xcced0f63551a728b0135ab8a072d2d50071b48310278433e4c94ede487f8c7b7",
          "transactionIndex": "0x0",
          "logIndex": "0x1",
          "removed": false
        },
        {
          "address": "0x0000000000000000000000000000000000008006",
          "topics": [
            "0x290afdae231a3fc0bbae8b1af63698b0a1d79b21ad17df0342dfb952fe74f8e5",
            "0x0000000000000000000000009b1333975887420fe20c172eb926eef6ed4d9bd6",
            "0x0100007333a2d77a8d9bf79c65af3ac6a0f37721e02d9ec2b0f662128ea4e23e",
            "0x000000000000000000000000ee8deb37d8fb422a6f77b06657556cd2ee36da3d"
          ],
          "data": "0x",
          "blockHash": "0x865022fed47805df6dd91fa6fd7a9c3353943451a715c81d1bad1876d7fdc2e5",
          "blockNumber": "0x7da72b",
          "blockTimestamp": "0x67e39567",
          "transactionHash": "0xcced0f63551a728b0135ab8a072d2d50071b48310278433e4c94ede487f8c7b7",
          "transactionIndex": "0x0",
          "logIndex": "0x2",
          "removed": false
        },
        {
          "address": "0xee8deb37d8fb422a6f77b06657556cd2ee36da3d",
          "topics": [
            "0x8be0079c531659141344cd1fd0a4f28419497f9722a3daafe3b4186f6b6457e0",
            "0x0000000000000000000000000000000000000000000000000000000000000000",
            "0x0000000000000000000000009b1333975887420fe20c172eb926eef6ed4d9bd6"
          ],
          "data": "0x",
          "blockHash": "0x865022fed47805df6dd91fa6fd7a9c3353943451a715c81d1bad1876d7fdc2e5",
          "blockNumber": "0x7da72b",
          "blockTimestamp": "0x67e39567",
          "transactionHash": "0xcced0f63551a728b0135ab8a072d2d50071b48310278433e4c94ede487f8c7b7",
          "transactionIndex": "0x0",
          "logIndex": "0x3",
          "removed": false
        },
        {
          "address": "0xee8deb37d8fb422a6f77b06657556cd2ee36da3d",
          "topics": [
            "0xc7f505b2f371ae2175ee4913f4499e1f2633a7b5936321eed1cdaeb6115181d2"
          ],
          "data": "0x0000000000000000000000000000000000000000000000000000000000000001",
          "blockHash": "0x865022fed47805df6dd91fa6fd7a9c3353943451a715c81d1bad1876d7fdc2e5",
          "blockNumber": "0x7da72b",
          "blockTimestamp": "0x67e39567",
          "transactionHash": "0xcced0f63551a728b0135ab8a072d2d50071b48310278433e4c94ede487f8c7b7",
          "transactionIndex": "0x0",
          "logIndex": "0x4",
          "removed": false
        },
        {
          "address": "0xee8deb37d8fb422a6f77b06657556cd2ee36da3d",
          "topics": [
            "0x8be0079c531659141344cd1fd0a4f28419497f9722a3daafe3b4186f6b6457e0",
            "0x0000000000000000000000009b1333975887420fe20c172eb926eef6ed4d9bd6",
            "0x000000000000000000000000a99526e4dc81b85c1d248ca974eadce81837ecf1"
          ],
          "data": "0x",
          "blockHash": "0x865022fed47805df6dd91fa6fd7a9c3353943451a715c81d1bad1876d7fdc2e5",
          "blockNumber": "0x7da72b",
          "blockTimestamp": "0x67e39567",
          "transactionHash": "0xcced0f63551a728b0135ab8a072d2d50071b48310278433e4c94ede487f8c7b7",
          "transactionIndex": "0x0",
          "logIndex": "0x5",
          "removed": false
        },
        {
          "address": "0x9b1333975887420fe20c172eb926eef6ed4d9bd6",
          "topics": [
            "0x171ccc46ca30ce15b8e391d7e1db8cf7644ed26a313b10df70a92b13da343541",
            "0x000000000000000000000000ee8deb37d8fb422a6f77b06657556cd2ee36da3d",
            "0x000000000000000000000000a99526e4dc81b85c1d248ca974eadce81837ecf1"
          ],
          "data": "0x",
          "blockHash": "0x865022fed47805df6dd91fa6fd7a9c3353943451a715c81d1bad1876d7fdc2e5",
          "blockNumber": "0x7da72b",
          "blockTimestamp": "0x67e39567",
          "transactionHash": "0xcced0f63551a728b0135ab8a072d2d50071b48310278433e4c94ede487f8c7b7",
          "transactionIndex": "0x0",
          "logIndex": "0x6",
          "removed": false
        },
        {
          "address": "0x9b1333975887420fe20c172eb926eef6ed4d9bd6",
          "topics": [
            "0x2229e9930d25a4974976f5fb5461a33fcd0fefa19393ad50af745b5fa4ccce8b",
            "0x000000000000000000000000ee8deb37d8fb422a6f77b06657556cd2ee36da3d"
          ],
          "data": "0x00000000000000000000000000000000000000000000000000000000000000200000000000000000000000000000000000000000000000000000000000000003534f470000000000000000000000000000000000000000000000000000000000",
          "blockHash": "0x865022fed47805df6dd91fa6fd7a9c3353943451a715c81d1bad1876d7fdc2e5",
          "blockNumber": "0x7da72b",
          "blockTimestamp": "0x67e39567",
          "transactionHash": "0xcced0f63551a728b0135ab8a072d2d50071b48310278433e4c94ede487f8c7b7",
          "transactionIndex": "0x0",
          "logIndex": "0x7",
          "removed": false
        },
        {
          "address": "0x939cc34de4edc8ddb21326963bc028299ccbdc3e",
          "topics": [
            "0x5902eed5cd330f690551c9c5095eacb178efeaf6896420b9473fa373b2313f1a",
            "0x000000000000000000000000ee8deb37d8fb422a6f77b06657556cd2ee36da3d",
            "0x0000000000000000000000000000000000000000000000000000000000000002"
          ],
          "data": "0x000000000000000000000000000000000000000000000000000000000000002000000000000000000000000000000000000000000000000000000000000000115370656c6c73206f662047656e65736973000000000000000000000000000000",
          "blockHash": "0x865022fed47805df6dd91fa6fd7a9c3353943451a715c81d1bad1876d7fdc2e5",
          "blockNumber": "0x7da72b",
          "blockTimestamp": "0x67e39567",
          "transactionHash": "0xcced0f63551a728b0135ab8a072d2d50071b48310278433e4c94ede487f8c7b7",
          "transactionIndex": "0x0",
          "logIndex": "0x8",
          "removed": false
        },
        {
          "address": "0x000000000000000000000000000000000000800a",
          "topics": [
            "0xddf252ad1be2c89b69c2b068fc378daa952ba7f163c4a11628f55a4df523b3ef",
            "0x0000000000000000000000000000000000000000000000000000000000008001",
            "0x000000000000000000000000a99526e4dc81b85c1d248ca974eadce81837ecf1"
          ],
          "data": "0x00000000000000000000000000000000000000000000000000000504e3366180",
          "blockHash": "0x865022fed47805df6dd91fa6fd7a9c3353943451a715c81d1bad1876d7fdc2e5",
          "blockNumber": "0x7da72b",
          "blockTimestamp": "0x67e39567",
          "transactionHash": "0xcced0f63551a728b0135ab8a072d2d50071b48310278433e4c94ede487f8c7b7",
          "transactionIndex": "0x0",
          "logIndex": "0x9",
          "removed": false
        }
      ],
      "logsBloom": "0x0400000000040020000000000000000000000000000010000080000000000000000000000000000000000000000000000020000000000000000000400000000000000010000004000000040800004002010120000000000000000000800008000000000002000001000000000000080000000001040000000000001020000040800000000000000000080400400000000000010000808000000010000400000000000000180010000040015080000000080000000000000000300001000000000000000200c000000000000000000000000000000104000000010200000020000010000000010000000000000000000000000000008000800000000000401000",
      "type": "0x71",
      "transactionHash": "0xcced0f63551a728b0135ab8a072d2d50071b48310278433e4c94ede487f8c7b7",
      "transactionIndex": "0x0",
      "blockHash": "0x865022fed47805df6dd91fa6fd7a9c3353943451a715c81d1bad1876d7fdc2e5",
      "blockNumber": "0x7da72b",
      "gasUsed": "0x285a7",
      "effectiveGasPrice": "0x17d7840",
      "from": "0xa99526e4dc81b85c1d248ca974eadce81837ecf1",
      "to": "0x939cc34de4edc8ddb21326963bc028299ccbdc3e",
      "contractAddress": "0xee8deb37d8fb422a6f77b06657556cd2ee36da3d",
      "l1BatchNumber": null,
      "l1BatchTxIndex": null,
      "l2ToL1Logs": []
    },
    {
      "status": "0x1",
      "cumulativeGasUsed": "0x0",
      "logs": [
        {
          "address": "0x000000000000000000000000000000000000800a",
          "topics": [
            "0xddf252ad1be2c89b69c2b068fc378daa952ba7f163c4a11628f55a4df523b3ef",
            "0x000000000000000000000000a99526e4dc81b85c1d248ca974eadce81837ecf1",
            "0x0000000000000000000000000000000000000000000000000000000000008001"
          ],
          "data": "0x000000000000000000000000000000000000000000000000000008c6fc091340",
          "blockHash": "0x6076b82ba2d8de03c47a15e0f0936d20fa55f315cc7fbff530485056455e4b2b",
          "blockNumber": "0x7da72d",
          "blockTimestamp": "0x67e3956a",
          "transactionHash": "0xd723fe1777a57f257ea0d4ed80f8c2b516a1d7c7e480fbb32cad1565457928be",
          "transactionIndex": "0x1",
          "logIndex": "0x8",
          "removed": false
        },
        {
          "address": "0xdb0ac65d5c899513506a6cb80a60fba782d0a29c",
          "topics": [
            "0x367184f1bb13aa656fb065e5e2b1104b30f71206d03961639cac77f3a6b33176",
            "0x0000000000000000000000003eeecc9baba5d3537fdc926dc84ccc761cea481b"
          ],
          "data": "0x",
          "blockHash": "0x6076b82ba2d8de03c47a15e0f0936d20fa55f315cc7fbff530485056455e4b2b",
          "blockNumber": "0x7da72d",
          "blockTimestamp": "0x67e3956a",
          "transactionHash": "0xd723fe1777a57f257ea0d4ed80f8c2b516a1d7c7e480fbb32cad1565457928be",
          "transactionIndex": "0x1",
          "logIndex": "0x9",
          "removed": false
        },
        {
          "address": "0x0000000000000000000000000000000000008006",
          "topics": [
            "0x290afdae231a3fc0bbae8b1af63698b0a1d79b21ad17df0342dfb952fe74f8e5",
            "0x0000000000000000000000009b1333975887420fe20c172eb926eef6ed4d9bd6",
            "0x0100007333a2d77a8d9bf79c65af3ac6a0f37721e02d9ec2b0f662128ea4e23e",
            "0x000000000000000000000000db0ac65d5c899513506a6cb80a60fba782d0a29c"
          ],
          "data": "0x",
          "blockHash": "0x6076b82ba2d8de03c47a15e0f0936d20fa55f315cc7fbff530485056455e4b2b",
          "blockNumber": "0x7da72d",
          "blockTimestamp": "0x67e3956a",
          "transactionHash": "0xd723fe1777a57f257ea0d4ed80f8c2b516a1d7c7e480fbb32cad1565457928be",
          "transactionIndex": "0x1",
          "logIndex": "0xa",
          "removed": false
        },
        {
          "address": "0xdb0ac65d5c899513506a6cb80a60fba782d0a29c",
          "topics": [
            "0x8be0079c531659141344cd1fd0a4f28419497f9722a3daafe3b4186f6b6457e0",
            "0x0000000000000000000000000000000000000000000000000000000000000000",
            "0x0000000000000000000000009b1333975887420fe20c172eb926eef6ed4d9bd6"
          ],
          "data": "0x",
          "blockHash": "0x6076b82ba2d8de03c47a15e0f0936d20fa55f315cc7fbff530485056455e4b2b",
          "blockNumber": "0x7da72d",
          "blockTimestamp": "0x67e3956a",
          "transactionHash": "0xd723fe1777a57f257ea0d4ed80f8c2b516a1d7c7e480fbb32cad1565457928be",
          "transactionIndex": "0x1",
          "logIndex": "0xb",
          "removed": false
        },
        {
          "address": "0xdb0ac65d5c899513506a6cb80a60fba782d0a29c",
          "topics": [
            "0xc7f505b2f371ae2175ee4913f4499e1f2633a7b5936321eed1cdaeb6115181d2"
          ],
          "data": "0x0000000000000000000000000000000000000000000000000000000000000001",
          "blockHash": "0x6076b82ba2d8de03c47a15e0f0936d20fa55f315cc7fbff530485056455e4b2b",
          "blockNumber": "0x7da72d",
          "blockTimestamp": "0x67e3956a",
          "transactionHash": "0xd723fe1777a57f257ea0d4ed80f8c2b516a1d7c7e480fbb32cad1565457928be",
          "transactionIndex": "0x1",
          "logIndex": "0xc",
          "removed": false
        },
        {
          "address": "0xdb0ac65d5c899513506a6cb80a60fba782d0a29c",
          "topics": [
            "0x8be0079c531659141344cd1fd0a4f28419497f9722a3daafe3b4186f6b6457e0",
            "0x0000000000000000000000009b1333975887420fe20c172eb926eef6ed4d9bd6",
            "0x000000000000000000000000a99526e4dc81b85c1d248ca974eadce81837ecf1"
          ],
          "data": "0x",
          "blockHash": "0x6076b82ba2d8de03c47a15e0f0936d20fa55f315cc7fbff530485056455e4b2b",
          "blockNumber": "0x7da72d",
          "blockTimestamp": "0x67e3956a",
          "transactionHash": "0xd723fe1777a57f257ea0d4ed80f8c2b516a1d7c7e480fbb32cad1565457928be",
          "transactionIndex": "0x1",
          "logIndex": "0xd",
          "removed": false
        },
        {
          "address": "0x9b1333975887420fe20c172eb926eef6ed4d9bd6",
          "topics": [
            "0x171ccc46ca30ce15b8e391d7e1db8cf7644ed26a313b10df70a92b13da343541",
            "0x000000000000000000000000db0ac65d5c899513506a6cb80a60fba782d0a29c",
            "0x000000000000000000000000a99526e4dc81b85c1d248ca974eadce81837ecf1"
          ],
          "data": "0x",
          "blockHash": "0x6076b82ba2d8de03c47a15e0f0936d20fa55f315cc7fbff530485056455e4b2b",
          "blockNumber": "0x7da72d",
          "blockTimestamp": "0x67e3956a",
          "transactionHash": "0xd723fe1777a57f257ea0d4ed80f8c2b516a1d7c7e480fbb32cad1565457928be",
          "transactionIndex": "0x1",
          "logIndex": "0xe",
          "removed": false
        },
        {
          "address": "0x9b1333975887420fe20c172eb926eef6ed4d9bd6",
          "topics": [
            "0x2229e9930d25a4974976f5fb5461a33fcd0fefa19393ad50af745b5fa4ccce8b",
            "0x000000000000000000000000db0ac65d5c899513506a6cb80a60fba782d0a29c"
          ],
          "data": "0x0000000000000000000000000000000000000000000000000000000000000020000000000000000000000000000000000000000000000000000000000000000446414b4500000000000000000000000000000000000000000000000000000000",
          "blockHash": "0x6076b82ba2d8de03c47a15e0f0936d20fa55f315cc7fbff530485056455e4b2b",
          "blockNumber": "0x7da72d",
          "blockTimestamp": "0x67e3956a",
          "transactionHash": "0xd723fe1777a57f257ea0d4ed80f8c2b516a1d7c7e480fbb32cad1565457928be",
          "transactionIndex": "0x1",
          "logIndex": "0xf",
          "removed": false
        },
        {
          "address": "0x939cc34de4edc8ddb21326963bc028299ccbdc3e",
          "topics": [
            "0x5902eed5cd330f690551c9c5095eacb178efeaf6896420b9473fa373b2313f1a",
            "0x000000000000000000000000db0ac65d5c899513506a6cb80a60fba782d0a29c",
            "0x0000000000000000000000000000000000000000000000000000000000000002"
          ],
          "data": "0x0000000000000000000000000000000000000000000000000000000000000020000000000000000000000000000000000000000000000000000000000000000a46616b6520526172657300000000000000000000000000000000000000000000",
          "blockHash": "0x6076b82ba2d8de03c47a15e0f0936d20fa55f315cc7fbff530485056455e4b2b",
          "blockNumber": "0x7da72d",
          "blockTimestamp": "0x67e3956a",
          "transactionHash": "0xd723fe1777a57f257ea0d4ed80f8c2b516a1d7c7e480fbb32cad1565457928be",
          "transactionIndex": "0x1",
          "logIndex": "0x10",
          "removed": false
        },
        {
          "address": "0x000000000000000000000000000000000000800a",
          "topics": [
            "0xddf252ad1be2c89b69c2b068fc378daa952ba7f163c4a11628f55a4df523b3ef",
            "0x0000000000000000000000000000000000000000000000000000000000008001",
            "0x000000000000000000000000a99526e4dc81b85c1d248ca974eadce81837ecf1"
          ],
          "data": "0x00000000000000000000000000000000000000000000000000000504e3366180",
          "blockHash": "0x6076b82ba2d8de03c47a15e0f0936d20fa55f315cc7fbff530485056455e4b2b",
          "blockNumber": "0x7da72d",
          "blockTimestamp": "0x67e3956a",
          "transactionHash": "0xd723fe1777a57f257ea0d4ed80f8c2b516a1d7c7e480fbb32cad1565457928be",
          "transactionIndex": "0x1",
          "logIndex": "0x11",
          "removed": false
        }
      ],
      "logsBloom": "0x0400000000040020000000000000000000000000000010000080000000000000000000000000000000000000000000000000000000000000000000500000000000400010000004000000040800004002010120040000000000000000000008000000000002000000000000000000080000000001040000000000001020000040800000000002000000080400400000000000010000008000000010000400000000000000100010000040015080000000080000000000000000300001000000000000000200c000000000400000000000000000000104000000010200000020000010000000000000000000008000000000000000008000800000000000401000",
      "type": "0x71",
      "transactionHash": "0xd723fe1777a57f257ea0d4ed80f8c2b516a1d7c7e480fbb32cad1565457928be",
      "transactionIndex": "0x1",
      "blockHash": "0x6076b82ba2d8de03c47a15e0f0936d20fa55f315cc7fbff530485056455e4b2b",
      "blockNumber": "0x7da72d",
      "gasUsed": "0x285a7",
      "effectiveGasPrice": "0x17d7840",
      "from": "0xa99526e4dc81b85c1d248ca974eadce81837ecf1",
      "to": "0x939cc34de4edc8ddb21326963bc028299ccbdc3e",
      "contractAddress": "0xdb0ac65d5c899513506a6cb80a60fba782d0a29c",
      "l1BatchNumber": null,
      "l1BatchTxIndex": null,
      "l2ToL1Logs": []
    },
    {
      "status": "0x1",
      "cumulativeGasUsed": "0x0",
      "logs": [
        {
          "address": "0x000000000000000000000000000000000000800a",
          "topics": [
            "0xddf252ad1be2c89b69c2b068fc378daa952ba7f163c4a11628f55a4df523b3ef",
            "0x000000000000000000000000a99526e4dc81b85c1d248ca974eadce81837ecf1",
            "0x0000000000000000000000000000000000000000000000000000000000008001"
          ],
          "data": "0x00000000000000000000000000000000000000000000000000000a35c0408bc0",
          "blockHash": "0x56d737299e99d9d6f5a04300031a95915ddecffce658fcaef276ccddd52e1b77",
          "blockNumber": "0x7da730",
          "blockTimestamp": "0x67e3956e",
          "transactionHash": "0x6d65f41666d556890671ac1ec7d06b3737844579465d710197945c6bd36ddbab",
          "transactionIndex": "0x0",
          "logIndex": "0x0",
          "removed": false
        },
        {
          "address": "0xf98f9abbc52d738ec1f11a42dfbf558f687e45b3",
          "topics": [
            "0x367184f1bb13aa656fb065e5e2b1104b30f71206d03961639cac77f3a6b33176",
            "0x0000000000000000000000007eca29e1fb3d77b51a3a0764b77382eaa63d31fa"
          ],
          "data": "0x",
          "blockHash": "0x56d737299e99d9d6f5a04300031a95915ddecffce658fcaef276ccddd52e1b77",
          "blockNumber": "0x7da730",
          "blockTimestamp": "0x67e3956e",
          "transactionHash": "0x6d65f41666d556890671ac1ec7d06b3737844579465d710197945c6bd36ddbab",
          "transactionIndex": "0x0",
          "logIndex": "0x1",
          "removed": false
        },
        {
          "address": "0x0000000000000000000000000000000000008006",
          "topics": [
            "0x290afdae231a3fc0bbae8b1af63698b0a1d79b21ad17df0342dfb952fe74f8e5",
            "0x0000000000000000000000009b1333975887420fe20c172eb926eef6ed4d9bd6",
            "0x010000730b2e866aa31bbb01096bff748f89f4c5b2af92f4626e92148d9b5dd9",
            "0x000000000000000000000000f98f9abbc52d738ec1f11a42dfbf558f687e45b3"
          ],
          "data": "0x",
          "blockHash": "0x56d737299e99d9d6f5a04300031a95915ddecffce658fcaef276ccddd52e1b77",
          "blockNumber": "0x7da730",
          "blockTimestamp": "0x67e3956e",
          "transactionHash": "0x6d65f41666d556890671ac1ec7d06b3737844579465d710197945c6bd36ddbab",
          "transactionIndex": "0x0",
          "logIndex": "0x2",
          "removed": false
        },
        {
          "address": "0xf98f9abbc52d738ec1f11a42dfbf558f687e45b3",
          "topics": [
            "0x8be0079c531659141344cd1fd0a4f28419497f9722a3daafe3b4186f6b6457e0",
            "0x0000000000000000000000000000000000000000000000000000000000000000",
            "0x0000000000000000000000009b1333975887420fe20c172eb926eef6ed4d9bd6"
          ],
          "data": "0x",
          "blockHash": "0x56d737299e99d9d6f5a04300031a95915ddecffce658fcaef276ccddd52e1b77",
          "blockNumber": "0x7da730",
          "blockTimestamp": "0x67e3956e",
          "transactionHash": "0x6d65f41666d556890671ac1ec7d06b3737844579465d710197945c6bd36ddbab",
          "transactionIndex": "0x0",
          "logIndex": "0x3",
          "removed": false
        },
        {
          "address": "0xf98f9abbc52d738ec1f11a42dfbf558f687e45b3",
          "topics": [
            "0xc7f505b2f371ae2175ee4913f4499e1f2633a7b5936321eed1cdaeb6115181d2"
          ],
          "data": "0x0000000000000000000000000000000000000000000000000000000000000001",
          "blockHash": "0x56d737299e99d9d6f5a04300031a95915ddecffce658fcaef276ccddd52e1b77",
          "blockNumber": "0x7da730",
          "blockTimestamp": "0x67e3956e",
          "transactionHash": "0x6d65f41666d556890671ac1ec7d06b3737844579465d710197945c6bd36ddbab",
          "transactionIndex": "0x0",
          "logIndex": "0x4",
          "removed": false
        },
        {
          "address": "0xf98f9abbc52d738ec1f11a42dfbf558f687e45b3",
          "topics": [
            "0x8be0079c531659141344cd1fd0a4f28419497f9722a3daafe3b4186f6b6457e0",
            "0x0000000000000000000000009b1333975887420fe20c172eb926eef6ed4d9bd6",
            "0x000000000000000000000000a99526e4dc81b85c1d248ca974eadce81837ecf1"
          ],
          "data": "0x",
          "blockHash": "0x56d737299e99d9d6f5a04300031a95915ddecffce658fcaef276ccddd52e1b77",
          "blockNumber": "0x7da730",
          "blockTimestamp": "0x67e3956e",
          "transactionHash": "0x6d65f41666d556890671ac1ec7d06b3737844579465d710197945c6bd36ddbab",
          "transactionIndex": "0x0",
          "logIndex": "0x5",
          "removed": false
        },
        {
          "address": "0x9b1333975887420fe20c172eb926eef6ed4d9bd6",
          "topics": [
            "0x171ccc46ca30ce15b8e391d7e1db8cf7644ed26a313b10df70a92b13da343541",
            "0x000000000000000000000000f98f9abbc52d738ec1f11a42dfbf558f687e45b3",
            "0x000000000000000000000000a99526e4dc81b85c1d248ca974eadce81837ecf1"
          ],
          "data": "0x",
          "blockHash": "0x56d737299e99d9d6f5a04300031a95915ddecffce658fcaef276ccddd52e1b77",
          "blockNumber": "0x7da730",
          "blockTimestamp": "0x67e3956e",
          "transactionHash": "0x6d65f41666d556890671ac1ec7d06b3737844579465d710197945c6bd36ddbab",
          "transactionIndex": "0x0",
          "logIndex": "0x6",
          "removed": false
        },
        {
          "address": "0x9b1333975887420fe20c172eb926eef6ed4d9bd6",
          "topics": [
            "0xc235116ab1fd2ce09ba4690b74e2e7782ddf6f4a49eda5a12e0c320f7c65ccd6",
            "0x000000000000000000000000f98f9abbc52d738ec1f11a42dfbf558f687e45b3"
          ],
          "data": "0x000000000000000000000000000000000000000000000000000000000000004000000000000000000000000000000000000000000000000000000000000000800000000000000000000000000000000000000000000000000000000000000007456d42656c6c7300000000000000000000000000000000000000000000000000000000000000000000000000000000000000000000000000000000000000000442454c4c00000000000000000000000000000000000000000000000000000000",
          "blockHash": "0x56d737299e99d9d6f5a04300031a95915ddecffce658fcaef276ccddd52e1b77",
          "blockNumber": "0x7da730",
          "blockTimestamp": "0x67e3956e",
          "transactionHash": "0x6d65f41666d556890671ac1ec7d06b3737844579465d710197945c6bd36ddbab",
          "transactionIndex": "0x0",
          "logIndex": "0x7",
          "removed": false
        },
        {
          "address": "0x939cc34de4edc8ddb21326963bc028299ccbdc3e",
          "topics": [
            "0x5902eed5cd330f690551c9c5095eacb178efeaf6896420b9473fa373b2313f1a",
            "0x000000000000000000000000f98f9abbc52d738ec1f11a42dfbf558f687e45b3",
            "0x0000000000000000000000000000000000000000000000000000000000000001"
          ],
          "data": "0x00000000000000000000000000000000000000000000000000000000000000200000000000000000000000000000000000000000000000000000000000000007456d42656c6c7300000000000000000000000000000000000000000000000000",
          "blockHash": "0x56d737299e99d9d6f5a04300031a95915ddecffce658fcaef276ccddd52e1b77",
          "blockNumber": "0x7da730",
          "blockTimestamp": "0x67e3956e",
          "transactionHash": "0x6d65f41666d556890671ac1ec7d06b3737844579465d710197945c6bd36ddbab",
          "transactionIndex": "0x0",
          "logIndex": "0x8",
          "removed": false
        },
        {
          "address": "0x000000000000000000000000000000000000800a",
          "topics": [
            "0xddf252ad1be2c89b69c2b068fc378daa952ba7f163c4a11628f55a4df523b3ef",
            "0x0000000000000000000000000000000000000000000000000000000000008001",
            "0x000000000000000000000000a99526e4dc81b85c1d248ca974eadce81837ecf1"
          ],
          "data": "0x000000000000000000000000000000000000000000000000000005520c311380",
          "blockHash": "0x56d737299e99d9d6f5a04300031a95915ddecffce658fcaef276ccddd52e1b77",
          "blockNumber": "0x7da730",
          "blockTimestamp": "0x67e3956e",
          "transactionHash": "0x6d65f41666d556890671ac1ec7d06b3737844579465d710197945c6bd36ddbab",
          "transactionIndex": "0x0",
          "logIndex": "0x9",
          "removed": false
        }
      ],
      "logsBloom": "0x0000000000040000000000000010000000000000000000000080000000000000001000000000000000000400000000000000080000000000000000400004000000000000000004000000040800004002010100000004000000000000000008000000000002000000000000000000080000000001040000000000001000000040800000000000000000080400400000000000010000008000000010000400000001000000100010000040005080000000000000002000000010300001000080000000000200d000000000000000000000008000000144000000010000000060000010000000000001000000000000000040000000000000800000000000400040",
      "type": "0x71",
      "transactionHash": "0x6d65f41666d556890671ac1ec7d06b3737844579465d710197945c6bd36ddbab",
      "transactionIndex": "0x0",
      "blockHash": "0x56d737299e99d9d6f5a04300031a95915ddecffce658fcaef276ccddd52e1b77",
      "blockNumber": "0x7da730",
      "gasUsed": "0x34801",
      "effectiveGasPrice": "0x17d7840",
      "from": "0xa99526e4dc81b85c1d248ca974eadce81837ecf1",
      "to": "0x939cc34de4edc8ddb21326963bc028299ccbdc3e",
      "contractAddress": "0xf98f9abbc52d738ec1f11a42dfbf558f687e45b3",
      "l1BatchNumber": null,
      "l1BatchTxIndex": null,
      "l2ToL1Logs": []
    },
    {
      "status": "0x1",
      "cumulativeGasUsed": "0x0",
      "logs": [
        {
          "address": "0x000000000000000000000000000000000000800a",
          "topics": [
            "0xddf252ad1be2c89b69c2b068fc378daa952ba7f163c4a11628f55a4df523b3ef",
            "0x000000000000000000000000a99526e4dc81b85c1d248ca974eadce81837ecf1",
            "0x0000000000000000000000000000000000000000000000000000000000008001"
          ],
          "data": "0x00000000000000000000000000000000000000000000000000000a35c0408bc0",
          "blockHash": "0x2875b2c2f45839bc7790f0db4954044f9449580a1e49fc538738d475ad11a32b",
          "blockNumber": "0x7da732",
          "blockTimestamp": "0x67e39572",
          "transactionHash": "0x00b35f958d34452b53a69b51525826d19b8a3d128ac8ef164bea0de2985ef89a",
          "transactionIndex": "0x0",
          "logIndex": "0x0",
          "removed": false
        },
        {
          "address": "0x14acd43719888a2b48271f548d64b6dccfc0f572",
          "topics": [
            "0x367184f1bb13aa656fb065e5e2b1104b30f71206d03961639cac77f3a6b33176",
            "0x0000000000000000000000007eca29e1fb3d77b51a3a0764b77382eaa63d31fa"
          ],
          "data": "0x",
          "blockHash": "0x2875b2c2f45839bc7790f0db4954044f9449580a1e49fc538738d475ad11a32b",
          "blockNumber": "0x7da732",
          "blockTimestamp": "0x67e39572",
          "transactionHash": "0x00b35f958d34452b53a69b51525826d19b8a3d128ac8ef164bea0de2985ef89a",
          "transactionIndex": "0x0",
          "logIndex": "0x1",
          "removed": false
        },
        {
          "address": "0x0000000000000000000000000000000000008006",
          "topics": [
            "0x290afdae231a3fc0bbae8b1af63698b0a1d79b21ad17df0342dfb952fe74f8e5",
            "0x0000000000000000000000009b1333975887420fe20c172eb926eef6ed4d9bd6",
            "0x010000730b2e866aa31bbb01096bff748f89f4c5b2af92f4626e92148d9b5dd9",
            "0x00000000000000000000000014acd43719888a2b48271f548d64b6dccfc0f572"
          ],
          "data": "0x",
          "blockHash": "0x2875b2c2f45839bc7790f0db4954044f9449580a1e49fc538738d475ad11a32b",
          "blockNumber": "0x7da732",
          "blockTimestamp": "0x67e39572",
          "transactionHash": "0x00b35f958d34452b53a69b51525826d19b8a3d128ac8ef164bea0de2985ef89a",
          "transactionIndex": "0x0",
          "logIndex": "0x2",
          "removed": false
        },
        {
          "address": "0x14acd43719888a2b48271f548d64b6dccfc0f572",
          "topics": [
            "0x8be0079c531659141344cd1fd0a4f28419497f9722a3daafe3b4186f6b6457e0",
            "0x0000000000000000000000000000000000000000000000000000000000000000",
            "0x0000000000000000000000009b1333975887420fe20c172eb926eef6ed4d9bd6"
          ],
          "data": "0x",
          "blockHash": "0x2875b2c2f45839bc7790f0db4954044f9449580a1e49fc538738d475ad11a32b",
          "blockNumber": "0x7da732",
          "blockTimestamp": "0x67e39572",
          "transactionHash": "0x00b35f958d34452b53a69b51525826d19b8a3d128ac8ef164bea0de2985ef89a",
          "transactionIndex": "0x0",
          "logIndex": "0x3",
          "removed": false
        },
        {
          "address": "0x14acd43719888a2b48271f548d64b6dccfc0f572",
          "topics": [
            "0xc7f505b2f371ae2175ee4913f4499e1f2633a7b5936321eed1cdaeb6115181d2"
          ],
          "data": "0x0000000000000000000000000000000000000000000000000000000000000001",
          "blockHash": "0x2875b2c2f45839bc7790f0db4954044f9449580a1e49fc538738d475ad11a32b",
          "blockNumber": "0x7da732",
          "blockTimestamp": "0x67e39572",
          "transactionHash": "0x00b35f958d34452b53a69b51525826d19b8a3d128ac8ef164bea0de2985ef89a",
          "transactionIndex": "0x0",
          "logIndex": "0x4",
          "removed": false
        },
        {
          "address": "0x14acd43719888a2b48271f548d64b6dccfc0f572",
          "topics": [
            "0x8be0079c531659141344cd1fd0a4f28419497f9722a3daafe3b4186f6b6457e0",
            "0x0000000000000000000000009b1333975887420fe20c172eb926eef6ed4d9bd6",
            "0x000000000000000000000000a99526e4dc81b85c1d248ca974eadce81837ecf1"
          ],
          "data": "0x",
          "blockHash": "0x2875b2c2f45839bc7790f0db4954044f9449580a1e49fc538738d475ad11a32b",
          "blockNumber": "0x7da732",
          "blockTimestamp": "0x67e39572",
          "transactionHash": "0x00b35f958d34452b53a69b51525826d19b8a3d128ac8ef164bea0de2985ef89a",
          "transactionIndex": "0x0",
          "logIndex": "0x5",
          "removed": false
        },
        {
          "address": "0x9b1333975887420fe20c172eb926eef6ed4d9bd6",
          "topics": [
            "0x171ccc46ca30ce15b8e391d7e1db8cf7644ed26a313b10df70a92b13da343541",
            "0x00000000000000000000000014acd43719888a2b48271f548d64b6dccfc0f572",
            "0x000000000000000000000000a99526e4dc81b85c1d248ca974eadce81837ecf1"
          ],
          "data": "0x",
          "blockHash": "0x2875b2c2f45839bc7790f0db4954044f9449580a1e49fc538738d475ad11a32b",
          "blockNumber": "0x7da732",
          "blockTimestamp": "0x67e39572",
          "transactionHash": "0x00b35f958d34452b53a69b51525826d19b8a3d128ac8ef164bea0de2985ef89a",
          "transactionIndex": "0x0",
          "logIndex": "0x6",
          "removed": false
        },
        {
          "address": "0x9b1333975887420fe20c172eb926eef6ed4d9bd6",
          "topics": [
            "0xc235116ab1fd2ce09ba4690b74e2e7782ddf6f4a49eda5a12e0c320f7c65ccd6",
            "0x00000000000000000000000014acd43719888a2b48271f548d64b6dccfc0f572"
          ],
          "data": "0x00000000000000000000000000000000000000000000000000000000000000400000000000000000000000000000000000000000000000000000000000000080000000000000000000000000000000000000000000000000000000000000000b456d626c656d204f70656e00000000000000000000000000000000000000000000000000000000000000000000000000000000000000000000000000000000044f50454e00000000000000000000000000000000000000000000000000000000",
          "blockHash": "0x2875b2c2f45839bc7790f0db4954044f9449580a1e49fc538738d475ad11a32b",
          "blockNumber": "0x7da732",
          "blockTimestamp": "0x67e39572",
          "transactionHash": "0x00b35f958d34452b53a69b51525826d19b8a3d128ac8ef164bea0de2985ef89a",
          "transactionIndex": "0x0",
          "logIndex": "0x7",
          "removed": false
        },
        {
          "address": "0x939cc34de4edc8ddb21326963bc028299ccbdc3e",
          "topics": [
            "0x5902eed5cd330f690551c9c5095eacb178efeaf6896420b9473fa373b2313f1a",
            "0x00000000000000000000000014acd43719888a2b48271f548d64b6dccfc0f572",
            "0x0000000000000000000000000000000000000000000000000000000000000001"
          ],
          "data": "0x0000000000000000000000000000000000000000000000000000000000000020000000000000000000000000000000000000000000000000000000000000000b456d626c656d204f70656e000000000000000000000000000000000000000000",
          "blockHash": "0x2875b2c2f45839bc7790f0db4954044f9449580a1e49fc538738d475ad11a32b",
          "blockNumber": "0x7da732",
          "blockTimestamp": "0x67e39572",
          "transactionHash": "0x00b35f958d34452b53a69b51525826d19b8a3d128ac8ef164bea0de2985ef89a",
          "transactionIndex": "0x0",
          "logIndex": "0x8",
          "removed": false
        },
        {
          "address": "0x000000000000000000000000000000000000800a",
          "topics": [
            "0xddf252ad1be2c89b69c2b068fc378daa952ba7f163c4a11628f55a4df523b3ef",
            "0x0000000000000000000000000000000000000000000000000000000000008001",
            "0x000000000000000000000000a99526e4dc81b85c1d248ca974eadce81837ecf1"
          ],
          "data": "0x0000000000000000000000000000000000000000000000000000059b42df4c00",
          "blockHash": "0x2875b2c2f45839bc7790f0db4954044f9449580a1e49fc538738d475ad11a32b",
          "blockNumber": "0x7da732",
          "blockTimestamp": "0x67e39572",
          "transactionHash": "0x00b35f958d34452b53a69b51525826d19b8a3d128ac8ef164bea0de2985ef89a",
          "transactionIndex": "0x0",
          "logIndex": "0x9",
          "removed": false
        }
      ],
      "logsBloom": "0x0000000000040000000000000010000000000000000000000080000000000000001000000000000000000000000000000000080000000000000000400004000000000000000004000000040800004002010100000004000000000000000008000000000002000000000000000000080000000011040000000400001000000040800000000000000000080400400000000000010000008000000010000400000401000000100010000040005080000000000000002000000010300001000080000000000200d000000000000000000000008000000104000000010000000060000010000400000000000000000000010000002000000000800000000000400000",
      "type": "0x71",
      "transactionHash": "0x00b35f958d34452b53a69b51525826d19b8a3d128ac8ef164bea0de2985ef89a",
      "transactionIndex": "0x0",
      "blockHash": "0x2875b2c2f45839bc7790f0db4954044f9449580a1e49fc538738d475ad11a32b",
      "blockNumber": "0x7da732",
      "gasUsed": "0x316df",
      "effectiveGasPrice": "0x17d7840",
      "from": "0xa99526e4dc81b85c1d248ca974eadce81837ecf1",
      "to": "0x939cc34de4edc8ddb21326963bc028299ccbdc3e",
      "contractAddress": "0x14acd43719888a2b48271f548d64b6dccfc0f572",
      "l1BatchNumber": null,
      "l1BatchTxIndex": null,
      "l2ToL1Logs": []
    },
    {
      "status": "0x1",
      "cumulativeGasUsed": "0x0",
      "logs": [
        {
          "address": "0x000000000000000000000000000000000000800a",
          "topics": [
            "0xddf252ad1be2c89b69c2b068fc378daa952ba7f163c4a11628f55a4df523b3ef",
            "0x000000000000000000000000a99526e4dc81b85c1d248ca974eadce81837ecf1",
            "0x0000000000000000000000000000000000000000000000000000000000008001"
          ],
          "data": "0x0000000000000000000000000000000000000000000000000000071aae4fa7c0",
          "blockHash": "0xa29ff5a3347014316aa667dc6a5c1d535086fe0d85e3c30909da49daedd89690",
          "blockNumber": "0x7da734",
          "blockTimestamp": "0x67e39575",
          "transactionHash": "0xd6b1af51f23bb790efdb8e980d96d196d73f0e0a1e45d76c99cf33f1b66e04e8",
          "transactionIndex": "0x0",
          "logIndex": "0x0",
          "removed": false
        },
        {
          "address": "0x939cc34de4edc8ddb21326963bc028299ccbdc3e",
          "topics": [
            "0x386488dff7e0422825a9a6550182ab7f1d7ef789131917bfd8dd6ffe29afe08d",
            "0x00000000000000000000000001fc118cebc15293782464de58836ff2a67a2380"
          ],
          "data": "0x0000000000000000000000000000000000000000000000000000000000000020000000000000000000000000000000000000000000000000000000000000004d68747470733a2f2f76322e656d626c656d7661756c742e696f2f76332f6d6574612f3078303166633131384345624331353239333738323436344445353838333646463261363761323338302f00000000000000000000000000000000000000",
          "blockHash": "0xa29ff5a3347014316aa667dc6a5c1d535086fe0d85e3c30909da49daedd89690",
          "blockNumber": "0x7da734",
          "blockTimestamp": "0x67e39575",
          "transactionHash": "0xd6b1af51f23bb790efdb8e980d96d196d73f0e0a1e45d76c99cf33f1b66e04e8",
          "transactionIndex": "0x0",
          "logIndex": "0x1",
          "removed": false
        },
        {
          "address": "0x000000000000000000000000000000000000800a",
          "topics": [
            "0xddf252ad1be2c89b69c2b068fc378daa952ba7f163c4a11628f55a4df523b3ef",
            "0x0000000000000000000000000000000000000000000000000000000000008001",
            "0x000000000000000000000000a99526e4dc81b85c1d248ca974eadce81837ecf1"
          ],
          "data": "0x000000000000000000000000000000000000000000000000000004664ffa9ec0",
          "blockHash": "0xa29ff5a3347014316aa667dc6a5c1d535086fe0d85e3c30909da49daedd89690",
          "blockNumber": "0x7da734",
          "blockTimestamp": "0x67e39575",
          "transactionHash": "0xd6b1af51f23bb790efdb8e980d96d196d73f0e0a1e45d76c99cf33f1b66e04e8",
          "transactionIndex": "0x0",
          "logIndex": "0x2",
          "removed": false
        }
      ],
      "logsBloom": "0x00000000000400000000000000002000000000000000000000000000000000000000000080000000000000000000000000000000000000000000000000000000000000000000040000000008000000000000000000000000000000000000080000000100000000000000000000000000000000000000000000000010000000000000000000000000000004000000020000000000000000000000000000000000000000001004100000000050000000000000000000000000001000000000000000000002008000000000000000000000000000000000000000000000000000200010000000000000000000000000000000000000000000800000000000000000",
      "type": "0x71",
      "transactionHash": "0xd6b1af51f23bb790efdb8e980d96d196d73f0e0a1e45d76c99cf33f1b66e04e8",
      "transactionIndex": "0x0",
      "blockHash": "0xa29ff5a3347014316aa667dc6a5c1d535086fe0d85e3c30909da49daedd89690",
      "blockNumber": "0x7da734",
      "gasUsed": "0x1d0a4",
      "effectiveGasPrice": "0x17d7840",
      "from": "0xa99526e4dc81b85c1d248ca974eadce81837ecf1",
      "to": "0x939cc34de4edc8ddb21326963bc028299ccbdc3e",
      "contractAddress": null,
      "l1BatchNumber": null,
      "l1BatchTxIndex": null,
      "l2ToL1Logs": []
    },
    {
      "status": "0x1",
      "cumulativeGasUsed": "0x0",
      "logs": [
        {
          "address": "0x000000000000000000000000000000000000800a",
          "topics": [
            "0xddf252ad1be2c89b69c2b068fc378daa952ba7f163c4a11628f55a4df523b3ef",
            "0x000000000000000000000000a99526e4dc81b85c1d248ca974eadce81837ecf1",
            "0x0000000000000000000000000000000000000000000000000000000000008001"
          ],
          "data": "0x0000000000000000000000000000000000000000000000000000071aae4fa7c0",
          "blockHash": "0xe730fc1808a70c40da2ce75b9b0432f6f4e97c2b8cec290aa234cc342abaf1f8",
          "blockNumber": "0x7da735",
          "blockTimestamp": "0x67e39578",
          "transactionHash": "0x8063097064c1a5e92c4fcb77cd8da65f307a324bbdfe4571a7b0e1b0e586e2ed",
          "transactionIndex": "0x0",
          "logIndex": "0x0",
          "removed": false
        },
        {
          "address": "0x939cc34de4edc8ddb21326963bc028299ccbdc3e",
          "topics": [
            "0x386488dff7e0422825a9a6550182ab7f1d7ef789131917bfd8dd6ffe29afe08d",
            "0x000000000000000000000000ee8deb37d8fb422a6f77b06657556cd2ee36da3d"
          ],
          "data": "0x0000000000000000000000000000000000000000000000000000000000000020000000000000000000000000000000000000000000000000000000000000004d68747470733a2f2f76322e656d626c656d7661756c742e696f2f76332f6d6574612f3078654538446562333744384642343232613646373762303636353735353643443265653336646133642f00000000000000000000000000000000000000",
          "blockHash": "0xe730fc1808a70c40da2ce75b9b0432f6f4e97c2b8cec290aa234cc342abaf1f8",
          "blockNumber": "0x7da735",
          "blockTimestamp": "0x67e39578",
          "transactionHash": "0x8063097064c1a5e92c4fcb77cd8da65f307a324bbdfe4571a7b0e1b0e586e2ed",
          "transactionIndex": "0x0",
          "logIndex": "0x1",
          "removed": false
        },
        {
          "address": "0x000000000000000000000000000000000000800a",
          "topics": [
            "0xddf252ad1be2c89b69c2b068fc378daa952ba7f163c4a11628f55a4df523b3ef",
            "0x0000000000000000000000000000000000000000000000000000000000008001",
            "0x000000000000000000000000a99526e4dc81b85c1d248ca974eadce81837ecf1"
          ],
          "data": "0x00000000000000000000000000000000000000000000000000000471c781fb40",
          "blockHash": "0xe730fc1808a70c40da2ce75b9b0432f6f4e97c2b8cec290aa234cc342abaf1f8",
          "blockNumber": "0x7da735",
          "blockTimestamp": "0x67e39578",
          "transactionHash": "0x8063097064c1a5e92c4fcb77cd8da65f307a324bbdfe4571a7b0e1b0e586e2ed",
          "transactionIndex": "0x0",
          "logIndex": "0x2",
          "removed": false
        }
      ],
      "logsBloom": "0x00000000000400000000000000000000000000000000000000000000000000000000000080000000000000000000000000000000000000000000000000000000000000000000040000000008000000000000000000000000000000000000080000000100000000010000000000000000000000000000000000000010000000000000000000000000000004000000000000000000008000000000000000000000000000001000100000000050000000000000000000000000001000000000000000000002008000000000000000000000000000000000000000000000000000200010000000010000000000000000000000000000000000800000000000000000",
      "type": "0x71",
      "transactionHash": "0x8063097064c1a5e92c4fcb77cd8da65f307a324bbdfe4571a7b0e1b0e586e2ed",
      "transactionIndex": "0x0",
      "blockHash": "0xe730fc1808a70c40da2ce75b9b0432f6f4e97c2b8cec290aa234cc342abaf1f8",
      "blockNumber": "0x7da735",
      "gasUsed": "0x1c8f2",
      "effectiveGasPrice": "0x17d7840",
      "from": "0xa99526e4dc81b85c1d248ca974eadce81837ecf1",
      "to": "0x939cc34de4edc8ddb21326963bc028299ccbdc3e",
      "contractAddress": null,
      "l1BatchNumber": null,
      "l1BatchTxIndex": null,
      "l2ToL1Logs": []
    },
    {
      "status": "0x1",
      "cumulativeGasUsed": "0x0",
      "logs": [
        {
          "address": "0x000000000000000000000000000000000000800a",
          "topics": [
            "0xddf252ad1be2c89b69c2b068fc378daa952ba7f163c4a11628f55a4df523b3ef",
            "0x000000000000000000000000a99526e4dc81b85c1d248ca974eadce81837ecf1",
            "0x0000000000000000000000000000000000000000000000000000000000008001"
          ],
          "data": "0x0000000000000000000000000000000000000000000000000000071aae4fa7c0",
          "blockHash": "0xc1bb489ead4e1e263bd71d808e9b5d7f47db34a0c5e32d3b231eae88392560cf",
          "blockNumber": "0x7da737",
          "blockTimestamp": "0x67e3957a",
          "transactionHash": "0x52da210984b29b4a9d2621199ad03ca501398c0bd4cb7cc92f5396dcefc78b78",
          "transactionIndex": "0x1",
          "logIndex": "0x3",
          "removed": false
        },
        {
          "address": "0x939cc34de4edc8ddb21326963bc028299ccbdc3e",
          "topics": [
            "0x386488dff7e0422825a9a6550182ab7f1d7ef789131917bfd8dd6ffe29afe08d",
            "0x000000000000000000000000db0ac65d5c899513506a6cb80a60fba782d0a29c"
          ],
          "data": "0x0000000000000000000000000000000000000000000000000000000000000020000000000000000000000000000000000000000000000000000000000000004d68747470733a2f2f76322e656d626c656d7661756c742e696f2f76332f6d6574612f3078444230616336356435633839393531333530364136634238304136304662613738324430613239632f00000000000000000000000000000000000000",
          "blockHash": "0xc1bb489ead4e1e263bd71d808e9b5d7f47db34a0c5e32d3b231eae88392560cf",
          "blockNumber": "0x7da737",
          "blockTimestamp": "0x67e3957a",
          "transactionHash": "0x52da210984b29b4a9d2621199ad03ca501398c0bd4cb7cc92f5396dcefc78b78",
          "transactionIndex": "0x1",
          "logIndex": "0x4",
          "removed": false
        },
        {
          "address": "0x000000000000000000000000000000000000800a",
          "topics": [
            "0xddf252ad1be2c89b69c2b068fc378daa952ba7f163c4a11628f55a4df523b3ef",
            "0x0000000000000000000000000000000000000000000000000000000000008001",
            "0x000000000000000000000000a99526e4dc81b85c1d248ca974eadce81837ecf1"
          ],
          "data": "0x00000000000000000000000000000000000000000000000000000471c781fb40",
          "blockHash": "0xc1bb489ead4e1e263bd71d808e9b5d7f47db34a0c5e32d3b231eae88392560cf",
          "blockNumber": "0x7da737",
          "blockTimestamp": "0x67e3957a",
          "transactionHash": "0x52da210984b29b4a9d2621199ad03ca501398c0bd4cb7cc92f5396dcefc78b78",
          "transactionIndex": "0x1",
          "logIndex": "0x5",
          "removed": false
        }
      ],
      "logsBloom": "0x00000000000400000000000000000000000000000000000000000000000000000000000080000000000000000000000000000000000000000000001000000000000000000000040000000008000000000000000400000000000000000000080000000100000000000000000000000000000000000000000000000010000000000000000000020000000004000000000000000000000000000000000000000000000000001000100000000050000000000000000000000000001000000000000000000002008000000000000000000000000000000000000000000000000000200010000000000000000000000000000000000000000000800000000000000000",
      "type": "0x71",
      "transactionHash": "0x52da210984b29b4a9d2621199ad03ca501398c0bd4cb7cc92f5396dcefc78b78",
      "transactionIndex": "0x1",
      "blockHash": "0xc1bb489ead4e1e263bd71d808e9b5d7f47db34a0c5e32d3b231eae88392560cf",
      "blockNumber": "0x7da737",
      "gasUsed": "0x1c8f2",
      "effectiveGasPrice": "0x17d7840",
      "from": "0xa99526e4dc81b85c1d248ca974eadce81837ecf1",
      "to": "0x939cc34de4edc8ddb21326963bc028299ccbdc3e",
      "contractAddress": null,
      "l1BatchNumber": null,
      "l1BatchTxIndex": null,
      "l2ToL1Logs": []
    },
    {
      "status": "0x1",
      "cumulativeGasUsed": "0x0",
      "logs": [
        {
          "address": "0x000000000000000000000000000000000000800a",
          "topics": [
            "0xddf252ad1be2c89b69c2b068fc378daa952ba7f163c4a11628f55a4df523b3ef",
            "0x000000000000000000000000a99526e4dc81b85c1d248ca974eadce81837ecf1",
            "0x0000000000000000000000000000000000000000000000000000000000008001"
          ],
          "data": "0x000000000000000000000000000000000000000000000000000006eaa4620080",
          "blockHash": "0x2ea93c8d264db6b3681159b6eaebabf74e6bebfc8025e061af00b3895ed331ae",
          "blockNumber": "0x7da739",
          "blockTimestamp": "0x67e3957e",
          "transactionHash": "0x9386155997c745c2f22a61a55f490a624c591b4cce0d79f1370b3750c91030af",
          "transactionIndex": "0x1",
          "logIndex": "0x3",
          "removed": false
        },
        {
          "address": "0xf98f9abbc52d738ec1f11a42dfbf558f687e45b3",
          "topics": [
            "0x6741b2fc379fad678116fe3d4d4b9a1a184ab53ba36b86ad0fa66340b1ab41ad"
          ],
          "data": "0x0000000000000000000000000000000000000000000000000000000000000020000000000000000000000000000000000000000000000000000000000000004d68747470733a2f2f76322e656d626c656d7661756c742e696f2f76332f6d6574612f3078663938463941426243353244373338456331463131613432446642463535384636383765343562332f00000000000000000000000000000000000000",
          "blockHash": "0x2ea93c8d264db6b3681159b6eaebabf74e6bebfc8025e061af00b3895ed331ae",
          "blockNumber": "0x7da739",
          "blockTimestamp": "0x67e3957e",
          "transactionHash": "0x9386155997c745c2f22a61a55f490a624c591b4cce0d79f1370b3750c91030af",
          "transactionIndex": "0x1",
          "logIndex": "0x4",
          "removed": false
        },
        {
          "address": "0x939cc34de4edc8ddb21326963bc028299ccbdc3e",
          "topics": [
            "0x65936d1dee571c89e7bc171ad8e94e288d930f863c2a4a92a0593baef6573ee9",
            "0x000000000000000000000000f98f9abbc52d738ec1f11a42dfbf558f687e45b3"
          ],
          "data": "0x0000000000000000000000000000000000000000000000000000000000000020000000000000000000000000000000000000000000000000000000000000004d68747470733a2f2f76322e656d626c656d7661756c742e696f2f76332f6d6574612f3078663938463941426243353244373338456331463131613432446642463535384636383765343562332f00000000000000000000000000000000000000",
          "blockHash": "0x2ea93c8d264db6b3681159b6eaebabf74e6bebfc8025e061af00b3895ed331ae",
          "blockNumber": "0x7da739",
          "blockTimestamp": "0x67e3957e",
          "transactionHash": "0x9386155997c745c2f22a61a55f490a624c591b4cce0d79f1370b3750c91030af",
          "transactionIndex": "0x1",
          "logIndex": "0x5",
          "removed": false
        },
        {
          "address": "0x000000000000000000000000000000000000800a",
          "topics": [
            "0xddf252ad1be2c89b69c2b068fc378daa952ba7f163c4a11628f55a4df523b3ef",
            "0x0000000000000000000000000000000000000000000000000000000000008001",
            "0x000000000000000000000000a99526e4dc81b85c1d248ca974eadce81837ecf1"
          ],
          "data": "0x000000000000000000000000000000000000000000000000000004340e510040",
          "blockHash": "0x2ea93c8d264db6b3681159b6eaebabf74e6bebfc8025e061af00b3895ed331ae",
          "blockNumber": "0x7da739",
          "blockTimestamp": "0x67e3957e",
          "transactionHash": "0x9386155997c745c2f22a61a55f490a624c591b4cce0d79f1370b3750c91030af",
          "transactionIndex": "0x1",
          "logIndex": "0x6",
          "removed": false
        }
      ],
      "logsBloom": "0x00000000000400000000000000000000000004000000000000000000000000080000000000000000000004000000000000000000000000000000000000000000000000000000040000000008000000000000000000000000000000000000080000000000000000000000000000000000000000000000000000000010000000000000000000000000000004000000000000000000000000000000000000000000000001001000100000000050800000000000000000000000001000000000000000000002008000000000000200004000000000000040000000000000000000002010000000000001000000000000000040000000000000800000000000000040",
      "type": "0x71",
      "transactionHash": "0x9386155997c745c2f22a61a55f490a624c591b4cce0d79f1370b3750c91030af",
      "transactionIndex": "0x1",
      "blockHash": "0x2ea93c8d264db6b3681159b6eaebabf74e6bebfc8025e061af00b3895ed331ae",
      "blockNumber": "0x7da739",
      "gasUsed": "0x1d221",
      "effectiveGasPrice": "0x17d7840",
      "from": "0xa99526e4dc81b85c1d248ca974eadce81837ecf1",
      "to": "0x939cc34de4edc8ddb21326963bc028299ccbdc3e",
      "contractAddress": null,
      "l1BatchNumber": null,
      "l1BatchTxIndex": null,
      "l2ToL1Logs": []
    },
    {
      "status": "0x1",
      "cumulativeGasUsed": "0x0",
      "logs": [
        {
          "address": "0x000000000000000000000000000000000000800a",
          "topics": [
            "0xddf252ad1be2c89b69c2b068fc378daa952ba7f163c4a11628f55a4df523b3ef",
            "0x000000000000000000000000a99526e4dc81b85c1d248ca974eadce81837ecf1",
            "0x0000000000000000000000000000000000000000000000000000000000008001"
          ],
          "data": "0x000000000000000000000000000000000000000000000000000006eaa4620080",
          "blockHash": "0xd61a984fd32e8329ed5de3fa3bacc299a184f29464306b06b09b10e5a05e0d7e",
          "blockNumber": "0x7da73c",
          "blockTimestamp": "0x67e39582",
          "transactionHash": "0x1056b87a9eef3662545830a54df33fa3a5e2f4af4f081e8a9bdfd88ccab0c243",
          "transactionIndex": "0x0",
          "logIndex": "0x0",
          "removed": false
        },
        {
          "address": "0x14acd43719888a2b48271f548d64b6dccfc0f572",
          "topics": [
            "0x6741b2fc379fad678116fe3d4d4b9a1a184ab53ba36b86ad0fa66340b1ab41ad"
          ],
          "data": "0x0000000000000000000000000000000000000000000000000000000000000020000000000000000000000000000000000000000000000000000000000000004d68747470733a2f2f76322e656d626c656d7661756c742e696f2f76332f6d6574612f3078313461634434333731393838384132423438323731663534384436346236444363464330463537322f00000000000000000000000000000000000000",
          "blockHash": "0xd61a984fd32e8329ed5de3fa3bacc299a184f29464306b06b09b10e5a05e0d7e",
          "blockNumber": "0x7da73c",
          "blockTimestamp": "0x67e39582",
          "transactionHash": "0x1056b87a9eef3662545830a54df33fa3a5e2f4af4f081e8a9bdfd88ccab0c243",
          "transactionIndex": "0x0",
          "logIndex": "0x1",
          "removed": false
        },
        {
          "address": "0x939cc34de4edc8ddb21326963bc028299ccbdc3e",
          "topics": [
            "0x65936d1dee571c89e7bc171ad8e94e288d930f863c2a4a92a0593baef6573ee9",
            "0x00000000000000000000000014acd43719888a2b48271f548d64b6dccfc0f572"
          ],
          "data": "0x0000000000000000000000000000000000000000000000000000000000000020000000000000000000000000000000000000000000000000000000000000004d68747470733a2f2f76322e656d626c656d7661756c742e696f2f76332f6d6574612f3078313461634434333731393838384132423438323731663534384436346236444363464330463537322f00000000000000000000000000000000000000",
          "blockHash": "0xd61a984fd32e8329ed5de3fa3bacc299a184f29464306b06b09b10e5a05e0d7e",
          "blockNumber": "0x7da73c",
          "blockTimestamp": "0x67e39582",
          "transactionHash": "0x1056b87a9eef3662545830a54df33fa3a5e2f4af4f081e8a9bdfd88ccab0c243",
          "transactionIndex": "0x0",
          "logIndex": "0x2",
          "removed": false
        },
        {
          "address": "0x000000000000000000000000000000000000800a",
          "topics": [
            "0xddf252ad1be2c89b69c2b068fc378daa952ba7f163c4a11628f55a4df523b3ef",
            "0x0000000000000000000000000000000000000000000000000000000000008001",
            "0x000000000000000000000000a99526e4dc81b85c1d248ca974eadce81837ecf1"
          ],
          "data": "0x0000000000000000000000000000000000000000000000000000043f85d85cc0",
          "blockHash": "0xd61a984fd32e8329ed5de3fa3bacc299a184f29464306b06b09b10e5a05e0d7e",
          "blockNumber": "0x7da73c",
          "blockTimestamp": "0x67e39582",
          "transactionHash": "0x1056b87a9eef3662545830a54df33fa3a5e2f4af4f081e8a9bdfd88ccab0c243",
          "transactionIndex": "0x0",
          "logIndex": "0x3",
          "removed": false
        }
      ],
      "logsBloom": "0x00000000000400000000000000000000000004000000000000000000000000080000000000000000000000000000000000000000000000000000000000000000000000000000040000000008000000000000000000000000000000000000080000000000000000000000000000000000000000100000000004000010000000000000000000000000000004000000000000000000000000000000000000000004000001001000100000000050000000000000000000000000001000000000000000000002008000000000000200004000000000000000000000000000000000002010000400000000000000000000010000002000000000800000000000000000",
      "type": "0x71",
      "transactionHash": "0x1056b87a9eef3662545830a54df33fa3a5e2f4af4f081e8a9bdfd88ccab0c243",
      "transactionIndex": "0x0",
      "blockHash": "0xd61a984fd32e8329ed5de3fa3bacc299a184f29464306b06b09b10e5a05e0d7e",
      "blockNumber": "0x7da73c",
      "gasUsed": "0x1ca6f",
      "effectiveGasPrice": "0x17d7840",
      "from": "0xa99526e4dc81b85c1d248ca974eadce81837ecf1",
      "to": "0x939cc34de4edc8ddb21326963bc028299ccbdc3e",
      "contractAddress": null,
      "l1BatchNumber": null,
      "l1BatchTxIndex": null,
      "l2ToL1Logs": []
    }
  ],
  "libraries": [],
  "pending": [],
  "returns": {},
  "timestamp": 1742968194,
  "chain": 11124,
  "commit": null
}