{
  "transactions": [
    {
      "hash": "0xd4125e9d31ddafb066ac6d331ca057083618fda5b306ea41718e1fc9c97922ec",
      "transactionType": "CALL",
      "contractName": null,
      "contractAddress": "0x12f084de536f41bcd29dfc7632db0261cec72c60",
      "function": "createVaultCollection(string,string,uint8)",
      "arguments": [
        "Diamond Hands Collection",
        "DHC",
        "1"
      ],
      "transaction": {
        "from": "0xa99526e4dc81b85c1d248ca974eadce81837ecf1",
        "to": "0x12f084de536f41bcd29dfc7632db0261cec72c60",
        "gas": "0x8995b",
        "value": "0x0",
        "input": "0xa8008080000000000000000000000000000000000000000000000000000000000000006000000000000000000000000000000000000000000000000000000000000000a0000000000000000000000000000000000000000000000000000000000000000100000000000000000000000000000000000000000000000000000000000000184469616d6f6e642048616e647320436f6c6c656374696f6e000000000000000000000000000000000000000000000000000000000000000000000000000000034448430000000000000000000000000000000000000000000000000000000000",
        "nonce": "0x11",
        "chainId": "0x1"
      },
      "additionalContracts": [
        {
          "transactionType": "CREATE",
          "address": "0xafe0130bad95763a66871e1f2fd73b8e7ee18037",
          "initCode": "0x60803460b757601f6102dc38819003918201601f19168301916001600160401b0383118484101760bb5780849260209460405283398101031260b757516001600160a01b0381169081810360b757811560a8577fa3f0ad74e5423aebfd80d3ef4346578335a9a72aeaee59ff6cb3582b35133d5055604051907f367184f1bb13aa656fb065e5e2b1104b30f71206d03961639cac77f3a6b331765f80a261020c90816100d08239f35b63d92e233d60e01b5f5260045ffd5b5f80fd5b634e487b7160e01b5f52604160045260245ffdfe60806040526004361015610015575b3661011d57005b5f3560e01c6301ffc9a70361000e57346100cb5760203660031901126100cb5760043563ffffffff60e01b81168091036100cb5760206001600160a01b0361005b610141565b16916024604051809481936301ffc9a760e01b835260048301525afa80156100d7575f90610096575b604051901515815280602081015b0390f35b506020813d6020116100cf575b816100b0602093836100dc565b810103126100cb575180151581036100cb5761009290610084565b5f80fd5b3d91506100a3565b610112565b90601f8019910116810190811067ffffffffffffffff8211176100fe57604052565b634e487b7160e01b5f52604160045260245ffd5b6040513d5f823e3d90fd5b5f80610127610141565b368280378136915af43d5f803e1561013d573d5ff35b3d5ffd5b7fa3f0ad74e5423aebfd80d3ef4346578335a9a72aeaee59ff6cb3582b35133d5054604051635c60da1b60e01b815290602090829060049082906001600160a01b03165afa9081156100d7575f91610197575090565b90506020813d6020116101ce575b816101b2602093836100dc565b810103126100cb57516001600160a01b03811681036100cb5790565b3d91506101a556fea26469706673582212206cec1d58e98a300fd77d6fad07c1d659bdbba3a36b84fb4db9be2f8691b6b47864736f6c634300081c00330000000000000000000000008977704a454fe2063336324027440d7bc56689aa"
        }
      ],
      "isFixedGasLimit": false
    }
  ],
  "receipts": [
    {
      "status": "0x1",
      "cumulativeGasUsed": "0x5fdaef",
      "logs": [
        {
          "address": "0xafe0130bad95763a66871e1f2fd73b8e7ee18037",
          "topics": [
            "0x367184f1bb13aa656fb065e5e2b1104b30f71206d03961639cac77f3a6b33176",
            "0x0000000000000000000000008977704a454fe2063336324027440d7bc56689aa"
          ],
          "data": "0x",
          "blockHash": "0x729ec50eb1365b0d93d78be2a14e34e79c43e8a3e79f4606901262274117512c",
          "blockNumber": "0x148df9d",
          "transactionHash": "0xd4125e9d31ddafb066ac6d331ca057083618fda5b306ea41718e1fc9c97922ec",
          "transactionIndex": "0x50",
          "logIndex": "0x95",
          "removed": false
        },
        {
          "address": "0xafe0130bad95763a66871e1f2fd73b8e7ee18037",
          "topics": [
            "0x8be0079c531659141344cd1fd0a4f28419497f9722a3daafe3b4186f6b6457e0",
            "0x0000000000000000000000000000000000000000000000000000000000000000",
            "0x000000000000000000000000109de29e0fb4de58a66ce077253e0604d81ad14c"
          ],
          "data": "0x",
          "blockHash": "0x729ec50eb1365b0d93d78be2a14e34e79c43e8a3e79f4606901262274117512c",
          "blockNumber": "0x148df9d",
          "transactionHash": "0xd4125e9d31ddafb066ac6d331ca057083618fda5b306ea41718e1fc9c97922ec",
          "transactionIndex": "0x50",
          "logIndex": "0x96",
          "removed": false
        },
        {
          "address": "0xafe0130bad95763a66871e1f2fd73b8e7ee18037",
          "topics": [
            "0xc7f505b2f371ae2175ee4913f4499e1f2633a7b5936321eed1cdaeb6115181d2"
          ],
          "data": "0x0000000000000000000000000000000000000000000000000000000000000001",
          "blockHash": "0x729ec50eb1365b0d93d78be2a14e34e79c43e8a3e79f4606901262274117512c",
          "blockNumber": "0x148df9d",
          "transactionHash": "0xd4125e9d31ddafb066ac6d331ca057083618fda5b306ea41718e1fc9c97922ec",
          "transactionIndex": "0x50",
          "logIndex": "0x97",
          "removed": false
        },
        {
          "address": "0xafe0130bad95763a66871e1f2fd73b8e7ee18037",
          "topics": [
            "0x8be0079c531659141344cd1fd0a4f28419497f9722a3daafe3b4186f6b6457e0",
            "0x000000000000000000000000109de29e0fb4de58a66ce077253e0604d81ad14c",
            "0x000000000000000000000000a99526e4dc81b85c1d248ca974eadce81837ecf1"
          ],
          "data": "0x",
          "blockHash": "0x729ec50eb1365b0d93d78be2a14e34e79c43e8a3e79f4606901262274117512c",
          "blockNumber": "0x148df9d",
          "transactionHash": "0xd4125e9d31ddafb066ac6d331ca057083618fda5b306ea41718e1fc9c97922ec",
          "transactionIndex": "0x50",
          "logIndex": "0x98",
          "removed": false
        },
        {
          "address": "0x109de29e0fb4de58a66ce077253e0604d81ad14c",
          "topics": [
            "0x171ccc46ca30ce15b8e391d7e1db8cf7644ed26a313b10df70a92b13da343541",
            "0x000000000000000000000000afe0130bad95763a66871e1f2fd73b8e7ee18037",
            "0x000000000000000000000000a99526e4dc81b85c1d248ca974eadce81837ecf1"
          ],
          "data": "0x",
          "blockHash": "0x729ec50eb1365b0d93d78be2a14e34e79c43e8a3e79f4606901262274117512c",
          "blockNumber": "0x148df9d",
          "transactionHash": "0xd4125e9d31ddafb066ac6d331ca057083618fda5b306ea41718e1fc9c97922ec",
          "transactionIndex": "0x50",
          "logIndex": "0x99",
          "removed": false
        },
        {
          "address": "0x109de29e0fb4de58a66ce077253e0604d81ad14c",
          "topics": [
            "0xc235116ab1fd2ce09ba4690b74e2e7782ddf6f4a49eda5a12e0c320f7c65ccd6",
            "0x000000000000000000000000afe0130bad95763a66871e1f2fd73b8e7ee18037"
          ],
          "data": "0x0000000000000000000000000000000000000000000000000000000000000040000000000000000000000000000000000000000000000000000000000000008000000000000000000000000000000000000000000000000000000000000000184469616d6f6e642048616e647320436f6c6c656374696f6e000000000000000000000000000000000000000000000000000000000000000000000000000000034448430000000000000000000000000000000000000000000000000000000000",
          "blockHash": "0x729ec50eb1365b0d93d78be2a14e34e79c43e8a3e79f4606901262274117512c",
          "blockNumber": "0x148df9d",
          "transactionHash": "0xd4125e9d31ddafb066ac6d331ca057083618fda5b306ea41718e1fc9c97922ec",
          "transactionIndex": "0x50",
          "logIndex": "0x9a",
          "removed": false
        },
        {
          "address": "0x12f084de536f41bcd29dfc7632db0261cec72c60",
          "topics": [
            "0x5902eed5cd330f690551c9c5095eacb178efeaf6896420b9473fa373b2313f1a",
            "0x000000000000000000000000afe0130bad95763a66871e1f2fd73b8e7ee18037",
            "0x0000000000000000000000000000000000000000000000000000000000000001"
          ],
          "data": "0x000000000000000000000000000000000000000000000000000000000000002000000000000000000000000000000000000000000000000000000000000000184469616d6f6e642048616e647320436f6c6c656374696f6e0000000000000000",
          "blockHash": "0x729ec50eb1365b0d93d78be2a14e34e79c43e8a3e79f4606901262274117512c",
          "blockNumber": "0x148df9d",
          "transactionHash": "0xd4125e9d31ddafb066ac6d331ca057083618fda5b306ea41718e1fc9c97922ec",
          "transactionIndex": "0x50",
          "logIndex": "0x9b",
          "removed": false
        }
      ],
      "logsBloom": "0x00000004000000000800000000100000004008800000000000800000002000000010000000000800000000000004000000000000002000000000004000040000000000000000000000000400000000000101000000050000000000400000000000000080020080000000040000000800000000000000000000000000000000408000000000000000000800004000000000000000000080000000100004000000010000000800004000000040000000000000000000000000001000000000000000000000004000000000000000000000000000000004000000000000000260000000000000000000000000000000000000000000000000800040000000400000",
      "type": "0x2",
      "transactionHash": "0xd4125e9d31ddafb066ac6d331ca057083618fda5b306ea41718e1fc9c97922ec",
      "transactionIndex": "0x50",
      "blockHash": "0x729ec50eb1365b0d93d78be2a14e34e79c43e8a3e79f4606901262274117512c",
      "blockNumber": "0x148df9d",
      "gasUsed": "0x639bf",
      "effectiveGasPrice": "0x1ab0757c0",
      "from": "0xa99526e4dc81b85c1d248ca974eadce81837ecf1",
      "to": "0x12f084de536f41bcd29dfc7632db0261cec72c60",
      "contractAddress": null
    }
  ],
  "libraries": [],
  "pending": [],
  "returns": {},
  "timestamp": 1736017088,
  "chain": 1,
  "commit": "7373642"
}