{
  "transactions": [
    {
      "hash": "0x524ca4d1e0d4a6f1587c87b8ad32fcde1e5869745de6c41ba9988b49096883cf",
      "transactionType": "CALL",
      "contractName": null,
      "contractAddress": "0xf04a4b0ce209af4017648fa93d2bb348ecb116d6",
      "function": "createVaultCollection(string,string,uint8)",
      "arguments": [
        "Rare Pepe",
        "PEPE",
        "2"
      ],
      "transaction": {
        "from": "0xa99526e4dc81b85c1d248ca974eadce81837ecf1",
        "to": "0xf04a4b0ce209af4017648fa93d2bb348ecb116d6",
        "gas": "0x6a8e2",
        "value": "0x0",
        "input": "0xa8008080000000000000000000000000000000000000000000000000000000000000006000000000000000000000000000000000000000000000000000000000000000a000000000000000000000000000000000000000000000000000000000000000020000000000000000000000000000000000000000000000000000000000000009526172652050657065000000000000000000000000000000000000000000000000000000000000000000000000000000000000000000000000000000000000045045504500000000000000000000000000000000000000000000000000000000",
        "nonce": "0x2d",
        "chainId": "0x2105"
      },
      "additionalContracts": [
        {
          "transactionType": "CREATE",
          "address": "0x4047bef811efc7a3e5034ce3393cc6d4a018cd0f",
          "initCode": "0x60803460b757601f6102dc38819003918201601f19168301916001600160401b0383118484101760bb5780849260209460405283398101031260b757516001600160a01b0381169081810360b757811560a8577fa3f0ad74e5423aebfd80d3ef4346578335a9a72aeaee59ff6cb3582b35133d5055604051907f367184f1bb13aa656fb065e5e2b1104b30f71206d03961639cac77f3a6b331765f80a261020c90816100d08239f35b63d92e233d60e01b5f5260045ffd5b5f80fd5b634e487b7160e01b5f52604160045260245ffdfe60806040526004361015610015575b3661011d57005b5f3560e01c6301ffc9a70361000e57346100cb5760203660031901126100cb5760043563ffffffff60e01b81168091036100cb5760206001600160a01b0361005b610141565b16916024604051809481936301ffc9a760e01b835260048301525afa80156100d7575f90610096575b604051901515815280602081015b0390f35b506020813d6020116100cf575b816100b0602093836100dc565b810103126100cb575180151581036100cb5761009290610084565b5f80fd5b3d91506100a3565b610112565b90601f8019910116810190811067ffffffffffffffff8211176100fe57604052565b634e487b7160e01b5f52604160045260245ffd5b6040513d5f823e3d90fd5b5f80610127610141565b368280378136915af43d5f803e1561013d573d5ff35b3d5ffd5b7fa3f0ad74e5423aebfd80d3ef4346578335a9a72aeaee59ff6cb3582b35133d5054604051635c60da1b60e01b815290602090829060049082906001600160a01b03165afa9081156100d7575f91610197575090565b90506020813d6020116101ce575b816101b2602093836100dc565b810103126100cb57516001600160a01b03811681036100cb5790565b3d91506101a556fea2646970667358221220b9aa4dcde91f06e0b875fe779d49781682719d788493724bc49bbfa1c806b86564736f6c634300081c0033000000000000000000000000b4ecc165e3588dc33082fb658bd166db9889a848"
        }
      ],
      "isFixedGasLimit": false
    },
    {
      "hash": "0x11edd21e4a0764d8a5540b875d414c7b40c6c602cfbb358088ba515a92a0a9ad",
      "transactionType": "CALL",
      "contractName": null,
      "contractAddress": "0xf04a4b0ce209af4017648fa93d2bb348ecb116d6",
      "function": "createVaultCollection(string,string,uint8)",
      "arguments": [
        "Spells of Genesis",
        "SOG",
        "2"
      ],
      "transaction": {
        "from": "0xa99526e4dc81b85c1d248ca974eadce81837ecf1",
        "to": "0xf04a4b0ce209af4017648fa93d2bb348ecb116d6",
        "gas": "0x70da7",
        "value": "0x0",
        "input": "0xa8008080000000000000000000000000000000000000000000000000000000000000006000000000000000000000000000000000000000000000000000000000000000a0000000000000000000000000000000000000000000000000000000000000000200000000000000000000000000000000000000000000000000000000000000115370656c6c73206f662047656e657369730000000000000000000000000000000000000000000000000000000000000000000000000000000000000000000003534f470000000000000000000000000000000000000000000000000000000000",
        "nonce": "0x2e",
        "chainId": "0x2105"
      },
      "additionalContracts": [
        {
          "transactionType": "CREATE",
          "address": "0x315cab57c6ac91d42893ce265a8332c17a6e79f8",
          "initCode": "0x60803460b757601f6102dc38819003918201601f19168301916001600160401b0383118484101760bb5780849260209460405283398101031260b757516001600160a01b0381169081810360b757811560a8577fa3f0ad74e5423aebfd80d3ef4346578335a9a72aeaee59ff6cb3582b35133d5055604051907f367184f1bb13aa656fb065e5e2b1104b30f71206d03961639cac77f3a6b331765f80a261020c90816100d08239f35b63d92e233d60e01b5f5260045ffd5b5f80fd5b634e487b7160e01b5f52604160045260245ffdfe60806040526004361015610015575b3661011d57005b5f3560e01c6301ffc9a70361000e57346100cb5760203660031901126100cb5760043563ffffffff60e01b81168091036100cb5760206001600160a01b0361005b610141565b16916024604051809481936301ffc9a760e01b835260048301525afa80156100d7575f90610096575b604051901515815280602081015b0390f35b506020813d6020116100cf575b816100b0602093836100dc565b810103126100cb575180151581036100cb5761009290610084565b5f80fd5b3d91506100a3565b610112565b90601f8019910116810190811067ffffffffffffffff8211176100fe57604052565b634e487b7160e01b5f52604160045260245ffd5b6040513d5f823e3d90fd5b5f80610127610141565b368280378136915af43d5f803e1561013d573d5ff35b3d5ffd5b7fa3f0ad74e5423aebfd80d3ef4346578335a9a72aeaee59ff6cb3582b35133d5054604051635c60da1b60e01b815290602090829060049082906001600160a01b03165afa9081156100d7575f91610197575090565b90506020813d6020116101ce575b816101b2602093836100dc565b810103126100cb57516001600160a01b03811681036100cb5790565b3d91506101a556fea2646970667358221220b9aa4dcde91f06e0b875fe779d49781682719d788493724bc49bbfa1c806b86564736f6c634300081c0033000000000000000000000000b4ecc165e3588dc33082fb658bd166db9889a848"
        }
      ],
      "isFixedGasLimit": false
    },
    {
      "hash": "0x4f741347b3463b19011fcf4fc036de3ec26bb4834aa04162e7a33b8879b2ee8e",
      "transactionType": "CALL",
      "contractName": null,
      "contractAddress": "0xf04a4b0ce209af4017648fa93d2bb348ecb116d6",
      "function": "createVaultCollection(string,string,uint8)",
      "arguments": [
        "Fake Rares",
        "FAKE",
        "2"
      ],
      "transaction": {
        "from": "0xa99526e4dc81b85c1d248ca974eadce81837ecf1",
        "to": "0xf04a4b0ce209af4017648fa93d2bb348ecb116d6",
        "gas": "0x70d3e",
        "value": "0x0",
        "input": "0xa8008080000000000000000000000000000000000000000000000000000000000000006000000000000000000000000000000000000000000000000000000000000000a00000000000000000000000000000000000000000000000000000000000000002000000000000000000000000000000000000000000000000000000000000000a46616b6520526172657300000000000000000000000000000000000000000000000000000000000000000000000000000000000000000000000000000000000446414b4500000000000000000000000000000000000000000000000000000000",
        "nonce": "0x2f",
        "chainId": "0x2105"
      },
      "additionalContracts": [
        {
          "transactionType": "CREATE",
          "address": "0xe224ce7b5dbc6a4bc2c725b3c733c9e3bc0e4f3d",
          "initCode": "0x60803460b757601f6102dc38819003918201601f19168301916001600160401b0383118484101760bb5780849260209460405283398101031260b757516001600160a01b0381169081810360b757811560a8577fa3f0ad74e5423aebfd80d3ef4346578335a9a72aeaee59ff6cb3582b35133d5055604051907f367184f1bb13aa656fb065e5e2b1104b30f71206d03961639cac77f3a6b331765f80a261020c90816100d08239f35b63d92e233d60e01b5f5260045ffd5b5f80fd5b634e487b7160e01b5f52604160045260245ffdfe60806040526004361015610015575b3661011d57005b5f3560e01c6301ffc9a70361000e57346100cb5760203660031901126100cb5760043563ffffffff60e01b81168091036100cb5760206001600160a01b0361005b610141565b16916024604051809481936301ffc9a760e01b835260048301525afa80156100d7575f90610096575b604051901515815280602081015b0390f35b506020813d6020116100cf575b816100b0602093836100dc565b810103126100cb575180151581036100cb5761009290610084565b5f80fd5b3d91506100a3565b610112565b90601f8019910116810190811067ffffffffffffffff8211176100fe57604052565b634e487b7160e01b5f52604160045260245ffd5b6040513d5f823e3d90fd5b5f80610127610141565b368280378136915af43d5f803e1561013d573d5ff35b3d5ffd5b7fa3f0ad74e5423aebfd80d3ef4346578335a9a72aeaee59ff6cb3582b35133d5054604051635c60da1b60e01b815290602090829060049082906001600160a01b03165afa9081156100d7575f91610197575090565b90506020813d6020116101ce575b816101b2602093836100dc565b810103126100cb57516001600160a01b03811681036100cb5790565b3d91506101a556fea2646970667358221220b9aa4dcde91f06e0b875fe779d49781682719d788493724bc49bbfa1c806b86564736f6c634300081c0033000000000000000000000000b4ecc165e3588dc33082fb658bd166db9889a848"
        }
      ],
      "isFixedGasLimit": false
    },
    {
      "hash": "0xfa5992b9bbbe7849fa47327599afa356103ff1c070a44d3de8d16d9c851b5e7f",
      "transactionType": "CALL",
      "contractName": null,
      "contractAddress": "0xf04a4b0ce209af4017648fa93d2bb348ecb116d6",
      "function": "createVaultCollection(string,string,uint8)",
      "arguments": [
        "EmBells",
        "BELL",
        "1"
      ],
      "transaction": {
        "from": "0xa99526e4dc81b85c1d248ca974eadce81837ecf1",
        "to": "0xf04a4b0ce209af4017648fa93d2bb348ecb116d6",
        "gas": "0x89bfe",
        "value": "0x0",
        "input": "0xa8008080000000000000000000000000000000000000000000000000000000000000006000000000000000000000000000000000000000000000000000000000000000a000000000000000000000000000000000000000000000000000000000000000010000000000000000000000000000000000000000000000000000000000000007456d42656c6c7300000000000000000000000000000000000000000000000000000000000000000000000000000000000000000000000000000000000000000442454c4c00000000000000000000000000000000000000000000000000000000",
        "nonce": "0x30",
        "chainId": "0x2105"
      },
      "additionalContracts": [
        {
          "transactionType": "CREATE",
          "address": "0xd3bea53c0e0fd46a4fa72ca021d6e3f8eb94e62d",
          "initCode": "0x60803460b757601f6102dc38819003918201601f19168301916001600160401b0383118484101760bb5780849260209460405283398101031260b757516001600160a01b0381169081810360b757811560a8577fa3f0ad74e5423aebfd80d3ef4346578335a9a72aeaee59ff6cb3582b35133d5055604051907f367184f1bb13aa656fb065e5e2b1104b30f71206d03961639cac77f3a6b331765f80a261020c90816100d08239f35b63d92e233d60e01b5f5260045ffd5b5f80fd5b634e487b7160e01b5f52604160045260245ffdfe60806040526004361015610015575b3661011d57005b5f3560e01c6301ffc9a70361000e57346100cb5760203660031901126100cb5760043563ffffffff60e01b81168091036100cb5760206001600160a01b0361005b610141565b16916024604051809481936301ffc9a760e01b835260048301525afa80156100d7575f90610096575b604051901515815280602081015b0390f35b506020813d6020116100cf575b816100b0602093836100dc565b810103126100cb575180151581036100cb5761009290610084565b5f80fd5b3d91506100a3565b610112565b90601f8019910116810190811067ffffffffffffffff8211176100fe57604052565b634e487b7160e01b5f52604160045260245ffd5b6040513d5f823e3d90fd5b5f80610127610141565b368280378136915af43d5f803e1561013d573d5ff35b3d5ffd5b7fa3f0ad74e5423aebfd80d3ef4346578335a9a72aeaee59ff6cb3582b35133d5054604051635c60da1b60e01b815290602090829060049082906001600160a01b03165afa9081156100d7575f91610197575090565b90506020813d6020116101ce575b816101b2602093836100dc565b810103126100cb57516001600160a01b03811681036100cb5790565b3d91506101a556fea26469706673582212206ee762e682717726e2a88d1f11d5d6c4b60618285602632bd45443440f6accef64736f6c634300081c003300000000000000000000000058fef4d865be970a7fa550cb473fe8c4c3d5a924"
        }
      ],
      "isFixedGasLimit": false
    },
    {
      "hash": "0x74af7baed9cfd244d9f820e8384ea703e16c1c48d62c434c74bbfb37214f0126",
      "transactionType": "CALL",
      "contractName": null,
      "contractAddress": "0xf04a4b0ce209af4017648fa93d2bb348ecb116d6",
      "function": "createVaultCollection(string,string,uint8)",
      "arguments": [
        "Emblem Open",
        "OPEN",
        "1"
      ],
      "transaction": {
        "from": "0xa99526e4dc81b85c1d248ca974eadce81837ecf1",
        "to": "0xf04a4b0ce209af4017648fa93d2bb348ecb116d6",
        "gas": "0x89c40",
        "value": "0x0",
        "input": "0xa8008080000000000000000000000000000000000000000000000000000000000000006000000000000000000000000000000000000000000000000000000000000000a00000000000000000000000000000000000000000000000000000000000000001000000000000000000000000000000000000000000000000000000000000000b456d626c656d204f70656e00000000000000000000000000000000000000000000000000000000000000000000000000000000000000000000000000000000044f50454e00000000000000000000000000000000000000000000000000000000",
        "nonce": "0x31",
        "chainId": "0x2105"
      },
      "additionalContracts": [
        {
          "transactionType": "CREATE",
          "address": "0x8ad512e4960f92419edb980eb07efbb1bc0e9053",
          "initCode": "0x60803460b757601f6102dc38819003918201601f19168301916001600160401b0383118484101760bb5780849260209460405283398101031260b757516001600160a01b0381169081810360b757811560a8577fa3f0ad74e5423aebfd80d3ef4346578335a9a72aeaee59ff6cb3582b35133d5055604051907f367184f1bb13aa656fb065e5e2b1104b30f71206d03961639cac77f3a6b331765f80a261020c90816100d08239f35b63d92e233d60e01b5f5260045ffd5b5f80fd5b634e487b7160e01b5f52604160045260245ffdfe60806040526004361015610015575b3661011d57005b5f3560e01c6301ffc9a70361000e57346100cb5760203660031901126100cb5760043563ffffffff60e01b81168091036100cb5760206001600160a01b0361005b610141565b16916024604051809481936301ffc9a760e01b835260048301525afa80156100d7575f90610096575b604051901515815280602081015b0390f35b506020813d6020116100cf575b816100b0602093836100dc565b810103126100cb575180151581036100cb5761009290610084565b5f80fd5b3d91506100a3565b610112565b90601f8019910116810190811067ffffffffffffffff8211176100fe57604052565b634e487b7160e01b5f52604160045260245ffd5b6040513d5f823e3d90fd5b5f80610127610141565b368280378136915af43d5f803e1561013d573d5ff35b3d5ffd5b7fa3f0ad74e5423aebfd80d3ef4346578335a9a72aeaee59ff6cb3582b35133d5054604051635c60da1b60e01b815290602090829060049082906001600160a01b03165afa9081156100d7575f91610197575090565b90506020813d6020116101ce575b816101b2602093836100dc565b810103126100cb57516001600160a01b03811681036100cb5790565b3d91506101a556fea26469706673582212206ee762e682717726e2a88d1f11d5d6c4b60618285602632bd45443440f6accef64736f6c634300081c003300000000000000000000000058fef4d865be970a7fa550cb473fe8c4c3d5a924"
        }
      ],
      "isFixedGasLimit": false
    },
    {
      "hash": "0x23d5b1bf3dc6ceddeb9428a140d8cf7c914c69af1b5cc17b04e6daacab9759c4",
      "transactionType": "CALL",
      "contractName": null,
      "contractAddress": "0xf04a4b0ce209af4017648fa93d2bb348ecb116d6",
      "function": "setCollectionURI(address,string)",
      "arguments": [
        "0x4047bef811eFc7a3E5034ce3393cC6d4a018Cd0F",
        "https://v2.emblemvault.io/v3/meta/0x4047bef811eFc7a3E5034ce3393cC6d4a018Cd0F/"
      ],
      "transaction": {
        "from": "0xa99526e4dc81b85c1d248ca974eadce81837ecf1",
        "to": "0xf04a4b0ce209af4017648fa93d2bb348ecb116d6",
        "gas": "0x2f1e2",
        "value": "0x0",
        "input": "0x23f019fd0000000000000000000000004047bef811efc7a3e5034ce3393cc6d4a018cd0f0000000000000000000000000000000000000000000000000000000000000040000000000000000000000000000000000000000000000000000000000000004d68747470733a2f2f76322e656d626c656d7661756c742e696f2f76332f6d6574612f3078343034376265663831316546633761334535303334636533333933634336643461303138436430462f00000000000000000000000000000000000000",
        "nonce": "0x32",
        "chainId": "0x2105"
      },
      "additionalContracts": [],
      "isFixedGasLimit": false
    },
    {
      "hash": "0xaa5505fdf993bba11c128f3b35782d29a68fd908d526d8405adbd9d9f7e161bc",
      "transactionType": "CALL",
      "contractName": null,
      "contractAddress": "0xf04a4b0ce209af4017648fa93d2bb348ecb116d6",
      "function": "setCollectionURI(address,string)",
      "arguments": [
        "0x315cAB57C6Ac91d42893Ce265a8332c17a6E79F8",
        "https://v2.emblemvault.io/v3/meta/0x315cAB57C6Ac91d42893Ce265a8332c17a6E79F8/"
      ],
      "transaction": {
        "from": "0xa99526e4dc81b85c1d248ca974eadce81837ecf1",
        "to": "0xf04a4b0ce209af4017648fa93d2bb348ecb116d6",
        "gas": "0x2f1e2",
        "value": "0x0",
        "input": "0x23f019fd000000000000000000000000315cab57c6ac91d42893ce265a8332c17a6e79f80000000000000000000000000000000000000000000000000000000000000040000000000000000000000000000000000000000000000000000000000000004d68747470733a2f2f76322e656d626c656d7661756c742e696f2f76332f6d6574612f3078333135634142353743364163393164343238393343653236356138333332633137613645373946382f00000000000000000000000000000000000000",
        "nonce": "0x33",
        "chainId": "0x2105"
      },
      "additionalContracts": [],
      "isFixedGasLimit": false
    },
    {
      "hash": "0xabec1185e1cf0c04d8ab201479f03e8946fa78c6c5577c04563fe40be7b1838e",
      "transactionType": "CALL",
      "contractName": null,
      "contractAddress": "0xf04a4b0ce209af4017648fa93d2bb348ecb116d6",
      "function": "setCollectionURI(address,string)",
      "arguments": [
        "0xe224ce7b5dBc6a4Bc2C725B3c733C9e3Bc0E4f3D",
        "https://v2.emblemvault.io/v3/meta/0xe224ce7b5dBc6a4Bc2C725B3c733C9e3Bc0E4f3D/"
      ],
      "transaction": {
        "from": "0xa99526e4dc81b85c1d248ca974eadce81837ecf1",
        "to": "0xf04a4b0ce209af4017648fa93d2bb348ecb116d6",
        "gas": "0x2f1e2",
        "value": "0x0",
        "input": "0x23f019fd000000000000000000000000e224ce7b5dbc6a4bc2c725b3c733c9e3bc0e4f3d0000000000000000000000000000000000000000000000000000000000000040000000000000000000000000000000000000000000000000000000000000004d68747470733a2f2f76322e656d626c656d7661756c742e696f2f76332f6d6574612f3078653232346365376235644263366134426332433732354233633733334339653342633045346633442f00000000000000000000000000000000000000",
        "nonce": "0x34",
        "chainId": "0x2105"
      },
      "additionalContracts": [],
      "isFixedGasLimit": false
    },
    {
      "hash": "0xb8c2785d38fcb7341a9990803f2f4a1aec1937f50efbcec4f91e44948c68703a",
      "transactionType": "CALL",
      "contractName": null,
      "contractAddress": "0xf04a4b0ce209af4017648fa93d2bb348ecb116d6",
      "function": "setCollectionBaseURI(address,string)",
      "arguments": [
        "0xD3bEA53C0E0Fd46a4fA72ca021D6E3f8eB94E62D",
        "https://v2.emblemvault.io/v3/meta/0xD3bEA53C0E0Fd46a4fA72ca021D6E3f8eB94E62D/"
      ],
      "transaction": {
        "from": "0xa99526e4dc81b85c1d248ca974eadce81837ecf1",
        "to": "0xf04a4b0ce209af4017648fa93d2bb348ecb116d6",
        "gas": "0x2f388",
        "value": "0x0",
        "input": "0x80aed2a9000000000000000000000000d3bea53c0e0fd46a4fa72ca021d6e3f8eb94e62d0000000000000000000000000000000000000000000000000000000000000040000000000000000000000000000000000000000000000000000000000000004d68747470733a2f2f76322e656d626c656d7661756c742e696f2f76332f6d6574612f3078443362454135334330453046643436613466413732636130323144364533663865423934453632442f00000000000000000000000000000000000000",
        "nonce": "0x35",
        "chainId": "0x2105"
      },
      "additionalContracts": [],
      "isFixedGasLimit": false
    },
    {
      "hash": "0x80309ae6571a53f5b8365c78630cf06c89b2acdf768f4f090a169d38a3f83976",
      "transactionType": "CALL",
      "contractName": null,
      "contractAddress": "0xf04a4b0ce209af4017648fa93d2bb348ecb116d6",
      "function": "setCollectionBaseURI(address,string)",
      "arguments": [
        "0x8aD512e4960f92419edB980eb07Efbb1Bc0E9053",
        "https://v2.emblemvault.io/v3/meta/0x8aD512e4960f92419edB980eb07Efbb1Bc0E9053/"
      ],
      "transaction": {
        "from": "0xa99526e4dc81b85c1d248ca974eadce81837ecf1",
        "to": "0xf04a4b0ce209af4017648fa93d2bb348ecb116d6",
        "gas": "0x2f388",
        "value": "0x0",
        "input": "0x80aed2a90000000000000000000000008ad512e4960f92419edb980eb07efbb1bc0e90530000000000000000000000000000000000000000000000000000000000000040000000000000000000000000000000000000000000000000000000000000004d68747470733a2f2f76322e656d626c656d7661756c742e696f2f76332f6d6574612f3078386144353132653439363066393234313965644239383065623037456662623142633045393035332f00000000000000000000000000000000000000",
        "nonce": "0x36",
        "chainId": "0x2105"
      },
      "additionalContracts": [],
      "isFixedGasLimit": false
    }
  ],
  "receipts": [
    {
      "status": "0x1",
      "cumulativeGasUsed": "0x2478d62",
      "logs": [
        {
          "address": "0x4047bef811efc7a3e5034ce3393cc6d4a018cd0f",
          "topics": [
            "0x367184f1bb13aa656fb065e5e2b1104b30f71206d03961639cac77f3a6b33176",
            "0x000000000000000000000000b4ecc165e3588dc33082fb658bd166db9889a848"
          ],
          "data": "0x",
          "blockHash": "0x73e5449a60b84ac8f3472c321b0ba0ed16cbf38f1fbeb3f2ed5e079e67e6a775",
          "blockNumber": "0x19fd6c9",
          "transactionHash": "0x524ca4d1e0d4a6f1587c87b8ad32fcde1e5869745de6c41ba9988b49096883cf",
          "transactionIndex": "0x92",
          "logIndex": "0x196",
          "removed": false
        },
        {
          "address": "0x4047bef811efc7a3e5034ce3393cc6d4a018cd0f",
          "topics": [
            "0x8be0079c531659141344cd1fd0a4f28419497f9722a3daafe3b4186f6b6457e0",
            "0x0000000000000000000000000000000000000000000000000000000000000000",
            "0x00000000000000000000000090344c0f0940a0dc86b399d5e318ff6ce023b9a6"
          ],
          "data": "0x",
          "blockHash": "0x73e5449a60b84ac8f3472c321b0ba0ed16cbf38f1fbeb3f2ed5e079e67e6a775",
          "blockNumber": "0x19fd6c9",
          "transactionHash": "0x524ca4d1e0d4a6f1587c87b8ad32fcde1e5869745de6c41ba9988b49096883cf",
          "transactionIndex": "0x92",
          "logIndex": "0x197",
          "removed": false
        },
        {
          "address": "0x4047bef811efc7a3e5034ce3393cc6d4a018cd0f",
          "topics": [
            "0xc7f505b2f371ae2175ee4913f4499e1f2633a7b5936321eed1cdaeb6115181d2"
          ],
          "data": "0x0000000000000000000000000000000000000000000000000000000000000001",
          "blockHash": "0x73e5449a60b84ac8f3472c321b0ba0ed16cbf38f1fbeb3f2ed5e079e67e6a775",
          "blockNumber": "0x19fd6c9",
          "transactionHash": "0x524ca4d1e0d4a6f1587c87b8ad32fcde1e5869745de6c41ba9988b49096883cf",
          "transactionIndex": "0x92",
          "logIndex": "0x198",
          "removed": false
        },
        {
          "address": "0x4047bef811efc7a3e5034ce3393cc6d4a018cd0f",
          "topics": [
            "0x8be0079c531659141344cd1fd0a4f28419497f9722a3daafe3b4186f6b6457e0",
            "0x00000000000000000000000090344c0f0940a0dc86b399d5e318ff6ce023b9a6",
            "0x000000000000000000000000a99526e4dc81b85c1d248ca974eadce81837ecf1"
          ],
          "data": "0x",
          "blockHash": "0x73e5449a60b84ac8f3472c321b0ba0ed16cbf38f1fbeb3f2ed5e079e67e6a775",
          "blockNumber": "0x19fd6c9",
          "transactionHash": "0x524ca4d1e0d4a6f1587c87b8ad32fcde1e5869745de6c41ba9988b49096883cf",
          "transactionIndex": "0x92",
          "logIndex": "0x199",
          "removed": false
        },
        {
          "address": "0x90344c0f0940a0dc86b399d5e318ff6ce023b9a6",
          "topics": [
            "0x171ccc46ca30ce15b8e391d7e1db8cf7644ed26a313b10df70a92b13da343541",
            "0x0000000000000000000000004047bef811efc7a3e5034ce3393cc6d4a018cd0f",
            "0x000000000000000000000000a99526e4dc81b85c1d248ca974eadce81837ecf1"
          ],
          "data": "0x",
          "blockHash": "0x73e5449a60b84ac8f3472c321b0ba0ed16cbf38f1fbeb3f2ed5e079e67e6a775",
          "blockNumber": "0x19fd6c9",
          "transactionHash": "0x524ca4d1e0d4a6f1587c87b8ad32fcde1e5869745de6c41ba9988b49096883cf",
          "transactionIndex": "0x92",
          "logIndex": "0x19a",
          "removed": false
        },
        {
          "address": "0x90344c0f0940a0dc86b399d5e318ff6ce023b9a6",
          "topics": [
            "0x2229e9930d25a4974976f5fb5461a33fcd0fefa19393ad50af745b5fa4ccce8b",
            "0x0000000000000000000000004047bef811efc7a3e5034ce3393cc6d4a018cd0f"
          ],
          "data": "0x000000000000000000000000000000000000000000000000000000000000002000000000000000000000000000000000000000000000000000000000000000045045504500000000000000000000000000000000000000000000000000000000",
          "blockHash": "0x73e5449a60b84ac8f3472c321b0ba0ed16cbf38f1fbeb3f2ed5e079e67e6a775",
          "blockNumber": "0x19fd6c9",
          "transactionHash": "0x524ca4d1e0d4a6f1587c87b8ad32fcde1e5869745de6c41ba9988b49096883cf",
          "transactionIndex": "0x92",
          "logIndex": "0x19b",
          "removed": false
        },
        {
          "address": "0xf04a4b0ce209af4017648fa93d2bb348ecb116d6",
          "topics": [
            "0x5902eed5cd330f690551c9c5095eacb178efeaf6896420b9473fa373b2313f1a",
            "0x0000000000000000000000004047bef811efc7a3e5034ce3393cc6d4a018cd0f",
            "0x0000000000000000000000000000000000000000000000000000000000000002"
          ],
          "data": "0x000000000000000000000000000000000000000000000000000000000000002000000000000000000000000000000000000000000000000000000000000000095261726520506570650000000000000000000000000000000000000000000000",
          "blockHash": "0x73e5449a60b84ac8f3472c321b0ba0ed16cbf38f1fbeb3f2ed5e079e67e6a775",
          "blockNumber": "0x19fd6c9",
          "transactionHash": "0x524ca4d1e0d4a6f1587c87b8ad32fcde1e5869745de6c41ba9988b49096883cf",
          "transactionIndex": "0x92",
          "logIndex": "0x19c",
          "removed": false
        }
      ],
      "logsBloom": "0x04004000000000000000000000000000000000000000000000800000000000000000000000000000000000000000000000000000000000000000004000000000000004000000000000000400000000000101200000400000000000000000005000000000020000000000000000000800000000000020000200000000000000408000000000000000000800004000000000000000000080000000100004000000008000008001000000000140000000000800000000100000003000010000000000000000004000000000000010000000000000040004000000000001000020000000000000004000400000000000000000000000008000800000000000400000",
      "type": "0x2",
      "transactionHash": "0x524ca4d1e0d4a6f1587c87b8ad32fcde1e5869745de6c41ba9988b49096883cf",
      "transactionIndex": "0x92",
      "blockHash": "0x73e5449a60b84ac8f3472c321b0ba0ed16cbf38f1fbeb3f2ed5e079e67e6a775",
      "blockNumber": "0x19fd6c9",
      "gasUsed": "0x4d24f",
      "effectiveGasPrice": "0x2dd0f2",
      "from": "0xa99526e4dc81b85c1d248ca974eadce81837ecf1",
      "to": "0xf04a4b0ce209af4017648fa93d2bb348ecb116d6",
      "contractAddress": null,
      "l1BaseFeeScalar": "0x8dd",
      "l1BlobBaseFee": "0x8a1f51",
      "l1BlobBaseFeeScalar": "0x101c12",
      "l1Fee": "0xd3073945",
      "l1GasPrice": "0x2a7008fc",
      "l1GasUsed": "0x640"
    },
    {
      "status": "0x1",
      "cumulativeGasUsed": "0x21086dc",
      "logs": [
        {
          "address": "0x315cab57c6ac91d42893ce265a8332c17a6e79f8",
          "topics": [
            "0x367184f1bb13aa656fb065e5e2b1104b30f71206d03961639cac77f3a6b33176",
            "0x000000000000000000000000b4ecc165e3588dc33082fb658bd166db9889a848"
          ],
          "data": "0x",
          "blockHash": "0x1392d185d5874dddf119dbeb16234aab0b691a5b2605d4075c6aacbcbb585207",
          "blockNumber": "0x19fd6cc",
          "transactionHash": "0x11edd21e4a0764d8a5540b875d414c7b40c6c602cfbb358088ba515a92a0a9ad",
          "transactionIndex": "0x99",
          "logIndex": "0x198",
          "removed": false
        },
        {
          "address": "0x315cab57c6ac91d42893ce265a8332c17a6e79f8",
          "topics": [
            "0x8be0079c531659141344cd1fd0a4f28419497f9722a3daafe3b4186f6b6457e0",
            "0x0000000000000000000000000000000000000000000000000000000000000000",
            "0x00000000000000000000000090344c0f0940a0dc86b399d5e318ff6ce023b9a6"
          ],
          "data": "0x",
          "blockHash": "0x1392d185d5874dddf119dbeb16234aab0b691a5b2605d4075c6aacbcbb585207",
          "blockNumber": "0x19fd6cc",
          "transactionHash": "0x11edd21e4a0764d8a5540b875d414c7b40c6c602cfbb358088ba515a92a0a9ad",
          "transactionIndex": "0x99",
          "logIndex": "0x199",
          "removed": false
        },
        {
          "address": "0x315cab57c6ac91d42893ce265a8332c17a6e79f8",
          "topics": [
            "0xc7f505b2f371ae2175ee4913f4499e1f2633a7b5936321eed1cdaeb6115181d2"
          ],
          "data": "0x0000000000000000000000000000000000000000000000000000000000000001",
          "blockHash": "0x1392d185d5874dddf119dbeb16234aab0b691a5b2605d4075c6aacbcbb585207",
          "blockNumber": "0x19fd6cc",
          "transactionHash": "0x11edd21e4a0764d8a5540b875d414c7b40c6c602cfbb358088ba515a92a0a9ad",
          "transactionIndex": "0x99",
          "logIndex": "0x19a",
          "removed": false
        },
        {
          "address": "0x315cab57c6ac91d42893ce265a8332c17a6e79f8",
          "topics": [
            "0x8be0079c531659141344cd1fd0a4f28419497f9722a3daafe3b4186f6b6457e0",
            "0x00000000000000000000000090344c0f0940a0dc86b399d5e318ff6ce023b9a6",
            "0x000000000000000000000000a99526e4dc81b85c1d248ca974eadce81837ecf1"
          ],
          "data": "0x",
          "blockHash": "0x1392d185d5874dddf119dbeb16234aab0b691a5b2605d4075c6aacbcbb585207",
          "blockNumber": "0x19fd6cc",
          "transactionHash": "0x11edd21e4a0764d8a5540b875d414c7b40c6c602cfbb358088ba515a92a0a9ad",
          "transactionIndex": "0x99",
          "logIndex": "0x19b",
          "removed": false
        },
        {
          "address": "0x90344c0f0940a0dc86b399d5e318ff6ce023b9a6",
          "topics": [
            "0x171ccc46ca30ce15b8e391d7e1db8cf7644ed26a313b10df70a92b13da343541",
            "0x000000000000000000000000315cab57c6ac91d42893ce265a8332c17a6e79f8",
            "0x000000000000000000000000a99526e4dc81b85c1d248ca974eadce81837ecf1"
          ],
          "data": "0x",
          "blockHash": "0x1392d185d5874dddf119dbeb16234aab0b691a5b2605d4075c6aacbcbb585207",
          "blockNumber": "0x19fd6cc",
          "transactionHash": "0x11edd21e4a0764d8a5540b875d414c7b40c6c602cfbb358088ba515a92a0a9ad",
          "transactionIndex": "0x99",
          "logIndex": "0x19c",
          "removed": false
        },
        {
          "address": "0x90344c0f0940a0dc86b399d5e318ff6ce023b9a6",
          "topics": [
            "0x2229e9930d25a4974976f5fb5461a33fcd0fefa19393ad50af745b5fa4ccce8b",
            "0x000000000000000000000000315cab57c6ac91d42893ce265a8332c17a6e79f8"
          ],
          "data": "0x00000000000000000000000000000000000000000000000000000000000000200000000000000000000000000000000000000000000000000000000000000003534f470000000000000000000000000000000000000000000000000000000000",
          "blockHash": "0x1392d185d5874dddf119dbeb16234aab0b691a5b2605d4075c6aacbcbb585207",
          "blockNumber": "0x19fd6cc",
          "transactionHash": "0x11edd21e4a0764d8a5540b875d414c7b40c6c602cfbb358088ba515a92a0a9ad",
          "transactionIndex": "0x99",
          "logIndex": "0x19d",
          "removed": false
        },
        {
          "address": "0xf04a4b0ce209af4017648fa93d2bb348ecb116d6",
          "topics": [
            "0x5902eed5cd330f690551c9c5095eacb178efeaf6896420b9473fa373b2313f1a",
            "0x000000000000000000000000315cab57c6ac91d42893ce265a8332c17a6e79f8",
            "0x0000000000000000000000000000000000000000000000000000000000000002"
          ],
          "data": "0x000000000000000000000000000000000000000000000000000000000000002000000000000000000000000000000000000000000000000000000000000000115370656c6c73206f662047656e65736973000000000000000000000000000000",
          "blockHash": "0x1392d185d5874dddf119dbeb16234aab0b691a5b2605d4075c6aacbcbb585207",
          "blockNumber": "0x19fd6cc",
          "transactionHash": "0x11edd21e4a0764d8a5540b875d414c7b40c6c602cfbb358088ba515a92a0a9ad",
          "transactionIndex": "0x99",
          "logIndex": "0x19e",
          "removed": false
        }
      ],
      "logsBloom": "0x04400000000000010000000000000000000000000000000000800000000000000000000000000000000000000000000000000000000000000000004000000000000004000000000000000400000000000101202000400000000000000000001000000000020000000000000000000800000000000000000000000000000000408000000000000000000800004000000000000000000080000000100004000000008000008001000000000140000000000800000000100004003000010000000000000000004040000000000010000000000000000004000000000000000020020000000000004000400000000000000000000000008000800000000000400000",
      "type": "0x2",
      "transactionHash": "0x11edd21e4a0764d8a5540b875d414c7b40c6c602cfbb358088ba515a92a0a9ad",
      "transactionIndex": "0x99",
      "blockHash": "0x1392d185d5874dddf119dbeb16234aab0b691a5b2605d4075c6aacbcbb585207",
      "blockNumber": "0x19fd6cc",
      "gasUsed": "0x4d2a3",
      "effectiveGasPrice": "0x2ddb94",
      "from": "0xa99526e4dc81b85c1d248ca974eadce81837ecf1",
      "to": "0xf04a4b0ce209af4017648fa93d2bb348ecb116d6",
      "contractAddress": null,
      "l1BaseFeeScalar": "0x8dd",
      "l1BlobBaseFee": "0x9b633b",
      "l1BlobBaseFeeScalar": "0x101c12",
      "l1Fee": "0xe21a0bfe",
      "l1GasPrice": "0x29654492",
      "l1GasUsed": "0x697"
    },
    {
      "status": "0x1",
      "cumulativeGasUsed": "0x1fc1fd5",
      "logs": [
        {
          "address": "0xe224ce7b5dbc6a4bc2c725b3c733c9e3bc0e4f3d",
          "topics": [
            "0x367184f1bb13aa656fb065e5e2b1104b30f71206d03961639cac77f3a6b33176",
            "0x000000000000000000000000b4ecc165e3588dc33082fb658bd166db9889a848"
          ],
          "data": "0x",
          "blockHash": "0x1388d5f6104221db5e5d290bba3bf6b11f800efa1c9d8b62792cc283a4485e5b",
          "blockNumber": "0x19fd6ce",
          "transactionHash": "0x4f741347b3463b19011fcf4fc036de3ec26bb4834aa04162e7a33b8879b2ee8e",
          "transactionIndex": "0x76",
          "logIndex": "0x14c",
          "removed": false
        },
        {
          "address": "0xe224ce7b5dbc6a4bc2c725b3c733c9e3bc0e4f3d",
          "topics": [
            "0x8be0079c531659141344cd1fd0a4f28419497f9722a3daafe3b4186f6b6457e0",
            "0x0000000000000000000000000000000000000000000000000000000000000000",
            "0x00000000000000000000000090344c0f0940a0dc86b399d5e318ff6ce023b9a6"
          ],
          "data": "0x",
          "blockHash": "0x1388d5f6104221db5e5d290bba3bf6b11f800efa1c9d8b62792cc283a4485e5b",
          "blockNumber": "0x19fd6ce",
          "transactionHash": "0x4f741347b3463b19011fcf4fc036de3ec26bb4834aa04162e7a33b8879b2ee8e",
          "transactionIndex": "0x76",
          "logIndex": "0x14d",
          "removed": false
        },
        {
          "address": "0xe224ce7b5dbc6a4bc2c725b3c733c9e3bc0e4f3d",
          "topics": [
            "0xc7f505b2f371ae2175ee4913f4499e1f2633a7b5936321eed1cdaeb6115181d2"
          ],
          "data": "0x0000000000000000000000000000000000000000000000000000000000000001",
          "blockHash": "0x1388d5f6104221db5e5d290bba3bf6b11f800efa1c9d8b62792cc283a4485e5b",
          "blockNumber": "0x19fd6ce",
          "transactionHash": "0x4f741347b3463b19011fcf4fc036de3ec26bb4834aa04162e7a33b8879b2ee8e",
          "transactionIndex": "0x76",
          "logIndex": "0x14e",
          "removed": false
        },
        {
          "address": "0xe224ce7b5dbc6a4bc2c725b3c733c9e3bc0e4f3d",
          "topics": [
            "0x8be0079c531659141344cd1fd0a4f28419497f9722a3daafe3b4186f6b6457e0",
            "0x00000000000000000000000090344c0f0940a0dc86b399d5e318ff6ce023b9a6",
            "0x000000000000000000000000a99526e4dc81b85c1d248ca974eadce81837ecf1"
          ],
          "data": "0x",
          "blockHash": "0x1388d5f6104221db5e5d290bba3bf6b11f800efa1c9d8b62792cc283a4485e5b",
          "blockNumber": "0x19fd6ce",
          "transactionHash": "0x4f741347b3463b19011fcf4fc036de3ec26bb4834aa04162e7a33b8879b2ee8e",
          "transactionIndex": "0x76",
          "logIndex": "0x14f",
          "removed": false
        },
        {
          "address": "0x90344c0f0940a0dc86b399d5e318ff6ce023b9a6",
          "topics": [
            "0x171ccc46ca30ce15b8e391d7e1db8cf7644ed26a313b10df70a92b13da343541",
            "0x000000000000000000000000e224ce7b5dbc6a4bc2c725b3c733c9e3bc0e4f3d",
            "0x000000000000000000000000a99526e4dc81b85c1d248ca974eadce81837ecf1"
          ],
          "data": "0x",
          "blockHash": "0x1388d5f6104221db5e5d290bba3bf6b11f800efa1c9d8b62792cc283a4485e5b",
          "blockNumber": "0x19fd6ce",
          "transactionHash": "0x4f741347b3463b19011fcf4fc036de3ec26bb4834aa04162e7a33b8879b2ee8e",
          "transactionIndex": "0x76",
          "logIndex": "0x150",
          "removed": false
        },
        {
          "address": "0x90344c0f0940a0dc86b399d5e318ff6ce023b9a6",
          "topics": [
            "0x2229e9930d25a4974976f5fb5461a33fcd0fefa19393ad50af745b5fa4ccce8b",
            "0x000000000000000000000000e224ce7b5dbc6a4bc2c725b3c733c9e3bc0e4f3d"
          ],
          "data": "0x0000000000000000000000000000000000000000000000000000000000000020000000000000000000000000000000000000000000000000000000000000000446414b4500000000000000000000000000000000000000000000000000000000",
          "blockHash": "0x1388d5f6104221db5e5d290bba3bf6b11f800efa1c9d8b62792cc283a4485e5b",
          "blockNumber": "0x19fd6ce",
          "transactionHash": "0x4f741347b3463b19011fcf4fc036de3ec26bb4834aa04162e7a33b8879b2ee8e",
          "transactionIndex": "0x76",
          "logIndex": "0x151",
          "removed": false
        },
        {
          "address": "0xf04a4b0ce209af4017648fa93d2bb348ecb116d6",
          "topics": [
            "0x5902eed5cd330f690551c9c5095eacb178efeaf6896420b9473fa373b2313f1a",
            "0x000000000000000000000000e224ce7b5dbc6a4bc2c725b3c733c9e3bc0e4f3d",
            "0x0000000000000000000000000000000000000000000000000000000000000002"
          ],
          "data": "0x0000000000000000000000000000000000000000000000000000000000000020000000000000000000000000000000000000000000000000000000000000000a46616b6520526172657300000000000000000000000000000000000000000000",
          "blockHash": "0x1388d5f6104221db5e5d290bba3bf6b11f800efa1c9d8b62792cc283a4485e5b",
          "blockNumber": "0x19fd6ce",
          "transactionHash": "0x4f741347b3463b19011fcf4fc036de3ec26bb4834aa04162e7a33b8879b2ee8e",
          "transactionIndex": "0x76",
          "logIndex": "0x152",
          "removed": false
        }
      ],
      "logsBloom": "0x04000000000004000008000000000000000000000000000000800000000020000000000000000000000000000000000000000000000000000000004000000000000004000400000000000400000000000101200000400000000000000000001000000000020000000000000000000800000000000000000000000000000000408000000000000000000800004000000000000000000080000000100004000000008000008001000000000140040000000800000000100000003000010000000000000000004000000000000010000000000000000004000000000000000020000000000000004000400000000000000000000000008000a00000000000400000",
      "type": "0x2",
      "transactionHash": "0x4f741347b3463b19011fcf4fc036de3ec26bb4834aa04162e7a33b8879b2ee8e",
      "transactionIndex": "0x76",
      "blockHash": "0x1388d5f6104221db5e5d290bba3bf6b11f800efa1c9d8b62792cc283a4485e5b",
      "blockNumber": "0x19fd6ce",
      "gasUsed": "0x4d25b",
      "effectiveGasPrice": "0x2ddaac",
      "from": "0xa99526e4dc81b85c1d248ca974eadce81837ecf1",
      "to": "0xf04a4b0ce209af4017648fa93d2bb348ecb116d6",
      "contractAddress": null,
      "l1BaseFeeScalar": "0x8dd",
      "l1BlobBaseFee": "0x9b633b",
      "l1BlobBaseFeeScalar": "0x101c12",
      "l1Fee": "0xd757be09",
      "l1GasPrice": "0x29654492",
      "l1GasUsed": "0x647"
    },
    {
      "status": "0x1",
      "cumulativeGasUsed": "0x3a87d3e",
      "logs": [
        {
          "address": "0xd3bea53c0e0fd46a4fa72ca021d6e3f8eb94e62d",
          "topics": [
            "0x367184f1bb13aa656fb065e5e2b1104b30f71206d03961639cac77f3a6b33176",
            "0x00000000000000000000000058fef4d865be970a7fa550cb473fe8c4c3d5a924"
          ],
          "data": "0x",
          "blockHash": "0xd9221908c12478097bdac8f64aa605c78c5f0930bbce24f72d9c639982831380",
          "blockNumber": "0x19fd6d0",
          "transactionHash": "0xfa5992b9bbbe7849fa47327599afa356103ff1c070a44d3de8d16d9c851b5e7f",
          "transactionIndex": "0xbd",
          "logIndex": "0x3e7",
          "removed": false
        },
        {
          "address": "0xd3bea53c0e0fd46a4fa72ca021d6e3f8eb94e62d",
          "topics": [
            "0x8be0079c531659141344cd1fd0a4f28419497f9722a3daafe3b4186f6b6457e0",
            "0x0000000000000000000000000000000000000000000000000000000000000000",
            "0x00000000000000000000000090344c0f0940a0dc86b399d5e318ff6ce023b9a6"
          ],
          "data": "0x",
          "blockHash": "0xd9221908c12478097bdac8f64aa605c78c5f0930bbce24f72d9c639982831380",
          "blockNumber": "0x19fd6d0",
          "transactionHash": "0xfa5992b9bbbe7849fa47327599afa356103ff1c070a44d3de8d16d9c851b5e7f",
          "transactionIndex": "0xbd",
          "logIndex": "0x3e8",
          "removed": false
        },
        {
          "address": "0xd3bea53c0e0fd46a4fa72ca021d6e3f8eb94e62d",
          "topics": [
            "0xc7f505b2f371ae2175ee4913f4499e1f2633a7b5936321eed1cdaeb6115181d2"
          ],
          "data": "0x0000000000000000000000000000000000000000000000000000000000000001",
          "blockHash": "0xd9221908c12478097bdac8f64aa605c78c5f0930bbce24f72d9c639982831380",
          "blockNumber": "0x19fd6d0",
          "transactionHash": "0xfa5992b9bbbe7849fa47327599afa356103ff1c070a44d3de8d16d9c851b5e7f",
          "transactionIndex": "0xbd",
          "logIndex": "0x3e9",
          "removed": false
        },
        {
          "address": "0xd3bea53c0e0fd46a4fa72ca021d6e3f8eb94e62d",
          "topics": [
            "0x8be0079c531659141344cd1fd0a4f28419497f9722a3daafe3b4186f6b6457e0",
            "0x00000000000000000000000090344c0f0940a0dc86b399d5e318ff6ce023b9a6",
            "0x000000000000000000000000a99526e4dc81b85c1d248ca974eadce81837ecf1"
          ],
          "data": "0x",
          "blockHash": "0xd9221908c12478097bdac8f64aa605c78c5f0930bbce24f72d9c639982831380",
          "blockNumber": "0x19fd6d0",
          "transactionHash": "0xfa5992b9bbbe7849fa47327599afa356103ff1c070a44d3de8d16d9c851b5e7f",
          "transactionIndex": "0xbd",
          "logIndex": "0x3ea",
          "removed": false
        },
        {
          "address": "0x90344c0f0940a0dc86b399d5e318ff6ce023b9a6",
          "topics": [
            "0x171ccc46ca30ce15b8e391d7e1db8cf7644ed26a313b10df70a92b13da343541",
            "0x000000000000000000000000d3bea53c0e0fd46a4fa72ca021d6e3f8eb94e62d",
            "0x000000000000000000000000a99526e4dc81b85c1d248ca974eadce81837ecf1"
          ],
          "data": "0x",
          "blockHash": "0xd9221908c12478097bdac8f64aa605c78c5f0930bbce24f72d9c639982831380",
          "blockNumber": "0x19fd6d0",
          "transactionHash": "0xfa5992b9bbbe7849fa47327599afa356103ff1c070a44d3de8d16d9c851b5e7f",
          "transactionIndex": "0xbd",
          "logIndex": "0x3eb",
          "removed": false
        },
        {
          "address": "0x90344c0f0940a0dc86b399d5e318ff6ce023b9a6",
          "topics": [
            "0xc235116ab1fd2ce09ba4690b74e2e7782ddf6f4a49eda5a12e0c320f7c65ccd6",
            "0x000000000000000000000000d3bea53c0e0fd46a4fa72ca021d6e3f8eb94e62d"
          ],
          "data": "0x000000000000000000000000000000000000000000000000000000000000004000000000000000000000000000000000000000000000000000000000000000800000000000000000000000000000000000000000000000000000000000000007456d42656c6c7300000000000000000000000000000000000000000000000000000000000000000000000000000000000000000000000000000000000000000442454c4c00000000000000000000000000000000000000000000000000000000",
          "blockHash": "0xd9221908c12478097bdac8f64aa605c78c5f0930bbce24f72d9c639982831380",
          "blockNumber": "0x19fd6d0",
          "transactionHash": "0xfa5992b9bbbe7849fa47327599afa356103ff1c070a44d3de8d16d9c851b5e7f",
          "transactionIndex": "0xbd",
          "logIndex": "0x3ec",
          "removed": false
        },
        {
          "address": "0xf04a4b0ce209af4017648fa93d2bb348ecb116d6",
          "topics": [
            "0x5902eed5cd330f690551c9c5095eacb178efeaf6896420b9473fa373b2313f1a",
            "0x000000000000000000000000d3bea53c0e0fd46a4fa72ca021d6e3f8eb94e62d",
            "0x0000000000000000000000000000000000000000000000000000000000000001"
          ],
          "data": "0x00000000000000000000000000000000000000000000000000000000000000200000000000000000000000000000000000000000000000000000000000000007456d42656c6c7300000000000000000000000000000000000000000000000000",
          "blockHash": "0xd9221908c12478097bdac8f64aa605c78c5f0930bbce24f72d9c639982831380",
          "blockNumber": "0x19fd6d0",
          "transactionHash": "0xfa5992b9bbbe7849fa47327599afa356103ff1c070a44d3de8d16d9c851b5e7f",
          "transactionIndex": "0xbd",
          "logIndex": "0x3ed",
          "removed": false
        }
      ],
      "logsBloom": "0x00000000000000000000000000100000000000000020000000800000000000000010000000000000000000000000000000000000000000000000004000040000000000000000000400000400000000000101800000440000000000000000001000000008020000004000020000000800000000000000000000000000000000408000080000000000000800004000000000000000000080000000100004000000018000008001000000000040000000000000000000100000001002010000000000000000004000000000000000000000000000000004000000010000000060000000000000004000000000000000000000000000000000800000000000400000",
      "type": "0x2",
      "transactionHash": "0xfa5992b9bbbe7849fa47327599afa356103ff1c070a44d3de8d16d9c851b5e7f",
      "transactionIndex": "0xbd",
      "blockHash": "0xd9221908c12478097bdac8f64aa605c78c5f0930bbce24f72d9c639982831380",
      "blockNumber": "0x19fd6d0",
      "gasUsed": "0x63ba7",
      "effectiveGasPrice": "0x2dc9f1",
      "from": "0xa99526e4dc81b85c1d248ca974eadce81837ecf1",
      "to": "0xf04a4b0ce209af4017648fa93d2bb348ecb116d6",
      "contractAddress": null,
      "l1BaseFeeScalar": "0x8dd",
      "l1BlobBaseFee": "0x9b633b",
      "l1BlobBaseFeeScalar": "0x101c12",
      "l1Fee": "0xd65d8e38",
      "l1GasPrice": "0x29654492",
      "l1GasUsed": "0x640"
    },
    {
      "status": "0x1",
      "cumulativeGasUsed": "0x1e9d291",
      "logs": [
        {
          "address": "0x8ad512e4960f92419edb980eb07efbb1bc0e9053",
          "topics": [
            "0x367184f1bb13aa656fb065e5e2b1104b30f71206d03961639cac77f3a6b33176",
            "0x00000000000000000000000058fef4d865be970a7fa550cb473fe8c4c3d5a924"
          ],
          "data": "0x",
          "blockHash": "0xda8cdeb3859bccf27418eedfb69f793ab22d6a1fa350b38982655e2d62d5981f",
          "blockNumber": "0x19fd6d2",
          "transactionHash": "0x74af7baed9cfd244d9f820e8384ea703e16c1c48d62c434c74bbfb37214f0126",
          "transactionIndex": "0x75",
          "logIndex": "0x172",
          "removed": false
        },
        {
          "address": "0x8ad512e4960f92419edb980eb07efbb1bc0e9053",
          "topics": [
            "0x8be0079c531659141344cd1fd0a4f28419497f9722a3daafe3b4186f6b6457e0",
            "0x0000000000000000000000000000000000000000000000000000000000000000",
            "0x00000000000000000000000090344c0f0940a0dc86b399d5e318ff6ce023b9a6"
          ],
          "data": "0x",
          "blockHash": "0xda8cdeb3859bccf27418eedfb69f793ab22d6a1fa350b38982655e2d62d5981f",
          "blockNumber": "0x19fd6d2",
          "transactionHash": "0x74af7baed9cfd244d9f820e8384ea703e16c1c48d62c434c74bbfb37214f0126",
          "transactionIndex": "0x75",
          "logIndex": "0x173",
          "removed": false
        },
        {
          "address": "0x8ad512e4960f92419edb980eb07efbb1bc0e9053",
          "topics": [
            "0xc7f505b2f371ae2175ee4913f4499e1f2633a7b5936321eed1cdaeb6115181d2"
          ],
          "data": "0x0000000000000000000000000000000000000000000000000000000000000001",
          "blockHash": "0xda8cdeb3859bccf27418eedfb69f793ab22d6a1fa350b38982655e2d62d5981f",
          "blockNumber": "0x19fd6d2",
          "transactionHash": "0x74af7baed9cfd244d9f820e8384ea703e16c1c48d62c434c74bbfb37214f0126",
          "transactionIndex": "0x75",
          "logIndex": "0x174",
          "removed": false
        },
        {
          "address": "0x8ad512e4960f92419edb980eb07efbb1bc0e9053",
          "topics": [
            "0x8be0079c531659141344cd1fd0a4f28419497f9722a3daafe3b4186f6b6457e0",
            "0x00000000000000000000000090344c0f0940a0dc86b399d5e318ff6ce023b9a6",
            "0x000000000000000000000000a99526e4dc81b85c1d248ca974eadce81837ecf1"
          ],
          "data": "0x",
          "blockHash": "0xda8cdeb3859bccf27418eedfb69f793ab22d6a1fa350b38982655e2d62d5981f",
          "blockNumber": "0x19fd6d2",
          "transactionHash": "0x74af7baed9cfd244d9f820e8384ea703e16c1c48d62c434c74bbfb37214f0126",
          "transactionIndex": "0x75",
          "logIndex": "0x175",
          "removed": false
        },
        {
          "address": "0x90344c0f0940a0dc86b399d5e318ff6ce023b9a6",
          "topics": [
            "0x171ccc46ca30ce15b8e391d7e1db8cf7644ed26a313b10df70a92b13da343541",
            "0x0000000000000000000000008ad512e4960f92419edb980eb07efbb1bc0e9053",
            "0x000000000000000000000000a99526e4dc81b85c1d248ca974eadce81837ecf1"
          ],
          "data": "0x",
          "blockHash": "0xda8cdeb3859bccf27418eedfb69f793ab22d6a1fa350b38982655e2d62d5981f",
          "blockNumber": "0x19fd6d2",
          "transactionHash": "0x74af7baed9cfd244d9f820e8384ea703e16c1c48d62c434c74bbfb37214f0126",
          "transactionIndex": "0x75",
          "logIndex": "0x176",
          "removed": false
        },
        {
          "address": "0x90344c0f0940a0dc86b399d5e318ff6ce023b9a6",
          "topics": [
            "0xc235116ab1fd2ce09ba4690b74e2e7782ddf6f4a49eda5a12e0c320f7c65ccd6",
            "0x0000000000000000000000008ad512e4960f92419edb980eb07efbb1bc0e9053"
          ],
          "data": "0x00000000000000000000000000000000000000000000000000000000000000400000000000000000000000000000000000000000000000000000000000000080000000000000000000000000000000000000000000000000000000000000000b456d626c656d204f70656e00000000000000000000000000000000000000000000000000000000000000000000000000000000000000000000000000000000044f50454e00000000000000000000000000000000000000000000000000000000",
          "blockHash": "0xda8cdeb3859bccf27418eedfb69f793ab22d6a1fa350b38982655e2d62d5981f",
          "blockNumber": "0x19fd6d2",
          "transactionHash": "0x74af7baed9cfd244d9f820e8384ea703e16c1c48d62c434c74bbfb37214f0126",
          "transactionIndex": "0x75",
          "logIndex": "0x177",
          "removed": false
        },
        {
          "address": "0xf04a4b0ce209af4017648fa93d2bb348ecb116d6",
          "topics": [
            "0x5902eed5cd330f690551c9c5095eacb178efeaf6896420b9473fa373b2313f1a",
            "0x0000000000000000000000008ad512e4960f92419edb980eb07efbb1bc0e9053",
            "0x0000000000000000000000000000000000000000000000000000000000000001"
          ],
          "data": "0x0000000000000000000000000000000000000000000000000000000000000020000000000000000000000000000000000000000000000000000000000000000b456d626c656d204f70656e000000000000000000000000000000000000000000",
          "blockHash": "0xda8cdeb3859bccf27418eedfb69f793ab22d6a1fa350b38982655e2d62d5981f",
          "blockNumber": "0x19fd6d2",
          "transactionHash": "0x74af7baed9cfd244d9f820e8384ea703e16c1c48d62c434c74bbfb37214f0126",
          "transactionIndex": "0x75",
          "logIndex": "0x178",
          "removed": false
        }
      ],
      "logsBloom": "0x00000000000000000000000000100000000000800000000000800000000000000010000000000000000000000000000000000000000000000000004000044000000000000000000000000400000000000101800000440040000000000000401000000000020000000000020000000800000000000000000000000000000000408000080000000000000800004000000000000000000480000000100004000000018000008001000000000040400000000000000000100000001000010000000000000000004000000000000000000000000000000004000000000000000060000000000000004000000000000000000000000000000000800000000000400000",
      "type": "0x2",
      "transactionHash": "0x74af7baed9cfd244d9f820e8384ea703e16c1c48d62c434c74bbfb37214f0126",
      "transactionIndex": "0x75",
      "blockHash": "0xda8cdeb3859bccf27418eedfb69f793ab22d6a1fa350b38982655e2d62d5981f",
      "blockNumber": "0x19fd6d2",
      "gasUsed": "0x63bd7",
      "effectiveGasPrice": "0x2dcea9",
      "from": "0xa99526e4dc81b85c1d248ca974eadce81837ecf1",
      "to": "0xf04a4b0ce209af4017648fa93d2bb348ecb116d6",
      "contractAddress": null,
      "l1BaseFeeScalar": "0x8dd",
      "l1BlobBaseFee": "0x8a1f51",
      "l1BlobBaseFeeScalar": "0x101c12",
      "l1Fee": "0xcec9be7c",
      "l1GasPrice": "0x2902dc74",
      "l1GasUsed": "0x647"
    },
    {
      "status": "0x1",
      "cumulativeGasUsed": "0x31921f5",
      "logs": [
        {
          "address": "0xf04a4b0ce209af4017648fa93d2bb348ecb116d6",
          "topics": [
            "0x386488dff7e0422825a9a6550182ab7f1d7ef789131917bfd8dd6ffe29afe08d",
            "0x0000000000000000000000004047bef811efc7a3e5034ce3393cc6d4a018cd0f"
          ],
          "data": "0x0000000000000000000000000000000000000000000000000000000000000020000000000000000000000000000000000000000000000000000000000000004d68747470733a2f2f76322e656d626c656d7661756c742e696f2f76332f6d6574612f3078343034376265663831316546633761334535303334636533333933634336643461303138436430462f00000000000000000000000000000000000000",
          "blockHash": "0x56395a0aa7d169a26d51bf20d543d249aceb3dd4c77287f97ee9520648951568",
          "blockNumber": "0x19fd6d5",
          "transactionHash": "0x23d5b1bf3dc6ceddeb9428a140d8cf7c914c69af1b5cc17b04e6daacab9759c4",
          "transactionIndex": "0xd7",
          "logIndex": "0x263",
          "removed": false
        }
      ],
      "logsBloom": "0x00000000000000000000000000000000000000000000000000000000000000000000000080000000000000000000000000000000000000000000000000000000000000000000000000000000000000000000000000000000000000000000000000000100000000000000000000000000000000000020000200000000000000000000000000000000000000000000000000000000000000000000000000000000008000008000000000000000000000000000000000100000000000000000000000000000000000000000000000000000000000040000000000000000000000200000000000000000000000000000000000000000000000000000000000000000",
      "type": "0x2",
      "transactionHash": "0x23d5b1bf3dc6ceddeb9428a140d8cf7c914c69af1b5cc17b04e6daacab9759c4",
      "transactionIndex": "0xd7",
      "blockHash": "0x56395a0aa7d169a26d51bf20d543d249aceb3dd4c77287f97ee9520648951568",
      "blockNumber": "0x19fd6d5",
      "gasUsed": "0x221cd",
      "effectiveGasPrice": "0x2de017",
      "from": "0xa99526e4dc81b85c1d248ca974eadce81837ecf1",
      "to": "0xf04a4b0ce209af4017648fa93d2bb348ecb116d6",
      "contractAddress": null,
      "l1BaseFeeScalar": "0x8dd",
      "l1BlobBaseFee": "0x8a1f51",
      "l1BlobBaseFeeScalar": "0x101c12",
      "l1Fee": "0x14feed5f5",
      "l1GasPrice": "0x2902dc74",
      "l1GasUsed": "0xa33"
    },
    {
      "status": "0x1",
      "cumulativeGasUsed": "0x199a113",
      "logs": [
        {
          "address": "0xf04a4b0ce209af4017648fa93d2bb348ecb116d6",
          "topics": [
            "0x386488dff7e0422825a9a6550182ab7f1d7ef789131917bfd8dd6ffe29afe08d",
            "0x000000000000000000000000315cab57c6ac91d42893ce265a8332c17a6e79f8"
          ],
          "data": "0x0000000000000000000000000000000000000000000000000000000000000020000000000000000000000000000000000000000000000000000000000000004d68747470733a2f2f76322e656d626c656d7661756c742e696f2f76332f6d6574612f3078333135634142353743364163393164343238393343653236356138333332633137613645373946382f00000000000000000000000000000000000000",
          "blockHash": "0x048ac8ba9bea929a786be1f5e4483ffa829ec5ecf5c4d1838fb178b4bf2f5c70",
          "blockNumber": "0x19fd6d8",
          "transactionHash": "0xaa5505fdf993bba11c128f3b35782d29a68fd908d526d8405adbd9d9f7e161bc",
          "transactionIndex": "0x72",
          "logIndex": "0x107",
          "removed": false
        }
      ],
      "logsBloom": "0x00400000000000000000000000000000000000000000000000000000000000000000000080000000000000000000000000000000000000000000000000000000000000000000000000000000000000000000002000000000000000000000000000000100000000000000000000000000000000000000000000000000000000000000000000000000000000000000000000000000000000000000000000000000008000008000000000000000000000000000000000100000000000000000000000000000000000000000000000000000000000000000000000000000000000220000000000000000000000000000000000000000000000000000000000000000",
      "type": "0x2",
      "transactionHash": "0xaa5505fdf993bba11c128f3b35782d29a68fd908d526d8405adbd9d9f7e161bc",
      "transactionIndex": "0x72",
      "blockHash": "0x048ac8ba9bea929a786be1f5e4483ffa829ec5ecf5c4d1838fb178b4bf2f5c70",
      "blockNumber": "0x19fd6d8",
      "gasUsed": "0x221cd",
      "effectiveGasPrice": "0x2dea7e",
      "from": "0xa99526e4dc81b85c1d248ca974eadce81837ecf1",
      "to": "0xf04a4b0ce209af4017648fa93d2bb348ecb116d6",
      "contractAddress": null,
      "l1BaseFeeScalar": "0x8dd",
      "l1BlobBaseFee": "0x8a1f51",
      "l1BlobBaseFeeScalar": "0x101c12",
      "l1Fee": "0x15930fd6d",
      "l1GasPrice": "0x2a92ea7e",
      "l1GasUsed": "0xa33"
    },
    {
      "status": "0x1",
      "cumulativeGasUsed": "0x21b90bf",
      "logs": [
        {
          "address": "0xf04a4b0ce209af4017648fa93d2bb348ecb116d6",
          "topics": [
            "0x386488dff7e0422825a9a6550182ab7f1d7ef789131917bfd8dd6ffe29afe08d",
            "0x000000000000000000000000e224ce7b5dbc6a4bc2c725b3c733c9e3bc0e4f3d"
          ],
          "data": "0x0000000000000000000000000000000000000000000000000000000000000020000000000000000000000000000000000000000000000000000000000000004d68747470733a2f2f76322e656d626c656d7661756c742e696f2f76332f6d6574612f3078653232346365376235644263366134426332433732354233633733334339653342633045346633442f00000000000000000000000000000000000000",
          "blockHash": "0x27b6bed8a507744b232fe743eb3bcb92d21162e4e88be8ec0532c8b092d28693",
          "blockNumber": "0x19fd6da",
          "transactionHash": "0xabec1185e1cf0c04d8ab201479f03e8946fa78c6c5577c04563fe40be7b1838e",
          "transactionIndex": "0x9e",
          "logIndex": "0x229",
          "removed": false
        }
      ],
      "logsBloom": "0x00000000000004000008000000000000000000000000000000000000000000000000000080000000000000000000000000000000000000000000000000000000000000000000000000000000000000000000000000000000000000000000000000000100000000000000000000000000000000000000000000000000000000000000000000000000000000000000000000000000000000000000000000000000008000008000000000000000000000000000000000100000000000000000000000000000000000000000000000000000000000000000000000000000000000200000000000000000000000000000000000000000000000200000000000000000",
      "type": "0x2",
      "transactionHash": "0xabec1185e1cf0c04d8ab201479f03e8946fa78c6c5577c04563fe40be7b1838e",
      "transactionIndex": "0x9e",
      "blockHash": "0x27b6bed8a507744b232fe743eb3bcb92d21162e4e88be8ec0532c8b092d28693",
      "blockNumber": "0x19fd6da",
      "gasUsed": "0x221cd",
      "effectiveGasPrice": "0x2ddc9a",
      "from": "0xa99526e4dc81b85c1d248ca974eadce81837ecf1",
      "to": "0xf04a4b0ce209af4017648fa93d2bb348ecb116d6",
      "contractAddress": null,
      "l1BaseFeeScalar": "0x8dd",
      "l1BlobBaseFee": "0x8a1f51",
      "l1BlobBaseFeeScalar": "0x101c12",
      "l1Fee": "0x15930fd6d",
      "l1GasPrice": "0x2a92ea7e",
      "l1GasUsed": "0xa33"
    },
    {
      "status": "0x1",
      "cumulativeGasUsed": "0x3490981",
      "logs": [
        {
          "address": "0xd3bea53c0e0fd46a4fa72ca021d6e3f8eb94e62d",
          "topics": [
            "0x6741b2fc379fad678116fe3d4d4b9a1a184ab53ba36b86ad0fa66340b1ab41ad"
          ],
          "data": "0x0000000000000000000000000000000000000000000000000000000000000020000000000000000000000000000000000000000000000000000000000000004d68747470733a2f2f76322e656d626c656d7661756c742e696f2f76332f6d6574612f3078443362454135334330453046643436613466413732636130323144364533663865423934453632442f00000000000000000000000000000000000000",
          "blockHash": "0xd8aae87559143f93e0a7b64ff1ef5db0033f89eef2c0babec283f082b24fc5af",
          "blockNumber": "0x19fd6dc",
          "transactionHash": "0xb8c2785d38fcb7341a9990803f2f4a1aec1937f50efbcec4f91e44948c68703a",
          "transactionIndex": "0xa3",
          "logIndex": "0x11c",
          "removed": false
        },
        {
          "address": "0xf04a4b0ce209af4017648fa93d2bb348ecb116d6",
          "topics": [
            "0x65936d1dee571c89e7bc171ad8e94e288d930f863c2a4a92a0593baef6573ee9",
            "0x000000000000000000000000d3bea53c0e0fd46a4fa72ca021d6e3f8eb94e62d"
          ],
          "data": "0x0000000000000000000000000000000000000000000000000000000000000020000000000000000000000000000000000000000000000000000000000000004d68747470733a2f2f76322e656d626c656d7661756c742e696f2f76332f6d6574612f3078443362454135334330453046643436613466413732636130323144364533663865423934453632442f00000000000000000000000000000000000000",
          "blockHash": "0xd8aae87559143f93e0a7b64ff1ef5db0033f89eef2c0babec283f082b24fc5af",
          "blockNumber": "0x19fd6dc",
          "transactionHash": "0xb8c2785d38fcb7341a9990803f2f4a1aec1937f50efbcec4f91e44948c68703a",
          "transactionIndex": "0xa3",
          "logIndex": "0x11d",
          "removed": false
        }
      ],
      "logsBloom": "0x00000000000000000000000000000000000004000020000000000000000000080000000000000000000000000000000000000000000000000000000000000000000000000000000400000000000000000000000000000000000000000000000000000008000000004000000000000000000000000000000000000000000000000000000000000000000000000000000000000000000000000000000000000000008001008000000000000000000000000000000000100000000002000000000000000000000000000000000200004000000000000000000000010000000000002000000000000000000000000000000000000000000000000000000000000000",
      "type": "0x2",
      "transactionHash": "0xb8c2785d38fcb7341a9990803f2f4a1aec1937f50efbcec4f91e44948c68703a",
      "transactionIndex": "0xa3",
      "blockHash": "0xd8aae87559143f93e0a7b64ff1ef5db0033f89eef2c0babec283f082b24fc5af",
      "blockNumber": "0x19fd6dc",
      "gasUsed": "0x222ff",
      "effectiveGasPrice": "0x2dcc23",
      "from": "0xa99526e4dc81b85c1d248ca974eadce81837ecf1",
      "to": "0xf04a4b0ce209af4017648fa93d2bb348ecb116d6",
      "contractAddress": null,
      "l1BaseFeeScalar": "0x8dd",
      "l1BlobBaseFee": "0x8a1f51",
      "l1BlobBaseFeeScalar": "0x101c12",
      "l1Fee": "0x15930fd6d",
      "l1GasPrice": "0x2a92ea7e",
      "l1GasUsed": "0xa33"
    },
    {
      "status": "0x1",
      "cumulativeGasUsed": "0x2f0a8a2",
      "logs": [
        {
          "address": "0x8ad512e4960f92419edb980eb07efbb1bc0e9053",
          "topics": [
            "0x6741b2fc379fad678116fe3d4d4b9a1a184ab53ba36b86ad0fa66340b1ab41ad"
          ],
          "data": "0x0000000000000000000000000000000000000000000000000000000000000020000000000000000000000000000000000000000000000000000000000000004d68747470733a2f2f76322e656d626c656d7661756c742e696f2f76332f6d6574612f3078386144353132653439363066393234313965644239383065623037456662623142633045393035332f00000000000000000000000000000000000000",
          "blockHash": "0xa27c7591698121461af3c577b3868cf2a8e76eaa0d97b1c52d9afffeab35601f",
          "blockNumber": "0x19fd6df",
          "transactionHash": "0x80309ae6571a53f5b8365c78630cf06c89b2acdf768f4f090a169d38a3f83976",
          "transactionIndex": "0x98",
          "logIndex": "0x141",
          "removed": false
        },
        {
          "address": "0xf04a4b0ce209af4017648fa93d2bb348ecb116d6",
          "topics": [
            "0x65936d1dee571c89e7bc171ad8e94e288d930f863c2a4a92a0593baef6573ee9",
            "0x0000000000000000000000008ad512e4960f92419edb980eb07efbb1bc0e9053"
          ],
          "data": "0x0000000000000000000000000000000000000000000000000000000000000020000000000000000000000000000000000000000000000000000000000000004d68747470733a2f2f76322e656d626c656d7661756c742e696f2f76332f6d6574612f3078386144353132653439363066393234313965644239383065623037456662623142633045393035332f00000000000000000000000000000000000000",
          "blockHash": "0xa27c7591698121461af3c577b3868cf2a8e76eaa0d97b1c52d9afffeab35601f",
          "blockNumber": "0x19fd6df",
          "transactionHash": "0x80309ae6571a53f5b8365c78630cf06c89b2acdf768f4f090a169d38a3f83976",
          "transactionIndex": "0x98",
          "logIndex": "0x142",
          "removed": false
        }
      ],
      "logsBloom": "0x00000000000000000000000000000000000004800000000000000000000000080000000000000000000000000000000000000000000000000000000000004000000000000000000000000000000000000000000000000040000000000000400000000000000000000000000000000000000000000000000000000000000000000000000000000000000000000000000000000000000400000000000000000000008001008000000000000000400000000000000000100000000000000000000000000000000000000000000200004000000000000000000000000000000000002000000000000000000000000000000000000000000000000000000000000000",
      "type": "0x2",
      "transactionHash": "0x80309ae6571a53f5b8365c78630cf06c89b2acdf768f4f090a169d38a3f83976",
      "transactionIndex": "0x98",
      "blockHash": "0xa27c7591698121461af3c577b3868cf2a8e76eaa0d97b1c52d9afffeab35601f",
      "blockNumber": "0x19fd6df",
      "gasUsed": "0x222ff",
      "effectiveGasPrice": "0x2de0d4",
      "from": "0xa99526e4dc81b85c1d248ca974eadce81837ecf1",
      "to": "0xf04a4b0ce209af4017648fa93d2bb348ecb116d6",
      "contractAddress": null,
      "l1BaseFeeScalar": "0x8dd",
      "l1BlobBaseFee": "0x8a1f51",
      "l1BlobBaseFeeScalar": "0x101c12",
      "l1Fee": "0x15320693a",
      "l1GasPrice": "0x298cdbc5",
      "l1GasUsed": "0xa33"
    }
  ],
  "libraries": [],
  "pending": [],
  "returns": {},
  "timestamp": 1741294330,
  "chain": 8453,
  "commit": "895e6ba"
}