{
  "transactions": [
    {
      "hash": "0x3253219e35633bae24eb20a67da520ab4d2ca3846e2d9a436524cd1a8e4ff312",
      "transactionType": "CALL",
      "contractName": null,
      "contractAddress": "0x12f084de536f41bcd29dfc7632db0261cec72c60",
      "function": "createVaultCollection(string,string,uint8)",
      "arguments": [
        "Rare Pepe",
        "PEPE",
        "2"
      ],
      "transaction": {
        "from": "0xa99526e4dc81b85c1d248ca974eadce81837ecf1",
        "to": "0x12f084de536f41bcd29dfc7632db0261cec72c60",
        "gas": "0x6a6db",
        "value": "0x0",
        "input": "0xa8008080000000000000000000000000000000000000000000000000000000000000006000000000000000000000000000000000000000000000000000000000000000a000000000000000000000000000000000000000000000000000000000000000020000000000000000000000000000000000000000000000000000000000000009526172652050657065000000000000000000000000000000000000000000000000000000000000000000000000000000000000000000000000000000000000045045504500000000000000000000000000000000000000000000000000000000",
        "nonce": "0x11",
        "chainId": "0x2105"
      },
      "additionalContracts": [
        {
          "transactionType": "CREATE",
          "address": "0xafe0130bad95763a66871e1f2fd73b8e7ee18037",
          "initCode": "0x60803460b757601f6102dc38819003918201601f19168301916001600160401b0383118484101760bb5780849260209460405283398101031260b757516001600160a01b0381169081810360b757811560a8577fa3f0ad74e5423aebfd80d3ef4346578335a9a72aeaee59ff6cb3582b35133d5055604051907f367184f1bb13aa656fb065e5e2b1104b30f71206d03961639cac77f3a6b331765f80a261020c90816100d08239f35b63d92e233d60e01b5f5260045ffd5b5f80fd5b634e487b7160e01b5f52604160045260245ffdfe60806040526004361015610015575b3661011d57005b5f3560e01c6301ffc9a70361000e57346100cb5760203660031901126100cb5760043563ffffffff60e01b81168091036100cb5760206001600160a01b0361005b610141565b16916024604051809481936301ffc9a760e01b835260048301525afa80156100d7575f90610096575b604051901515815280602081015b0390f35b506020813d6020116100cf575b816100b0602093836100dc565b810103126100cb575180151581036100cb5761009290610084565b5f80fd5b3d91506100a3565b610112565b90601f8019910116810190811067ffffffffffffffff8211176100fe57604052565b634e487b7160e01b5f52604160045260245ffd5b6040513d5f823e3d90fd5b5f80610127610141565b368280378136915af43d5f803e1561013d573d5ff35b3d5ffd5b7fa3f0ad74e5423aebfd80d3ef4346578335a9a72aeaee59ff6cb3582b35133d5054604051635c60da1b60e01b815290602090829060049082906001600160a01b03165afa9081156100d7575f91610197575090565b90506020813d6020116101ce575b816101b2602093836100dc565b810103126100cb57516001600160a01b03811681036100cb5790565b3d91506101a556fea26469706673582212205186540d9246daea2d596da38307e987a79caff5523e7590a3e843059f9dc9e364736f6c634300081c00330000000000000000000000002b05d2ec965e10db70eeee8a62ffc39e399601a6"
        }
      ],
      "isFixedGasLimit": false
    },
    {
      "hash": "0x6e9a504e3d894e7328f739ceeec2fd731a9ebd21c6d67e2a45601a6aa9e0e57a",
      "transactionType": "CALL",
      "contractName": null,
      "contractAddress": "0x12f084de536f41bcd29dfc7632db0261cec72c60",
      "function": "createVaultCollection(string,string,uint8)",
      "arguments": [
        "Spells of Genesis",
        "SOG",
        "2"
      ],
      "transaction": {
        "from": "0xa99526e4dc81b85c1d248ca974eadce81837ecf1",
        "to": "0x12f084de536f41bcd29dfc7632db0261cec72c60",
        "gas": "0x70b81",
        "value": "0x0",
        "input": "0xa8008080000000000000000000000000000000000000000000000000000000000000006000000000000000000000000000000000000000000000000000000000000000a0000000000000000000000000000000000000000000000000000000000000000200000000000000000000000000000000000000000000000000000000000000115370656c6c73206f662047656e657369730000000000000000000000000000000000000000000000000000000000000000000000000000000000000000000003534f470000000000000000000000000000000000000000000000000000000000",
        "nonce": "0x12",
        "chainId": "0x2105"
      },
      "additionalContracts": [
        {
          "transactionType": "CREATE",
          "address": "0xaaa86841631dba89f0841655a679f12b768e2fb8",
          "initCode": "0x60803460b757601f6102dc38819003918201601f19168301916001600160401b0383118484101760bb5780849260209460405283398101031260b757516001600160a01b0381169081810360b757811560a8577fa3f0ad74e5423aebfd80d3ef4346578335a9a72aeaee59ff6cb3582b35133d5055604051907f367184f1bb13aa656fb065e5e2b1104b30f71206d03961639cac77f3a6b331765f80a261020c90816100d08239f35b63d92e233d60e01b5f5260045ffd5b5f80fd5b634e487b7160e01b5f52604160045260245ffdfe60806040526004361015610015575b3661011d57005b5f3560e01c6301ffc9a70361000e57346100cb5760203660031901126100cb5760043563ffffffff60e01b81168091036100cb5760206001600160a01b0361005b610141565b16916024604051809481936301ffc9a760e01b835260048301525afa80156100d7575f90610096575b604051901515815280602081015b0390f35b506020813d6020116100cf575b816100b0602093836100dc565b810103126100cb575180151581036100cb5761009290610084565b5f80fd5b3d91506100a3565b610112565b90601f8019910116810190811067ffffffffffffffff8211176100fe57604052565b634e487b7160e01b5f52604160045260245ffd5b6040513d5f823e3d90fd5b5f80610127610141565b368280378136915af43d5f803e1561013d573d5ff35b3d5ffd5b7fa3f0ad74e5423aebfd80d3ef4346578335a9a72aeaee59ff6cb3582b35133d5054604051635c60da1b60e01b815290602090829060049082906001600160a01b03165afa9081156100d7575f91610197575090565b90506020813d6020116101ce575b816101b2602093836100dc565b810103126100cb57516001600160a01b03811681036100cb5790565b3d91506101a556fea26469706673582212205186540d9246daea2d596da38307e987a79caff5523e7590a3e843059f9dc9e364736f6c634300081c00330000000000000000000000002b05d2ec965e10db70eeee8a62ffc39e399601a6"
        }
      ],
      "isFixedGasLimit": false
    },
    {
      "hash": "0xd9733c17ae5a0b467bbc293b1291aa3dcce0d0d870aa3bbad1eee94dda7bf511",
      "transactionType": "CALL",
      "contractName": null,
      "contractAddress": "0x12f084de536f41bcd29dfc7632db0261cec72c60",
      "function": "createVaultCollection(string,string,uint8)",
      "arguments": [
        "Fake Rares",
        "FAKE",
        "2"
      ],
      "transaction": {
        "from": "0xa99526e4dc81b85c1d248ca974eadce81837ecf1",
        "to": "0x12f084de536f41bcd29dfc7632db0261cec72c60",
        "gas": "0x70b18",
        "value": "0x0",
        "input": "0xa8008080000000000000000000000000000000000000000000000000000000000000006000000000000000000000000000000000000000000000000000000000000000a00000000000000000000000000000000000000000000000000000000000000002000000000000000000000000000000000000000000000000000000000000000a46616b6520526172657300000000000000000000000000000000000000000000000000000000000000000000000000000000000000000000000000000000000446414b4500000000000000000000000000000000000000000000000000000000",
        "nonce": "0x13",
        "chainId": "0x2105"
      },
      "additionalContracts": [
        {
          "transactionType": "CREATE",
          "address": "0x6b31e7c15b0db1fab86f4be94d5d8cbc27bff98b",
          "initCode": "0x60803460b757601f6102dc38819003918201601f19168301916001600160401b0383118484101760bb5780849260209460405283398101031260b757516001600160a01b0381169081810360b757811560a8577fa3f0ad74e5423aebfd80d3ef4346578335a9a72aeaee59ff6cb3582b35133d5055604051907f367184f1bb13aa656fb065e5e2b1104b30f71206d03961639cac77f3a6b331765f80a261020c90816100d08239f35b63d92e233d60e01b5f5260045ffd5b5f80fd5b634e487b7160e01b5f52604160045260245ffdfe60806040526004361015610015575b3661011d57005b5f3560e01c6301ffc9a70361000e57346100cb5760203660031901126100cb5760043563ffffffff60e01b81168091036100cb5760206001600160a01b0361005b610141565b16916024604051809481936301ffc9a760e01b835260048301525afa80156100d7575f90610096575b604051901515815280602081015b0390f35b506020813d6020116100cf575b816100b0602093836100dc565b810103126100cb575180151581036100cb5761009290610084565b5f80fd5b3d91506100a3565b610112565b90601f8019910116810190811067ffffffffffffffff8211176100fe57604052565b634e487b7160e01b5f52604160045260245ffd5b6040513d5f823e3d90fd5b5f80610127610141565b368280378136915af43d5f803e1561013d573d5ff35b3d5ffd5b7fa3f0ad74e5423aebfd80d3ef4346578335a9a72aeaee59ff6cb3582b35133d5054604051635c60da1b60e01b815290602090829060049082906001600160a01b03165afa9081156100d7575f91610197575090565b90506020813d6020116101ce575b816101b2602093836100dc565b810103126100cb57516001600160a01b03811681036100cb5790565b3d91506101a556fea26469706673582212205186540d9246daea2d596da38307e987a79caff5523e7590a3e843059f9dc9e364736f6c634300081c00330000000000000000000000002b05d2ec965e10db70eeee8a62ffc39e399601a6"
        }
      ],
      "isFixedGasLimit": false
    },
    {
      "hash": "0x637f407ad3bd0e85299b04fe14cba5a229bd14a7f1a0b07a9588b747b69cf020",
      "transactionType": "CALL",
      "contractName": null,
      "contractAddress": "0x12f084de536f41bcd29dfc7632db0261cec72c60",
      "function": "createVaultCollection(string,string,uint8)",
      "arguments": [
        "EmBells",
        "BELL",
        "1"
      ],
      "transaction": {
        "from": "0xa99526e4dc81b85c1d248ca974eadce81837ecf1",
        "to": "0x12f084de536f41bcd29dfc7632db0261cec72c60",
        "gas": "0x89871",
        "value": "0x0",
        "input": "0xa8008080000000000000000000000000000000000000000000000000000000000000006000000000000000000000000000000000000000000000000000000000000000a000000000000000000000000000000000000000000000000000000000000000010000000000000000000000000000000000000000000000000000000000000007456d42656c6c7300000000000000000000000000000000000000000000000000000000000000000000000000000000000000000000000000000000000000000442454c4c00000000000000000000000000000000000000000000000000000000",
        "nonce": "0x14",
        "chainId": "0x2105"
      },
      "additionalContracts": [
        {
          "transactionType": "CREATE",
          "address": "0xc9eb32bc9d7162d8ce3b9b1955cecedfdda3afcf",
          "initCode": "0x60803460b757601f6102dc38819003918201601f19168301916001600160401b0383118484101760bb5780849260209460405283398101031260b757516001600160a01b0381169081810360b757811560a8577fa3f0ad74e5423aebfd80d3ef4346578335a9a72aeaee59ff6cb3582b35133d5055604051907f367184f1bb13aa656fb065e5e2b1104b30f71206d03961639cac77f3a6b331765f80a261020c90816100d08239f35b63d92e233d60e01b5f5260045ffd5b5f80fd5b634e487b7160e01b5f52604160045260245ffdfe60806040526004361015610015575b3661011d57005b5f3560e01c6301ffc9a70361000e57346100cb5760203660031901126100cb5760043563ffffffff60e01b81168091036100cb5760206001600160a01b0361005b610141565b16916024604051809481936301ffc9a760e01b835260048301525afa80156100d7575f90610096575b604051901515815280602081015b0390f35b506020813d6020116100cf575b816100b0602093836100dc565b810103126100cb575180151581036100cb5761009290610084565b5f80fd5b3d91506100a3565b610112565b90601f8019910116810190811067ffffffffffffffff8211176100fe57604052565b634e487b7160e01b5f52604160045260245ffd5b6040513d5f823e3d90fd5b5f80610127610141565b368280378136915af43d5f803e1561013d573d5ff35b3d5ffd5b7fa3f0ad74e5423aebfd80d3ef4346578335a9a72aeaee59ff6cb3582b35133d5054604051635c60da1b60e01b815290602090829060049082906001600160a01b03165afa9081156100d7575f91610197575090565b90506020813d6020116101ce575b816101b2602093836100dc565b810103126100cb57516001600160a01b03811681036100cb5790565b3d91506101a556fea2646970667358221220fd058f8f6583f312edd36ca1cba22721ceb1df298598d2e86986cc36fb65341464736f6c634300081c00330000000000000000000000008977704a454fe2063336324027440d7bc56689aa"
        }
      ],
      "isFixedGasLimit": false
    },
    {
      "hash": "0x38353f08fecae61cd7b5686b4bc16411702f10d4418bc564b7e9087ebd82b44c",
      "transactionType": "CALL",
      "contractName": null,
      "contractAddress": "0x12f084de536f41bcd29dfc7632db0261cec72c60",
      "function": "createVaultCollection(string,string,uint8)",
      "arguments": [
        "Emblem Open",
        "OPEN",
        "1"
      ],
      "transaction": {
        "from": "0xa99526e4dc81b85c1d248ca974eadce81837ecf1",
        "to": "0x12f084de536f41bcd29dfc7632db0261cec72c60",
        "gas": "0x898b3",
        "value": "0x0",
        "input": "0xa8008080000000000000000000000000000000000000000000000000000000000000006000000000000000000000000000000000000000000000000000000000000000a00000000000000000000000000000000000000000000000000000000000000001000000000000000000000000000000000000000000000000000000000000000b456d626c656d204f70656e00000000000000000000000000000000000000000000000000000000000000000000000000000000000000000000000000000000044f50454e00000000000000000000000000000000000000000000000000000000",
        "nonce": "0x15",
        "chainId": "0x2105"
      },
      "additionalContracts": [
        {
          "transactionType": "CREATE",
          "address": "0x8cb5ac17520ba1aefbccf632576283c7d8cba816",
          "initCode": "0x60803460b757601f6102dc38819003918201601f19168301916001600160401b0383118484101760bb5780849260209460405283398101031260b757516001600160a01b0381169081810360b757811560a8577fa3f0ad74e5423aebfd80d3ef4346578335a9a72aeaee59ff6cb3582b35133d5055604051907f367184f1bb13aa656fb065e5e2b1104b30f71206d03961639cac77f3a6b331765f80a261020c90816100d08239f35b63d92e233d60e01b5f5260045ffd5b5f80fd5b634e487b7160e01b5f52604160045260245ffdfe60806040526004361015610015575b3661011d57005b5f3560e01c6301ffc9a70361000e57346100cb5760203660031901126100cb5760043563ffffffff60e01b81168091036100cb5760206001600160a01b0361005b610141565b16916024604051809481936301ffc9a760e01b835260048301525afa80156100d7575f90610096575b604051901515815280602081015b0390f35b506020813d6020116100cf575b816100b0602093836100dc565b810103126100cb575180151581036100cb5761009290610084565b5f80fd5b3d91506100a3565b610112565b90601f8019910116810190811067ffffffffffffffff8211176100fe57604052565b634e487b7160e01b5f52604160045260245ffd5b6040513d5f823e3d90fd5b5f80610127610141565b368280378136915af43d5f803e1561013d573d5ff35b3d5ffd5b7fa3f0ad74e5423aebfd80d3ef4346578335a9a72aeaee59ff6cb3582b35133d5054604051635c60da1b60e01b815290602090829060049082906001600160a01b03165afa9081156100d7575f91610197575090565b90506020813d6020116101ce575b816101b2602093836100dc565b810103126100cb57516001600160a01b03811681036100cb5790565b3d91506101a556fea2646970667358221220fd058f8f6583f312edd36ca1cba22721ceb1df298598d2e86986cc36fb65341464736f6c634300081c00330000000000000000000000008977704a454fe2063336324027440d7bc56689aa"
        }
      ],
      "isFixedGasLimit": false
    },
    {
      "hash": "0x6a206aa7a06f4ade6a57b19e93a71b555504a5d31095c8b46ec2075ad1ce413d",
      "transactionType": "CALL",
      "contractName": null,
      "contractAddress": "0x12f084de536f41bcd29dfc7632db0261cec72c60",
      "function": "setCollectionURI(address,string)",
      "arguments": [
        "0xAfE0130Bad95763A66871e1F2fd73B8e7ee18037",
        "https://v2.emblemvault.io/v3/meta/0xAfE0130Bad95763A66871e1F2fd73B8e7ee18037/"
      ],
      "transaction": {
        "from": "0xa99526e4dc81b85c1d248ca974eadce81837ecf1",
        "to": "0x12f084de536f41bcd29dfc7632db0261cec72c60",
        "gas": "0x2ef35",
        "value": "0x0",
        "input": "0x23f019fd000000000000000000000000afe0130bad95763a66871e1f2fd73b8e7ee180370000000000000000000000000000000000000000000000000000000000000040000000000000000000000000000000000000000000000000000000000000004d68747470733a2f2f76322e656d626c656d7661756c742e696f2f76332f6d6574612f3078416645303133304261643935373633413636383731653146326664373342386537656531383033372f00000000000000000000000000000000000000",
        "nonce": "0x16",
        "chainId": "0x2105"
      },
      "additionalContracts": [],
      "isFixedGasLimit": false
    },
    {
      "hash": "0x562a17a0c8eba5600bc538d811b4b34e055f5fcc309c3ccec2e8a1ad9d936ca5",
      "transactionType": "CALL",
      "contractName": null,
      "contractAddress": "0x12f084de536f41bcd29dfc7632db0261cec72c60",
      "function": "setCollectionURI(address,string)",
      "arguments": [
        "0xAAA86841631DbA89F0841655a679F12b768E2FB8",
        "https://v2.emblemvault.io/v3/meta/0xAAA86841631DbA89F0841655a679F12b768E2FB8/"
      ],
      "transaction": {
        "from": "0xa99526e4dc81b85c1d248ca974eadce81837ecf1",
        "to": "0x12f084de536f41bcd29dfc7632db0261cec72c60",
        "gas": "0x2ef35",
        "value": "0x0",
        "input": "0x23f019fd000000000000000000000000aaa86841631dba89f0841655a679f12b768e2fb80000000000000000000000000000000000000000000000000000000000000040000000000000000000000000000000000000000000000000000000000000004d68747470733a2f2f76322e656d626c656d7661756c742e696f2f76332f6d6574612f3078414141383638343136333144624138394630383431363535613637394631326237363845324642382f00000000000000000000000000000000000000",
        "nonce": "0x17",
        "chainId": "0x2105"
      },
      "additionalContracts": [],
      "isFixedGasLimit": false
    },
    {
      "hash": "0x1a0e604836e5574a844657f26f144083efc5097051beab0af54ffbaea88bbd83",
      "transactionType": "CALL",
      "contractName": null,
      "contractAddress": "0x12f084de536f41bcd29dfc7632db0261cec72c60",
      "function": "setCollectionURI(address,string)",
      "arguments": [
        "0x6b31E7c15B0db1Fab86F4BE94d5D8cBC27BFF98b",
        "https://v2.emblemvault.io/v3/meta/0x6b31E7c15B0db1Fab86F4BE94d5D8cBC27BFF98b/"
      ],
      "transaction": {
        "from": "0xa99526e4dc81b85c1d248ca974eadce81837ecf1",
        "to": "0x12f084de536f41bcd29dfc7632db0261cec72c60",
        "gas": "0x2ef35",
        "value": "0x0",
        "input": "0x23f019fd0000000000000000000000006b31e7c15b0db1fab86f4be94d5d8cbc27bff98b0000000000000000000000000000000000000000000000000000000000000040000000000000000000000000000000000000000000000000000000000000004d68747470733a2f2f76322e656d626c656d7661756c742e696f2f76332f6d6574612f3078366233314537633135423064623146616238364634424539346435443863424332374246463938622f00000000000000000000000000000000000000",
        "nonce": "0x18",
        "chainId": "0x2105"
      },
      "additionalContracts": [],
      "isFixedGasLimit": false
    },
    {
      "hash": "0xd8fdb65f5a2b223b064e8b333023738a403a14d7c932feb33dafc3a1ff81af31",
      "transactionType": "CALL",
      "contractName": null,
      "contractAddress": "0x12f084de536f41bcd29dfc7632db0261cec72c60",
      "function": "setCollectionBaseURI(address,string)",
      "arguments": [
        "0xC9eB32bC9D7162d8Ce3B9b1955cecEdfDda3AfCf",
        "https://v2.emblemvault.io/v3/meta/0xC9eB32bC9D7162d8Ce3B9b1955cecEdfDda3AfCf/"
      ],
      "transaction": {
        "from": "0xa99526e4dc81b85c1d248ca974eadce81837ecf1",
        "to": "0x12f084de536f41bcd29dfc7632db0261cec72c60",
        "gas": "0x2f0db",
        "value": "0x0",
        "input": "0x80aed2a9000000000000000000000000c9eb32bc9d7162d8ce3b9b1955cecedfdda3afcf0000000000000000000000000000000000000000000000000000000000000040000000000000000000000000000000000000000000000000000000000000004d68747470733a2f2f76322e656d626c656d7661756c742e696f2f76332f6d6574612f3078433965423332624339443731363264384365334239623139353563656345646644646133416643662f00000000000000000000000000000000000000",
        "nonce": "0x19",
        "chainId": "0x2105"
      },
      "additionalContracts": [],
      "isFixedGasLimit": false
    },
    {
      "hash": "0x7344c8107b5da807746d1d831db2cb7bfa7971d0c50c2eb469a32b7ff8f05b3a",
      "transactionType": "CALL",
      "contractName": null,
      "contractAddress": "0x12f084de536f41bcd29dfc7632db0261cec72c60",
      "function": "setCollectionBaseURI(address,string)",
      "arguments": [
        "0x8CB5Ac17520ba1aeFBccF632576283c7d8CbA816",
        "https://v2.emblemvault.io/v3/meta/0x8CB5Ac17520ba1aeFBccF632576283c7d8CbA816/"
      ],
      "transaction": {
        "from": "0xa99526e4dc81b85c1d248ca974eadce81837ecf1",
        "to": "0x12f084de536f41bcd29dfc7632db0261cec72c60",
        "gas": "0x2f0db",
        "value": "0x0",
        "input": "0x80aed2a90000000000000000000000008cb5ac17520ba1aefbccf632576283c7d8cba8160000000000000000000000000000000000000000000000000000000000000040000000000000000000000000000000000000000000000000000000000000004d68747470733a2f2f76322e656d626c656d7661756c742e696f2f76332f6d6574612f3078384342354163313735323062613161654642636346363332353736323833633764384362413831362f00000000000000000000000000000000000000",
        "nonce": "0x1a",
        "chainId": "0x2105"
      },
      "additionalContracts": [],
      "isFixedGasLimit": false
    }
  ],
  "receipts": [
    {
      "status": "0x1",
      "cumulativeGasUsed": "0x30c16e3",
      "logs": [
        {
          "address": "0xafe0130bad95763a66871e1f2fd73b8e7ee18037",
          "topics": [
            "0x367184f1bb13aa656fb065e5e2b1104b30f71206d03961639cac77f3a6b33176",
            "0x0000000000000000000000002b05d2ec965e10db70eeee8a62ffc39e399601a6"
          ],
          "data": "0x",
          "blockHash": "0x6ca8cf32cfbab7b8317f91fa608bbdba94d284a64c3457c3462ab1762d51e9bb",
          "blockNumber": "0x188dc5b",
          "transactionHash": "0x3253219e35633bae24eb20a67da520ab4d2ca3846e2d9a436524cd1a8e4ff312",
          "transactionIndex": "0x11b",
          "logIndex": "0x200",
          "removed": false
        },
        {
          "address": "0xafe0130bad95763a66871e1f2fd73b8e7ee18037",
          "topics": [
            "0x8be0079c531659141344cd1fd0a4f28419497f9722a3daafe3b4186f6b6457e0",
            "0x0000000000000000000000000000000000000000000000000000000000000000",
            "0x000000000000000000000000109de29e0fb4de58a66ce077253e0604d81ad14c"
          ],
          "data": "0x",
          "blockHash": "0x6ca8cf32cfbab7b8317f91fa608bbdba94d284a64c3457c3462ab1762d51e9bb",
          "blockNumber": "0x188dc5b",
          "transactionHash": "0x3253219e35633bae24eb20a67da520ab4d2ca3846e2d9a436524cd1a8e4ff312",
          "transactionIndex": "0x11b",
          "logIndex": "0x201",
          "removed": false
        },
        {
          "address": "0xafe0130bad95763a66871e1f2fd73b8e7ee18037",
          "topics": [
            "0xc7f505b2f371ae2175ee4913f4499e1f2633a7b5936321eed1cdaeb6115181d2"
          ],
          "data": "0x0000000000000000000000000000000000000000000000000000000000000001",
          "blockHash": "0x6ca8cf32cfbab7b8317f91fa608bbdba94d284a64c3457c3462ab1762d51e9bb",
          "blockNumber": "0x188dc5b",
          "transactionHash": "0x3253219e35633bae24eb20a67da520ab4d2ca3846e2d9a436524cd1a8e4ff312",
          "transactionIndex": "0x11b",
          "logIndex": "0x202",
          "removed": false
        },
        {
          "address": "0xafe0130bad95763a66871e1f2fd73b8e7ee18037",
          "topics": [
            "0x8be0079c531659141344cd1fd0a4f28419497f9722a3daafe3b4186f6b6457e0",
            "0x000000000000000000000000109de29e0fb4de58a66ce077253e0604d81ad14c",
            "0x000000000000000000000000a99526e4dc81b85c1d248ca974eadce81837ecf1"
          ],
          "data": "0x",
          "blockHash": "0x6ca8cf32cfbab7b8317f91fa608bbdba94d284a64c3457c3462ab1762d51e9bb",
          "blockNumber": "0x188dc5b",
          "transactionHash": "0x3253219e35633bae24eb20a67da520ab4d2ca3846e2d9a436524cd1a8e4ff312",
          "transactionIndex": "0x11b",
          "logIndex": "0x203",
          "removed": false
        },
        {
          "address": "0x109de29e0fb4de58a66ce077253e0604d81ad14c",
          "topics": [
            "0x171ccc46ca30ce15b8e391d7e1db8cf7644ed26a313b10df70a92b13da343541",
            "0x000000000000000000000000afe0130bad95763a66871e1f2fd73b8e7ee18037",
            "0x000000000000000000000000a99526e4dc81b85c1d248ca974eadce81837ecf1"
          ],
          "data": "0x",
          "blockHash": "0x6ca8cf32cfbab7b8317f91fa608bbdba94d284a64c3457c3462ab1762d51e9bb",
          "blockNumber": "0x188dc5b",
          "transactionHash": "0x3253219e35633bae24eb20a67da520ab4d2ca3846e2d9a436524cd1a8e4ff312",
          "transactionIndex": "0x11b",
          "logIndex": "0x204",
          "removed": false
        },
        {
          "address": "0x109de29e0fb4de58a66ce077253e0604d81ad14c",
          "topics": [
            "0x2229e9930d25a4974976f5fb5461a33fcd0fefa19393ad50af745b5fa4ccce8b",
            "0x000000000000000000000000afe0130bad95763a66871e1f2fd73b8e7ee18037"
          ],
          "data": "0x000000000000000000000000000000000000000000000000000000000000002000000000000000000000000000000000000000000000000000000000000000045045504500000000000000000000000000000000000000000000000000000000",
          "blockHash": "0x6ca8cf32cfbab7b8317f91fa608bbdba94d284a64c3457c3462ab1762d51e9bb",
          "blockNumber": "0x188dc5b",
          "transactionHash": "0x3253219e35633bae24eb20a67da520ab4d2ca3846e2d9a436524cd1a8e4ff312",
          "transactionIndex": "0x11b",
          "logIndex": "0x205",
          "removed": false
        },
        {
          "address": "0x12f084de536f41bcd29dfc7632db0261cec72c60",
          "topics": [
            "0x5902eed5cd330f690551c9c5095eacb178efeaf6896420b9473fa373b2313f1a",
            "0x000000000000000000000000afe0130bad95763a66871e1f2fd73b8e7ee18037",
            "0x0000000000000000000000000000000000000000000000000000000000000002"
          ],
          "data": "0x000000000000000000000000000000000000000000000000000000000000002000000000000000000000000000000000000000000000000000000000000000095261726520506570650000000000000000000000000000000000000000000000",
          "blockHash": "0x6ca8cf32cfbab7b8317f91fa608bbdba94d284a64c3457c3462ab1762d51e9bb",
          "blockNumber": "0x188dc5b",
          "transactionHash": "0x3253219e35633bae24eb20a67da520ab4d2ca3846e2d9a436524cd1a8e4ff312",
          "transactionIndex": "0x11b",
          "logIndex": "0x206",
          "removed": false
        }
      ],
      "logsBloom": "0x04000000000000000800000000000000004008800000000000800000002000000000000000000800000000000004000000000000002000000000004000000000000000000000000000000400800000000101200000010000000000400800000000000080020000000000040000000800000000000000000000000000000000408000000000000000000800004000000000000000000080000000100004000000000000000800004000000140000000000800000000000000003000000000000000000000004000000000000000080000000000000004000000000000000020000000000000000000000000000000000000000000008000800040000000400000",
      "type": "0x2",
      "transactionHash": "0x3253219e35633bae24eb20a67da520ab4d2ca3846e2d9a436524cd1a8e4ff312",
      "transactionIndex": "0x11b",
      "blockHash": "0x6ca8cf32cfbab7b8317f91fa608bbdba94d284a64c3457c3462ab1762d51e9bb",
      "blockNumber": "0x188dc5b",
      "gasUsed": "0x4d0d7",
      "effectiveGasPrice": "0x383090",
      "from": "0xa99526e4dc81b85c1d248ca974eadce81837ecf1",
      "to": "0x12f084de536f41bcd29dfc7632db0261cec72c60",
      "contractAddress": null,
      "l1BaseFeeScalar": "0x8dd",
      "l1BlobBaseFee": "0x63654",
      "l1BlobBaseFeeScalar": "0x101c12",
      "l1Fee": "0x1cc4e01a5",
      "l1GasPrice": "0x7e16068a",
      "l1GasUsed": "0x640"
    },
    {
      "status": "0x1",
      "cumulativeGasUsed": "0x23e1825",
      "logs": [
        {
          "address": "0xaaa86841631dba89f0841655a679f12b768e2fb8",
          "topics": [
            "0x367184f1bb13aa656fb065e5e2b1104b30f71206d03961639cac77f3a6b33176",
            "0x0000000000000000000000002b05d2ec965e10db70eeee8a62ffc39e399601a6"
          ],
          "data": "0x",
          "blockHash": "0xe556771cb4cbbc0a22bdd2d0a8061a73ba08851344b3e10078419a5476c89357",
          "blockNumber": "0x188dc5d",
          "transactionHash": "0x6e9a504e3d894e7328f739ceeec2fd731a9ebd21c6d67e2a45601a6aa9e0e57a",
          "transactionIndex": "0x12e",
          "logIndex": "0x194",
          "removed": false
        },
        {
          "address": "0xaaa86841631dba89f0841655a679f12b768e2fb8",
          "topics": [
            "0x8be0079c531659141344cd1fd0a4f28419497f9722a3daafe3b4186f6b6457e0",
            "0x0000000000000000000000000000000000000000000000000000000000000000",
            "0x000000000000000000000000109de29e0fb4de58a66ce077253e0604d81ad14c"
          ],
          "data": "0x",
          "blockHash": "0xe556771cb4cbbc0a22bdd2d0a8061a73ba08851344b3e10078419a5476c89357",
          "blockNumber": "0x188dc5d",
          "transactionHash": "0x6e9a504e3d894e7328f739ceeec2fd731a9ebd21c6d67e2a45601a6aa9e0e57a",
          "transactionIndex": "0x12e",
          "logIndex": "0x195",
          "removed": false
        },
        {
          "address": "0xaaa86841631dba89f0841655a679f12b768e2fb8",
          "topics": [
            "0xc7f505b2f371ae2175ee4913f4499e1f2633a7b5936321eed1cdaeb6115181d2"
          ],
          "data": "0x0000000000000000000000000000000000000000000000000000000000000001",
          "blockHash": "0xe556771cb4cbbc0a22bdd2d0a8061a73ba08851344b3e10078419a5476c89357",
          "blockNumber": "0x188dc5d",
          "transactionHash": "0x6e9a504e3d894e7328f739ceeec2fd731a9ebd21c6d67e2a45601a6aa9e0e57a",
          "transactionIndex": "0x12e",
          "logIndex": "0x196",
          "removed": false
        },
        {
          "address": "0xaaa86841631dba89f0841655a679f12b768e2fb8",
          "topics": [
            "0x8be0079c531659141344cd1fd0a4f28419497f9722a3daafe3b4186f6b6457e0",
            "0x000000000000000000000000109de29e0fb4de58a66ce077253e0604d81ad14c",
            "0x000000000000000000000000a99526e4dc81b85c1d248ca974eadce81837ecf1"
          ],
          "data": "0x",
          "blockHash": "0xe556771cb4cbbc0a22bdd2d0a8061a73ba08851344b3e10078419a5476c89357",
          "blockNumber": "0x188dc5d",
          "transactionHash": "0x6e9a504e3d894e7328f739ceeec2fd731a9ebd21c6d67e2a45601a6aa9e0e57a",
          "transactionIndex": "0x12e",
          "logIndex": "0x197",
          "removed": false
        },
        {
          "address": "0x109de29e0fb4de58a66ce077253e0604d81ad14c",
          "topics": [
            "0x171ccc46ca30ce15b8e391d7e1db8cf7644ed26a313b10df70a92b13da343541",
            "0x000000000000000000000000aaa86841631dba89f0841655a679f12b768e2fb8",
            "0x000000000000000000000000a99526e4dc81b85c1d248ca974eadce81837ecf1"
          ],
          "data": "0x",
          "blockHash": "0xe556771cb4cbbc0a22bdd2d0a8061a73ba08851344b3e10078419a5476c89357",
          "blockNumber": "0x188dc5d",
          "transactionHash": "0x6e9a504e3d894e7328f739ceeec2fd731a9ebd21c6d67e2a45601a6aa9e0e57a",
          "transactionIndex": "0x12e",
          "logIndex": "0x198",
          "removed": false
        },
        {
          "address": "0x109de29e0fb4de58a66ce077253e0604d81ad14c",
          "topics": [
            "0x2229e9930d25a4974976f5fb5461a33fcd0fefa19393ad50af745b5fa4ccce8b",
            "0x000000000000000000000000aaa86841631dba89f0841655a679f12b768e2fb8"
          ],
          "data": "0x00000000000000000000000000000000000000000000000000000000000000200000000000000000000000000000000000000000000000000000000000000003534f470000000000000000000000000000000000000000000000000000000000",
          "blockHash": "0xe556771cb4cbbc0a22bdd2d0a8061a73ba08851344b3e10078419a5476c89357",
          "blockNumber": "0x188dc5d",
          "transactionHash": "0x6e9a504e3d894e7328f739ceeec2fd731a9ebd21c6d67e2a45601a6aa9e0e57a",
          "transactionIndex": "0x12e",
          "logIndex": "0x199",
          "removed": false
        },
        {
          "address": "0x12f084de536f41bcd29dfc7632db0261cec72c60",
          "topics": [
            "0x5902eed5cd330f690551c9c5095eacb178efeaf6896420b9473fa373b2313f1a",
            "0x000000000000000000000000aaa86841631dba89f0841655a679f12b768e2fb8",
            "0x0000000000000000000000000000000000000000000000000000000000000002"
          ],
          "data": "0x000000000000000000000000000000000000000000000000000000000000002000000000000000000000000000000000000000000000000000000000000000115370656c6c73206f662047656e65736973000000000000000000000000000000",
          "blockHash": "0xe556771cb4cbbc0a22bdd2d0a8061a73ba08851344b3e10078419a5476c89357",
          "blockNumber": "0x188dc5d",
          "transactionHash": "0x6e9a504e3d894e7328f739ceeec2fd731a9ebd21c6d67e2a45601a6aa9e0e57a",
          "transactionIndex": "0x12e",
          "logIndex": "0x19a",
          "removed": false
        }
      ],
      "logsBloom": "0x04000000000000000800000000000000000008800000000000800000002000000000000000000000000000000004000000000000002000000000004000000000000000000000000000000400800000000101200000000000000000000800000000000080020000000000040000000800000000000000000000000000000000408000200000000000000800004000000000000000000080000000100004000000000000000880084000000140000000000840000000000000003000800000000000000000004000000000000000080000000000000004000000000000000020000000000000000000000000000000000000000000008000800000000000400000",
      "type": "0x2",
      "transactionHash": "0x6e9a504e3d894e7328f739ceeec2fd731a9ebd21c6d67e2a45601a6aa9e0e57a",
      "transactionIndex": "0x12e",
      "blockHash": "0xe556771cb4cbbc0a22bdd2d0a8061a73ba08851344b3e10078419a5476c89357",
      "blockNumber": "0x188dc5d",
      "gasUsed": "0x4d12b",
      "effectiveGasPrice": "0x38422b",
      "from": "0xa99526e4dc81b85c1d248ca974eadce81837ecf1",
      "to": "0x12f084de536f41bcd29dfc7632db0261cec72c60",
      "contractAddress": null,
      "l1BaseFeeScalar": "0x8dd",
      "l1BlobBaseFee": "0x6b83d",
      "l1BlobBaseFeeScalar": "0x101c12",
      "l1Fee": "0x1e0576192",
      "l1GasPrice": "0x7cadfc8b",
      "l1GasUsed": "0x697"
    },
    {
      "status": "0x1",
      "cumulativeGasUsed": "0x27a332b",
      "logs": [
        {
          "address": "0x6b31e7c15b0db1fab86f4be94d5d8cbc27bff98b",
          "topics": [
            "0x367184f1bb13aa656fb065e5e2b1104b30f71206d03961639cac77f3a6b33176",
            "0x0000000000000000000000002b05d2ec965e10db70eeee8a62ffc39e399601a6"
          ],
          "data": "0x",
          "blockHash": "0x9c56049deda966018f8960fdf3ff3b22f6eb54b3a1d1f5c850b2e4eb2f8d5713",
          "blockNumber": "0x188dc5f",
          "transactionHash": "0xd9733c17ae5a0b467bbc293b1291aa3dcce0d0d870aa3bbad1eee94dda7bf511",
          "transactionIndex": "0x109",
          "logIndex": "0x17b",
          "removed": false
        },
        {
          "address": "0x6b31e7c15b0db1fab86f4be94d5d8cbc27bff98b",
          "topics": [
            "0x8be0079c531659141344cd1fd0a4f28419497f9722a3daafe3b4186f6b6457e0",
            "0x0000000000000000000000000000000000000000000000000000000000000000",
            "0x000000000000000000000000109de29e0fb4de58a66ce077253e0604d81ad14c"
          ],
          "data": "0x",
          "blockHash": "0x9c56049deda966018f8960fdf3ff3b22f6eb54b3a1d1f5c850b2e4eb2f8d5713",
          "blockNumber": "0x188dc5f",
          "transactionHash": "0xd9733c17ae5a0b467bbc293b1291aa3dcce0d0d870aa3bbad1eee94dda7bf511",
          "transactionIndex": "0x109",
          "logIndex": "0x17c",
          "removed": false
        },
        {
          "address": "0x6b31e7c15b0db1fab86f4be94d5d8cbc27bff98b",
          "topics": [
            "0xc7f505b2f371ae2175ee4913f4499e1f2633a7b5936321eed1cdaeb6115181d2"
          ],
          "data": "0x0000000000000000000000000000000000000000000000000000000000000001",
          "blockHash": "0x9c56049deda966018f8960fdf3ff3b22f6eb54b3a1d1f5c850b2e4eb2f8d5713",
          "blockNumber": "0x188dc5f",
          "transactionHash": "0xd9733c17ae5a0b467bbc293b1291aa3dcce0d0d870aa3bbad1eee94dda7bf511",
          "transactionIndex": "0x109",
          "logIndex": "0x17d",
          "removed": false
        },
        {
          "address": "0x6b31e7c15b0db1fab86f4be94d5d8cbc27bff98b",
          "topics": [
            "0x8be0079c531659141344cd1fd0a4f28419497f9722a3daafe3b4186f6b6457e0",
            "0x000000000000000000000000109de29e0fb4de58a66ce077253e0604d81ad14c",
            "0x000000000000000000000000a99526e4dc81b85c1d248ca974eadce81837ecf1"
          ],
          "data": "0x",
          "blockHash": "0x9c56049deda966018f8960fdf3ff3b22f6eb54b3a1d1f5c850b2e4eb2f8d5713",
          "blockNumber": "0x188dc5f",
          "transactionHash": "0xd9733c17ae5a0b467bbc293b1291aa3dcce0d0d870aa3bbad1eee94dda7bf511",
          "transactionIndex": "0x109",
          "logIndex": "0x17e",
          "removed": false
        },
        {
          "address": "0x109de29e0fb4de58a66ce077253e0604d81ad14c",
          "topics": [
            "0x171ccc46ca30ce15b8e391d7e1db8cf7644ed26a313b10df70a92b13da343541",
            "0x0000000000000000000000006b31e7c15b0db1fab86f4be94d5d8cbc27bff98b",
            "0x000000000000000000000000a99526e4dc81b85c1d248ca974eadce81837ecf1"
          ],
          "data": "0x",
          "blockHash": "0x9c56049deda966018f8960fdf3ff3b22f6eb54b3a1d1f5c850b2e4eb2f8d5713",
          "blockNumber": "0x188dc5f",
          "transactionHash": "0xd9733c17ae5a0b467bbc293b1291aa3dcce0d0d870aa3bbad1eee94dda7bf511",
          "transactionIndex": "0x109",
          "logIndex": "0x17f",
          "removed": false
        },
        {
          "address": "0x109de29e0fb4de58a66ce077253e0604d81ad14c",
          "topics": [
            "0x2229e9930d25a4974976f5fb5461a33fcd0fefa19393ad50af745b5fa4ccce8b",
            "0x0000000000000000000000006b31e7c15b0db1fab86f4be94d5d8cbc27bff98b"
          ],
          "data": "0x0000000000000000000000000000000000000000000000000000000000000020000000000000000000000000000000000000000000000000000000000000000446414b4500000000000000000000000000000000000000000000000000000000",
          "blockHash": "0x9c56049deda966018f8960fdf3ff3b22f6eb54b3a1d1f5c850b2e4eb2f8d5713",
          "blockNumber": "0x188dc5f",
          "transactionHash": "0xd9733c17ae5a0b467bbc293b1291aa3dcce0d0d870aa3bbad1eee94dda7bf511",
          "transactionIndex": "0x109",
          "logIndex": "0x180",
          "removed": false
        },
        {
          "address": "0x12f084de536f41bcd29dfc7632db0261cec72c60",
          "topics": [
            "0x5902eed5cd330f690551c9c5095eacb178efeaf6896420b9473fa373b2313f1a",
            "0x0000000000000000000000006b31e7c15b0db1fab86f4be94d5d8cbc27bff98b",
            "0x0000000000000000000000000000000000000000000000000000000000000002"
          ],
          "data": "0x0000000000000000000000000000000000000000000000000000000000000020000000000000000000000000000000000000000000000000000000000000000a46616b6520526172657300000000000000000000000000000000000000000000",
          "blockHash": "0x9c56049deda966018f8960fdf3ff3b22f6eb54b3a1d1f5c850b2e4eb2f8d5713",
          "blockNumber": "0x188dc5f",
          "transactionHash": "0xd9733c17ae5a0b467bbc293b1291aa3dcce0d0d870aa3bbad1eee94dda7bf511",
          "transactionIndex": "0x109",
          "logIndex": "0x181",
          "removed": false
        }
      ],
      "logsBloom": "0x04000000000000000800000000000000000008800000000000800000000000000010000000000000000000000004000000000000002000000000004000000000000400000000000000000400800000000101200000020000001000000800000000000080020000000000040000000800000000000080000000000000000000408000000000004000000800004000000000000000000080000000100004000000000000000800004000000140000000000800000000000000003000000000000000000000004000000000000000080000000000000004000000000000000020000000000000000000000000000000000000000000008000800000000000400000",
      "type": "0x2",
      "transactionHash": "0xd9733c17ae5a0b467bbc293b1291aa3dcce0d0d870aa3bbad1eee94dda7bf511",
      "transactionIndex": "0x109",
      "blockHash": "0x9c56049deda966018f8960fdf3ff3b22f6eb54b3a1d1f5c850b2e4eb2f8d5713",
      "blockNumber": "0x188dc5f",
      "gasUsed": "0x4d0e3",
      "effectiveGasPrice": "0x384869",
      "from": "0xa99526e4dc81b85c1d248ca974eadce81837ecf1",
      "to": "0x12f084de536f41bcd29dfc7632db0261cec72c60",
      "contractAddress": null,
      "l1BaseFeeScalar": "0x8dd",
      "l1BlobBaseFee": "0x6b83d",
      "l1BlobBaseFeeScalar": "0x101c12",
      "l1Fee": "0x1c97c0158",
      "l1GasPrice": "0x7cadfc8b",
      "l1GasUsed": "0x647"
    },
    {
      "status": "0x1",
      "cumulativeGasUsed": "0x22de5a8",
      "logs": [
        {
          "address": "0xc9eb32bc9d7162d8ce3b9b1955cecedfdda3afcf",
          "topics": [
            "0x367184f1bb13aa656fb065e5e2b1104b30f71206d03961639cac77f3a6b33176",
            "0x0000000000000000000000008977704a454fe2063336324027440d7bc56689aa"
          ],
          "data": "0x",
          "blockHash": "0xbae0dd0f1df0e82a703c76859d3c21a24ae9aa08301637c243f399e15699c403",
          "blockNumber": "0x188dc60",
          "transactionHash": "0x637f407ad3bd0e85299b04fe14cba5a229bd14a7f1a0b07a9588b747b69cf020",
          "transactionIndex": "0x10c",
          "logIndex": "0x149",
          "removed": false
        },
        {
          "address": "0xc9eb32bc9d7162d8ce3b9b1955cecedfdda3afcf",
          "topics": [
            "0x8be0079c531659141344cd1fd0a4f28419497f9722a3daafe3b4186f6b6457e0",
            "0x0000000000000000000000000000000000000000000000000000000000000000",
            "0x000000000000000000000000109de29e0fb4de58a66ce077253e0604d81ad14c"
          ],
          "data": "0x",
          "blockHash": "0xbae0dd0f1df0e82a703c76859d3c21a24ae9aa08301637c243f399e15699c403",
          "blockNumber": "0x188dc60",
          "transactionHash": "0x637f407ad3bd0e85299b04fe14cba5a229bd14a7f1a0b07a9588b747b69cf020",
          "transactionIndex": "0x10c",
          "logIndex": "0x14a",
          "removed": false
        },
        {
          "address": "0xc9eb32bc9d7162d8ce3b9b1955cecedfdda3afcf",
          "topics": [
            "0xc7f505b2f371ae2175ee4913f4499e1f2633a7b5936321eed1cdaeb6115181d2"
          ],
          "data": "0x0000000000000000000000000000000000000000000000000000000000000001",
          "blockHash": "0xbae0dd0f1df0e82a703c76859d3c21a24ae9aa08301637c243f399e15699c403",
          "blockNumber": "0x188dc60",
          "transactionHash": "0x637f407ad3bd0e85299b04fe14cba5a229bd14a7f1a0b07a9588b747b69cf020",
          "transactionIndex": "0x10c",
          "logIndex": "0x14b",
          "removed": false
        },
        {
          "address": "0xc9eb32bc9d7162d8ce3b9b1955cecedfdda3afcf",
          "topics": [
            "0x8be0079c531659141344cd1fd0a4f28419497f9722a3daafe3b4186f6b6457e0",
            "0x000000000000000000000000109de29e0fb4de58a66ce077253e0604d81ad14c",
            "0x000000000000000000000000a99526e4dc81b85c1d248ca974eadce81837ecf1"
          ],
          "data": "0x",
          "blockHash": "0xbae0dd0f1df0e82a703c76859d3c21a24ae9aa08301637c243f399e15699c403",
          "blockNumber": "0x188dc60",
          "transactionHash": "0x637f407ad3bd0e85299b04fe14cba5a229bd14a7f1a0b07a9588b747b69cf020",
          "transactionIndex": "0x10c",
          "logIndex": "0x14c",
          "removed": false
        },
        {
          "address": "0x109de29e0fb4de58a66ce077253e0604d81ad14c",
          "topics": [
            "0x171ccc46ca30ce15b8e391d7e1db8cf7644ed26a313b10df70a92b13da343541",
            "0x000000000000000000000000c9eb32bc9d7162d8ce3b9b1955cecedfdda3afcf",
            "0x000000000000000000000000a99526e4dc81b85c1d248ca974eadce81837ecf1"
          ],
          "data": "0x",
          "blockHash": "0xbae0dd0f1df0e82a703c76859d3c21a24ae9aa08301637c243f399e15699c403",
          "blockNumber": "0x188dc60",
          "transactionHash": "0x637f407ad3bd0e85299b04fe14cba5a229bd14a7f1a0b07a9588b747b69cf020",
          "transactionIndex": "0x10c",
          "logIndex": "0x14d",
          "removed": false
        },
        {
          "address": "0x109de29e0fb4de58a66ce077253e0604d81ad14c",
          "topics": [
            "0xc235116ab1fd2ce09ba4690b74e2e7782ddf6f4a49eda5a12e0c320f7c65ccd6",
            "0x000000000000000000000000c9eb32bc9d7162d8ce3b9b1955cecedfdda3afcf"
          ],
          "data": "0x000000000000000000000000000000000000000000000000000000000000004000000000000000000000000000000000000000000000000000000000000000800000000000000000000000000000000000000000000000000000000000000007456d42656c6c7300000000000000000000000000000000000000000000000000000000000000000000000000000000000000000000000000000000000000000442454c4c00000000000000000000000000000000000000000000000000000000",
          "blockHash": "0xbae0dd0f1df0e82a703c76859d3c21a24ae9aa08301637c243f399e15699c403",
          "blockNumber": "0x188dc60",
          "transactionHash": "0x637f407ad3bd0e85299b04fe14cba5a229bd14a7f1a0b07a9588b747b69cf020",
          "transactionIndex": "0x10c",
          "logIndex": "0x14e",
          "removed": false
        },
        {
          "address": "0x12f084de536f41bcd29dfc7632db0261cec72c60",
          "topics": [
            "0x5902eed5cd330f690551c9c5095eacb178efeaf6896420b9473fa373b2313f1a",
            "0x000000000000000000000000c9eb32bc9d7162d8ce3b9b1955cecedfdda3afcf",
            "0x0000000000000000000000000000000000000000000000000000000000000001"
          ],
          "data": "0x00000000000000000000000000000000000000000000000000000000000000200000000000000000000000000000000000000000000000000000000000000007456d42656c6c7300000000000000000000000000000000000000000000000000",
          "blockHash": "0xbae0dd0f1df0e82a703c76859d3c21a24ae9aa08301637c243f399e15699c403",
          "blockNumber": "0x188dc60",
          "transactionHash": "0x637f407ad3bd0e85299b04fe14cba5a229bd14a7f1a0b07a9588b747b69cf020",
          "transactionIndex": "0x10c",
          "logIndex": "0x14f",
          "removed": false
        }
      ],
      "logsBloom": "0x00000004000000000800000000100000000008800000000000800000000000000010000000000000000000000004000000000000002000000000004000040000000000000400000000000400000000000101000000140000000000000000000000000080020080000000040000000800000000000000000000000000000000408000000000000000000800004000000000000000000080000000100004000000010000000800004020000040008000000000000000000000001000000000000000000000004000000000000000000000000000000004000000000000000268000000000000000000000000000000000000000000000000800000000000400000",
      "type": "0x2",
      "transactionHash": "0x637f407ad3bd0e85299b04fe14cba5a229bd14a7f1a0b07a9588b747b69cf020",
      "transactionIndex": "0x10c",
      "blockHash": "0xbae0dd0f1df0e82a703c76859d3c21a24ae9aa08301637c243f399e15699c403",
      "blockNumber": "0x188dc60",
      "gasUsed": "0x63915",
      "effectiveGasPrice": "0x384f6a",
      "from": "0xa99526e4dc81b85c1d248ca974eadce81837ecf1",
      "to": "0x12f084de536f41bcd29dfc7632db0261cec72c60",
      "contractAddress": null,
      "l1BaseFeeScalar": "0x8dd",
      "l1BlobBaseFee": "0x6b83d",
      "l1BlobBaseFeeScalar": "0x101c12",
      "l1Fee": "0x1c7687f1d",
      "l1GasPrice": "0x7cadfc8b",
      "l1GasUsed": "0x640"
    },
    {
      "status": "0x1",
      "cumulativeGasUsed": "0x2476e16",
      "logs": [
        {
          "address": "0x8cb5ac17520ba1aefbccf632576283c7d8cba816",
          "topics": [
            "0x367184f1bb13aa656fb065e5e2b1104b30f71206d03961639cac77f3a6b33176",
            "0x0000000000000000000000008977704a454fe2063336324027440d7bc56689aa"
          ],
          "data": "0x",
          "blockHash": "0x896407040eddd5af30d29f7c0606c84af860d0ecd91aaf82b6dd00fcde3ac4a5",
          "blockNumber": "0x188dc62",
          "transactionHash": "0x38353f08fecae61cd7b5686b4bc16411702f10d4418bc564b7e9087ebd82b44c",
          "transactionIndex": "0x10d",
          "logIndex": "0x167",
          "removed": false
        },
        {
          "address": "0x8cb5ac17520ba1aefbccf632576283c7d8cba816",
          "topics": [
            "0x8be0079c531659141344cd1fd0a4f28419497f9722a3daafe3b4186f6b6457e0",
            "0x0000000000000000000000000000000000000000000000000000000000000000",
            "0x000000000000000000000000109de29e0fb4de58a66ce077253e0604d81ad14c"
          ],
          "data": "0x",
          "blockHash": "0x896407040eddd5af30d29f7c0606c84af860d0ecd91aaf82b6dd00fcde3ac4a5",
          "blockNumber": "0x188dc62",
          "transactionHash": "0x38353f08fecae61cd7b5686b4bc16411702f10d4418bc564b7e9087ebd82b44c",
          "transactionIndex": "0x10d",
          "logIndex": "0x168",
          "removed": false
        },
        {
          "address": "0x8cb5ac17520ba1aefbccf632576283c7d8cba816",
          "topics": [
            "0xc7f505b2f371ae2175ee4913f4499e1f2633a7b5936321eed1cdaeb6115181d2"
          ],
          "data": "0x0000000000000000000000000000000000000000000000000000000000000001",
          "blockHash": "0x896407040eddd5af30d29f7c0606c84af860d0ecd91aaf82b6dd00fcde3ac4a5",
          "blockNumber": "0x188dc62",
          "transactionHash": "0x38353f08fecae61cd7b5686b4bc16411702f10d4418bc564b7e9087ebd82b44c",
          "transactionIndex": "0x10d",
          "logIndex": "0x169",
          "removed": false
        },
        {
          "address": "0x8cb5ac17520ba1aefbccf632576283c7d8cba816",
          "topics": [
            "0x8be0079c531659141344cd1fd0a4f28419497f9722a3daafe3b4186f6b6457e0",
            "0x000000000000000000000000109de29e0fb4de58a66ce077253e0604d81ad14c",
            "0x000000000000000000000000a99526e4dc81b85c1d248ca974eadce81837ecf1"
          ],
          "data": "0x",
          "blockHash": "0x896407040eddd5af30d29f7c0606c84af860d0ecd91aaf82b6dd00fcde3ac4a5",
          "blockNumber": "0x188dc62",
          "transactionHash": "0x38353f08fecae61cd7b5686b4bc16411702f10d4418bc564b7e9087ebd82b44c",
          "transactionIndex": "0x10d",
          "logIndex": "0x16a",
          "removed": false
        },
        {
          "address": "0x109de29e0fb4de58a66ce077253e0604d81ad14c",
          "topics": [
            "0x171ccc46ca30ce15b8e391d7e1db8cf7644ed26a313b10df70a92b13da343541",
            "0x0000000000000000000000008cb5ac17520ba1aefbccf632576283c7d8cba816",
            "0x000000000000000000000000a99526e4dc81b85c1d248ca974eadce81837ecf1"
          ],
          "data": "0x",
          "blockHash": "0x896407040eddd5af30d29f7c0606c84af860d0ecd91aaf82b6dd00fcde3ac4a5",
          "blockNumber": "0x188dc62",
          "transactionHash": "0x38353f08fecae61cd7b5686b4bc16411702f10d4418bc564b7e9087ebd82b44c",
          "transactionIndex": "0x10d",
          "logIndex": "0x16b",
          "removed": false
        },
        {
          "address": "0x109de29e0fb4de58a66ce077253e0604d81ad14c",
          "topics": [
            "0xc235116ab1fd2ce09ba4690b74e2e7782ddf6f4a49eda5a12e0c320f7c65ccd6",
            "0x0000000000000000000000008cb5ac17520ba1aefbccf632576283c7d8cba816"
          ],
          "data": "0x00000000000000000000000000000000000000000000000000000000000000400000000000000000000000000000000000000000000000000000000000000080000000000000000000000000000000000000000000000000000000000000000b456d626c656d204f70656e00000000000000000000000000000000000000000000000000000000000000000000000000000000000000000000000000000000044f50454e00000000000000000000000000000000000000000000000000000000",
          "blockHash": "0x896407040eddd5af30d29f7c0606c84af860d0ecd91aaf82b6dd00fcde3ac4a5",
          "blockNumber": "0x188dc62",
          "transactionHash": "0x38353f08fecae61cd7b5686b4bc16411702f10d4418bc564b7e9087ebd82b44c",
          "transactionIndex": "0x10d",
          "logIndex": "0x16c",
          "removed": false
        },
        {
          "address": "0x12f084de536f41bcd29dfc7632db0261cec72c60",
          "topics": [
            "0x5902eed5cd330f690551c9c5095eacb178efeaf6896420b9473fa373b2313f1a",
            "0x0000000000000000000000008cb5ac17520ba1aefbccf632576283c7d8cba816",
            "0x0000000000000000000000000000000000000000000000000000000000000001"
          ],
          "data": "0x0000000000000000000000000000000000000000000000000000000000000020000000000000000000000000000000000000000000000000000000000000000b456d626c656d204f70656e000000000000000000000000000000000000000000",
          "blockHash": "0x896407040eddd5af30d29f7c0606c84af860d0ecd91aaf82b6dd00fcde3ac4a5",
          "blockNumber": "0x188dc62",
          "transactionHash": "0x38353f08fecae61cd7b5686b4bc16411702f10d4418bc564b7e9087ebd82b44c",
          "transactionIndex": "0x10d",
          "logIndex": "0x16d",
          "removed": false
        }
      ],
      "logsBloom": "0x00000004000000000800000000100000000008800000000400800000000000000010000000000000000000000004000000000000002000000000004000040000000000000000000000000400400000000101000000040000000000000000000000000080020080000000040000000800000000000000000000000000000000408000000000000000000800004000000000000000000080000000100004000000010000000800004000008040000000000000000000000000001000010000000000000000004000000000000000000000000000000004000000000000000260000000000000000000000000000000000000400000000000800000000000400000",
      "type": "0x2",
      "transactionHash": "0x38353f08fecae61cd7b5686b4bc16411702f10d4418bc564b7e9087ebd82b44c",
      "transactionIndex": "0x10d",
      "blockHash": "0x896407040eddd5af30d29f7c0606c84af860d0ecd91aaf82b6dd00fcde3ac4a5",
      "blockNumber": "0x188dc62",
      "gasUsed": "0x63945",
      "effectiveGasPrice": "0x384dfd",
      "from": "0xa99526e4dc81b85c1d248ca974eadce81837ecf1",
      "to": "0x12f084de536f41bcd29dfc7632db0261cec72c60",
      "contractAddress": null,
      "l1BaseFeeScalar": "0x8dd",
      "l1BlobBaseFee": "0x5f91a",
      "l1BlobBaseFeeScalar": "0x101c12",
      "l1Fee": "0x1a02ef18e",
      "l1GasPrice": "0x707f4a02",
      "l1GasUsed": "0x654"
    },
    {
      "status": "0x1",
      "cumulativeGasUsed": "0x3654977",
      "logs": [
        {
          "address": "0x12f084de536f41bcd29dfc7632db0261cec72c60",
          "topics": [
            "0x386488dff7e0422825a9a6550182ab7f1d7ef789131917bfd8dd6ffe29afe08d",
            "0x000000000000000000000000afe0130bad95763a66871e1f2fd73b8e7ee18037"
          ],
          "data": "0x0000000000000000000000000000000000000000000000000000000000000020000000000000000000000000000000000000000000000000000000000000004d68747470733a2f2f76322e656d626c656d7661756c742e696f2f76332f6d6574612f3078416645303133304261643935373633413636383731653146326664373342386537656531383033372f00000000000000000000000000000000000000",
          "blockHash": "0x5ab6e2d770cdb986379a9cd7581c028db417a18fedc1eb6493a824d554a84c57",
          "blockNumber": "0x188dc64",
          "transactionHash": "0x6a206aa7a06f4ade6a57b19e93a71b555504a5d31095c8b46ec2075ad1ce413d",
          "transactionIndex": "0xf5",
          "logIndex": "0x383",
          "removed": false
        }
      ],
      "logsBloom": "0x00000000000000000000000000000000004000000000000000000000000000000000000080000000000000000004000000000000002000000000000000000000000000000000000000000000000000000000000000000000000000400000000000000100000000000000000000000000000000000000000000000000000000000000000000000000000000000000000000000000000000000000000000000000000000000800000000000000000000000000000000000000000000000000000000000000000000000000000000000000000000000000000000000000000000200000000000000000000000000000000000000000000000000040000000000000",
      "type": "0x2",
      "transactionHash": "0x6a206aa7a06f4ade6a57b19e93a71b555504a5d31095c8b46ec2075ad1ce413d",
      "transactionIndex": "0xf5",
      "blockHash": "0x5ab6e2d770cdb986379a9cd7581c028db417a18fedc1eb6493a824d554a84c57",
      "blockNumber": "0x188dc64",
      "gasUsed": "0x21fdd",
      "effectiveGasPrice": "0x3849d7",
      "from": "0xa99526e4dc81b85c1d248ca974eadce81837ecf1",
      "to": "0x12f084de536f41bcd29dfc7632db0261cec72c60",
      "contractAddress": null,
      "l1BaseFeeScalar": "0x8dd",
      "l1BlobBaseFee": "0x5f91a",
      "l1BlobBaseFeeScalar": "0x101c12",
      "l1Fee": "0x29e849d1b",
      "l1GasPrice": "0x707f4a02",
      "l1GasUsed": "0xa33"
    },
    {
      "status": "0x1",
      "cumulativeGasUsed": "0x358e7fa",
      "logs": [
        {
          "address": "0x12f084de536f41bcd29dfc7632db0261cec72c60",
          "topics": [
            "0x386488dff7e0422825a9a6550182ab7f1d7ef789131917bfd8dd6ffe29afe08d",
            "0x000000000000000000000000aaa86841631dba89f0841655a679f12b768e2fb8"
          ],
          "data": "0x0000000000000000000000000000000000000000000000000000000000000020000000000000000000000000000000000000000000000000000000000000004d68747470733a2f2f76322e656d626c656d7661756c742e696f2f76332f6d6574612f3078414141383638343136333144624138394630383431363535613637394631326237363845324642382f00000000000000000000000000000000000000",
          "blockHash": "0xc619790b8fe2b140274a220c7dd2590ff345ae4ffc812c219a4e5986d13154e1",
          "blockNumber": "0x188dc66",
          "transactionHash": "0x562a17a0c8eba5600bc538d811b4b34e055f5fcc309c3ccec2e8a1ad9d936ca5",
          "transactionIndex": "0x1a6",
          "logIndex": "0x2c5",
          "removed": false
        }
      ],
      "logsBloom": "0x00000000000000000000000000000000000000000000000000000000000000000000000080000000000000000004000000000000002000000000000000000000000000000000000000000000000000000000000000000000000000000000000000000100000000000000000000000000000000000000000000000000000000000000200000000000000000000000000000000000000000000000000000000000000000000880000000000000000000000040000000000000000000000000000000000000000000000000000000000000000000000000000000000000000000200000000000000000000000000000000000000000000000000000000000000000",
      "type": "0x2",
      "transactionHash": "0x562a17a0c8eba5600bc538d811b4b34e055f5fcc309c3ccec2e8a1ad9d936ca5",
      "transactionIndex": "0x1a6",
      "blockHash": "0xc619790b8fe2b140274a220c7dd2590ff345ae4ffc812c219a4e5986d13154e1",
      "blockNumber": "0x188dc66",
      "gasUsed": "0x21fdd",
      "effectiveGasPrice": "0x386002",
      "from": "0xa99526e4dc81b85c1d248ca974eadce81837ecf1",
      "to": "0x12f084de536f41bcd29dfc7632db0261cec72c60",
      "contractAddress": null,
      "l1BaseFeeScalar": "0x8dd",
      "l1BlobBaseFee": "0x5f91a",
      "l1BlobBaseFeeScalar": "0x101c12",
      "l1Fee": "0x297a4e494",
      "l1GasPrice": "0x707f4a02",
      "l1GasUsed": "0xa18"
    },
    {
      "status": "0x1",
      "cumulativeGasUsed": "0x24a81a4",
      "logs": [
        {
          "address": "0x12f084de536f41bcd29dfc7632db0261cec72c60",
          "topics": [
            "0x386488dff7e0422825a9a6550182ab7f1d7ef789131917bfd8dd6ffe29afe08d",
            "0x0000000000000000000000006b31e7c15b0db1fab86f4be94d5d8cbc27bff98b"
          ],
          "data": "0x0000000000000000000000000000000000000000000000000000000000000020000000000000000000000000000000000000000000000000000000000000004d68747470733a2f2f76322e656d626c656d7661756c742e696f2f76332f6d6574612f3078366233314537633135423064623146616238364634424539346435443863424332374246463938622f00000000000000000000000000000000000000",
          "blockHash": "0x50f0448f7551bc033a3199d56986c6723ba48d031e3f0847432fa21965ddb5c2",
          "blockNumber": "0x188dc68",
          "transactionHash": "0x1a0e604836e5574a844657f26f144083efc5097051beab0af54ffbaea88bbd83",
          "transactionIndex": "0x104",
          "logIndex": "0x131",
          "removed": false
        }
      ],
      "logsBloom": "0x00000000000000000000000000000000000000000000000000000000000000000000000080000000000000000004000000000000002000000000000000000000000000000000000000000000000000000000000000020000001000000000000000000100000000000000000000000000000000000080000000000000000000000000000000000000000000000000000000000000000000000000000000000000000000000800000000000000000000000000000000000000000000000000000000000000000000000000000000000000000000000000000000000000000000200000000000000000000000000000000000000000000000000000000000000000",
      "type": "0x2",
      "transactionHash": "0x1a0e604836e5574a844657f26f144083efc5097051beab0af54ffbaea88bbd83",
      "transactionIndex": "0x104",
      "blockHash": "0x50f0448f7551bc033a3199d56986c6723ba48d031e3f0847432fa21965ddb5c2",
      "blockNumber": "0x188dc68",
      "gasUsed": "0x21fdd",
      "effectiveGasPrice": "0x388a37",
      "from": "0xa99526e4dc81b85c1d248ca974eadce81837ecf1",
      "to": "0x12f084de536f41bcd29dfc7632db0261cec72c60",
      "contractAddress": null,
      "l1BaseFeeScalar": "0x8dd",
      "l1BlobBaseFee": "0x5f91a",
      "l1BlobBaseFeeScalar": "0x101c12",
      "l1Fee": "0x2eb552638",
      "l1GasPrice": "0x7d766fe9",
      "l1GasUsed": "0xa33"
    },
    {
      "status": "0x1",
      "cumulativeGasUsed": "0x2b00714",
      "logs": [
        {
          "address": "0xc9eb32bc9d7162d8ce3b9b1955cecedfdda3afcf",
          "topics": [
            "0x6741b2fc379fad678116fe3d4d4b9a1a184ab53ba36b86ad0fa66340b1ab41ad"
          ],
          "data": "0x0000000000000000000000000000000000000000000000000000000000000020000000000000000000000000000000000000000000000000000000000000004d68747470733a2f2f76322e656d626c656d7661756c742e696f2f76332f6d6574612f3078433965423332624339443731363264384365334239623139353563656345646644646133416643662f00000000000000000000000000000000000000",
          "blockHash": "0xf5c1eb8d564bd9820c981788443091187764938d8115224ce21b3efb5dc82a89",
          "blockNumber": "0x188dc6a",
          "transactionHash": "0xd8fdb65f5a2b223b064e8b333023738a403a14d7c932feb33dafc3a1ff81af31",
          "transactionIndex": "0xbd",
          "logIndex": "0x148",
          "removed": false
        },
        {
          "address": "0x12f084de536f41bcd29dfc7632db0261cec72c60",
          "topics": [
            "0x65936d1dee571c89e7bc171ad8e94e288d930f863c2a4a92a0593baef6573ee9",
            "0x000000000000000000000000c9eb32bc9d7162d8ce3b9b1955cecedfdda3afcf"
          ],
          "data": "0x0000000000000000000000000000000000000000000000000000000000000020000000000000000000000000000000000000000000000000000000000000004d68747470733a2f2f76322e656d626c656d7661756c742e696f2f76332f6d6574612f3078433965423332624339443731363264384365334239623139353563656345646644646133416643662f00000000000000000000000000000000000000",
          "blockHash": "0xf5c1eb8d564bd9820c981788443091187764938d8115224ce21b3efb5dc82a89",
          "blockNumber": "0x188dc6a",
          "transactionHash": "0xd8fdb65f5a2b223b064e8b333023738a403a14d7c932feb33dafc3a1ff81af31",
          "transactionIndex": "0xbd",
          "logIndex": "0x149",
          "removed": false
        }
      ],
      "logsBloom": "0x00000000000000000000000000000000000004000000000000000000000000080000000000000000000000000004000000000000002000000000000000000000000000000400000000000000000000000000000000100000000000000000000000000000000000000000000000000800000000000000000000000000000000000000000000000000000000000000000000000000000000000000000000000000000001000800000020000000008000000000000000000000000000000000000000000000000000000000000200004000000000000000000000000000000008002000000000000000000000000000000000000000000000000000000000000000",
      "type": "0x2",
      "transactionHash": "0xd8fdb65f5a2b223b064e8b333023738a403a14d7c932feb33dafc3a1ff81af31",
      "transactionIndex": "0xbd",
      "blockHash": "0xf5c1eb8d564bd9820c981788443091187764938d8115224ce21b3efb5dc82a89",
      "blockNumber": "0x188dc6a",
      "gasUsed": "0x2210f",
      "effectiveGasPrice": "0x38a33a",
      "from": "0xa99526e4dc81b85c1d248ca974eadce81837ecf1",
      "to": "0x12f084de536f41bcd29dfc7632db0261cec72c60",
      "contractAddress": null,
      "l1BaseFeeScalar": "0x8dd",
      "l1BlobBaseFee": "0x5f91a",
      "l1BlobBaseFeeScalar": "0x101c12",
      "l1Fee": "0x2eb552638",
      "l1GasPrice": "0x7d766fe9",
      "l1GasUsed": "0xa33"
    },
    {
      "status": "0x1",
      "cumulativeGasUsed": "0x337da6f",
      "logs": [
        {
          "address": "0x8cb5ac17520ba1aefbccf632576283c7d8cba816",
          "topics": [
            "0x6741b2fc379fad678116fe3d4d4b9a1a184ab53ba36b86ad0fa66340b1ab41ad"
          ],
          "data": "0x0000000000000000000000000000000000000000000000000000000000000020000000000000000000000000000000000000000000000000000000000000004d68747470733a2f2f76322e656d626c656d7661756c742e696f2f76332f6d6574612f3078384342354163313735323062613161654642636346363332353736323833633764384362413831362f00000000000000000000000000000000000000",
          "blockHash": "0x3d2bf502bca02d0c3f6c0254d6184d352ec3a79a510fd27be704ad69c710d8b2",
          "blockNumber": "0x188dc6c",
          "transactionHash": "0x7344c8107b5da807746d1d831db2cb7bfa7971d0c50c2eb469a32b7ff8f05b3a",
          "transactionIndex": "0xd3",
          "logIndex": "0x204",
          "removed": false
        },
        {
          "address": "0x12f084de536f41bcd29dfc7632db0261cec72c60",
          "topics": [
            "0x65936d1dee571c89e7bc171ad8e94e288d930f863c2a4a92a0593baef6573ee9",
            "0x0000000000000000000000008cb5ac17520ba1aefbccf632576283c7d8cba816"
          ],
          "data": "0x0000000000000000000000000000000000000000000000000000000000000020000000000000000000000000000000000000000000000000000000000000004d68747470733a2f2f76322e656d626c656d7661756c742e696f2f76332f6d6574612f3078384342354163313735323062613161654642636346363332353736323833633764384362413831362f00000000000000000000000000000000000000",
          "blockHash": "0x3d2bf502bca02d0c3f6c0254d6184d352ec3a79a510fd27be704ad69c710d8b2",
          "blockNumber": "0x188dc6c",
          "transactionHash": "0x7344c8107b5da807746d1d831db2cb7bfa7971d0c50c2eb469a32b7ff8f05b3a",
          "transactionIndex": "0xd3",
          "logIndex": "0x205",
          "removed": false
        }
      ],
      "logsBloom": "0x00000000000000000000000000000000000004000000000400000000000000080000000000000000000000000004000000000000002000000000000000000000000000000000000000000000400000000100000000000000000000000000000000000000000000000000000000000000000000000000000000000000000000000000000000000000000000000000000000000000000000000000000000000000000001000800000000008000000000000000000000000000000000010000000000000000000000000000000200004000000000000000000000000000000000002000000000000000000000000000000000400000000000000000000000000000",
      "type": "0x2",
      "transactionHash": "0x7344c8107b5da807746d1d831db2cb7bfa7971d0c50c2eb469a32b7ff8f05b3a",
      "transactionIndex": "0xd3",
      "blockHash": "0x3d2bf502bca02d0c3f6c0254d6184d352ec3a79a510fd27be704ad69c710d8b2",
      "blockNumber": "0x188dc6c",
      "gasUsed": "0x2210f",
      "effectiveGasPrice": "0x38bcd4",
      "from": "0xa99526e4dc81b85c1d248ca974eadce81837ecf1",
      "to": "0x12f084de536f41bcd29dfc7632db0261cec72c60",
      "contractAddress": null,
      "l1BaseFeeScalar": "0x8dd",
      "l1BlobBaseFee": "0x5f91a",
      "l1BlobBaseFeeScalar": "0x101c12",
      "l1Fee": "0x2eb552638",
      "l1GasPrice": "0x7d766fe9",
      "l1GasUsed": "0xa33"
    }
  ],
  "libraries": [],
  "pending": [],
  "returns": {},
  "timestamp": 1738282506,
  "chain": 8453,
  "commit": "0ece81b"
}