{
  "transactions": [
    {
      "hash": "0x5e8021977109298126b7b84323cc4fad60d8f737053c43eea8712057d397b681",
      "transactionType": "CALL",
      "contractName": null,
      "contractAddress": "0xc125eb48fbd6dc3d4afbba5dd2a6684f83424dea",
      "function": "setCollectionFactory(address)",
      "arguments": [
        "0xA34FE923eE87C8000C93852D0FD8EaaF280d836F"
      ],
      "transaction": {
        "from": "0x107a120f536c8bd891a3c04fca22a7814e260210",
        "to": "0xc125eb48fbd6dc3d4afbba5dd2a6684f83424dea",
        "gas": "0xbfad",
        "value": "0x0",
        "input": "0xbc72157a000000000000000000000000a34fe923ee87c8000c93852d0fd8eaaf280d836f",
        "nonce": "0x19",
        "chainId": "0x61"
      },
      "additionalContracts": [],
      "isFixedGasLimit": false
    }
  ],
  "receipts": [
    {
      "status": "0x1",
      "cumulativeGasUsed": "0x2c00c",
      "logs": [
        {
          "address": "0xc125eb48fbd6dc3d4afbba5dd2a6684f83424dea",
          "topics": [
            "0x6e8ea9e3ad345f413905cfd6108b8da07df1424f5990a84bc69a67749b9017ca",
            "0x000000000000000000000000bcfcbc144f0ac1c695adad8a38b48f040ec73d96",
            "0x000000000000000000000000a34fe923ee87c8000c93852d0fd8eaaf280d836f"
          ],
          "data": "0x",
          "blockHash": "0x26248bd74c96b908377f5e6d48c637be53817e01c8a29c00d44e57f74a8cd81c",
          "blockNumber": "0x2c3126a",
          "transactionHash": "0x5e8021977109298126b7b84323cc4fad60d8f737053c43eea8712057d397b681",
          "transactionIndex": "0x1",
          "logIndex": "0x3",
          "removed": false
        }
      ],
      "logsBloom": "0x00000000000000000000000080100000000000000000002000000000000000000000000000000000000000000000000000000000000000000000000000000000000000000000000000000000000000000000000000000000000000000000000000000000000000000000000000000000000000000000000000000000000000000080000000000000000000000000000000000200000000000000000000000000000000000000000000000000100000000000000000400000000000000000000000000000000000000000000000000000001000000000000000040000000000000000000000000000000000008000000000800000000000000000000000000040",
      "type": "0x0",
      "transactionHash": "0x5e8021977109298126b7b84323cc4fad60d8f737053c43eea8712057d397b681",
      "transactionIndex": "0x1",
      "blockHash": "0x26248bd74c96b908377f5e6d48c637be53817e01c8a29c00d44e57f74a8cd81c",
      "blockNumber": "0x2c3126a",
      "gasUsed": "0x8ac6",
      "effectiveGasPrice": "0x1dcd65000",
      "from": "0x107a120f536c8bd891a3c04fca22a7814e260210",
      "to": "0xc125eb48fbd6dc3d4afbba5dd2a6684f83424dea",
      "contractAddress": null
    }
  ],
  "libraries": [],
  "pending": [],
  "returns": {},
  "timestamp": 1733737286,
  "chain": 97,
  "commit": "b627d86"
}