{
  "transactions": [
    {
      "hash": "0xf1965930781892a8a44cc090464d44003d733d65c65a42abcd70056832002d9d",
      "transactionType": "CALL",
      "contractName": null,
      "contractAddress": "0xc125eb48fbd6dc3d4afbba5dd2a6684f83424dea",
      "function": "createVaultCollection(string,string,uint8)",
      "arguments": [
        "Test ERC721 Vault Collection",
        "TEST721",
        "1"
      ],
      "transaction": {
        "from": "0x107a120f536c8bd891a3c04fca22a7814e260210",
        "to": "0xc125eb48fbd6dc3d4afbba5dd2a6684f83424dea",
        "gas": "0x953f2",
        "value": "0x0",
        "input": "0xa8008080000000000000000000000000000000000000000000000000000000000000006000000000000000000000000000000000000000000000000000000000000000a00000000000000000000000000000000000000000000000000000000000000001000000000000000000000000000000000000000000000000000000000000001c5465737420455243373231205661756c7420436f6c6c656374696f6e0000000000000000000000000000000000000000000000000000000000000000000000075445535437323100000000000000000000000000000000000000000000000000",
        "nonce": "0x12",
        "chainId": "0x61"
      },
      "additionalContracts": [
        {
          "transactionType": "CREATE",
          "address": "0x9f7770551b5a9353a2da2d5ac8c17acd0c547163",
          "initCode": "0x60803460b757601f6102dc38819003918201601f19168301916001600160401b0383118484101760bb5780849260209460405283398101031260b757516001600160a01b0381169081810360b757811560a8577fa3f0ad74e5423aebfd80d3ef4346578335a9a72aeaee59ff6cb3582b35133d5055604051907f367184f1bb13aa656fb065e5e2b1104b30f71206d03961639cac77f3a6b331765f80a261020c90816100d08239f35b63d92e233d60e01b5f5260045ffd5b5f80fd5b634e487b7160e01b5f52604160045260245ffdfe60806040526004361015610015575b3661011d57005b5f3560e01c6301ffc9a70361000e57346100cb5760203660031901126100cb5760043563ffffffff60e01b81168091036100cb5760206001600160a01b0361005b610141565b16916024604051809481936301ffc9a760e01b835260048301525afa80156100d7575f90610096575b604051901515815280602081015b0390f35b506020813d6020116100cf575b816100b0602093836100dc565b810103126100cb575180151581036100cb5761009290610084565b5f80fd5b3d91506100a3565b610112565b90601f8019910116810190811067ffffffffffffffff8211176100fe57604052565b634e487b7160e01b5f52604160045260245ffd5b6040513d5f823e3d90fd5b5f80610127610141565b368280378136915af43d5f803e1561013d573d5ff35b3d5ffd5b7fa3f0ad74e5423aebfd80d3ef4346578335a9a72aeaee59ff6cb3582b35133d5054604051635c60da1b60e01b815290602090829060049082906001600160a01b03165afa9081156100d7575f91610197575090565b90506020813d6020116101ce575b816101b2602093836100dc565b810103126100cb57516001600160a01b03811681036100cb5790565b3d91506101a556fea2646970667358221220aeee0cd024e1a9dfea278b2f4b6653002a9af17573f4b119303ec69f78ccab5164736f6c634300081c0033000000000000000000000000704bc33f34fb696405bb4074a770d284097afc75"
        }
      ],
      "isFixedGasLimit": false
    },
    {
      "hash": "0x502739afceaef8359d99a4f0b0673208c9af4362f4115ff778926096ea5f7865",
      "transactionType": "CALL",
      "contractName": null,
      "contractAddress": "0xc125eb48fbd6dc3d4afbba5dd2a6684f83424dea",
      "function": "createVaultCollection(string,string,uint8)",
      "arguments": [
        "Test ERC1155 Vault Collection",
        "https://api.emblem.finance/erc1155/metadata/{id}.json",
        "2"
      ],
      "transaction": {
        "from": "0x107a120f536c8bd891a3c04fca22a7814e260210",
        "to": "0xc125eb48fbd6dc3d4afbba5dd2a6684f83424dea",
        "gas": "0x9dcbc",
        "value": "0x0",
        "input": "0xa8008080000000000000000000000000000000000000000000000000000000000000006000000000000000000000000000000000000000000000000000000000000000a00000000000000000000000000000000000000000000000000000000000000002000000000000000000000000000000000000000000000000000000000000001d546573742045524331313535205661756c7420436f6c6c656374696f6e000000000000000000000000000000000000000000000000000000000000000000003568747470733a2f2f6170692e656d626c656d2e66696e616e63652f657263313135352f6d657461646174612f7b69647d2e6a736f6e0000000000000000000000",
        "nonce": "0x13",
        "chainId": "0x61"
      },
      "additionalContracts": [
        {
          "transactionType": "CREATE",
          "address": "0x15d805716ddf50f8b0f77b3db833ab2ff0cb5381",
          "initCode": "0x60803460b757601f6102dc38819003918201601f19168301916001600160401b0383118484101760bb5780849260209460405283398101031260b757516001600160a01b0381169081810360b757811560a8577fa3f0ad74e5423aebfd80d3ef4346578335a9a72aeaee59ff6cb3582b35133d5055604051907f367184f1bb13aa656fb065e5e2b1104b30f71206d03961639cac77f3a6b331765f80a261020c90816100d08239f35b63d92e233d60e01b5f5260045ffd5b5f80fd5b634e487b7160e01b5f52604160045260245ffdfe60806040526004361015610015575b3661011d57005b5f3560e01c6301ffc9a70361000e57346100cb5760203660031901126100cb5760043563ffffffff60e01b81168091036100cb5760206001600160a01b0361005b610141565b16916024604051809481936301ffc9a760e01b835260048301525afa80156100d7575f90610096575b604051901515815280602081015b0390f35b506020813d6020116100cf575b816100b0602093836100dc565b810103126100cb575180151581036100cb5761009290610084565b5f80fd5b3d91506100a3565b610112565b90601f8019910116810190811067ffffffffffffffff8211176100fe57604052565b634e487b7160e01b5f52604160045260245ffd5b6040513d5f823e3d90fd5b5f80610127610141565b368280378136915af43d5f803e1561013d573d5ff35b3d5ffd5b7fa3f0ad74e5423aebfd80d3ef4346578335a9a72aeaee59ff6cb3582b35133d5054604051635c60da1b60e01b815290602090829060049082906001600160a01b03165afa9081156100d7575f91610197575090565b90506020813d6020116101ce575b816101b2602093836100dc565b810103126100cb57516001600160a01b03811681036100cb5790565b3d91506101a556fea264697066735822122050a7ddf62262644f9d9b3423f5aca3bb040f5c42780615e860de2ef9420adfbd64736f6c634300081c00330000000000000000000000008aaa7ea37638c1c4466804434be2e4da02774acc"
        }
      ],
      "isFixedGasLimit": false
    }
  ],
  "receipts": [
    {
      "status": "0x1",
      "cumulativeGasUsed": "0x6c0d5",
      "logs": [
        {
          "address": "0x9f7770551b5a9353a2da2d5ac8c17acd0c547163",
          "topics": [
            "0x367184f1bb13aa656fb065e5e2b1104b30f71206d03961639cac77f3a6b33176",
            "0x000000000000000000000000704bc33f34fb696405bb4074a770d284097afc75"
          ],
          "data": "0x",
          "blockHash": "0x9888d63ada77b65392c6ab189c77bafcec43d12de3f54b6025dc2ae6a86cd16b",
          "blockNumber": "0x2c3105a",
          "transactionHash": "0xf1965930781892a8a44cc090464d44003d733d65c65a42abcd70056832002d9d",
          "transactionIndex": "0x0",
          "logIndex": "0x0",
          "removed": false
        },
        {
          "address": "0x9f7770551b5a9353a2da2d5ac8c17acd0c547163",
          "topics": [
            "0x8be0079c531659141344cd1fd0a4f28419497f9722a3daafe3b4186f6b6457e0",
            "0x0000000000000000000000000000000000000000000000000000000000000000",
            "0x000000000000000000000000bcfcbc144f0ac1c695adad8a38b48f040ec73d96"
          ],
          "data": "0x",
          "blockHash": "0x9888d63ada77b65392c6ab189c77bafcec43d12de3f54b6025dc2ae6a86cd16b",
          "blockNumber": "0x2c3105a",
          "transactionHash": "0xf1965930781892a8a44cc090464d44003d733d65c65a42abcd70056832002d9d",
          "transactionIndex": "0x0",
          "logIndex": "0x1",
          "removed": false
        },
        {
          "address": "0x9f7770551b5a9353a2da2d5ac8c17acd0c547163",
          "topics": [
            "0xc7f505b2f371ae2175ee4913f4499e1f2633a7b5936321eed1cdaeb6115181d2"
          ],
          "data": "0x0000000000000000000000000000000000000000000000000000000000000001",
          "blockHash": "0x9888d63ada77b65392c6ab189c77bafcec43d12de3f54b6025dc2ae6a86cd16b",
          "blockNumber": "0x2c3105a",
          "transactionHash": "0xf1965930781892a8a44cc090464d44003d733d65c65a42abcd70056832002d9d",
          "transactionIndex": "0x0",
          "logIndex": "0x2",
          "removed": false
        },
        {
          "address": "0xbcfcbc144f0ac1c695adad8a38b48f040ec73d96",
          "topics": [
            "0xc235116ab1fd2ce09ba4690b74e2e7782ddf6f4a49eda5a12e0c320f7c65ccd6",
            "0x0000000000000000000000009f7770551b5a9353a2da2d5ac8c17acd0c547163"
          ],
          "data": "0x00000000000000000000000000000000000000000000000000000000000000400000000000000000000000000000000000000000000000000000000000000080000000000000000000000000000000000000000000000000000000000000001c5465737420455243373231205661756c7420436f6c6c656374696f6e0000000000000000000000000000000000000000000000000000000000000000000000075445535437323100000000000000000000000000000000000000000000000000",
          "blockHash": "0x9888d63ada77b65392c6ab189c77bafcec43d12de3f54b6025dc2ae6a86cd16b",
          "blockNumber": "0x2c3105a",
          "transactionHash": "0xf1965930781892a8a44cc090464d44003d733d65c65a42abcd70056832002d9d",
          "transactionIndex": "0x0",
          "logIndex": "0x3",
          "removed": false
        },
        {
          "address": "0xc125eb48fbd6dc3d4afbba5dd2a6684f83424dea",
          "topics": [
            "0x5902eed5cd330f690551c9c5095eacb178efeaf6896420b9473fa373b2313f1a",
            "0x0000000000000000000000009f7770551b5a9353a2da2d5ac8c17acd0c547163",
            "0x0000000000000000000000000000000000000000000000000000000000000001"
          ],
          "data": "0x0000000000000000000000000000000000000000000000000000000000000020000000000000000000000000000000000000000000000000000000000000001c5465737420455243373231205661756c7420436f6c6c656374696f6e00000000",
          "blockHash": "0x9888d63ada77b65392c6ab189c77bafcec43d12de3f54b6025dc2ae6a86cd16b",
          "blockNumber": "0x2c3105a",
          "transactionHash": "0xf1965930781892a8a44cc090464d44003d733d65c65a42abcd70056832002d9d",
          "transactionIndex": "0x0",
          "logIndex": "0x4",
          "removed": false
        }
      ],
      "logsBloom": "0x00000000000000000000000080100000000000000000000000800000000200000010000000000000000000000004000002000000000000000000004000040000000000000000000000000400000000000101000000040000000000000000000000000000020000000000000000000800000000000000000000000000000090408080000000000000000800000000002000000000000080000000100000000000010000000000000000000000000000000000000000400000000000000000000000000100004000000000000000000008001000000004000008040000000860000000000000000000040000800000000000000000000000000000000000000040",
      "type": "0x0",
      "transactionHash": "0xf1965930781892a8a44cc090464d44003d733d65c65a42abcd70056832002d9d",
      "transactionIndex": "0x0",
      "blockHash": "0x9888d63ada77b65392c6ab189c77bafcec43d12de3f54b6025dc2ae6a86cd16b",
      "blockNumber": "0x2c3105a",
      "gasUsed": "0x6c0d5",
      "effectiveGasPrice": "0x2540be400",
      "from": "0x107a120f536c8bd891a3c04fca22a7814e260210",
      "to": "0xc125eb48fbd6dc3d4afbba5dd2a6684f83424dea",
      "contractAddress": null
    },
    {
      "status": "0x1",
      "cumulativeGasUsed": "0xd7f26",
      "logs": [
        {
          "address": "0x15d805716ddf50f8b0f77b3db833ab2ff0cb5381",
          "topics": [
            "0x367184f1bb13aa656fb065e5e2b1104b30f71206d03961639cac77f3a6b33176",
            "0x0000000000000000000000008aaa7ea37638c1c4466804434be2e4da02774acc"
          ],
          "data": "0x",
          "blockHash": "0x9888d63ada77b65392c6ab189c77bafcec43d12de3f54b6025dc2ae6a86cd16b",
          "blockNumber": "0x2c3105a",
          "transactionHash": "0x502739afceaef8359d99a4f0b0673208c9af4362f4115ff778926096ea5f7865",
          "transactionIndex": "0x1",
          "logIndex": "0x5",
          "removed": false
        },
        {
          "address": "0x15d805716ddf50f8b0f77b3db833ab2ff0cb5381",
          "topics": [
            "0x8be0079c531659141344cd1fd0a4f28419497f9722a3daafe3b4186f6b6457e0",
            "0x0000000000000000000000000000000000000000000000000000000000000000",
            "0x000000000000000000000000bcfcbc144f0ac1c695adad8a38b48f040ec73d96"
          ],
          "data": "0x",
          "blockHash": "0x9888d63ada77b65392c6ab189c77bafcec43d12de3f54b6025dc2ae6a86cd16b",
          "blockNumber": "0x2c3105a",
          "transactionHash": "0x502739afceaef8359d99a4f0b0673208c9af4362f4115ff778926096ea5f7865",
          "transactionIndex": "0x1",
          "logIndex": "0x6",
          "removed": false
        },
        {
          "address": "0x15d805716ddf50f8b0f77b3db833ab2ff0cb5381",
          "topics": [
            "0xc7f505b2f371ae2175ee4913f4499e1f2633a7b5936321eed1cdaeb6115181d2"
          ],
          "data": "0x0000000000000000000000000000000000000000000000000000000000000001",
          "blockHash": "0x9888d63ada77b65392c6ab189c77bafcec43d12de3f54b6025dc2ae6a86cd16b",
          "blockNumber": "0x2c3105a",
          "transactionHash": "0x502739afceaef8359d99a4f0b0673208c9af4362f4115ff778926096ea5f7865",
          "transactionIndex": "0x1",
          "logIndex": "0x7",
          "removed": false
        },
        {
          "address": "0xbcfcbc144f0ac1c695adad8a38b48f040ec73d96",
          "topics": [
            "0x2229e9930d25a4974976f5fb5461a33fcd0fefa19393ad50af745b5fa4ccce8b",
            "0x00000000000000000000000015d805716ddf50f8b0f77b3db833ab2ff0cb5381"
          ],
          "data": "0x0000000000000000000000000000000000000000000000000000000000000020000000000000000000000000000000000000000000000000000000000000003568747470733a2f2f6170692e656d626c656d2e66696e616e63652f657263313135352f6d657461646174612f7b69647d2e6a736f6e0000000000000000000000",
          "blockHash": "0x9888d63ada77b65392c6ab189c77bafcec43d12de3f54b6025dc2ae6a86cd16b",
          "blockNumber": "0x2c3105a",
          "transactionHash": "0x502739afceaef8359d99a4f0b0673208c9af4362f4115ff778926096ea5f7865",
          "transactionIndex": "0x1",
          "logIndex": "0x8",
          "removed": false
        },
        {
          "address": "0xc125eb48fbd6dc3d4afbba5dd2a6684f83424dea",
          "topics": [
            "0x5902eed5cd330f690551c9c5095eacb178efeaf6896420b9473fa373b2313f1a",
            "0x00000000000000000000000015d805716ddf50f8b0f77b3db833ab2ff0cb5381",
            "0x0000000000000000000000000000000000000000000000000000000000000002"
          ],
          "data": "0x0000000000000000000000000000000000000000000000000000000000000020000000000000000000000000000000000000000000000000000000000000001d546573742045524331313535205661756c7420436f6c6c656374696f6e000000",
          "blockHash": "0x9888d63ada77b65392c6ab189c77bafcec43d12de3f54b6025dc2ae6a86cd16b",
          "blockNumber": "0x2c3105a",
          "transactionHash": "0x502739afceaef8359d99a4f0b0673208c9af4362f4115ff778926096ea5f7865",
          "transactionIndex": "0x1",
          "logIndex": "0x9",
          "removed": false
        }
      ],
      "logsBloom": "0x04000000000000000000000080000000000000000000000000800000000000000000000000000000000000000000000200000000000000000000004400000000000000000000000000000400001000001101200000000000000000000800000000000000020000000000000004000800000000000000000000000000000010408080000000000000000800000000042000000000000080000000100000000000000000000000000000000100000000000800000000400000002000000000000000000000004000040000000000000000001000000004000008040000000020000000000000000400000000000000000000000000008000000000000000000040",
      "type": "0x0",
      "transactionHash": "0x502739afceaef8359d99a4f0b0673208c9af4362f4115ff778926096ea5f7865",
      "transactionIndex": "0x1",
      "blockHash": "0x9888d63ada77b65392c6ab189c77bafcec43d12de3f54b6025dc2ae6a86cd16b",
      "blockNumber": "0x2c3105a",
      "gasUsed": "0x6be51",
      "effectiveGasPrice": "0x2540be400",
      "from": "0x107a120f536c8bd891a3c04fca22a7814e260210",
      "to": "0xc125eb48fbd6dc3d4afbba5dd2a6684f83424dea",
      "contractAddress": null
    }
  ],
  "libraries": [],
  "pending": [],
  "returns": {},
  "timestamp": 1733735703,
  "chain": 97,
  "commit": "b627d86"
}