{
  "transactions": [
    {
      "hash": "0x221f6f574e328d663ca8dc65b94b3f713c7803b481d443fcb43152fe48f42181",
      "transactionType": "CALL",
      "contractName": null,
      "contractAddress": "0xc125eb48fbd6dc3d4afbba5dd2a6684f83424dea",
      "function": "createVaultCollection(string,string,uint8)",
      "arguments": [
        "Test ERC721 Vault Collection",
        "TEST721",
        "1"
      ],
      "transaction": {
        "from": "0x107a120f536c8bd891a3c04fca22a7814e260210",
        "to": "0xc125eb48fbd6dc3d4afbba5dd2a6684f83424dea",
        "gas": "0x8f85b",
        "value": "0x0",
        "input": "0xa8008080000000000000000000000000000000000000000000000000000000000000006000000000000000000000000000000000000000000000000000000000000000a00000000000000000000000000000000000000000000000000000000000000001000000000000000000000000000000000000000000000000000000000000001c5465737420455243373231205661756c7420436f6c6c656374696f6e0000000000000000000000000000000000000000000000000000000000000000000000075445535437323100000000000000000000000000000000000000000000000000",
        "nonce": "0x1a",
        "chainId": "0x61"
      },
      "additionalContracts": [
        {
          "transactionType": "CREATE",
          "address": "0x7587d6a2e67ed18ca8279820e608894cc5c145a5",
          "initCode": "0x60803460b757601f6102dc38819003918201601f19168301916001600160401b0383118484101760bb5780849260209460405283398101031260b757516001600160a01b0381169081810360b757811560a8577fa3f0ad74e5423aebfd80d3ef4346578335a9a72aeaee59ff6cb3582b35133d5055604051907f367184f1bb13aa656fb065e5e2b1104b30f71206d03961639cac77f3a6b331765f80a261020c90816100d08239f35b63d92e233d60e01b5f5260045ffd5b5f80fd5b634e487b7160e01b5f52604160045260245ffdfe60806040526004361015610015575b3661011d57005b5f3560e01c6301ffc9a70361000e57346100cb5760203660031901126100cb5760043563ffffffff60e01b81168091036100cb5760206001600160a01b0361005b610141565b16916024604051809481936301ffc9a760e01b835260048301525afa80156100d7575f90610096575b604051901515815280602081015b0390f35b506020813d6020116100cf575b816100b0602093836100dc565b810103126100cb575180151581036100cb5761009290610084565b5f80fd5b3d91506100a3565b610112565b90601f8019910116810190811067ffffffffffffffff8211176100fe57604052565b634e487b7160e01b5f52604160045260245ffd5b6040513d5f823e3d90fd5b5f80610127610141565b368280378136915af43d5f803e1561013d573d5ff35b3d5ffd5b7fa3f0ad74e5423aebfd80d3ef4346578335a9a72aeaee59ff6cb3582b35133d5054604051635c60da1b60e01b815290602090829060049082906001600160a01b03165afa9081156100d7575f91610197575090565b90506020813d6020116101ce575b816101b2602093836100dc565b810103126100cb57516001600160a01b03811681036100cb5790565b3d91506101a556fea2646970667358221220aeee0cd024e1a9dfea278b2f4b6653002a9af17573f4b119303ec69f78ccab5164736f6c634300081c0033000000000000000000000000704bc33f34fb696405bb4074a770d284097afc75"
        }
      ],
      "isFixedGasLimit": false
    },
    {
      "hash": "0x63077bdc0939c38c34889b0a196d32a9c3344dff0c45ce821c2344fe82a2e7c4",
      "transactionType": "CALL",
      "contractName": null,
      "contractAddress": "0xc125eb48fbd6dc3d4afbba5dd2a6684f83424dea",
      "function": "createVaultCollection(string,string,uint8)",
      "arguments": [
        "Test ERC1155 Vault Collection",
        "https://api.emblem.finance/erc1155/metadata/{id}.json",
        "2"
      ],
      "transaction": {
        "from": "0x107a120f536c8bd891a3c04fca22a7814e260210",
        "to": "0xc125eb48fbd6dc3d4afbba5dd2a6684f83424dea",
        "gas": "0x8f4fd",
        "value": "0x0",
        "input": "0xa8008080000000000000000000000000000000000000000000000000000000000000006000000000000000000000000000000000000000000000000000000000000000a00000000000000000000000000000000000000000000000000000000000000002000000000000000000000000000000000000000000000000000000000000001d546573742045524331313535205661756c7420436f6c6c656374696f6e000000000000000000000000000000000000000000000000000000000000000000003568747470733a2f2f6170692e656d626c656d2e66696e616e63652f657263313135352f6d657461646174612f7b69647d2e6a736f6e0000000000000000000000",
        "nonce": "0x1b",
        "chainId": "0x61"
      },
      "additionalContracts": [
        {
          "transactionType": "CREATE",
          "address": "0x064724d71e0b3c2bb03384d1188a2f34144a13bd",
          "initCode": "0x60803460b757601f6102dc38819003918201601f19168301916001600160401b0383118484101760bb5780849260209460405283398101031260b757516001600160a01b0381169081810360b757811560a8577fa3f0ad74e5423aebfd80d3ef4346578335a9a72aeaee59ff6cb3582b35133d5055604051907f367184f1bb13aa656fb065e5e2b1104b30f71206d03961639cac77f3a6b331765f80a261020c90816100d08239f35b63d92e233d60e01b5f5260045ffd5b5f80fd5b634e487b7160e01b5f52604160045260245ffdfe60806040526004361015610015575b3661011d57005b5f3560e01c6301ffc9a70361000e57346100cb5760203660031901126100cb5760043563ffffffff60e01b81168091036100cb5760206001600160a01b0361005b610141565b16916024604051809481936301ffc9a760e01b835260048301525afa80156100d7575f90610096575b604051901515815280602081015b0390f35b506020813d6020116100cf575b816100b0602093836100dc565b810103126100cb575180151581036100cb5761009290610084565b5f80fd5b3d91506100a3565b610112565b90601f8019910116810190811067ffffffffffffffff8211176100fe57604052565b634e487b7160e01b5f52604160045260245ffd5b6040513d5f823e3d90fd5b5f80610127610141565b368280378136915af43d5f803e1561013d573d5ff35b3d5ffd5b7fa3f0ad74e5423aebfd80d3ef4346578335a9a72aeaee59ff6cb3582b35133d5054604051635c60da1b60e01b815290602090829060049082906001600160a01b03165afa9081156100d7575f91610197575090565b90506020813d6020116101ce575b816101b2602093836100dc565b810103126100cb57516001600160a01b03811681036100cb5790565b3d91506101a556fea264697066735822122050a7ddf62262644f9d9b3423f5aca3bb040f5c42780615e860de2ef9420adfbd64736f6c634300081c00330000000000000000000000008aaa7ea37638c1c4466804434be2e4da02774acc"
        }
      ],
      "isFixedGasLimit": false
    }
  ],
  "receipts": [
    {
      "status": "0x1",
      "cumulativeGasUsed": "0x67e86",
      "logs": [
        {
          "address": "0x7587d6a2e67ed18ca8279820e608894cc5c145a5",
          "topics": [
            "0x367184f1bb13aa656fb065e5e2b1104b30f71206d03961639cac77f3a6b33176",
            "0x000000000000000000000000704bc33f34fb696405bb4074a770d284097afc75"
          ],
          "data": "0x",
          "blockHash": "0xaed43c6470518693f3ca05092d631a1dd7741721dc65e7380f002bbbfc4af209",
          "blockNumber": "0x2c31289",
          "transactionHash": "0x221f6f574e328d663ca8dc65b94b3f713c7803b481d443fcb43152fe48f42181",
          "transactionIndex": "0x0",
          "logIndex": "0x0",
          "removed": false
        },
        {
          "address": "0x7587d6a2e67ed18ca8279820e608894cc5c145a5",
          "topics": [
            "0x8be0079c531659141344cd1fd0a4f28419497f9722a3daafe3b4186f6b6457e0",
            "0x0000000000000000000000000000000000000000000000000000000000000000",
            "0x000000000000000000000000a34fe923ee87c8000c93852d0fd8eaaf280d836f"
          ],
          "data": "0x",
          "blockHash": "0xaed43c6470518693f3ca05092d631a1dd7741721dc65e7380f002bbbfc4af209",
          "blockNumber": "0x2c31289",
          "transactionHash": "0x221f6f574e328d663ca8dc65b94b3f713c7803b481d443fcb43152fe48f42181",
          "transactionIndex": "0x0",
          "logIndex": "0x1",
          "removed": false
        },
        {
          "address": "0x7587d6a2e67ed18ca8279820e608894cc5c145a5",
          "topics": [
            "0xc7f505b2f371ae2175ee4913f4499e1f2633a7b5936321eed1cdaeb6115181d2"
          ],
          "data": "0x0000000000000000000000000000000000000000000000000000000000000001",
          "blockHash": "0xaed43c6470518693f3ca05092d631a1dd7741721dc65e7380f002bbbfc4af209",
          "blockNumber": "0x2c31289",
          "transactionHash": "0x221f6f574e328d663ca8dc65b94b3f713c7803b481d443fcb43152fe48f42181",
          "transactionIndex": "0x0",
          "logIndex": "0x2",
          "removed": false
        },
        {
          "address": "0xa34fe923ee87c8000c93852d0fd8eaaf280d836f",
          "topics": [
            "0xc235116ab1fd2ce09ba4690b74e2e7782ddf6f4a49eda5a12e0c320f7c65ccd6",
            "0x0000000000000000000000007587d6a2e67ed18ca8279820e608894cc5c145a5"
          ],
          "data": "0x00000000000000000000000000000000000000000000000000000000000000400000000000000000000000000000000000000000000000000000000000000080000000000000000000000000000000000000000000000000000000000000001c5465737420455243373231205661756c7420436f6c6c656374696f6e0000000000000000000000000000000000000000000000000000000000000000000000075445535437323100000000000000000000000000000000000000000000000000",
          "blockHash": "0xaed43c6470518693f3ca05092d631a1dd7741721dc65e7380f002bbbfc4af209",
          "blockNumber": "0x2c31289",
          "transactionHash": "0x221f6f574e328d663ca8dc65b94b3f713c7803b481d443fcb43152fe48f42181",
          "transactionIndex": "0x0",
          "logIndex": "0x3",
          "removed": false
        },
        {
          "address": "0xc125eb48fbd6dc3d4afbba5dd2a6684f83424dea",
          "topics": [
            "0x5902eed5cd330f690551c9c5095eacb178efeaf6896420b9473fa373b2313f1a",
            "0x0000000000000000000000007587d6a2e67ed18ca8279820e608894cc5c145a5",
            "0x0000000000000000000000000000000000000000000000000000000000000001"
          ],
          "data": "0x0000000000000000000000000000000000000000000000000000000000000020000000000000000000000000000000000000000000000000000000000000001c5465737420455243373231205661756c7420436f6c6c656374696f6e00000000",
          "blockHash": "0xaed43c6470518693f3ca05092d631a1dd7741721dc65e7380f002bbbfc4af209",
          "blockNumber": "0x2c31289",
          "transactionHash": "0x221f6f574e328d663ca8dc65b94b3f713c7803b481d443fcb43152fe48f42181",
          "transactionIndex": "0x0",
          "logIndex": "0x4",
          "removed": false
        }
      ],
      "logsBloom": "0x00000000008000000000000080100000000000000040002000800000000000000010000000000000000000000000008000000000000000000000004000040000000000000000000000000400000000000101000000040000000000000000000101000000020000000000000000000800000000000000000000000000000000408080000000000000000800000000000008000000000080000000100000000000010080000000000000000000100000000000000000000000000000008000000000000000004004000000000000000000000000000004000000040000000860000000000000000000040000808000000000000000000000000000000000000000",
      "type": "0x0",
      "transactionHash": "0x221f6f574e328d663ca8dc65b94b3f713c7803b481d443fcb43152fe48f42181",
      "transactionIndex": "0x0",
      "blockHash": "0xaed43c6470518693f3ca05092d631a1dd7741721dc65e7380f002bbbfc4af209",
      "blockNumber": "0x2c31289",
      "gasUsed": "0x67e86",
      "effectiveGasPrice": "0x1dcd65000",
      "from": "0x107a120f536c8bd891a3c04fca22a7814e260210",
      "to": "0xc125eb48fbd6dc3d4afbba5dd2a6684f83424dea",
      "contractAddress": null
    },
    {
      "status": "0x1",
      "cumulativeGasUsed": "0xcfa9c",
      "logs": [
        {
          "address": "0x064724d71e0b3c2bb03384d1188a2f34144a13bd",
          "topics": [
            "0x367184f1bb13aa656fb065e5e2b1104b30f71206d03961639cac77f3a6b33176",
            "0x0000000000000000000000008aaa7ea37638c1c4466804434be2e4da02774acc"
          ],
          "data": "0x",
          "blockHash": "0xaed43c6470518693f3ca05092d631a1dd7741721dc65e7380f002bbbfc4af209",
          "blockNumber": "0x2c31289",
          "transactionHash": "0x63077bdc0939c38c34889b0a196d32a9c3344dff0c45ce821c2344fe82a2e7c4",
          "transactionIndex": "0x1",
          "logIndex": "0x5",
          "removed": false
        },
        {
          "address": "0x064724d71e0b3c2bb03384d1188a2f34144a13bd",
          "topics": [
            "0x8be0079c531659141344cd1fd0a4f28419497f9722a3daafe3b4186f6b6457e0",
            "0x0000000000000000000000000000000000000000000000000000000000000000",
            "0x000000000000000000000000a34fe923ee87c8000c93852d0fd8eaaf280d836f"
          ],
          "data": "0x",
          "blockHash": "0xaed43c6470518693f3ca05092d631a1dd7741721dc65e7380f002bbbfc4af209",
          "blockNumber": "0x2c31289",
          "transactionHash": "0x63077bdc0939c38c34889b0a196d32a9c3344dff0c45ce821c2344fe82a2e7c4",
          "transactionIndex": "0x1",
          "logIndex": "0x6",
          "removed": false
        },
        {
          "address": "0x064724d71e0b3c2bb03384d1188a2f34144a13bd",
          "topics": [
            "0xc7f505b2f371ae2175ee4913f4499e1f2633a7b5936321eed1cdaeb6115181d2"
          ],
          "data": "0x0000000000000000000000000000000000000000000000000000000000000001",
          "blockHash": "0xaed43c6470518693f3ca05092d631a1dd7741721dc65e7380f002bbbfc4af209",
          "blockNumber": "0x2c31289",
          "transactionHash": "0x63077bdc0939c38c34889b0a196d32a9c3344dff0c45ce821c2344fe82a2e7c4",
          "transactionIndex": "0x1",
          "logIndex": "0x7",
          "removed": false
        },
        {
          "address": "0xa34fe923ee87c8000c93852d0fd8eaaf280d836f",
          "topics": [
            "0x2229e9930d25a4974976f5fb5461a33fcd0fefa19393ad50af745b5fa4ccce8b",
            "0x000000000000000000000000064724d71e0b3c2bb03384d1188a2f34144a13bd"
          ],
          "data": "0x0000000000000000000000000000000000000000000000000000000000000020000000000000000000000000000000000000000000000000000000000000003568747470733a2f2f6170692e656d626c656d2e66696e616e63652f657263313135352f6d657461646174612f7b69647d2e6a736f6e0000000000000000000000",
          "blockHash": "0xaed43c6470518693f3ca05092d631a1dd7741721dc65e7380f002bbbfc4af209",
          "blockNumber": "0x2c31289",
          "transactionHash": "0x63077bdc0939c38c34889b0a196d32a9c3344dff0c45ce821c2344fe82a2e7c4",
          "transactionIndex": "0x1",
          "logIndex": "0x8",
          "removed": false
        },
        {
          "address": "0xc125eb48fbd6dc3d4afbba5dd2a6684f83424dea",
          "topics": [
            "0x5902eed5cd330f690551c9c5095eacb178efeaf6896420b9473fa373b2313f1a",
            "0x000000000000000000000000064724d71e0b3c2bb03384d1188a2f34144a13bd",
            "0x0000000000000000000000000000000000000000000000000000000000000002"
          ],
          "data": "0x0000000000000000000000000000000000000000000000000000000000000020000000000000000000000000000000000000000000000000000000000000001d546573742045524331313535205661756c7420436f6c6c656374696f6e000000",
          "blockHash": "0xaed43c6470518693f3ca05092d631a1dd7741721dc65e7380f002bbbfc4af209",
          "blockNumber": "0x2c31289",
          "transactionHash": "0x63077bdc0939c38c34889b0a196d32a9c3344dff0c45ce821c2344fe82a2e7c4",
          "transactionIndex": "0x1",
          "logIndex": "0x9",
          "removed": false
        }
      ],
      "logsBloom": "0x04000000008000000000000080000000000000200060002000800000000000000000000000000000000000000000008200000000000000000000004000000000000000000000000000000400000000000101200000000000000000000000000000000000020000000000000000000800000000000000000000000000000000408080000000000000000800000000040000000100000080020000100000000000000000000000000000000100100000000800000000000000002000008000000000000000004000000400000000000000000000000004000000040000000020000000000000000400000000008000000000000000008000000000000000000000",
      "type": "0x0",
      "transactionHash": "0x63077bdc0939c38c34889b0a196d32a9c3344dff0c45ce821c2344fe82a2e7c4",
      "transactionIndex": "0x1",
      "blockHash": "0xaed43c6470518693f3ca05092d631a1dd7741721dc65e7380f002bbbfc4af209",
      "blockNumber": "0x2c31289",
      "gasUsed": "0x67c16",
      "effectiveGasPrice": "0x1dcd65000",
      "from": "0x107a120f536c8bd891a3c04fca22a7814e260210",
      "to": "0xc125eb48fbd6dc3d4afbba5dd2a6684f83424dea",
      "contractAddress": null
    }
  ],
  "libraries": [],
  "pending": [],
  "returns": {},
  "timestamp": 1733737379,
  "chain": 97,
  "commit": "b627d86"
}