{
  "transactions": [
    {
      "hash": "0x1da7614bba8e06f5e979f6e1ca6bd8ba30f1fe98cf6ece07150daa70dde2a64a",
      "transactionType": "CALL",
      "contractName": null,
      "contractAddress": "0x161ab371a04755cd2eb1963ca8373fea7bf42d80",
      "function": "setCollectionBaseURI(address,string)",
      "arguments": [
        "0x9D64037413969f3DF07E336Bd776B785f9c0Eb9D",
        "ipfs://Qmer52AeUTA26MWcCfdYVMuzdTmdXNbExfMaTJkgUeZKPR/"
      ],
      "transaction": {
        "from": "0x107a120f536c8bd891a3c04fca22a7814e260210",
        "to": "0x161ab371a04755cd2eb1963ca8373fea7bf42d80",
        "gas": "0x27f75",
        "value": "0x0",
        "input": "0x80aed2a90000000000000000000000009d64037413969f3df07e336bd776b785f9c0eb9d00000000000000000000000000000000000000000000000000000000000000400000000000000000000000000000000000000000000000000000000000000036697066733a2f2f516d65723532416555544132364d576343666459564d757a64546d64584e624578664d61544a6b6755655a4b50522f00000000000000000000",
        "nonce": "0x50",
        "chainId": "0xa869"
      },
      "additionalContracts": [],
      "isFixedGasLimit": false
    }
  ],
  "receipts": [
    {
      "status": "0x1",
      "cumulativeGasUsed": "0x1cef5",
      "logs": [
        {
          "address": "0x9d64037413969f3df07e336bd776b785f9c0eb9d",
          "topics": [
            "0x6741b2fc379fad678116fe3d4d4b9a1a184ab53ba36b86ad0fa66340b1ab41ad"
          ],
          "data": "0x00000000000000000000000000000000000000000000000000000000000000200000000000000000000000000000000000000000000000000000000000000036697066733a2f2f516d65723532416555544132364d576343666459564d757a64546d64584e624578664d61544a6b6755655a4b50522f00000000000000000000",
          "blockHash": "0x28ac0ea37c47641365792ecd82da8f2f3098168ce8fe3877eda6d63741af91ef",
          "blockNumber": "0x237063f",
          "transactionHash": "0x1da7614bba8e06f5e979f6e1ca6bd8ba30f1fe98cf6ece07150daa70dde2a64a",
          "transactionIndex": "0x0",
          "logIndex": "0x0",
          "removed": false
        },
        {
          "address": "0x161ab371a04755cd2eb1963ca8373fea7bf42d80",
          "topics": [
            "0x65936d1dee571c89e7bc171ad8e94e288d930f863c2a4a92a0593baef6573ee9",
            "0x0000000000000000000000009d64037413969f3df07e336bd776b785f9c0eb9d"
          ],
          "data": "0x00000000000000000000000000000000000000000000000000000000000000200000000000000000000000000000000000000000000000000000000000000036697066733a2f2f516d65723532416555544132364d576343666459564d757a64546d64584e624578664d61544a6b6755655a4b50522f00000000000000000000",
          "blockHash": "0x28ac0ea37c47641365792ecd82da8f2f3098168ce8fe3877eda6d63741af91ef",
          "blockNumber": "0x237063f",
          "transactionHash": "0x1da7614bba8e06f5e979f6e1ca6bd8ba30f1fe98cf6ece07150daa70dde2a64a",
          "transactionIndex": "0x0",
          "logIndex": "0x1",
          "removed": false
        }
      ],
      "logsBloom": "0x00000000000000020000000000000000000004000000000000000000000000080000000000000000000000000000000000000000000000000000000000000000000000000000000000000000000000000000000000000000000000000000004000000000000000000000000000000000000000000001000000800000000000000000000000000000000000000000000000000000000000082000000000000000000001000000000001000000000000000800000000000000000000000000000000000000000000000000000200004000000000000000000000000000000000002000000000000000000000000000000002000000000000000000000000000000",
      "type": "0x2",
      "transactionHash": "0x1da7614bba8e06f5e979f6e1ca6bd8ba30f1fe98cf6ece07150daa70dde2a64a",
      "transactionIndex": "0x0",
      "blockHash": "0x28ac0ea37c47641365792ecd82da8f2f3098168ce8fe3877eda6d63741af91ef",
      "blockNumber": "0x237063f",
      "gasUsed": "0x1cef5",
      "effectiveGasPrice": "0x47868c01",
      "from": "0x107a120f536c8bd891a3c04fca22a7814e260210",
      "to": "0x161ab371a04755cd2eb1963ca8373fea7bf42d80",
      "contractAddress": null
    }
  ],
  "libraries": [],
  "pending": [],
  "returns": {},
  "timestamp": 1734336176,
  "chain": 43113,
  "commit": "bf91bda"
}