{
  "transactions": [
    {
      "hash": "0x6c3f7db96e96921a3be4d0577388fb9c0527a8f74f44ef94c8cb0e1f944a7821",
      "transactionType": "CALL",
      "contractName": null,
      "contractAddress": "0x0e19c2b394d82418273d6bf2796505cd34bda40f",
      "function": "createVaultCollection(string,string,uint8)",
      "arguments": [
        "Rare Pepe",
        "PEPE",
        "2"
      ],
      "transaction": {
        "from": "0xa99526e4dc81b85c1d248ca974eadce81837ecf1",
        "to": "0x0e19c2b394d82418273d6bf2796505cd34bda40f",
        "gas": "0x6a8e2",
        "value": "0x0",
        "input": "0xa8008080000000000000000000000000000000000000000000000000000000000000006000000000000000000000000000000000000000000000000000000000000000a000000000000000000000000000000000000000000000000000000000000000020000000000000000000000000000000000000000000000000000000000000009526172652050657065000000000000000000000000000000000000000000000000000000000000000000000000000000000000000000000000000000000000045045504500000000000000000000000000000000000000000000000000000000",
        "nonce": "0x66",
        "chainId": "0x14a34"
      },
      "additionalContracts": [
        {
          "transactionType": "CREATE",
          "address": "0x6c71322eeedf1abac6ad047869d31f8e516ecfe1",
          "initCode": "0x60803460b757601f6102dc38819003918201601f19168301916001600160401b0383118484101760bb5780849260209460405283398101031260b757516001600160a01b0381169081810360b757811560a8577fa3f0ad74e5423aebfd80d3ef4346578335a9a72aeaee59ff6cb3582b35133d5055604051907f367184f1bb13aa656fb065e5e2b1104b30f71206d03961639cac77f3a6b331765f80a261020c90816100d08239f35b63d92e233d60e01b5f5260045ffd5b5f80fd5b634e487b7160e01b5f52604160045260245ffdfe60806040526004361015610015575b3661011d57005b5f3560e01c6301ffc9a70361000e57346100cb5760203660031901126100cb5760043563ffffffff60e01b81168091036100cb5760206001600160a01b0361005b610141565b16916024604051809481936301ffc9a760e01b835260048301525afa80156100d7575f90610096575b604051901515815280602081015b0390f35b506020813d6020116100cf575b816100b0602093836100dc565b810103126100cb575180151581036100cb5761009290610084565b5f80fd5b3d91506100a3565b610112565b90601f8019910116810190811067ffffffffffffffff8211176100fe57604052565b634e487b7160e01b5f52604160045260245ffd5b6040513d5f823e3d90fd5b5f80610127610141565b368280378136915af43d5f803e1561013d573d5ff35b3d5ffd5b7fa3f0ad74e5423aebfd80d3ef4346578335a9a72aeaee59ff6cb3582b35133d5054604051635c60da1b60e01b815290602090829060049082906001600160a01b03165afa9081156100d7575f91610197575090565b90506020813d6020116101ce575b816101b2602093836100dc565b810103126100cb57516001600160a01b03811681036100cb5790565b3d91506101a556fea2646970667358221220b9aa4dcde91f06e0b875fe779d49781682719d788493724bc49bbfa1c806b86564736f6c634300081c0033000000000000000000000000a7b719810478696cc3679fa74eaed04fd0d38224"
        }
      ],
      "isFixedGasLimit": false
    },
    {
      "hash": "0x714f4858cacb0e55f147f31d42101a5f82a98a99c03e4e43b722382b32acf0ab",
      "transactionType": "CALL",
      "contractName": null,
      "contractAddress": "0x0e19c2b394d82418273d6bf2796505cd34bda40f",
      "function": "createVaultCollection(string,string,uint8)",
      "arguments": [
        "Spells of Genesis",
        "SOG",
        "2"
      ],
      "transaction": {
        "from": "0xa99526e4dc81b85c1d248ca974eadce81837ecf1",
        "to": "0x0e19c2b394d82418273d6bf2796505cd34bda40f",
        "gas": "0x70da7",
        "value": "0x0",
        "input": "0xa8008080000000000000000000000000000000000000000000000000000000000000006000000000000000000000000000000000000000000000000000000000000000a0000000000000000000000000000000000000000000000000000000000000000200000000000000000000000000000000000000000000000000000000000000115370656c6c73206f662047656e657369730000000000000000000000000000000000000000000000000000000000000000000000000000000000000000000003534f470000000000000000000000000000000000000000000000000000000000",
        "nonce": "0x67",
        "chainId": "0x14a34"
      },
      "additionalContracts": [
        {
          "transactionType": "CREATE",
          "address": "0xd85754d528de7417d44bf838729aef9e05e09a44",
          "initCode": "0x60803460b757601f6102dc38819003918201601f19168301916001600160401b0383118484101760bb5780849260209460405283398101031260b757516001600160a01b0381169081810360b757811560a8577fa3f0ad74e5423aebfd80d3ef4346578335a9a72aeaee59ff6cb3582b35133d5055604051907f367184f1bb13aa656fb065e5e2b1104b30f71206d03961639cac77f3a6b331765f80a261020c90816100d08239f35b63d92e233d60e01b5f5260045ffd5b5f80fd5b634e487b7160e01b5f52604160045260245ffdfe60806040526004361015610015575b3661011d57005b5f3560e01c6301ffc9a70361000e57346100cb5760203660031901126100cb5760043563ffffffff60e01b81168091036100cb5760206001600160a01b0361005b610141565b16916024604051809481936301ffc9a760e01b835260048301525afa80156100d7575f90610096575b604051901515815280602081015b0390f35b506020813d6020116100cf575b816100b0602093836100dc565b810103126100cb575180151581036100cb5761009290610084565b5f80fd5b3d91506100a3565b610112565b90601f8019910116810190811067ffffffffffffffff8211176100fe57604052565b634e487b7160e01b5f52604160045260245ffd5b6040513d5f823e3d90fd5b5f80610127610141565b368280378136915af43d5f803e1561013d573d5ff35b3d5ffd5b7fa3f0ad74e5423aebfd80d3ef4346578335a9a72aeaee59ff6cb3582b35133d5054604051635c60da1b60e01b815290602090829060049082906001600160a01b03165afa9081156100d7575f91610197575090565b90506020813d6020116101ce575b816101b2602093836100dc565b810103126100cb57516001600160a01b03811681036100cb5790565b3d91506101a556fea2646970667358221220b9aa4dcde91f06e0b875fe779d49781682719d788493724bc49bbfa1c806b86564736f6c634300081c0033000000000000000000000000a7b719810478696cc3679fa74eaed04fd0d38224"
        }
      ],
      "isFixedGasLimit": false
    },
    {
      "hash": "0xc401f5bf250c785452748c4c1369d5a6553623d190546673a66c72b486d44f53",
      "transactionType": "CALL",
      "contractName": null,
      "contractAddress": "0x0e19c2b394d82418273d6bf2796505cd34bda40f",
      "function": "createVaultCollection(string,string,uint8)",
      "arguments": [
        "Fake Rares",
        "FAKE",
        "2"
      ],
      "transaction": {
        "from": "0xa99526e4dc81b85c1d248ca974eadce81837ecf1",
        "to": "0x0e19c2b394d82418273d6bf2796505cd34bda40f",
        "gas": "0x70d3e",
        "value": "0x0",
        "input": "0xa8008080000000000000000000000000000000000000000000000000000000000000006000000000000000000000000000000000000000000000000000000000000000a00000000000000000000000000000000000000000000000000000000000000002000000000000000000000000000000000000000000000000000000000000000a46616b6520526172657300000000000000000000000000000000000000000000000000000000000000000000000000000000000000000000000000000000000446414b4500000000000000000000000000000000000000000000000000000000",
        "nonce": "0x68",
        "chainId": "0x14a34"
      },
      "additionalContracts": [
        {
          "transactionType": "CREATE",
          "address": "0xe6a2c65a9e10fea0f37539b4beefd09b8c127da6",
          "initCode": "0x60803460b757601f6102dc38819003918201601f19168301916001600160401b0383118484101760bb5780849260209460405283398101031260b757516001600160a01b0381169081810360b757811560a8577fa3f0ad74e5423aebfd80d3ef4346578335a9a72aeaee59ff6cb3582b35133d5055604051907f367184f1bb13aa656fb065e5e2b1104b30f71206d03961639cac77f3a6b331765f80a261020c90816100d08239f35b63d92e233d60e01b5f5260045ffd5b5f80fd5b634e487b7160e01b5f52604160045260245ffdfe60806040526004361015610015575b3661011d57005b5f3560e01c6301ffc9a70361000e57346100cb5760203660031901126100cb5760043563ffffffff60e01b81168091036100cb5760206001600160a01b0361005b610141565b16916024604051809481936301ffc9a760e01b835260048301525afa80156100d7575f90610096575b604051901515815280602081015b0390f35b506020813d6020116100cf575b816100b0602093836100dc565b810103126100cb575180151581036100cb5761009290610084565b5f80fd5b3d91506100a3565b610112565b90601f8019910116810190811067ffffffffffffffff8211176100fe57604052565b634e487b7160e01b5f52604160045260245ffd5b6040513d5f823e3d90fd5b5f80610127610141565b368280378136915af43d5f803e1561013d573d5ff35b3d5ffd5b7fa3f0ad74e5423aebfd80d3ef4346578335a9a72aeaee59ff6cb3582b35133d5054604051635c60da1b60e01b815290602090829060049082906001600160a01b03165afa9081156100d7575f91610197575090565b90506020813d6020116101ce575b816101b2602093836100dc565b810103126100cb57516001600160a01b03811681036100cb5790565b3d91506101a556fea2646970667358221220b9aa4dcde91f06e0b875fe779d49781682719d788493724bc49bbfa1c806b86564736f6c634300081c0033000000000000000000000000a7b719810478696cc3679fa74eaed04fd0d38224"
        }
      ],
      "isFixedGasLimit": false
    },
    {
      "hash": "0x0a125e4d5910f9af4ec744e007db5f132cfeb06d565e4a5b52b824146d0a2218",
      "transactionType": "CALL",
      "contractName": null,
      "contractAddress": "0x0e19c2b394d82418273d6bf2796505cd34bda40f",
      "function": "createVaultCollection(string,string,uint8)",
      "arguments": [
        "EmBells",
        "BELL",
        "1"
      ],
      "transaction": {
        "from": "0xa99526e4dc81b85c1d248ca974eadce81837ecf1",
        "to": "0x0e19c2b394d82418273d6bf2796505cd34bda40f",
        "gas": "0x89bfe",
        "value": "0x0",
        "input": "0xa8008080000000000000000000000000000000000000000000000000000000000000006000000000000000000000000000000000000000000000000000000000000000a000000000000000000000000000000000000000000000000000000000000000010000000000000000000000000000000000000000000000000000000000000007456d42656c6c7300000000000000000000000000000000000000000000000000000000000000000000000000000000000000000000000000000000000000000442454c4c00000000000000000000000000000000000000000000000000000000",
        "nonce": "0x69",
        "chainId": "0x14a34"
      },
      "additionalContracts": [
        {
          "transactionType": "CREATE",
          "address": "0x8c10862a5bca8ca46a904fbdd28832dd0db583c9",
          "initCode": "0x60803460b757601f6102dc38819003918201601f19168301916001600160401b0383118484101760bb5780849260209460405283398101031260b757516001600160a01b0381169081810360b757811560a8577fa3f0ad74e5423aebfd80d3ef4346578335a9a72aeaee59ff6cb3582b35133d5055604051907f367184f1bb13aa656fb065e5e2b1104b30f71206d03961639cac77f3a6b331765f80a261020c90816100d08239f35b63d92e233d60e01b5f5260045ffd5b5f80fd5b634e487b7160e01b5f52604160045260245ffdfe60806040526004361015610015575b3661011d57005b5f3560e01c6301ffc9a70361000e57346100cb5760203660031901126100cb5760043563ffffffff60e01b81168091036100cb5760206001600160a01b0361005b610141565b16916024604051809481936301ffc9a760e01b835260048301525afa80156100d7575f90610096575b604051901515815280602081015b0390f35b506020813d6020116100cf575b816100b0602093836100dc565b810103126100cb575180151581036100cb5761009290610084565b5f80fd5b3d91506100a3565b610112565b90601f8019910116810190811067ffffffffffffffff8211176100fe57604052565b634e487b7160e01b5f52604160045260245ffd5b6040513d5f823e3d90fd5b5f80610127610141565b368280378136915af43d5f803e1561013d573d5ff35b3d5ffd5b7fa3f0ad74e5423aebfd80d3ef4346578335a9a72aeaee59ff6cb3582b35133d5054604051635c60da1b60e01b815290602090829060049082906001600160a01b03165afa9081156100d7575f91610197575090565b90506020813d6020116101ce575b816101b2602093836100dc565b810103126100cb57516001600160a01b03811681036100cb5790565b3d91506101a556fea26469706673582212206ee762e682717726e2a88d1f11d5d6c4b60618285602632bd45443440f6accef64736f6c634300081c00330000000000000000000000002527fdefe99b6e2147e6bec8505ecb76d7d76c07"
        }
      ],
      "isFixedGasLimit": false
    },
    {
      "hash": "0xf0756981c6fc9ccd4d83f049830cba06ab1c5a39a79db26630654d4f901e0b39",
      "transactionType": "CALL",
      "contractName": null,
      "contractAddress": "0x0e19c2b394d82418273d6bf2796505cd34bda40f",
      "function": "createVaultCollection(string,string,uint8)",
      "arguments": [
        "Emblem Open",
        "OPEN",
        "1"
      ],
      "transaction": {
        "from": "0xa99526e4dc81b85c1d248ca974eadce81837ecf1",
        "to": "0x0e19c2b394d82418273d6bf2796505cd34bda40f",
        "gas": "0x89c40",
        "value": "0x0",
        "input": "0xa8008080000000000000000000000000000000000000000000000000000000000000006000000000000000000000000000000000000000000000000000000000000000a00000000000000000000000000000000000000000000000000000000000000001000000000000000000000000000000000000000000000000000000000000000b456d626c656d204f70656e00000000000000000000000000000000000000000000000000000000000000000000000000000000000000000000000000000000044f50454e00000000000000000000000000000000000000000000000000000000",
        "nonce": "0x6a",
        "chainId": "0x14a34"
      },
      "additionalContracts": [
        {
          "transactionType": "CREATE",
          "address": "0x7b2f434e2f378d493599f9f23aa97f8f47540218",
          "initCode": "0x60803460b757601f6102dc38819003918201601f19168301916001600160401b0383118484101760bb5780849260209460405283398101031260b757516001600160a01b0381169081810360b757811560a8577fa3f0ad74e5423aebfd80d3ef4346578335a9a72aeaee59ff6cb3582b35133d5055604051907f367184f1bb13aa656fb065e5e2b1104b30f71206d03961639cac77f3a6b331765f80a261020c90816100d08239f35b63d92e233d60e01b5f5260045ffd5b5f80fd5b634e487b7160e01b5f52604160045260245ffdfe60806040526004361015610015575b3661011d57005b5f3560e01c6301ffc9a70361000e57346100cb5760203660031901126100cb5760043563ffffffff60e01b81168091036100cb5760206001600160a01b0361005b610141565b16916024604051809481936301ffc9a760e01b835260048301525afa80156100d7575f90610096575b604051901515815280602081015b0390f35b506020813d6020116100cf575b816100b0602093836100dc565b810103126100cb575180151581036100cb5761009290610084565b5f80fd5b3d91506100a3565b610112565b90601f8019910116810190811067ffffffffffffffff8211176100fe57604052565b634e487b7160e01b5f52604160045260245ffd5b6040513d5f823e3d90fd5b5f80610127610141565b368280378136915af43d5f803e1561013d573d5ff35b3d5ffd5b7fa3f0ad74e5423aebfd80d3ef4346578335a9a72aeaee59ff6cb3582b35133d5054604051635c60da1b60e01b815290602090829060049082906001600160a01b03165afa9081156100d7575f91610197575090565b90506020813d6020116101ce575b816101b2602093836100dc565b810103126100cb57516001600160a01b03811681036100cb5790565b3d91506101a556fea26469706673582212206ee762e682717726e2a88d1f11d5d6c4b60618285602632bd45443440f6accef64736f6c634300081c00330000000000000000000000002527fdefe99b6e2147e6bec8505ecb76d7d76c07"
        }
      ],
      "isFixedGasLimit": false
    },
    {
      "hash": "0x824cc63dffe30556212485471b48d8168b783bdb4725f507d1ee27d4e0fc3461",
      "transactionType": "CALL",
      "contractName": null,
      "contractAddress": "0x0e19c2b394d82418273d6bf2796505cd34bda40f",
      "function": "setCollectionURI(address,string)",
      "arguments": [
        "0x6C71322eEEdF1AbAC6Ad047869D31f8E516ecFE1",
        "https://v2.emblemvault.io/v3/meta/0x6C71322eEEdF1AbAC6Ad047869D31f8E516ecFE1/"
      ],
      "transaction": {
        "from": "0xa99526e4dc81b85c1d248ca974eadce81837ecf1",
        "to": "0x0e19c2b394d82418273d6bf2796505cd34bda40f",
        "gas": "0x2f1e2",
        "value": "0x0",
        "input": "0x23f019fd0000000000000000000000006c71322eeedf1abac6ad047869d31f8e516ecfe10000000000000000000000000000000000000000000000000000000000000040000000000000000000000000000000000000000000000000000000000000004d68747470733a2f2f76322e656d626c656d7661756c742e696f2f76332f6d6574612f3078364337313332326545456446314162414336416430343738363944333166384535313665634645312f00000000000000000000000000000000000000",
        "nonce": "0x6b",
        "chainId": "0x14a34"
      },
      "additionalContracts": [],
      "isFixedGasLimit": false
    },
    {
      "hash": "0xae59fe662d3c1fb58c3266404a1a8c2ecf6f13d40d79ed1d5cb3098f7fce0e4b",
      "transactionType": "CALL",
      "contractName": null,
      "contractAddress": "0x0e19c2b394d82418273d6bf2796505cd34bda40f",
      "function": "setCollectionURI(address,string)",
      "arguments": [
        "0xd85754D528DE7417D44bF838729aEf9e05E09A44",
        "https://v2.emblemvault.io/v3/meta/0xd85754D528DE7417D44bF838729aEf9e05E09A44/"
      ],
      "transaction": {
        "from": "0xa99526e4dc81b85c1d248ca974eadce81837ecf1",
        "to": "0x0e19c2b394d82418273d6bf2796505cd34bda40f",
        "gas": "0x2f1e2",
        "value": "0x0",
        "input": "0x23f019fd000000000000000000000000d85754d528de7417d44bf838729aef9e05e09a440000000000000000000000000000000000000000000000000000000000000040000000000000000000000000000000000000000000000000000000000000004d68747470733a2f2f76322e656d626c656d7661756c742e696f2f76332f6d6574612f3078643835373534443532384445373431374434346246383338373239614566396530354530394134342f00000000000000000000000000000000000000",
        "nonce": "0x6c",
        "chainId": "0x14a34"
      },
      "additionalContracts": [],
      "isFixedGasLimit": false
    },
    {
      "hash": "0x959ed8f232fda3982c6c4623e8c8c8e5e7eeec2c7fcc6311baa1a0e83ada7da7",
      "transactionType": "CALL",
      "contractName": null,
      "contractAddress": "0x0e19c2b394d82418273d6bf2796505cd34bda40f",
      "function": "setCollectionURI(address,string)",
      "arguments": [
        "0xe6a2c65A9e10FEA0F37539b4BEefD09B8C127DA6",
        "https://v2.emblemvault.io/v3/meta/0xe6a2c65A9e10FEA0F37539b4BEefD09B8C127DA6/"
      ],
      "transaction": {
        "from": "0xa99526e4dc81b85c1d248ca974eadce81837ecf1",
        "to": "0x0e19c2b394d82418273d6bf2796505cd34bda40f",
        "gas": "0x2f1e2",
        "value": "0x0",
        "input": "0x23f019fd000000000000000000000000e6a2c65a9e10fea0f37539b4beefd09b8c127da60000000000000000000000000000000000000000000000000000000000000040000000000000000000000000000000000000000000000000000000000000004d68747470733a2f2f76322e656d626c656d7661756c742e696f2f76332f6d6574612f3078653661326336354139653130464541304633373533396234424565664430394238433132374441362f00000000000000000000000000000000000000",
        "nonce": "0x6d",
        "chainId": "0x14a34"
      },
      "additionalContracts": [],
      "isFixedGasLimit": false
    },
    {
      "hash": "0x14bb26ada437022a501bb3bc19943db904c4edf4b0007ae632f3421ccbafbbc3",
      "transactionType": "CALL",
      "contractName": null,
      "contractAddress": "0x0e19c2b394d82418273d6bf2796505cd34bda40f",
      "function": "setCollectionBaseURI(address,string)",
      "arguments": [
        "0x8c10862A5bCA8Ca46a904fBDD28832DD0DB583c9",
        "https://v2.emblemvault.io/v3/meta/0x8c10862A5bCA8Ca46a904fBDD28832DD0DB583c9/"
      ],
      "transaction": {
        "from": "0xa99526e4dc81b85c1d248ca974eadce81837ecf1",
        "to": "0x0e19c2b394d82418273d6bf2796505cd34bda40f",
        "gas": "0x2f388",
        "value": "0x0",
        "input": "0x80aed2a90000000000000000000000008c10862a5bca8ca46a904fbdd28832dd0db583c90000000000000000000000000000000000000000000000000000000000000040000000000000000000000000000000000000000000000000000000000000004d68747470733a2f2f76322e656d626c656d7661756c742e696f2f76332f6d6574612f3078386331303836324135624341384361343661393034664244443238383332444430444235383363392f00000000000000000000000000000000000000",
        "nonce": "0x6e",
        "chainId": "0x14a34"
      },
      "additionalContracts": [],
      "isFixedGasLimit": false
    },
    {
      "hash": "0xeab51d71fa4a877db51673002c016eca771cee8923cccfa0c54b9a958c9c8b08",
      "transactionType": "CALL",
      "contractName": null,
      "contractAddress": "0x0e19c2b394d82418273d6bf2796505cd34bda40f",
      "function": "setCollectionBaseURI(address,string)",
      "arguments": [
        "0x7B2F434E2F378D493599F9f23AA97f8f47540218",
        "https://v2.emblemvault.io/v3/meta/0x7B2F434E2F378D493599F9f23AA97f8f47540218/"
      ],
      "transaction": {
        "from": "0xa99526e4dc81b85c1d248ca974eadce81837ecf1",
        "to": "0x0e19c2b394d82418273d6bf2796505cd34bda40f",
        "gas": "0x2f388",
        "value": "0x0",
        "input": "0x80aed2a90000000000000000000000007b2f434e2f378d493599f9f23aa97f8f475402180000000000000000000000000000000000000000000000000000000000000040000000000000000000000000000000000000000000000000000000000000004d68747470733a2f2f76322e656d626c656d7661756c742e696f2f76332f6d6574612f3078374232463433344532463337384434393335393946396632334141393766386634373534303231382f00000000000000000000000000000000000000",
        "nonce": "0x6f",
        "chainId": "0x14a34"
      },
      "additionalContracts": [],
      "isFixedGasLimit": false
    }
  ],
  "receipts": [
    {
      "status": "0x1",
      "cumulativeGasUsed": "0x292f56",
      "logs": [
        {
          "address": "0x6c71322eeedf1abac6ad047869d31f8e516ecfe1",
          "topics": [
            "0x367184f1bb13aa656fb065e5e2b1104b30f71206d03961639cac77f3a6b33176",
            "0x000000000000000000000000a7b719810478696cc3679fa74eaed04fd0d38224"
          ],
          "data": "0x",
          "blockHash": "0x08b670d9a16d18e1b42a00175927ad03f41f9265e4a92a825c9b636d7a642436",
          "blockNumber": "0x15d52b7",
          "transactionHash": "0x6c3f7db96e96921a3be4d0577388fb9c0527a8f74f44ef94c8cb0e1f944a7821",
          "transactionIndex": "0x15",
          "logIndex": "0x32",
          "removed": false
        },
        {
          "address": "0x6c71322eeedf1abac6ad047869d31f8e516ecfe1",
          "topics": [
            "0x8be0079c531659141344cd1fd0a4f28419497f9722a3daafe3b4186f6b6457e0",
            "0x0000000000000000000000000000000000000000000000000000000000000000",
            "0x0000000000000000000000009e6240b007ac869b2bf61e0d8ad48b3f5e234fcc"
          ],
          "data": "0x",
          "blockHash": "0x08b670d9a16d18e1b42a00175927ad03f41f9265e4a92a825c9b636d7a642436",
          "blockNumber": "0x15d52b7",
          "transactionHash": "0x6c3f7db96e96921a3be4d0577388fb9c0527a8f74f44ef94c8cb0e1f944a7821",
          "transactionIndex": "0x15",
          "logIndex": "0x33",
          "removed": false
        },
        {
          "address": "0x6c71322eeedf1abac6ad047869d31f8e516ecfe1",
          "topics": [
            "0xc7f505b2f371ae2175ee4913f4499e1f2633a7b5936321eed1cdaeb6115181d2"
          ],
          "data": "0x0000000000000000000000000000000000000000000000000000000000000001",
          "blockHash": "0x08b670d9a16d18e1b42a00175927ad03f41f9265e4a92a825c9b636d7a642436",
          "blockNumber": "0x15d52b7",
          "transactionHash": "0x6c3f7db96e96921a3be4d0577388fb9c0527a8f74f44ef94c8cb0e1f944a7821",
          "transactionIndex": "0x15",
          "logIndex": "0x34",
          "removed": false
        },
        {
          "address": "0x6c71322eeedf1abac6ad047869d31f8e516ecfe1",
          "topics": [
            "0x8be0079c531659141344cd1fd0a4f28419497f9722a3daafe3b4186f6b6457e0",
            "0x0000000000000000000000009e6240b007ac869b2bf61e0d8ad48b3f5e234fcc",
            "0x000000000000000000000000a99526e4dc81b85c1d248ca974eadce81837ecf1"
          ],
          "data": "0x",
          "blockHash": "0x08b670d9a16d18e1b42a00175927ad03f41f9265e4a92a825c9b636d7a642436",
          "blockNumber": "0x15d52b7",
          "transactionHash": "0x6c3f7db96e96921a3be4d0577388fb9c0527a8f74f44ef94c8cb0e1f944a7821",
          "transactionIndex": "0x15",
          "logIndex": "0x35",
          "removed": false
        },
        {
          "address": "0x9e6240b007ac869b2bf61e0d8ad48b3f5e234fcc",
          "topics": [
            "0x171ccc46ca30ce15b8e391d7e1db8cf7644ed26a313b10df70a92b13da343541",
            "0x0000000000000000000000006c71322eeedf1abac6ad047869d31f8e516ecfe1",
            "0x000000000000000000000000a99526e4dc81b85c1d248ca974eadce81837ecf1"
          ],
          "data": "0x",
          "blockHash": "0x08b670d9a16d18e1b42a00175927ad03f41f9265e4a92a825c9b636d7a642436",
          "blockNumber": "0x15d52b7",
          "transactionHash": "0x6c3f7db96e96921a3be4d0577388fb9c0527a8f74f44ef94c8cb0e1f944a7821",
          "transactionIndex": "0x15",
          "logIndex": "0x36",
          "removed": false
        },
        {
          "address": "0x9e6240b007ac869b2bf61e0d8ad48b3f5e234fcc",
          "topics": [
            "0x2229e9930d25a4974976f5fb5461a33fcd0fefa19393ad50af745b5fa4ccce8b",
            "0x0000000000000000000000006c71322eeedf1abac6ad047869d31f8e516ecfe1"
          ],
          "data": "0x000000000000000000000000000000000000000000000000000000000000002000000000000000000000000000000000000000000000000000000000000000045045504500000000000000000000000000000000000000000000000000000000",
          "blockHash": "0x08b670d9a16d18e1b42a00175927ad03f41f9265e4a92a825c9b636d7a642436",
          "blockNumber": "0x15d52b7",
          "transactionHash": "0x6c3f7db96e96921a3be4d0577388fb9c0527a8f74f44ef94c8cb0e1f944a7821",
          "transactionIndex": "0x15",
          "logIndex": "0x37",
          "removed": false
        },
        {
          "address": "0x0e19c2b394d82418273d6bf2796505cd34bda40f",
          "topics": [
            "0x5902eed5cd330f690551c9c5095eacb178efeaf6896420b9473fa373b2313f1a",
            "0x0000000000000000000000006c71322eeedf1abac6ad047869d31f8e516ecfe1",
            "0x0000000000000000000000000000000000000000000000000000000000000002"
          ],
          "data": "0x000000000000000000000000000000000000000000000000000000000000002000000000000000000000000000000000000000000000000000000000000000095261726520506570650000000000000000000000000000000000000000000000",
          "blockHash": "0x08b670d9a16d18e1b42a00175927ad03f41f9265e4a92a825c9b636d7a642436",
          "blockNumber": "0x15d52b7",
          "transactionHash": "0x6c3f7db96e96921a3be4d0577388fb9c0527a8f74f44ef94c8cb0e1f944a7821",
          "transactionIndex": "0x15",
          "logIndex": "0x38",
          "removed": false
        }
      ],
      "logsBloom": "0x04000000000008000000000000000000000000000000000000800200000000000000000000000000000000000000000000000000000000000000004000000000000000000000000040000400000000000901200000000000000100000000000000000000020000000000000000000800000000000000000000000000000000408000000000000040080800004800000000000800000080000000100004008000000800000000000000000140200000000800000000000000003000000000000000010100004000000000000000000000000000000004004000000000000420000000000000000000000000000000000000000000008000800000004000420000",
      "type": "0x2",
      "transactionHash": "0x6c3f7db96e96921a3be4d0577388fb9c0527a8f74f44ef94c8cb0e1f944a7821",
      "transactionIndex": "0x15",
      "blockHash": "0x08b670d9a16d18e1b42a00175927ad03f41f9265e4a92a825c9b636d7a642436",
      "blockNumber": "0x15d52b7",
      "gasUsed": "0x4d24f",
      "effectiveGasPrice": "0xf445f",
      "from": "0xa99526e4dc81b85c1d248ca974eadce81837ecf1",
      "to": "0x0e19c2b394d82418273d6bf2796505cd34bda40f",
      "contractAddress": null,
      "l1BaseFeeScalar": "0x44d",
      "l1BlobBaseFee": "0x1",
      "l1BlobBaseFeeScalar": "0xa118b",
      "l1Fee": "0x24b9ffd8b1",
      "l1GasPrice": "0x14c0f8a5eb",
      "l1GasUsed": "0x647"
    },
    {
      "status": "0x1",
      "cumulativeGasUsed": "0xa467e6",
      "logs": [
        {
          "address": "0xd85754d528de7417d44bf838729aef9e05e09a44",
          "topics": [
            "0x367184f1bb13aa656fb065e5e2b1104b30f71206d03961639cac77f3a6b33176",
            "0x000000000000000000000000a7b719810478696cc3679fa74eaed04fd0d38224"
          ],
          "data": "0x",
          "blockHash": "0xe540d2d011493a9febc4cb5d9d1992b153e91be1ec27fa91862716c9252ce4d0",
          "blockNumber": "0x15d52b9",
          "transactionHash": "0x714f4858cacb0e55f147f31d42101a5f82a98a99c03e4e43b722382b32acf0ab",
          "transactionIndex": "0x12",
          "logIndex": "0x86",
          "removed": false
        },
        {
          "address": "0xd85754d528de7417d44bf838729aef9e05e09a44",
          "topics": [
            "0x8be0079c531659141344cd1fd0a4f28419497f9722a3daafe3b4186f6b6457e0",
            "0x0000000000000000000000000000000000000000000000000000000000000000",
            "0x0000000000000000000000009e6240b007ac869b2bf61e0d8ad48b3f5e234fcc"
          ],
          "data": "0x",
          "blockHash": "0xe540d2d011493a9febc4cb5d9d1992b153e91be1ec27fa91862716c9252ce4d0",
          "blockNumber": "0x15d52b9",
          "transactionHash": "0x714f4858cacb0e55f147f31d42101a5f82a98a99c03e4e43b722382b32acf0ab",
          "transactionIndex": "0x12",
          "logIndex": "0x87",
          "removed": false
        },
        {
          "address": "0xd85754d528de7417d44bf838729aef9e05e09a44",
          "topics": [
            "0xc7f505b2f371ae2175ee4913f4499e1f2633a7b5936321eed1cdaeb6115181d2"
          ],
          "data": "0x0000000000000000000000000000000000000000000000000000000000000001",
          "blockHash": "0xe540d2d011493a9febc4cb5d9d1992b153e91be1ec27fa91862716c9252ce4d0",
          "blockNumber": "0x15d52b9",
          "transactionHash": "0x714f4858cacb0e55f147f31d42101a5f82a98a99c03e4e43b722382b32acf0ab",
          "transactionIndex": "0x12",
          "logIndex": "0x88",
          "removed": false
        },
        {
          "address": "0xd85754d528de7417d44bf838729aef9e05e09a44",
          "topics": [
            "0x8be0079c531659141344cd1fd0a4f28419497f9722a3daafe3b4186f6b6457e0",
            "0x0000000000000000000000009e6240b007ac869b2bf61e0d8ad48b3f5e234fcc",
            "0x000000000000000000000000a99526e4dc81b85c1d248ca974eadce81837ecf1"
          ],
          "data": "0x",
          "blockHash": "0xe540d2d011493a9febc4cb5d9d1992b153e91be1ec27fa91862716c9252ce4d0",
          "blockNumber": "0x15d52b9",
          "transactionHash": "0x714f4858cacb0e55f147f31d42101a5f82a98a99c03e4e43b722382b32acf0ab",
          "transactionIndex": "0x12",
          "logIndex": "0x89",
          "removed": false
        },
        {
          "address": "0x9e6240b007ac869b2bf61e0d8ad48b3f5e234fcc",
          "topics": [
            "0x171ccc46ca30ce15b8e391d7e1db8cf7644ed26a313b10df70a92b13da343541",
            "0x000000000000000000000000d85754d528de7417d44bf838729aef9e05e09a44",
            "0x000000000000000000000000a99526e4dc81b85c1d248ca974eadce81837ecf1"
          ],
          "data": "0x",
          "blockHash": "0xe540d2d011493a9febc4cb5d9d1992b153e91be1ec27fa91862716c9252ce4d0",
          "blockNumber": "0x15d52b9",
          "transactionHash": "0x714f4858cacb0e55f147f31d42101a5f82a98a99c03e4e43b722382b32acf0ab",
          "transactionIndex": "0x12",
          "logIndex": "0x8a",
          "removed": false
        },
        {
          "address": "0x9e6240b007ac869b2bf61e0d8ad48b3f5e234fcc",
          "topics": [
            "0x2229e9930d25a4974976f5fb5461a33fcd0fefa19393ad50af745b5fa4ccce8b",
            "0x000000000000000000000000d85754d528de7417d44bf838729aef9e05e09a44"
          ],
          "data": "0x00000000000000000000000000000000000000000000000000000000000000200000000000000000000000000000000000000000000000000000000000000003534f470000000000000000000000000000000000000000000000000000000000",
          "blockHash": "0xe540d2d011493a9febc4cb5d9d1992b153e91be1ec27fa91862716c9252ce4d0",
          "blockNumber": "0x15d52b9",
          "transactionHash": "0x714f4858cacb0e55f147f31d42101a5f82a98a99c03e4e43b722382b32acf0ab",
          "transactionIndex": "0x12",
          "logIndex": "0x8b",
          "removed": false
        },
        {
          "address": "0x0e19c2b394d82418273d6bf2796505cd34bda40f",
          "topics": [
            "0x5902eed5cd330f690551c9c5095eacb178efeaf6896420b9473fa373b2313f1a",
            "0x000000000000000000000000d85754d528de7417d44bf838729aef9e05e09a44",
            "0x0000000000000000000000000000000000000000000000000000000000000002"
          ],
          "data": "0x000000000000000000000000000000000000000000000000000000000000002000000000000000000000000000000000000000000000000000000000000000115370656c6c73206f662047656e65736973000000000000000000000000000000",
          "blockHash": "0xe540d2d011493a9febc4cb5d9d1992b153e91be1ec27fa91862716c9252ce4d0",
          "blockNumber": "0x15d52b9",
          "transactionHash": "0x714f4858cacb0e55f147f31d42101a5f82a98a99c03e4e43b722382b32acf0ab",
          "transactionIndex": "0x12",
          "logIndex": "0x8c",
          "removed": false
        }
      ],
      "logsBloom": "0x0400000000000800000000000000000200000000000000000080000000000000000000000000000000000000000000000000000000000000000000400000000000000000000000004000040000000000094120000000000000010000000000000000000002000000000000000000080000000008000000000000000000000040800000000000000008080000480000000000000000008000000010000400800000080020000000000000014020000000080000000001000000300000000000000001000000400000000000000000000000000000000400000000000000042000000000000000000000000000000000000000000000a000800000000000420000",
      "type": "0x2",
      "transactionHash": "0x714f4858cacb0e55f147f31d42101a5f82a98a99c03e4e43b722382b32acf0ab",
      "transactionIndex": "0x12",
      "blockHash": "0xe540d2d011493a9febc4cb5d9d1992b153e91be1ec27fa91862716c9252ce4d0",
      "blockNumber": "0x15d52b9",
      "gasUsed": "0x4d2a3",
      "effectiveGasPrice": "0xf445f",
      "from": "0xa99526e4dc81b85c1d248ca974eadce81837ecf1",
      "to": "0x0e19c2b394d82418273d6bf2796505cd34bda40f",
      "contractAddress": null,
      "l1BaseFeeScalar": "0x44d",
      "l1BlobBaseFee": "0x1",
      "l1BlobBaseFeeScalar": "0xa118b",
      "l1Fee": "0x26de08f482",
      "l1GasPrice": "0x14c0f8a5eb",
      "l1GasUsed": "0x6a4"
    },
    {
      "status": "0x1",
      "cumulativeGasUsed": "0x5ad18d",
      "logs": [
        {
          "address": "0xe6a2c65a9e10fea0f37539b4beefd09b8c127da6",
          "topics": [
            "0x367184f1bb13aa656fb065e5e2b1104b30f71206d03961639cac77f3a6b33176",
            "0x000000000000000000000000a7b719810478696cc3679fa74eaed04fd0d38224"
          ],
          "data": "0x",
          "blockHash": "0x462e55bd71b9d6ed5b3bd89f1a487b64ae4051eb2ca5a200e0875b0a60bf18db",
          "blockNumber": "0x15d52bb",
          "transactionHash": "0xc401f5bf250c785452748c4c1369d5a6553623d190546673a66c72b486d44f53",
          "transactionIndex": "0x19",
          "logIndex": "0x50",
          "removed": false
        },
        {
          "address": "0xe6a2c65a9e10fea0f37539b4beefd09b8c127da6",
          "topics": [
            "0x8be0079c531659141344cd1fd0a4f28419497f9722a3daafe3b4186f6b6457e0",
            "0x0000000000000000000000000000000000000000000000000000000000000000",
            "0x0000000000000000000000009e6240b007ac869b2bf61e0d8ad48b3f5e234fcc"
          ],
          "data": "0x",
          "blockHash": "0x462e55bd71b9d6ed5b3bd89f1a487b64ae4051eb2ca5a200e0875b0a60bf18db",
          "blockNumber": "0x15d52bb",
          "transactionHash": "0xc401f5bf250c785452748c4c1369d5a6553623d190546673a66c72b486d44f53",
          "transactionIndex": "0x19",
          "logIndex": "0x51",
          "removed": false
        },
        {
          "address": "0xe6a2c65a9e10fea0f37539b4beefd09b8c127da6",
          "topics": [
            "0xc7f505b2f371ae2175ee4913f4499e1f2633a7b5936321eed1cdaeb6115181d2"
          ],
          "data": "0x0000000000000000000000000000000000000000000000000000000000000001",
          "blockHash": "0x462e55bd71b9d6ed5b3bd89f1a487b64ae4051eb2ca5a200e0875b0a60bf18db",
          "blockNumber": "0x15d52bb",
          "transactionHash": "0xc401f5bf250c785452748c4c1369d5a6553623d190546673a66c72b486d44f53",
          "transactionIndex": "0x19",
          "logIndex": "0x52",
          "removed": false
        },
        {
          "address": "0xe6a2c65a9e10fea0f37539b4beefd09b8c127da6",
          "topics": [
            "0x8be0079c531659141344cd1fd0a4f28419497f9722a3daafe3b4186f6b6457e0",
            "0x0000000000000000000000009e6240b007ac869b2bf61e0d8ad48b3f5e234fcc",
            "0x000000000000000000000000a99526e4dc81b85c1d248ca974eadce81837ecf1"
          ],
          "data": "0x",
          "blockHash": "0x462e55bd71b9d6ed5b3bd89f1a487b64ae4051eb2ca5a200e0875b0a60bf18db",
          "blockNumber": "0x15d52bb",
          "transactionHash": "0xc401f5bf250c785452748c4c1369d5a6553623d190546673a66c72b486d44f53",
          "transactionIndex": "0x19",
          "logIndex": "0x53",
          "removed": false
        },
        {
          "address": "0x9e6240b007ac869b2bf61e0d8ad48b3f5e234fcc",
          "topics": [
            "0x171ccc46ca30ce15b8e391d7e1db8cf7644ed26a313b10df70a92b13da343541",
            "0x000000000000000000000000e6a2c65a9e10fea0f37539b4beefd09b8c127da6",
            "0x000000000000000000000000a99526e4dc81b85c1d248ca974eadce81837ecf1"
          ],
          "data": "0x",
          "blockHash": "0x462e55bd71b9d6ed5b3bd89f1a487b64ae4051eb2ca5a200e0875b0a60bf18db",
          "blockNumber": "0x15d52bb",
          "transactionHash": "0xc401f5bf250c785452748c4c1369d5a6553623d190546673a66c72b486d44f53",
          "transactionIndex": "0x19",
          "logIndex": "0x54",
          "removed": false
        },
        {
          "address": "0x9e6240b007ac869b2bf61e0d8ad48b3f5e234fcc",
          "topics": [
            "0x2229e9930d25a4974976f5fb5461a33fcd0fefa19393ad50af745b5fa4ccce8b",
            "0x000000000000000000000000e6a2c65a9e10fea0f37539b4beefd09b8c127da6"
          ],
          "data": "0x0000000000000000000000000000000000000000000000000000000000000020000000000000000000000000000000000000000000000000000000000000000446414b4500000000000000000000000000000000000000000000000000000000",
          "blockHash": "0x462e55bd71b9d6ed5b3bd89f1a487b64ae4051eb2ca5a200e0875b0a60bf18db",
          "blockNumber": "0x15d52bb",
          "transactionHash": "0xc401f5bf250c785452748c4c1369d5a6553623d190546673a66c72b486d44f53",
          "transactionIndex": "0x19",
          "logIndex": "0x55",
          "removed": false
        },
        {
          "address": "0x0e19c2b394d82418273d6bf2796505cd34bda40f",
          "topics": [
            "0x5902eed5cd330f690551c9c5095eacb178efeaf6896420b9473fa373b2313f1a",
            "0x000000000000000000000000e6a2c65a9e10fea0f37539b4beefd09b8c127da6",
            "0x0000000000000000000000000000000000000000000000000000000000000002"
          ],
          "data": "0x0000000000000000000000000000000000000000000000000000000000000020000000000000000000000000000000000000000000000000000000000000000a46616b6520526172657300000000000000000000000000000000000000000000",
          "blockHash": "0x462e55bd71b9d6ed5b3bd89f1a487b64ae4051eb2ca5a200e0875b0a60bf18db",
          "blockNumber": "0x15d52bb",
          "transactionHash": "0xc401f5bf250c785452748c4c1369d5a6553623d190546673a66c72b486d44f53",
          "transactionIndex": "0x19",
          "logIndex": "0x56",
          "removed": false
        }
      ],
      "logsBloom": "0x04000000000008000000400000000000000000000000000000800000000000000000000000000000000000000000000000000000000000000000004000000000000000000000000040000400000000000901200000000000000100000000000000000000020000000000000000000800000000000000000000000000000000408000000000000000088800004800000000100000000080000000100004008000000800000000400000000540200000000800000000000000003200000000000000010000004000000000000000000000000000000004000000000000000420000000000000000000000000000000000000000000008000800000000000420000",
      "type": "0x2",
      "transactionHash": "0xc401f5bf250c785452748c4c1369d5a6553623d190546673a66c72b486d44f53",
      "transactionIndex": "0x19",
      "blockHash": "0x462e55bd71b9d6ed5b3bd89f1a487b64ae4051eb2ca5a200e0875b0a60bf18db",
      "blockNumber": "0x15d52bb",
      "gasUsed": "0x4d25b",
      "effectiveGasPrice": "0xf4460",
      "from": "0xa99526e4dc81b85c1d248ca974eadce81837ecf1",
      "to": "0x0e19c2b394d82418273d6bf2796505cd34bda40f",
      "contractAddress": null,
      "l1BaseFeeScalar": "0x44d",
      "l1BlobBaseFee": "0x1",
      "l1BlobBaseFeeScalar": "0xa118b",
      "l1Fee": "0x21e5548dea",
      "l1GasPrice": "0x12fef96522",
      "l1GasUsed": "0x654"
    },
    {
      "status": "0x1",
      "cumulativeGasUsed": "0xad6999",
      "logs": [
        {
          "address": "0x8c10862a5bca8ca46a904fbdd28832dd0db583c9",
          "topics": [
            "0x367184f1bb13aa656fb065e5e2b1104b30f71206d03961639cac77f3a6b33176",
            "0x0000000000000000000000002527fdefe99b6e2147e6bec8505ecb76d7d76c07"
          ],
          "data": "0x",
          "blockHash": "0xd8eac76f298c25fa410ec9f56dd5f319f21d470dbab4d5439d4f11cf4efa290c",
          "blockNumber": "0x15d52bc",
          "transactionHash": "0x0a125e4d5910f9af4ec744e007db5f132cfeb06d565e4a5b52b824146d0a2218",
          "transactionIndex": "0x27",
          "logIndex": "0x6f",
          "removed": false
        },
        {
          "address": "0x8c10862a5bca8ca46a904fbdd28832dd0db583c9",
          "topics": [
            "0x8be0079c531659141344cd1fd0a4f28419497f9722a3daafe3b4186f6b6457e0",
            "0x0000000000000000000000000000000000000000000000000000000000000000",
            "0x0000000000000000000000009e6240b007ac869b2bf61e0d8ad48b3f5e234fcc"
          ],
          "data": "0x",
          "blockHash": "0xd8eac76f298c25fa410ec9f56dd5f319f21d470dbab4d5439d4f11cf4efa290c",
          "blockNumber": "0x15d52bc",
          "transactionHash": "0x0a125e4d5910f9af4ec744e007db5f132cfeb06d565e4a5b52b824146d0a2218",
          "transactionIndex": "0x27",
          "logIndex": "0x70",
          "removed": false
        },
        {
          "address": "0x8c10862a5bca8ca46a904fbdd28832dd0db583c9",
          "topics": [
            "0xc7f505b2f371ae2175ee4913f4499e1f2633a7b5936321eed1cdaeb6115181d2"
          ],
          "data": "0x0000000000000000000000000000000000000000000000000000000000000001",
          "blockHash": "0xd8eac76f298c25fa410ec9f56dd5f319f21d470dbab4d5439d4f11cf4efa290c",
          "blockNumber": "0x15d52bc",
          "transactionHash": "0x0a125e4d5910f9af4ec744e007db5f132cfeb06d565e4a5b52b824146d0a2218",
          "transactionIndex": "0x27",
          "logIndex": "0x71",
          "removed": false
        },
        {
          "address": "0x8c10862a5bca8ca46a904fbdd28832dd0db583c9",
          "topics": [
            "0x8be0079c531659141344cd1fd0a4f28419497f9722a3daafe3b4186f6b6457e0",
            "0x0000000000000000000000009e6240b007ac869b2bf61e0d8ad48b3f5e234fcc",
            "0x000000000000000000000000a99526e4dc81b85c1d248ca974eadce81837ecf1"
          ],
          "data": "0x",
          "blockHash": "0xd8eac76f298c25fa410ec9f56dd5f319f21d470dbab4d5439d4f11cf4efa290c",
          "blockNumber": "0x15d52bc",
          "transactionHash": "0x0a125e4d5910f9af4ec744e007db5f132cfeb06d565e4a5b52b824146d0a2218",
          "transactionIndex": "0x27",
          "logIndex": "0x72",
          "removed": false
        },
        {
          "address": "0x9e6240b007ac869b2bf61e0d8ad48b3f5e234fcc",
          "topics": [
            "0x171ccc46ca30ce15b8e391d7e1db8cf7644ed26a313b10df70a92b13da343541",
            "0x0000000000000000000000008c10862a5bca8ca46a904fbdd28832dd0db583c9",
            "0x000000000000000000000000a99526e4dc81b85c1d248ca974eadce81837ecf1"
          ],
          "data": "0x",
          "blockHash": "0xd8eac76f298c25fa410ec9f56dd5f319f21d470dbab4d5439d4f11cf4efa290c",
          "blockNumber": "0x15d52bc",
          "transactionHash": "0x0a125e4d5910f9af4ec744e007db5f132cfeb06d565e4a5b52b824146d0a2218",
          "transactionIndex": "0x27",
          "logIndex": "0x73",
          "removed": false
        },
        {
          "address": "0x9e6240b007ac869b2bf61e0d8ad48b3f5e234fcc",
          "topics": [
            "0xc235116ab1fd2ce09ba4690b74e2e7782ddf6f4a49eda5a12e0c320f7c65ccd6",
            "0x0000000000000000000000008c10862a5bca8ca46a904fbdd28832dd0db583c9"
          ],
          "data": "0x000000000000000000000000000000000000000000000000000000000000004000000000000000000000000000000000000000000000000000000000000000800000000000000000000000000000000000000000000000000000000000000007456d42656c6c7300000000000000000000000000000000000000000000000000000000000000000000000000000000000000000000000000000000000000000442454c4c00000000000000000000000000000000000000000000000000000000",
          "blockHash": "0xd8eac76f298c25fa410ec9f56dd5f319f21d470dbab4d5439d4f11cf4efa290c",
          "blockNumber": "0x15d52bc",
          "transactionHash": "0x0a125e4d5910f9af4ec744e007db5f132cfeb06d565e4a5b52b824146d0a2218",
          "transactionIndex": "0x27",
          "logIndex": "0x74",
          "removed": false
        },
        {
          "address": "0x0e19c2b394d82418273d6bf2796505cd34bda40f",
          "topics": [
            "0x5902eed5cd330f690551c9c5095eacb178efeaf6896420b9473fa373b2313f1a",
            "0x0000000000000000000000008c10862a5bca8ca46a904fbdd28832dd0db583c9",
            "0x0000000000000000000000000000000000000000000000000000000000000001"
          ],
          "data": "0x00000000000000000000000000000000000000000000000000000000000000200000000000000000000000000000000000000000000000000000000000000007456d42656c6c7300000000000000000000000000000000000000000000000000",
          "blockHash": "0xd8eac76f298c25fa410ec9f56dd5f319f21d470dbab4d5439d4f11cf4efa290c",
          "blockNumber": "0x15d52bc",
          "transactionHash": "0x0a125e4d5910f9af4ec744e007db5f132cfeb06d565e4a5b52b824146d0a2218",
          "transactionIndex": "0x27",
          "logIndex": "0x75",
          "removed": false
        }
      ],
      "logsBloom": "0x00000000000000000000000080100000000000000000000000800000000000000010000000000000000000000000000000000000000000001000004000040040000000000000000044000400000000000901000000040000000100000000000000000000020000000000000000000800080000000000000000000000000000408000000000000000080800004800000000000000000080000000100004008000010800800000000000000040100000000000000000000000001000000000000000010000004000000000000000000000000000000004000000000000000060000000000008000000000000000000000800000000000000800000000000420000",
      "type": "0x2",
      "transactionHash": "0x0a125e4d5910f9af4ec744e007db5f132cfeb06d565e4a5b52b824146d0a2218",
      "transactionIndex": "0x27",
      "blockHash": "0xd8eac76f298c25fa410ec9f56dd5f319f21d470dbab4d5439d4f11cf4efa290c",
      "blockNumber": "0x15d52bc",
      "gasUsed": "0x63ba7",
      "effectiveGasPrice": "0xf4460",
      "from": "0xa99526e4dc81b85c1d248ca974eadce81837ecf1",
      "to": "0x0e19c2b394d82418273d6bf2796505cd34bda40f",
      "contractAddress": null,
      "l1BaseFeeScalar": "0x44d",
      "l1BlobBaseFee": "0x1",
      "l1BlobBaseFeeScalar": "0xa118b",
      "l1Fee": "0x21769d87d0",
      "l1GasPrice": "0x12fef96522",
      "l1GasUsed": "0x640"
    },
    {
      "status": "0x1",
      "cumulativeGasUsed": "0x794f5e",
      "logs": [
        {
          "address": "0x7b2f434e2f378d493599f9f23aa97f8f47540218",
          "topics": [
            "0x367184f1bb13aa656fb065e5e2b1104b30f71206d03961639cac77f3a6b33176",
            "0x0000000000000000000000002527fdefe99b6e2147e6bec8505ecb76d7d76c07"
          ],
          "data": "0x",
          "blockHash": "0xd47c77db311c743b44dc84f304b062824c34c1e93cc0f78ebb6447a8f7995f29",
          "blockNumber": "0x15d52bd",
          "transactionHash": "0xf0756981c6fc9ccd4d83f049830cba06ab1c5a39a79db26630654d4f901e0b39",
          "transactionIndex": "0x26",
          "logIndex": "0x84",
          "removed": false
        },
        {
          "address": "0x7b2f434e2f378d493599f9f23aa97f8f47540218",
          "topics": [
            "0x8be0079c531659141344cd1fd0a4f28419497f9722a3daafe3b4186f6b6457e0",
            "0x0000000000000000000000000000000000000000000000000000000000000000",
            "0x0000000000000000000000009e6240b007ac869b2bf61e0d8ad48b3f5e234fcc"
          ],
          "data": "0x",
          "blockHash": "0xd47c77db311c743b44dc84f304b062824c34c1e93cc0f78ebb6447a8f7995f29",
          "blockNumber": "0x15d52bd",
          "transactionHash": "0xf0756981c6fc9ccd4d83f049830cba06ab1c5a39a79db26630654d4f901e0b39",
          "transactionIndex": "0x26",
          "logIndex": "0x85",
          "removed": false
        },
        {
          "address": "0x7b2f434e2f378d493599f9f23aa97f8f47540218",
          "topics": [
            "0xc7f505b2f371ae2175ee4913f4499e1f2633a7b5936321eed1cdaeb6115181d2"
          ],
          "data": "0x0000000000000000000000000000000000000000000000000000000000000001",
          "blockHash": "0xd47c77db311c743b44dc84f304b062824c34c1e93cc0f78ebb6447a8f7995f29",
          "blockNumber": "0x15d52bd",
          "transactionHash": "0xf0756981c6fc9ccd4d83f049830cba06ab1c5a39a79db26630654d4f901e0b39",
          "transactionIndex": "0x26",
          "logIndex": "0x86",
          "removed": false
        },
        {
          "address": "0x7b2f434e2f378d493599f9f23aa97f8f47540218",
          "topics": [
            "0x8be0079c531659141344cd1fd0a4f28419497f9722a3daafe3b4186f6b6457e0",
            "0x0000000000000000000000009e6240b007ac869b2bf61e0d8ad48b3f5e234fcc",
            "0x000000000000000000000000a99526e4dc81b85c1d248ca974eadce81837ecf1"
          ],
          "data": "0x",
          "blockHash": "0xd47c77db311c743b44dc84f304b062824c34c1e93cc0f78ebb6447a8f7995f29",
          "blockNumber": "0x15d52bd",
          "transactionHash": "0xf0756981c6fc9ccd4d83f049830cba06ab1c5a39a79db26630654d4f901e0b39",
          "transactionIndex": "0x26",
          "logIndex": "0x87",
          "removed": false
        },
        {
          "address": "0x9e6240b007ac869b2bf61e0d8ad48b3f5e234fcc",
          "topics": [
            "0x171ccc46ca30ce15b8e391d7e1db8cf7644ed26a313b10df70a92b13da343541",
            "0x0000000000000000000000007b2f434e2f378d493599f9f23aa97f8f47540218",
            "0x000000000000000000000000a99526e4dc81b85c1d248ca974eadce81837ecf1"
          ],
          "data": "0x",
          "blockHash": "0xd47c77db311c743b44dc84f304b062824c34c1e93cc0f78ebb6447a8f7995f29",
          "blockNumber": "0x15d52bd",
          "transactionHash": "0xf0756981c6fc9ccd4d83f049830cba06ab1c5a39a79db26630654d4f901e0b39",
          "transactionIndex": "0x26",
          "logIndex": "0x88",
          "removed": false
        },
        {
          "address": "0x9e6240b007ac869b2bf61e0d8ad48b3f5e234fcc",
          "topics": [
            "0xc235116ab1fd2ce09ba4690b74e2e7782ddf6f4a49eda5a12e0c320f7c65ccd6",
            "0x0000000000000000000000007b2f434e2f378d493599f9f23aa97f8f47540218"
          ],
          "data": "0x00000000000000000000000000000000000000000000000000000000000000400000000000000000000000000000000000000000000000000000000000000080000000000000000000000000000000000000000000000000000000000000000b456d626c656d204f70656e00000000000000000000000000000000000000000000000000000000000000000000000000000000000000000000000000000000044f50454e00000000000000000000000000000000000000000000000000000000",
          "blockHash": "0xd47c77db311c743b44dc84f304b062824c34c1e93cc0f78ebb6447a8f7995f29",
          "blockNumber": "0x15d52bd",
          "transactionHash": "0xf0756981c6fc9ccd4d83f049830cba06ab1c5a39a79db26630654d4f901e0b39",
          "transactionIndex": "0x26",
          "logIndex": "0x89",
          "removed": false
        },
        {
          "address": "0x0e19c2b394d82418273d6bf2796505cd34bda40f",
          "topics": [
            "0x5902eed5cd330f690551c9c5095eacb178efeaf6896420b9473fa373b2313f1a",
            "0x0000000000000000000000007b2f434e2f378d493599f9f23aa97f8f47540218",
            "0x0000000000000000000000000000000000000000000000000000000000000001"
          ],
          "data": "0x0000000000000000000000000000000000000000000000000000000000000020000000000000000000000000000000000000000000000000000000000000000b456d626c656d204f70656e000000000000000000000000000000000000000000",
          "blockHash": "0xd47c77db311c743b44dc84f304b062824c34c1e93cc0f78ebb6447a8f7995f29",
          "blockNumber": "0x15d52bd",
          "transactionHash": "0xf0756981c6fc9ccd4d83f049830cba06ab1c5a39a79db26630654d4f901e0b39",
          "transactionIndex": "0x26",
          "logIndex": "0x8a",
          "removed": false
        }
      ],
      "logsBloom": "0x00000000000000000010000000100000000000000000000000800000000000000010000040000000000000000000000000004000000000000000004000040000000000000000000040000400000000000901000000040080000100000000000200000000020000000000000000000800000000000000000000000000000000408000000000000000080840004800000000000000000080000000100004008000010800000000000000000040100000000000000000000000001000000000000000010000004000000000000000000000000000000004000000000000000060000000000008000000000000000000000800000000000000800000000000420000",
      "type": "0x2",
      "transactionHash": "0xf0756981c6fc9ccd4d83f049830cba06ab1c5a39a79db26630654d4f901e0b39",
      "transactionIndex": "0x26",
      "blockHash": "0xd47c77db311c743b44dc84f304b062824c34c1e93cc0f78ebb6447a8f7995f29",
      "blockNumber": "0x15d52bd",
      "gasUsed": "0x63bd7",
      "effectiveGasPrice": "0xf4460",
      "from": "0xa99526e4dc81b85c1d248ca974eadce81837ecf1",
      "to": "0x0e19c2b394d82418273d6bf2796505cd34bda40f",
      "contractAddress": null,
      "l1BaseFeeScalar": "0x44d",
      "l1BlobBaseFee": "0x1",
      "l1BlobBaseFeeScalar": "0xa118b",
      "l1Fee": "0x222cfd7277",
      "l1GasPrice": "0x12fef96522",
      "l1GasUsed": "0x662"
    },
    {
      "status": "0x1",
      "cumulativeGasUsed": "0x25de28",
      "logs": [
        {
          "address": "0x0e19c2b394d82418273d6bf2796505cd34bda40f",
          "topics": [
            "0x386488dff7e0422825a9a6550182ab7f1d7ef789131917bfd8dd6ffe29afe08d",
            "0x0000000000000000000000006c71322eeedf1abac6ad047869d31f8e516ecfe1"
          ],
          "data": "0x0000000000000000000000000000000000000000000000000000000000000020000000000000000000000000000000000000000000000000000000000000004d68747470733a2f2f76322e656d626c656d7661756c742e696f2f76332f6d6574612f3078364337313332326545456446314162414336416430343738363944333166384535313665634645312f00000000000000000000000000000000000000",
          "blockHash": "0xf7f839f6fdd8fad0d3c5aec5c04d68915b4864260f23af602b5d074caa8f9844",
          "blockNumber": "0x15d52bf",
          "transactionHash": "0x824cc63dffe30556212485471b48d8168b783bdb4725f507d1ee27d4e0fc3461",
          "transactionIndex": "0x14",
          "logIndex": "0x3b",
          "removed": false
        }
      ],
      "logsBloom": "0x00000000000000000000000000000000000000000000000000000200000000000000000080000000000000000000000000000000000000000000000000000000000000000000000040000000000000000000000000000000000000000000000000000100000000000000000000000000000000000000000000000000000000000000000000000000000000000000000000000800000000000000000000000000000800000000000000000000000000000000000000000000000000000000000000000100000000000000000000000000000000000000000000000000000000200000000000000000000000000000000000000000000000000000000000020000",
      "type": "0x2",
      "transactionHash": "0x824cc63dffe30556212485471b48d8168b783bdb4725f507d1ee27d4e0fc3461",
      "transactionIndex": "0x14",
      "blockHash": "0xf7f839f6fdd8fad0d3c5aec5c04d68915b4864260f23af602b5d074caa8f9844",
      "blockNumber": "0x15d52bf",
      "gasUsed": "0x221cd",
      "effectiveGasPrice": "0xf4460",
      "from": "0xa99526e4dc81b85c1d248ca974eadce81837ecf1",
      "to": "0x0e19c2b394d82418273d6bf2796505cd34bda40f",
      "contractAddress": null,
      "l1BaseFeeScalar": "0x44d",
      "l1BlobBaseFee": "0x1",
      "l1BlobBaseFeeScalar": "0xa118b",
      "l1Fee": "0x36e3cf8358",
      "l1GasPrice": "0x12fef96522",
      "l1GasUsed": "0xa40"
    },
    {
      "status": "0x1",
      "cumulativeGasUsed": "0xd8045",
      "logs": [
        {
          "address": "0x0e19c2b394d82418273d6bf2796505cd34bda40f",
          "topics": [
            "0x386488dff7e0422825a9a6550182ab7f1d7ef789131917bfd8dd6ffe29afe08d",
            "0x000000000000000000000000d85754d528de7417d44bf838729aef9e05e09a44"
          ],
          "data": "0x0000000000000000000000000000000000000000000000000000000000000020000000000000000000000000000000000000000000000000000000000000004d68747470733a2f2f76322e656d626c656d7661756c742e696f2f76332f6d6574612f3078643835373534443532384445373431374434346246383338373239614566396530354530394134342f00000000000000000000000000000000000000",
          "blockHash": "0xeb82cf8648cc366011b69668661bff5cfef580d77f0ba396d54658bf1d753f52",
          "blockNumber": "0x15d52c1",
          "transactionHash": "0xae59fe662d3c1fb58c3266404a1a8c2ecf6f13d40d79ed1d5cb3098f7fce0e4b",
          "transactionIndex": "0x6",
          "logIndex": "0x11",
          "removed": false
        }
      ],
      "logsBloom": "0x00000000000000000000000000000000000000000000000000000000000000000000000080000000000000000000000000000000000000000000000000000000000000000000000040000000000000000000000000000000000000000000000000000100000000000000000000000000000000080000000000000000000000000000000000000000000000000000000000000000000000000000000000000000000800200000000000000000000000000000000000010000000000000000000000000000000000000000000000000000000000000000000000000000000000200000000000000000000000000000000000000000000000000000000000020000",
      "type": "0x2",
      "transactionHash": "0xae59fe662d3c1fb58c3266404a1a8c2ecf6f13d40d79ed1d5cb3098f7fce0e4b",
      "transactionIndex": "0x6",
      "blockHash": "0xeb82cf8648cc366011b69668661bff5cfef580d77f0ba396d54658bf1d753f52",
      "blockNumber": "0x15d52c1",
      "gasUsed": "0x221cd",
      "effectiveGasPrice": "0xf4460",
      "from": "0xa99526e4dc81b85c1d248ca974eadce81837ecf1",
      "to": "0x0e19c2b394d82418273d6bf2796505cd34bda40f",
      "contractAddress": null,
      "l1BaseFeeScalar": "0x44d",
      "l1BlobBaseFee": "0x1",
      "l1BlobBaseFeeScalar": "0xa118b",
      "l1Fee": "0x32167b2421",
      "l1GasPrice": "0x115588d53f",
      "l1GasUsed": "0xa40"
    },
    {
      "status": "0x1",
      "cumulativeGasUsed": "0x3b87b7",
      "logs": [
        {
          "address": "0x0e19c2b394d82418273d6bf2796505cd34bda40f",
          "topics": [
            "0x386488dff7e0422825a9a6550182ab7f1d7ef789131917bfd8dd6ffe29afe08d",
            "0x000000000000000000000000e6a2c65a9e10fea0f37539b4beefd09b8c127da6"
          ],
          "data": "0x0000000000000000000000000000000000000000000000000000000000000020000000000000000000000000000000000000000000000000000000000000004d68747470733a2f2f76322e656d626c656d7661756c742e696f2f76332f6d6574612f3078653661326336354139653130464541304633373533396234424565664430394238433132374441362f00000000000000000000000000000000000000",
          "blockHash": "0xe02ab918e28c137be9fc84868640e17f425eaa416388277b75f3542e2ccbe70f",
          "blockNumber": "0x15d52c3",
          "transactionHash": "0x959ed8f232fda3982c6c4623e8c8c8e5e7eeec2c7fcc6311baa1a0e83ada7da7",
          "transactionIndex": "0x1b",
          "logIndex": "0x48",
          "removed": false
        }
      ],
      "logsBloom": "0x00000000000000000000400000000000000000000000000000000000000000000000000080000000000000000000000000000000000000000000000000000000000000000000000040000000000000000000000000000000000000000000000000000100000000000000000000000000000000000000000000000000000000000000000000000000000000000000000000000000000000000000000000000000000800000000000000000400000000000000000000000000000200000000000000000000000000000000000000000000000000000000000000000000000000200000000000000000000000000000000000000000000000000000000000020000",
      "type": "0x2",
      "transactionHash": "0x959ed8f232fda3982c6c4623e8c8c8e5e7eeec2c7fcc6311baa1a0e83ada7da7",
      "transactionIndex": "0x1b",
      "blockHash": "0xe02ab918e28c137be9fc84868640e17f425eaa416388277b75f3542e2ccbe70f",
      "blockNumber": "0x15d52c3",
      "gasUsed": "0x221cd",
      "effectiveGasPrice": "0xf4460",
      "from": "0xa99526e4dc81b85c1d248ca974eadce81837ecf1",
      "to": "0x0e19c2b394d82418273d6bf2796505cd34bda40f",
      "contractAddress": null,
      "l1BaseFeeScalar": "0x44d",
      "l1BlobBaseFee": "0x1",
      "l1BlobBaseFeeScalar": "0xa118b",
      "l1Fee": "0x32167b2421",
      "l1GasPrice": "0x115588d53f",
      "l1GasUsed": "0xa40"
    },
    {
      "status": "0x1",
      "cumulativeGasUsed": "0xf700f",
      "logs": [
        {
          "address": "0x8c10862a5bca8ca46a904fbdd28832dd0db583c9",
          "topics": [
            "0x6741b2fc379fad678116fe3d4d4b9a1a184ab53ba36b86ad0fa66340b1ab41ad"
          ],
          "data": "0x0000000000000000000000000000000000000000000000000000000000000020000000000000000000000000000000000000000000000000000000000000004d68747470733a2f2f76322e656d626c656d7661756c742e696f2f76332f6d6574612f3078386331303836324135624341384361343661393034664244443238383332444430444235383363392f00000000000000000000000000000000000000",
          "blockHash": "0x98c317a6bfb0ecce8a6ec702620d31ef768d3a1474a2d472d2e0dbb0fe143ff4",
          "blockNumber": "0x15d52c5",
          "transactionHash": "0x14bb26ada437022a501bb3bc19943db904c4edf4b0007ae632f3421ccbafbbc3",
          "transactionIndex": "0x9",
          "logIndex": "0x12",
          "removed": false
        },
        {
          "address": "0x0e19c2b394d82418273d6bf2796505cd34bda40f",
          "topics": [
            "0x65936d1dee571c89e7bc171ad8e94e288d930f863c2a4a92a0593baef6573ee9",
            "0x0000000000000000000000008c10862a5bca8ca46a904fbdd28832dd0db583c9"
          ],
          "data": "0x0000000000000000000000000000000000000000000000000000000000000020000000000000000000000000000000000000000000000000000000000000004d68747470733a2f2f76322e656d626c656d7661756c742e696f2f76332f6d6574612f3078386331303836324135624341384361343661393034664244443238383332444430444235383363392f00000000000000000000000000000000000000",
          "blockHash": "0x98c317a6bfb0ecce8a6ec702620d31ef768d3a1474a2d472d2e0dbb0fe143ff4",
          "blockNumber": "0x15d52c5",
          "transactionHash": "0x14bb26ada437022a501bb3bc19943db904c4edf4b0007ae632f3421ccbafbbc3",
          "transactionIndex": "0x9",
          "logIndex": "0x13",
          "removed": false
        }
      ],
      "logsBloom": "0x00000000000000000000000080000000000004000000000000000000000000080000000000000000000000000000000000000000000000001000000000000040000000000000000044000000000000000000000000000000000000000000000000000000000000000000000000000000080000000000000000000000000000000000000000000000000000000000000000000000000000000000000000000000000801800000000000000000000000000000000000000000000000000000000000000000000000000000000200004000000000000000000000000000000000002000000000000000000000000000000000000000000000000000000000020000",
      "type": "0x2",
      "transactionHash": "0x14bb26ada437022a501bb3bc19943db904c4edf4b0007ae632f3421ccbafbbc3",
      "transactionIndex": "0x9",
      "blockHash": "0x98c317a6bfb0ecce8a6ec702620d31ef768d3a1474a2d472d2e0dbb0fe143ff4",
      "blockNumber": "0x15d52c5",
      "gasUsed": "0x222ff",
      "effectiveGasPrice": "0xf4460",
      "from": "0xa99526e4dc81b85c1d248ca974eadce81837ecf1",
      "to": "0x0e19c2b394d82418273d6bf2796505cd34bda40f",
      "contractAddress": null,
      "l1BaseFeeScalar": "0x44d",
      "l1BlobBaseFee": "0x1",
      "l1BlobBaseFeeScalar": "0xa118b",
      "l1Fee": "0x32167b2421",
      "l1GasPrice": "0x115588d53f",
      "l1GasUsed": "0xa40"
    },
    {
      "status": "0x1",
      "cumulativeGasUsed": "0x52b96",
      "logs": [
        {
          "address": "0x7b2f434e2f378d493599f9f23aa97f8f47540218",
          "topics": [
            "0x6741b2fc379fad678116fe3d4d4b9a1a184ab53ba36b86ad0fa66340b1ab41ad"
          ],
          "data": "0x0000000000000000000000000000000000000000000000000000000000000020000000000000000000000000000000000000000000000000000000000000004d68747470733a2f2f76322e656d626c656d7661756c742e696f2f76332f6d6574612f3078374232463433344532463337384434393335393946396632334141393766386634373534303231382f00000000000000000000000000000000000000",
          "blockHash": "0x74365428a15aa5e2fa805a044df69d9ad29163eb97ed2c5a3edc75209952adb7",
          "blockNumber": "0x15d52c7",
          "transactionHash": "0xeab51d71fa4a877db51673002c016eca771cee8923cccfa0c54b9a958c9c8b08",
          "transactionIndex": "0x2",
          "logIndex": "0x3",
          "removed": false
        },
        {
          "address": "0x0e19c2b394d82418273d6bf2796505cd34bda40f",
          "topics": [
            "0x65936d1dee571c89e7bc171ad8e94e288d930f863c2a4a92a0593baef6573ee9",
            "0x0000000000000000000000007b2f434e2f378d493599f9f23aa97f8f47540218"
          ],
          "data": "0x0000000000000000000000000000000000000000000000000000000000000020000000000000000000000000000000000000000000000000000000000000004d68747470733a2f2f76322e656d626c656d7661756c742e696f2f76332f6d6574612f3078374232463433344532463337384434393335393946396632334141393766386634373534303231382f00000000000000000000000000000000000000",
          "blockHash": "0x74365428a15aa5e2fa805a044df69d9ad29163eb97ed2c5a3edc75209952adb7",
          "blockNumber": "0x15d52c7",
          "transactionHash": "0xeab51d71fa4a877db51673002c016eca771cee8923cccfa0c54b9a958c9c8b08",
          "transactionIndex": "0x2",
          "logIndex": "0x4",
          "removed": false
        }
      ],
      "logsBloom": "0x00000000000000000010000000000000000004000000000000000000000000080000000040000000000000000000000000004000000000000000000000000000000000000000000040000000000000000000000000000080000000000000000200000000000000000000000000000000000000000000000000000000000000000000000000000000000040000000000000000000000000000000000000000000000801000000000000000000000000000000000000000000000000000000000000000000000000000000000200004000000000000000000000000000000000002000000000000000000000000000000000000000000000000000000000020000",
      "type": "0x2",
      "transactionHash": "0xeab51d71fa4a877db51673002c016eca771cee8923cccfa0c54b9a958c9c8b08",
      "transactionIndex": "0x2",
      "blockHash": "0x74365428a15aa5e2fa805a044df69d9ad29163eb97ed2c5a3edc75209952adb7",
      "blockNumber": "0x15d52c7",
      "gasUsed": "0x222ff",
      "effectiveGasPrice": "0xf445f",
      "from": "0xa99526e4dc81b85c1d248ca974eadce81837ecf1",
      "to": "0x0e19c2b394d82418273d6bf2796505cd34bda40f",
      "contractAddress": null,
      "l1BaseFeeScalar": "0x44d",
      "l1BlobBaseFee": "0x1",
      "l1BlobBaseFeeScalar": "0xa118b",
      "l1Fee": "0x356a144020",
      "l1GasPrice": "0x127c403d76",
      "l1GasUsed": "0xa40"
    }
  ],
  "libraries": [],
  "pending": [],
  "returns": {},
  "timestamp": 1741554880,
  "chain": 84532,
  "commit": "11bc258"
}