{
  "transactions": [
    {
      "hash": "0xff08cbd6f61f0557fcae4dec775cc4179a4ce770f342deb3994f256405fe4a84",
      "transactionType": "CALL",
      "contractName": null,
      "contractAddress": "0x12f084de536f41bcd29dfc7632db0261cec72c60",
      "function": "createVaultCollection(string,string,uint8)",
      "arguments": [
        "Taproot Wizards",
        "Taproot Wizards",
        "1"
      ],
      "transaction": {
        "from": "0xa99526e4dc81b85c1d248ca974eadce81837ecf1",
        "to": "0x12f084de536f41bcd29dfc7632db0261cec72c60",
        "gas": "0x91ef1",
        "value": "0x0",
        "input": "0xa8008080000000000000000000000000000000000000000000000000000000000000006000000000000000000000000000000000000000000000000000000000000000a00000000000000000000000000000000000000000000000000000000000000001000000000000000000000000000000000000000000000000000000000000000f546170726f6f742057697a617264730000000000000000000000000000000000000000000000000000000000000000000000000000000000000000000000000f546170726f6f742057697a617264730000000000000000000000000000000000",
        "nonce": "0x1c",
        "chainId": "0xaa36a7"
      },
      "additionalContracts": [
        {
          "transactionType": "CREATE",
          "address": "0xf306954c272e28bfb0a1de8188b7b54d339c7f8e",
          "initCode": "0x60803460b757601f6102dc38819003918201601f19168301916001600160401b0383118484101760bb5780849260209460405283398101031260b757516001600160a01b0381169081810360b757811560a8577fa3f0ad74e5423aebfd80d3ef4346578335a9a72aeaee59ff6cb3582b35133d5055604051907f367184f1bb13aa656fb065e5e2b1104b30f71206d03961639cac77f3a6b331765f80a261020c90816100d08239f35b63d92e233d60e01b5f5260045ffd5b5f80fd5b634e487b7160e01b5f52604160045260245ffdfe60806040526004361015610015575b3661011d57005b5f3560e01c6301ffc9a70361000e57346100cb5760203660031901126100cb5760043563ffffffff60e01b81168091036100cb5760206001600160a01b0361005b610141565b16916024604051809481936301ffc9a760e01b835260048301525afa80156100d7575f90610096575b604051901515815280602081015b0390f35b506020813d6020116100cf575b816100b0602093836100dc565b810103126100cb575180151581036100cb5761009290610084565b5f80fd5b3d91506100a3565b610112565b90601f8019910116810190811067ffffffffffffffff8211176100fe57604052565b634e487b7160e01b5f52604160045260245ffd5b6040513d5f823e3d90fd5b5f80610127610141565b368280378136915af43d5f803e1561013d573d5ff35b3d5ffd5b7fa3f0ad74e5423aebfd80d3ef4346578335a9a72aeaee59ff6cb3582b35133d5054604051635c60da1b60e01b815290602090829060049082906001600160a01b03165afa9081156100d7575f91610197575090565b90506020813d6020116101ce575b816101b2602093836100dc565b810103126100cb57516001600160a01b03811681036100cb5790565b3d91506101a556fea26469706673582212206ee762e682717726e2a88d1f11d5d6c4b60618285602632bd45443440f6accef64736f6c634300081c00330000000000000000000000008977704a454fe2063336324027440d7bc56689aa"
        }
      ],
      "isFixedGasLimit": false
    },
    {
      "hash": "0x9856f56b722ec1e71677ef70ff19bfea72149c8db8aefcaadfafe1a67520c8fd",
      "transactionType": "CALL",
      "contractName": null,
      "contractAddress": "0x12f084de536f41bcd29dfc7632db0261cec72c60",
      "function": "setCollectionBaseURI(address,string)",
      "arguments": [
        "0xF306954C272E28bfB0a1dE8188B7b54D339C7F8E",
        "https://v2.emblemvault.io/v3/meta/0xF306954C272E28bfB0a1dE8188B7b54D339C7F8E/"
      ],
      "transaction": {
        "from": "0xa99526e4dc81b85c1d248ca974eadce81837ecf1",
        "to": "0x12f084de536f41bcd29dfc7632db0261cec72c60",
        "gas": "0x2f388",
        "value": "0x0",
        "input": "0x80aed2a9000000000000000000000000f306954c272e28bfb0a1de8188b7b54d339c7f8e0000000000000000000000000000000000000000000000000000000000000040000000000000000000000000000000000000000000000000000000000000004d68747470733a2f2f76322e656d626c656d7661756c742e696f2f76332f6d6574612f3078463330363935344332373245323862664230613164453831383842376235344433333943374638452f00000000000000000000000000000000000000",
        "nonce": "0x1d",
        "chainId": "0xaa36a7"
      },
      "additionalContracts": [],
      "isFixedGasLimit": false
    }
  ],
  "receipts": [
    {
      "status": "0x1",
      "cumulativeGasUsed": "0x201dc76",
      "logs": [
        {
          "address": "0xf306954c272e28bfb0a1de8188b7b54d339c7f8e",
          "topics": [
            "0x367184f1bb13aa656fb065e5e2b1104b30f71206d03961639cac77f3a6b33176",
            "0x0000000000000000000000008977704a454fe2063336324027440d7bc56689aa"
          ],
          "data": "0x",
          "blockHash": "0x58b6b1c7e63907fc63a3422a1f34ead73778a7ede71958fe8fb082b8e3345236",
          "blockNumber": "0x7cd8a5",
          "blockTimestamp": "0x68096a24",
          "transactionHash": "0xff08cbd6f61f0557fcae4dec775cc4179a4ce770f342deb3994f256405fe4a84",
          "transactionIndex": "0xbc",
          "logIndex": "0xff",
          "removed": false
        },
        {
          "address": "0xf306954c272e28bfb0a1de8188b7b54d339c7f8e",
          "topics": [
            "0x8be0079c531659141344cd1fd0a4f28419497f9722a3daafe3b4186f6b6457e0",
            "0x0000000000000000000000000000000000000000000000000000000000000000",
            "0x000000000000000000000000109de29e0fb4de58a66ce077253e0604d81ad14c"
          ],
          "data": "0x",
          "blockHash": "0x58b6b1c7e63907fc63a3422a1f34ead73778a7ede71958fe8fb082b8e3345236",
          "blockNumber": "0x7cd8a5",
          "blockTimestamp": "0x68096a24",
          "transactionHash": "0xff08cbd6f61f0557fcae4dec775cc4179a4ce770f342deb3994f256405fe4a84",
          "transactionIndex": "0xbc",
          "logIndex": "0x100",
          "removed": false
        },
        {
          "address": "0xf306954c272e28bfb0a1de8188b7b54d339c7f8e",
          "topics": [
            "0xc7f505b2f371ae2175ee4913f4499e1f2633a7b5936321eed1cdaeb6115181d2"
          ],
          "data": "0x0000000000000000000000000000000000000000000000000000000000000001",
          "blockHash": "0x58b6b1c7e63907fc63a3422a1f34ead73778a7ede71958fe8fb082b8e3345236",
          "blockNumber": "0x7cd8a5",
          "blockTimestamp": "0x68096a24",
          "transactionHash": "0xff08cbd6f61f0557fcae4dec775cc4179a4ce770f342deb3994f256405fe4a84",
          "transactionIndex": "0xbc",
          "logIndex": "0x101",
          "removed": false
        },
        {
          "address": "0xf306954c272e28bfb0a1de8188b7b54d339c7f8e",
          "topics": [
            "0x8be0079c531659141344cd1fd0a4f28419497f9722a3daafe3b4186f6b6457e0",
            "0x000000000000000000000000109de29e0fb4de58a66ce077253e0604d81ad14c",
            "0x000000000000000000000000a99526e4dc81b85c1d248ca974eadce81837ecf1"
          ],
          "data": "0x",
          "blockHash": "0x58b6b1c7e63907fc63a3422a1f34ead73778a7ede71958fe8fb082b8e3345236",
          "blockNumber": "0x7cd8a5",
          "blockTimestamp": "0x68096a24",
          "transactionHash": "0xff08cbd6f61f0557fcae4dec775cc4179a4ce770f342deb3994f256405fe4a84",
          "transactionIndex": "0xbc",
          "logIndex": "0x102",
          "removed": false
        },
        {
          "address": "0x109de29e0fb4de58a66ce077253e0604d81ad14c",
          "topics": [
            "0x171ccc46ca30ce15b8e391d7e1db8cf7644ed26a313b10df70a92b13da343541",
            "0x000000000000000000000000f306954c272e28bfb0a1de8188b7b54d339c7f8e",
            "0x000000000000000000000000a99526e4dc81b85c1d248ca974eadce81837ecf1"
          ],
          "data": "0x",
          "blockHash": "0x58b6b1c7e63907fc63a3422a1f34ead73778a7ede71958fe8fb082b8e3345236",
          "blockNumber": "0x7cd8a5",
          "blockTimestamp": "0x68096a24",
          "transactionHash": "0xff08cbd6f61f0557fcae4dec775cc4179a4ce770f342deb3994f256405fe4a84",
          "transactionIndex": "0xbc",
          "logIndex": "0x103",
          "removed": false
        },
        {
          "address": "0x109de29e0fb4de58a66ce077253e0604d81ad14c",
          "topics": [
            "0xc235116ab1fd2ce09ba4690b74e2e7782ddf6f4a49eda5a12e0c320f7c65ccd6",
            "0x000000000000000000000000f306954c272e28bfb0a1de8188b7b54d339c7f8e"
          ],
          "data": "0x00000000000000000000000000000000000000000000000000000000000000400000000000000000000000000000000000000000000000000000000000000080000000000000000000000000000000000000000000000000000000000000000f546170726f6f742057697a617264730000000000000000000000000000000000000000000000000000000000000000000000000000000000000000000000000f546170726f6f742057697a617264730000000000000000000000000000000000",
          "blockHash": "0x58b6b1c7e63907fc63a3422a1f34ead73778a7ede71958fe8fb082b8e3345236",
          "blockNumber": "0x7cd8a5",
          "blockTimestamp": "0x68096a24",
          "transactionHash": "0xff08cbd6f61f0557fcae4dec775cc4179a4ce770f342deb3994f256405fe4a84",
          "transactionIndex": "0xbc",
          "logIndex": "0x104",
          "removed": false
        },
        {
          "address": "0x12f084de536f41bcd29dfc7632db0261cec72c60",
          "topics": [
            "0x5902eed5cd330f690551c9c5095eacb178efeaf6896420b9473fa373b2313f1a",
            "0x000000000000000000000000f306954c272e28bfb0a1de8188b7b54d339c7f8e",
            "0x0000000000000000000000000000000000000000000000000000000000000001"
          ],
          "data": "0x0000000000000000000000000000000000000000000000000000000000000020000000000000000000000000000000000000000000000000000000000000000f546170726f6f742057697a617264730000000000000000000000000000000000",
          "blockHash": "0x58b6b1c7e63907fc63a3422a1f34ead73778a7ede71958fe8fb082b8e3345236",
          "blockNumber": "0x7cd8a5",
          "blockTimestamp": "0x68096a24",
          "transactionHash": "0xff08cbd6f61f0557fcae4dec775cc4179a4ce770f342deb3994f256405fe4a84",
          "transactionIndex": "0xbc",
          "logIndex": "0x105",
          "removed": false
        }
      ],
      "logsBloom": "0x00000004000000000800000000100000000008800000000000800000000000000010000000000000000000000004000000000000002000000000004000040000000000000000000000000400000000800101000000040000000000000000000000000080020080000000040000000800000000000000000000000000000000408000000000000000000800004000000000000000000080000000100004000000010000000800004000000040000000000040000000000000001000000000000000000000004000000000000000000000000000000004000000000040000260000000000000000000006002000000000000000000000000800000000000400000",
      "type": "0x2",
      "transactionHash": "0xff08cbd6f61f0557fcae4dec775cc4179a4ce770f342deb3994f256405fe4a84",
      "transactionIndex": "0xbc",
      "blockHash": "0x58b6b1c7e63907fc63a3422a1f34ead73778a7ede71958fe8fb082b8e3345236",
      "blockNumber": "0x7cd8a5",
      "gasUsed": "0x63c8b",
      "effectiveGasPrice": "0x12eb",
      "from": "0xa99526e4dc81b85c1d248ca974eadce81837ecf1",
      "to": "0x12f084de536f41bcd29dfc7632db0261cec72c60",
      "contractAddress": null
    }
  ],
  "libraries": [],
  "pending": [
    "0x9856f56b722ec1e71677ef70ff19bfea72149c8db8aefcaadfafe1a67520c8fd"
  ],
  "returns": {},
  "timestamp": 1745447461,
  "chain": 11155111,
  "commit": "1265ab7"
}