{
  "transactions": [
    {
      "hash": "0x4bdb14d47128da9594402e9507fb1984aa32952ec6ff3cf1c8d96061305e207e",
      "transactionType": "CALL",
      "contractName": null,
      "contractAddress": "0x161ab371a04755cd2eb1963ca8373fea7bf42d80",
      "function": "createVaultCollection(string,string,uint8)",
      "arguments": [
        "Test ERC721 Vault Collection",
        "TEST721",
        "1"
      ],
      "transaction": {
        "from": "0x107a120f536c8bd891a3c04fca22a7814e260210",
        "to": "0x161ab371a04755cd2eb1963ca8373fea7bf42d80",
        "gas": "0x88fff",
        "value": "0x0",
        "input": "0xa8008080000000000000000000000000000000000000000000000000000000000000006000000000000000000000000000000000000000000000000000000000000000a00000000000000000000000000000000000000000000000000000000000000001000000000000000000000000000000000000000000000000000000000000001c5465737420455243373231205661756c7420436f6c6c656374696f6e0000000000000000000000000000000000000000000000000000000000000000000000075445535437323100000000000000000000000000000000000000000000000000",
        "nonce": "0x46",
        "chainId": "0xa869"
      },
      "additionalContracts": [
        {
          "transactionType": "CREATE",
          "address": "0x69b4d34d1f56b9ce5ec778dac071494bf5328712",
          "initCode": "0x60803460b757601f6102dc38819003918201601f19168301916001600160401b0383118484101760bb5780849260209460405283398101031260b757516001600160a01b0381169081810360b757811560a8577fa3f0ad74e5423aebfd80d3ef4346578335a9a72aeaee59ff6cb3582b35133d5055604051907f367184f1bb13aa656fb065e5e2b1104b30f71206d03961639cac77f3a6b331765f80a261020c90816100d08239f35b63d92e233d60e01b5f5260045ffd5b5f80fd5b634e487b7160e01b5f52604160045260245ffdfe60806040526004361015610015575b3661011d57005b5f3560e01c6301ffc9a70361000e57346100cb5760203660031901126100cb5760043563ffffffff60e01b81168091036100cb5760206001600160a01b0361005b610141565b16916024604051809481936301ffc9a760e01b835260048301525afa80156100d7575f90610096575b604051901515815280602081015b0390f35b506020813d6020116100cf575b816100b0602093836100dc565b810103126100cb575180151581036100cb5761009290610084565b5f80fd5b3d91506100a3565b610112565b90601f8019910116810190811067ffffffffffffffff8211176100fe57604052565b634e487b7160e01b5f52604160045260245ffd5b6040513d5f823e3d90fd5b5f80610127610141565b368280378136915af43d5f803e1561013d573d5ff35b3d5ffd5b7fa3f0ad74e5423aebfd80d3ef4346578335a9a72aeaee59ff6cb3582b35133d5054604051635c60da1b60e01b815290602090829060049082906001600160a01b03165afa9081156100d7575f91610197575090565b90506020813d6020116101ce575b816101b2602093836100dc565b810103126100cb57516001600160a01b03811681036100cb5790565b3d91506101a556fea2646970667358221220796762e86eaf3ee2414a8bc3bfc64625f81c761f14a3667182aadec4d4e13d7f64736f6c634300081c00330000000000000000000000004dbc214fb98b0adfc663954f227d61c3ca37a42e"
        }
      ],
      "isFixedGasLimit": false
    },
    {
      "hash": "0x451ad3e9e779f56fd1fde50d8cbc89897e199821d69c1465a3d82963d3a9c78a",
      "transactionType": "CALL",
      "contractName": null,
      "contractAddress": "0x161ab371a04755cd2eb1963ca8373fea7bf42d80",
      "function": "createVaultCollection(string,string,uint8)",
      "arguments": [
        "Test ERC1155 Vault Collection",
        "https://api.emblem.finance/erc1155/metadata/{id}.json",
        "2"
      ],
      "transaction": {
        "from": "0x107a120f536c8bd891a3c04fca22a7814e260210",
        "to": "0x161ab371a04755cd2eb1963ca8373fea7bf42d80",
        "gas": "0x883ff",
        "value": "0x0",
        "input": "0xa8008080000000000000000000000000000000000000000000000000000000000000006000000000000000000000000000000000000000000000000000000000000000a00000000000000000000000000000000000000000000000000000000000000002000000000000000000000000000000000000000000000000000000000000001d546573742045524331313535205661756c7420436f6c6c656374696f6e000000000000000000000000000000000000000000000000000000000000000000003568747470733a2f2f6170692e656d626c656d2e66696e616e63652f657263313135352f6d657461646174612f7b69647d2e6a736f6e0000000000000000000000",
        "nonce": "0x47",
        "chainId": "0xa869"
      },
      "additionalContracts": [
        {
          "transactionType": "CREATE",
          "address": "0x03cbbea525d01bf5cd5c01ec08fb4d4e0b60da18",
          "initCode": "0x60803460b757601f6102dc38819003918201601f19168301916001600160401b0383118484101760bb5780849260209460405283398101031260b757516001600160a01b0381169081810360b757811560a8577fa3f0ad74e5423aebfd80d3ef4346578335a9a72aeaee59ff6cb3582b35133d5055604051907f367184f1bb13aa656fb065e5e2b1104b30f71206d03961639cac77f3a6b331765f80a261020c90816100d08239f35b63d92e233d60e01b5f5260045ffd5b5f80fd5b634e487b7160e01b5f52604160045260245ffdfe60806040526004361015610015575b3661011d57005b5f3560e01c6301ffc9a70361000e57346100cb5760203660031901126100cb5760043563ffffffff60e01b81168091036100cb5760206001600160a01b0361005b610141565b16916024604051809481936301ffc9a760e01b835260048301525afa80156100d7575f90610096575b604051901515815280602081015b0390f35b506020813d6020116100cf575b816100b0602093836100dc565b810103126100cb575180151581036100cb5761009290610084565b5f80fd5b3d91506100a3565b610112565b90601f8019910116810190811067ffffffffffffffff8211176100fe57604052565b634e487b7160e01b5f52604160045260245ffd5b6040513d5f823e3d90fd5b5f80610127610141565b368280378136915af43d5f803e1561013d573d5ff35b3d5ffd5b7fa3f0ad74e5423aebfd80d3ef4346578335a9a72aeaee59ff6cb3582b35133d5054604051635c60da1b60e01b815290602090829060049082906001600160a01b03165afa9081156100d7575f91610197575090565b90506020813d6020116101ce575b816101b2602093836100dc565b810103126100cb57516001600160a01b03811681036100cb5790565b3d91506101a556fea26469706673582212200613b14b7c33ba0c847612f7b4957f1392dfd89932fa0b3e7839eb2458033b3e64736f6c634300081c0033000000000000000000000000398c7ca7335e43e0c9b0c30705125d6831be2132"
        }
      ],
      "isFixedGasLimit": false
    }
  ],
  "receipts": [
    {
      "status": "0x1",
      "cumulativeGasUsed": "0x632f8",
      "logs": [
        {
          "address": "0x69b4d34d1f56b9ce5ec778dac071494bf5328712",
          "topics": [
            "0x367184f1bb13aa656fb065e5e2b1104b30f71206d03961639cac77f3a6b33176",
            "0x0000000000000000000000004dbc214fb98b0adfc663954f227d61c3ca37a42e"
          ],
          "data": "0x",
          "blockHash": "0x43a8b4d06a69dbd541d3a125ba984c1a6bd651d67c14b4bc0b632a209e4029b2",
          "blockNumber": "0x23701f4",
          "transactionHash": "0x4bdb14d47128da9594402e9507fb1984aa32952ec6ff3cf1c8d96061305e207e",
          "transactionIndex": "0x0",
          "logIndex": "0x0",
          "removed": false
        },
        {
          "address": "0x69b4d34d1f56b9ce5ec778dac071494bf5328712",
          "topics": [
            "0x8be0079c531659141344cd1fd0a4f28419497f9722a3daafe3b4186f6b6457e0",
            "0x0000000000000000000000000000000000000000000000000000000000000000",
            "0x00000000000000000000000052e7060fa1f2f9d56332bf2b40a40f6bc0e9cdb6"
          ],
          "data": "0x",
          "blockHash": "0x43a8b4d06a69dbd541d3a125ba984c1a6bd651d67c14b4bc0b632a209e4029b2",
          "blockNumber": "0x23701f4",
          "transactionHash": "0x4bdb14d47128da9594402e9507fb1984aa32952ec6ff3cf1c8d96061305e207e",
          "transactionIndex": "0x0",
          "logIndex": "0x1",
          "removed": false
        },
        {
          "address": "0x69b4d34d1f56b9ce5ec778dac071494bf5328712",
          "topics": [
            "0xc7f505b2f371ae2175ee4913f4499e1f2633a7b5936321eed1cdaeb6115181d2"
          ],
          "data": "0x0000000000000000000000000000000000000000000000000000000000000001",
          "blockHash": "0x43a8b4d06a69dbd541d3a125ba984c1a6bd651d67c14b4bc0b632a209e4029b2",
          "blockNumber": "0x23701f4",
          "transactionHash": "0x4bdb14d47128da9594402e9507fb1984aa32952ec6ff3cf1c8d96061305e207e",
          "transactionIndex": "0x0",
          "logIndex": "0x2",
          "removed": false
        },
        {
          "address": "0x69b4d34d1f56b9ce5ec778dac071494bf5328712",
          "topics": [
            "0x8be0079c531659141344cd1fd0a4f28419497f9722a3daafe3b4186f6b6457e0",
            "0x00000000000000000000000052e7060fa1f2f9d56332bf2b40a40f6bc0e9cdb6",
            "0x000000000000000000000000161ab371a04755cd2eb1963ca8373fea7bf42d80"
          ],
          "data": "0x",
          "blockHash": "0x43a8b4d06a69dbd541d3a125ba984c1a6bd651d67c14b4bc0b632a209e4029b2",
          "blockNumber": "0x23701f4",
          "transactionHash": "0x4bdb14d47128da9594402e9507fb1984aa32952ec6ff3cf1c8d96061305e207e",
          "transactionIndex": "0x0",
          "logIndex": "0x3",
          "removed": false
        },
        {
          "address": "0x52e7060fa1f2f9d56332bf2b40a40f6bc0e9cdb6",
          "topics": [
            "0x171ccc46ca30ce15b8e391d7e1db8cf7644ed26a313b10df70a92b13da343541",
            "0x00000000000000000000000069b4d34d1f56b9ce5ec778dac071494bf5328712",
            "0x000000000000000000000000161ab371a04755cd2eb1963ca8373fea7bf42d80"
          ],
          "data": "0x",
          "blockHash": "0x43a8b4d06a69dbd541d3a125ba984c1a6bd651d67c14b4bc0b632a209e4029b2",
          "blockNumber": "0x23701f4",
          "transactionHash": "0x4bdb14d47128da9594402e9507fb1984aa32952ec6ff3cf1c8d96061305e207e",
          "transactionIndex": "0x0",
          "logIndex": "0x4",
          "removed": false
        },
        {
          "address": "0x52e7060fa1f2f9d56332bf2b40a40f6bc0e9cdb6",
          "topics": [
            "0xc235116ab1fd2ce09ba4690b74e2e7782ddf6f4a49eda5a12e0c320f7c65ccd6",
            "0x00000000000000000000000069b4d34d1f56b9ce5ec778dac071494bf5328712"
          ],
          "data": "0x00000000000000000000000000000000000000000000000000000000000000400000000000000000000000000000000000000000000000000000000000000080000000000000000000000000000000000000000000000000000000000000001c5465737420455243373231205661756c7420436f6c6c656374696f6e0000000000000000000000000000000000000000000000000000000000000000000000075445535437323100000000000000000000000000000000000000000000000000",
          "blockHash": "0x43a8b4d06a69dbd541d3a125ba984c1a6bd651d67c14b4bc0b632a209e4029b2",
          "blockNumber": "0x23701f4",
          "transactionHash": "0x4bdb14d47128da9594402e9507fb1984aa32952ec6ff3cf1c8d96061305e207e",
          "transactionIndex": "0x0",
          "logIndex": "0x5",
          "removed": false
        },
        {
          "address": "0x161ab371a04755cd2eb1963ca8373fea7bf42d80",
          "topics": [
            "0x5902eed5cd330f690551c9c5095eacb178efeaf6896420b9473fa373b2313f1a",
            "0x00000000000000000000000069b4d34d1f56b9ce5ec778dac071494bf5328712",
            "0x0000000000000000000000000000000000000000000000000000000000000001"
          ],
          "data": "0x0000000000000000000000000000000000000000000000000000000000000020000000000000000000000000000000000000000000000000000000000000001c5465737420455243373231205661756c7420436f6c6c656374696f6e00000000",
          "blockHash": "0x43a8b4d06a69dbd541d3a125ba984c1a6bd651d67c14b4bc0b632a209e4029b2",
          "blockNumber": "0x23701f4",
          "transactionHash": "0x4bdb14d47128da9594402e9507fb1984aa32952ec6ff3cf1c8d96061305e207e",
          "transactionIndex": "0x0",
          "logIndex": "0x6",
          "removed": false
        }
      ],
      "logsBloom": "0x00000100000000000000000000100000000000000050000000800000000000000016000000000000000000000000000000000000000000000000004000040000000000000000200000000400000000000109000000040000000000000400000000000000020100000000000000000800000000000001000000800000800000408000100000000000000800004000000000000000000080002000100004000000010000000000000000000000000000000000000000040000000000000000000000000008004000000000040000000000000000000004000000000040000060000000000000000000000000000000042000000400000000000000000000400000",
      "type": "0x2",
      "transactionHash": "0x4bdb14d47128da9594402e9507fb1984aa32952ec6ff3cf1c8d96061305e207e",
      "transactionIndex": "0x0",
      "blockHash": "0x43a8b4d06a69dbd541d3a125ba984c1a6bd651d67c14b4bc0b632a209e4029b2",
      "blockNumber": "0x23701f4",
      "gasUsed": "0x632f8",
      "effectiveGasPrice": "0x342770c00",
      "from": "0x107a120f536c8bd891a3c04fca22a7814e260210",
      "to": "0x161ab371a04755cd2eb1963ca8373fea7bf42d80",
      "contractAddress": null
    },
    {
      "status": "0x1",
      "cumulativeGasUsed": "0x5d299",
      "logs": [
        {
          "address": "0x03cbbea525d01bf5cd5c01ec08fb4d4e0b60da18",
          "topics": [
            "0x367184f1bb13aa656fb065e5e2b1104b30f71206d03961639cac77f3a6b33176",
            "0x000000000000000000000000398c7ca7335e43e0c9b0c30705125d6831be2132"
          ],
          "data": "0x",
          "blockHash": "0x71dce9a663f5e9682532040eb27f49f0f2e1f12ae265c085768050d2dbdc2dd8",
          "blockNumber": "0x23701f5",
          "transactionHash": "0x451ad3e9e779f56fd1fde50d8cbc89897e199821d69c1465a3d82963d3a9c78a",
          "transactionIndex": "0x0",
          "logIndex": "0x0",
          "removed": false
        },
        {
          "address": "0x03cbbea525d01bf5cd5c01ec08fb4d4e0b60da18",
          "topics": [
            "0x8be0079c531659141344cd1fd0a4f28419497f9722a3daafe3b4186f6b6457e0",
            "0x0000000000000000000000000000000000000000000000000000000000000000",
            "0x00000000000000000000000052e7060fa1f2f9d56332bf2b40a40f6bc0e9cdb6"
          ],
          "data": "0x",
          "blockHash": "0x71dce9a663f5e9682532040eb27f49f0f2e1f12ae265c085768050d2dbdc2dd8",
          "blockNumber": "0x23701f5",
          "transactionHash": "0x451ad3e9e779f56fd1fde50d8cbc89897e199821d69c1465a3d82963d3a9c78a",
          "transactionIndex": "0x0",
          "logIndex": "0x1",
          "removed": false
        },
        {
          "address": "0x03cbbea525d01bf5cd5c01ec08fb4d4e0b60da18",
          "topics": [
            "0xc7f505b2f371ae2175ee4913f4499e1f2633a7b5936321eed1cdaeb6115181d2"
          ],
          "data": "0x0000000000000000000000000000000000000000000000000000000000000001",
          "blockHash": "0x71dce9a663f5e9682532040eb27f49f0f2e1f12ae265c085768050d2dbdc2dd8",
          "blockNumber": "0x23701f5",
          "transactionHash": "0x451ad3e9e779f56fd1fde50d8cbc89897e199821d69c1465a3d82963d3a9c78a",
          "transactionIndex": "0x0",
          "logIndex": "0x2",
          "removed": false
        },
        {
          "address": "0x03cbbea525d01bf5cd5c01ec08fb4d4e0b60da18",
          "topics": [
            "0x8be0079c531659141344cd1fd0a4f28419497f9722a3daafe3b4186f6b6457e0",
            "0x00000000000000000000000052e7060fa1f2f9d56332bf2b40a40f6bc0e9cdb6",
            "0x000000000000000000000000161ab371a04755cd2eb1963ca8373fea7bf42d80"
          ],
          "data": "0x",
          "blockHash": "0x71dce9a663f5e9682532040eb27f49f0f2e1f12ae265c085768050d2dbdc2dd8",
          "blockNumber": "0x23701f5",
          "transactionHash": "0x451ad3e9e779f56fd1fde50d8cbc89897e199821d69c1465a3d82963d3a9c78a",
          "transactionIndex": "0x0",
          "logIndex": "0x3",
          "removed": false
        },
        {
          "address": "0x52e7060fa1f2f9d56332bf2b40a40f6bc0e9cdb6",
          "topics": [
            "0x171ccc46ca30ce15b8e391d7e1db8cf7644ed26a313b10df70a92b13da343541",
            "0x00000000000000000000000003cbbea525d01bf5cd5c01ec08fb4d4e0b60da18",
            "0x000000000000000000000000161ab371a04755cd2eb1963ca8373fea7bf42d80"
          ],
          "data": "0x",
          "blockHash": "0x71dce9a663f5e9682532040eb27f49f0f2e1f12ae265c085768050d2dbdc2dd8",
          "blockNumber": "0x23701f5",
          "transactionHash": "0x451ad3e9e779f56fd1fde50d8cbc89897e199821d69c1465a3d82963d3a9c78a",
          "transactionIndex": "0x0",
          "logIndex": "0x4",
          "removed": false
        },
        {
          "address": "0x52e7060fa1f2f9d56332bf2b40a40f6bc0e9cdb6",
          "topics": [
            "0x2229e9930d25a4974976f5fb5461a33fcd0fefa19393ad50af745b5fa4ccce8b",
            "0x00000000000000000000000003cbbea525d01bf5cd5c01ec08fb4d4e0b60da18"
          ],
          "data": "0x0000000000000000000000000000000000000000000000000000000000000020000000000000000000000000000000000000000000000000000000000000003568747470733a2f2f6170692e656d626c656d2e66696e616e63652f657263313135352f6d657461646174612f7b69647d2e6a736f6e0000000000000000000000",
          "blockHash": "0x71dce9a663f5e9682532040eb27f49f0f2e1f12ae265c085768050d2dbdc2dd8",
          "blockNumber": "0x23701f5",
          "transactionHash": "0x451ad3e9e779f56fd1fde50d8cbc89897e199821d69c1465a3d82963d3a9c78a",
          "transactionIndex": "0x0",
          "logIndex": "0x5",
          "removed": false
        },
        {
          "address": "0x161ab371a04755cd2eb1963ca8373fea7bf42d80",
          "topics": [
            "0x5902eed5cd330f690551c9c5095eacb178efeaf6896420b9473fa373b2313f1a",
            "0x00000000000000000000000003cbbea525d01bf5cd5c01ec08fb4d4e0b60da18",
            "0x0000000000000000000000000000000000000000000000000000000000000002"
          ],
          "data": "0x0000000000000000000000000000000000000000000000000000000000000020000000000000000000000000000000000000000000000000000000000000001d546573742045524331313535205661756c7420436f6c6c656374696f6e000000",
          "blockHash": "0x71dce9a663f5e9682532040eb27f49f0f2e1f12ae265c085768050d2dbdc2dd8",
          "blockNumber": "0x23701f5",
          "transactionHash": "0x451ad3e9e779f56fd1fde50d8cbc89897e199821d69c1465a3d82963d3a9c78a",
          "transactionIndex": "0x0",
          "logIndex": "0x6",
          "removed": false
        }
      ],
      "logsBloom": "0x04000100000000000000000000000000000000000810000000800000000000020004000000000000000000000000000000000000000000000000004000000000000000000000200000000400000000000109200800000000000400000400000000000000020100000000000000000800000000000001000000800000800000408000000000000000000800004000008000000000000080002000100004000000000000000000000000004100000000000800000000000000002000000000000000000000004000000000000000000002000000000004000000000004000020000000000000000000000000000000002000000000008000004000000000400000",
      "type": "0x2",
      "transactionHash": "0x451ad3e9e779f56fd1fde50d8cbc89897e199821d69c1465a3d82963d3a9c78a",
      "transactionIndex": "0x0",
      "blockHash": "0x71dce9a663f5e9682532040eb27f49f0f2e1f12ae265c085768050d2dbdc2dd8",
      "blockNumber": "0x23701f5",
      "gasUsed": "0x5d299",
      "effectiveGasPrice": "0x342770c00",
      "from": "0x107a120f536c8bd891a3c04fca22a7814e260210",
      "to": "0x161ab371a04755cd2eb1963ca8373fea7bf42d80",
      "contractAddress": null
    }
  ],
  "libraries": [],
  "pending": [],
  "returns": {},
  "timestamp": 1734328454,
  "chain": 43113,
  "commit": "bf91bda"
}