{
  "transactions": [
    {
      "hash": "0x5b15dd76c7630344e890050ab3422b652c26a5201b905467fe2f4e1b2373ed54",
      "transactionType": "CALL",
      "contractName": null,
      "contractAddress": "0x161ab371a04755cd2eb1963ca8373fea7bf42d80",
      "function": "createVaultCollection(string,string,uint8)",
      "arguments": [
        "Test ERC721 Vault Collection",
        "TEST721",
        "1"
      ],
      "transaction": {
        "from": "0x107a120f536c8bd891a3c04fca22a7814e260210",
        "to": "0x161ab371a04755cd2eb1963ca8373fea7bf42d80",
        "gas": "0x88fff",
        "value": "0x0",
        "input": "0xa8008080000000000000000000000000000000000000000000000000000000000000006000000000000000000000000000000000000000000000000000000000000000a00000000000000000000000000000000000000000000000000000000000000001000000000000000000000000000000000000000000000000000000000000001c5465737420455243373231205661756c7420436f6c6c656374696f6e0000000000000000000000000000000000000000000000000000000000000000000000075445535437323100000000000000000000000000000000000000000000000000",
        "nonce": "0x4e",
        "chainId": "0xa869"
      },
      "additionalContracts": [
        {
          "transactionType": "CREATE",
          "address": "0x9d64037413969f3df07e336bd776b785f9c0eb9d",
          "initCode": "0x60803460b757601f6102dc38819003918201601f19168301916001600160401b0383118484101760bb5780849260209460405283398101031260b757516001600160a01b0381169081810360b757811560a8577fa3f0ad74e5423aebfd80d3ef4346578335a9a72aeaee59ff6cb3582b35133d5055604051907f367184f1bb13aa656fb065e5e2b1104b30f71206d03961639cac77f3a6b331765f80a261020c90816100d08239f35b63d92e233d60e01b5f5260045ffd5b5f80fd5b634e487b7160e01b5f52604160045260245ffdfe60806040526004361015610015575b3661011d57005b5f3560e01c6301ffc9a70361000e57346100cb5760203660031901126100cb5760043563ffffffff60e01b81168091036100cb5760206001600160a01b0361005b610141565b16916024604051809481936301ffc9a760e01b835260048301525afa80156100d7575f90610096575b604051901515815280602081015b0390f35b506020813d6020116100cf575b816100b0602093836100dc565b810103126100cb575180151581036100cb5761009290610084565b5f80fd5b3d91506100a3565b610112565b90601f8019910116810190811067ffffffffffffffff8211176100fe57604052565b634e487b7160e01b5f52604160045260245ffd5b6040513d5f823e3d90fd5b5f80610127610141565b368280378136915af43d5f803e1561013d573d5ff35b3d5ffd5b7fa3f0ad74e5423aebfd80d3ef4346578335a9a72aeaee59ff6cb3582b35133d5054604051635c60da1b60e01b815290602090829060049082906001600160a01b03165afa9081156100d7575f91610197575090565b90506020813d6020116101ce575b816101b2602093836100dc565b810103126100cb57516001600160a01b03811681036100cb5790565b3d91506101a556fea2646970667358221220796762e86eaf3ee2414a8bc3bfc64625f81c761f14a3667182aadec4d4e13d7f64736f6c634300081c00330000000000000000000000004cedfb5438f9c9ee79a76cb068a138fa9d4e62d0"
        }
      ],
      "isFixedGasLimit": false
    },
    {
      "hash": "0xee6a2ffc4481dc8d52ef9a49fb378ea607defaa7f2e6e2ddaa0fe9f55804d587",
      "transactionType": "CALL",
      "contractName": null,
      "contractAddress": "0x161ab371a04755cd2eb1963ca8373fea7bf42d80",
      "function": "createVaultCollection(string,string,uint8)",
      "arguments": [
        "Test ERC1155 Vault Collection",
        "https://api.emblem.finance/erc1155/metadata/{id}.json",
        "2"
      ],
      "transaction": {
        "from": "0x107a120f536c8bd891a3c04fca22a7814e260210",
        "to": "0x161ab371a04755cd2eb1963ca8373fea7bf42d80",
        "gas": "0x883ff",
        "value": "0x0",
        "input": "0xa8008080000000000000000000000000000000000000000000000000000000000000006000000000000000000000000000000000000000000000000000000000000000a00000000000000000000000000000000000000000000000000000000000000002000000000000000000000000000000000000000000000000000000000000001d546573742045524331313535205661756c7420436f6c6c656374696f6e000000000000000000000000000000000000000000000000000000000000000000003568747470733a2f2f6170692e656d626c656d2e66696e616e63652f657263313135352f6d657461646174612f7b69647d2e6a736f6e0000000000000000000000",
        "nonce": "0x4f",
        "chainId": "0xa869"
      },
      "additionalContracts": [
        {
          "transactionType": "CREATE",
          "address": "0x11d871cb9f7b7f7d83dceadc9c8e84b0ad63d8aa",
          "initCode": "0x60803460b757601f6102dc38819003918201601f19168301916001600160401b0383118484101760bb5780849260209460405283398101031260b757516001600160a01b0381169081810360b757811560a8577fa3f0ad74e5423aebfd80d3ef4346578335a9a72aeaee59ff6cb3582b35133d5055604051907f367184f1bb13aa656fb065e5e2b1104b30f71206d03961639cac77f3a6b331765f80a261020c90816100d08239f35b63d92e233d60e01b5f5260045ffd5b5f80fd5b634e487b7160e01b5f52604160045260245ffdfe60806040526004361015610015575b3661011d57005b5f3560e01c6301ffc9a70361000e57346100cb5760203660031901126100cb5760043563ffffffff60e01b81168091036100cb5760206001600160a01b0361005b610141565b16916024604051809481936301ffc9a760e01b835260048301525afa80156100d7575f90610096575b604051901515815280602081015b0390f35b506020813d6020116100cf575b816100b0602093836100dc565b810103126100cb575180151581036100cb5761009290610084565b5f80fd5b3d91506100a3565b610112565b90601f8019910116810190811067ffffffffffffffff8211176100fe57604052565b634e487b7160e01b5f52604160045260245ffd5b6040513d5f823e3d90fd5b5f80610127610141565b368280378136915af43d5f803e1561013d573d5ff35b3d5ffd5b7fa3f0ad74e5423aebfd80d3ef4346578335a9a72aeaee59ff6cb3582b35133d5054604051635c60da1b60e01b815290602090829060049082906001600160a01b03165afa9081156100d7575f91610197575090565b90506020813d6020116101ce575b816101b2602093836100dc565b810103126100cb57516001600160a01b03811681036100cb5790565b3d91506101a556fea26469706673582212200613b14b7c33ba0c847612f7b4957f1392dfd89932fa0b3e7839eb2458033b3e64736f6c634300081c00330000000000000000000000007f99c8bbc04767e4b79ef95b60ab256239c18f61"
        }
      ],
      "isFixedGasLimit": false
    }
  ],
  "receipts": [
    {
      "status": "0x1",
      "cumulativeGasUsed": "0x632f8",
      "logs": [
        {
          "address": "0x9d64037413969f3df07e336bd776b785f9c0eb9d",
          "topics": [
            "0x367184f1bb13aa656fb065e5e2b1104b30f71206d03961639cac77f3a6b33176",
            "0x0000000000000000000000004cedfb5438f9c9ee79a76cb068a138fa9d4e62d0"
          ],
          "data": "0x",
          "blockHash": "0x5a654915e05d4a3e0bc11e2f4c54e81eb55b273703bef230732dc02fd9c93ce3",
          "blockNumber": "0x2370532",
          "transactionHash": "0x5b15dd76c7630344e890050ab3422b652c26a5201b905467fe2f4e1b2373ed54",
          "transactionIndex": "0x0",
          "logIndex": "0x0",
          "removed": false
        },
        {
          "address": "0x9d64037413969f3df07e336bd776b785f9c0eb9d",
          "topics": [
            "0x8be0079c531659141344cd1fd0a4f28419497f9722a3daafe3b4186f6b6457e0",
            "0x0000000000000000000000000000000000000000000000000000000000000000",
            "0x000000000000000000000000c9cf92dd6ba4c8fb7e9b3600c40fc483fa696741"
          ],
          "data": "0x",
          "blockHash": "0x5a654915e05d4a3e0bc11e2f4c54e81eb55b273703bef230732dc02fd9c93ce3",
          "blockNumber": "0x2370532",
          "transactionHash": "0x5b15dd76c7630344e890050ab3422b652c26a5201b905467fe2f4e1b2373ed54",
          "transactionIndex": "0x0",
          "logIndex": "0x1",
          "removed": false
        },
        {
          "address": "0x9d64037413969f3df07e336bd776b785f9c0eb9d",
          "topics": [
            "0xc7f505b2f371ae2175ee4913f4499e1f2633a7b5936321eed1cdaeb6115181d2"
          ],
          "data": "0x0000000000000000000000000000000000000000000000000000000000000001",
          "blockHash": "0x5a654915e05d4a3e0bc11e2f4c54e81eb55b273703bef230732dc02fd9c93ce3",
          "blockNumber": "0x2370532",
          "transactionHash": "0x5b15dd76c7630344e890050ab3422b652c26a5201b905467fe2f4e1b2373ed54",
          "transactionIndex": "0x0",
          "logIndex": "0x2",
          "removed": false
        },
        {
          "address": "0x9d64037413969f3df07e336bd776b785f9c0eb9d",
          "topics": [
            "0x8be0079c531659141344cd1fd0a4f28419497f9722a3daafe3b4186f6b6457e0",
            "0x000000000000000000000000c9cf92dd6ba4c8fb7e9b3600c40fc483fa696741",
            "0x000000000000000000000000161ab371a04755cd2eb1963ca8373fea7bf42d80"
          ],
          "data": "0x",
          "blockHash": "0x5a654915e05d4a3e0bc11e2f4c54e81eb55b273703bef230732dc02fd9c93ce3",
          "blockNumber": "0x2370532",
          "transactionHash": "0x5b15dd76c7630344e890050ab3422b652c26a5201b905467fe2f4e1b2373ed54",
          "transactionIndex": "0x0",
          "logIndex": "0x3",
          "removed": false
        },
        {
          "address": "0xc9cf92dd6ba4c8fb7e9b3600c40fc483fa696741",
          "topics": [
            "0x171ccc46ca30ce15b8e391d7e1db8cf7644ed26a313b10df70a92b13da343541",
            "0x0000000000000000000000009d64037413969f3df07e336bd776b785f9c0eb9d",
            "0x000000000000000000000000161ab371a04755cd2eb1963ca8373fea7bf42d80"
          ],
          "data": "0x",
          "blockHash": "0x5a654915e05d4a3e0bc11e2f4c54e81eb55b273703bef230732dc02fd9c93ce3",
          "blockNumber": "0x2370532",
          "transactionHash": "0x5b15dd76c7630344e890050ab3422b652c26a5201b905467fe2f4e1b2373ed54",
          "transactionIndex": "0x0",
          "logIndex": "0x4",
          "removed": false
        },
        {
          "address": "0xc9cf92dd6ba4c8fb7e9b3600c40fc483fa696741",
          "topics": [
            "0xc235116ab1fd2ce09ba4690b74e2e7782ddf6f4a49eda5a12e0c320f7c65ccd6",
            "0x0000000000000000000000009d64037413969f3df07e336bd776b785f9c0eb9d"
          ],
          "data": "0x00000000000000000000000000000000000000000000000000000000000000400000000000000000000000000000000000000000000000000000000000000080000000000000000000000000000000000000000000000000000000000000001c5465737420455243373231205661756c7420436f6c6c656374696f6e0000000000000000000000000000000000000000000000000000000000000000000000075445535437323100000000000000000000000000000000000000000000000000",
          "blockHash": "0x5a654915e05d4a3e0bc11e2f4c54e81eb55b273703bef230732dc02fd9c93ce3",
          "blockNumber": "0x2370532",
          "transactionHash": "0x5b15dd76c7630344e890050ab3422b652c26a5201b905467fe2f4e1b2373ed54",
          "transactionIndex": "0x0",
          "logIndex": "0x5",
          "removed": false
        },
        {
          "address": "0x161ab371a04755cd2eb1963ca8373fea7bf42d80",
          "topics": [
            "0x5902eed5cd330f690551c9c5095eacb178efeaf6896420b9473fa373b2313f1a",
            "0x0000000000000000000000009d64037413969f3df07e336bd776b785f9c0eb9d",
            "0x0000000000000000000000000000000000000000000000000000000000000001"
          ],
          "data": "0x0000000000000000000000000000000000000000000000000000000000000020000000000000000000000000000000000000000000000000000000000000001c5465737420455243373231205661756c7420436f6c6c656374696f6e00000000",
          "blockHash": "0x5a654915e05d4a3e0bc11e2f4c54e81eb55b273703bef230732dc02fd9c93ce3",
          "blockNumber": "0x2370532",
          "transactionHash": "0x5b15dd76c7630344e890050ab3422b652c26a5201b905467fe2f4e1b2373ed54",
          "transactionIndex": "0x0",
          "logIndex": "0x6",
          "removed": false
        }
      ],
      "logsBloom": "0x00000000000000020000000000100000040000000010000000800000000000000010000000000000000000000002000000000000000000000000004000040000000000000000000000000400000000000109000000040000000000000400004000000000020000000000004000000800008000000001000000800000000000408000000000000000000800004000000000000000000080082000100004000000010000000200000001000000000000000800000000000000000000000000000000000000004000000000000000000000000000040004000004000000000060000000000000000000000000000000002002000000000000000000000000400400",
      "type": "0x2",
      "transactionHash": "0x5b15dd76c7630344e890050ab3422b652c26a5201b905467fe2f4e1b2373ed54",
      "transactionIndex": "0x0",
      "blockHash": "0x5a654915e05d4a3e0bc11e2f4c54e81eb55b273703bef230732dc02fd9c93ce3",
      "blockNumber": "0x2370532",
      "gasUsed": "0x632f8",
      "effectiveGasPrice": "0x5d21dba00",
      "from": "0x107a120f536c8bd891a3c04fca22a7814e260210",
      "to": "0x161ab371a04755cd2eb1963ca8373fea7bf42d80",
      "contractAddress": null
    },
    {
      "status": "0x1",
      "cumulativeGasUsed": "0x5d299",
      "logs": [
        {
          "address": "0x11d871cb9f7b7f7d83dceadc9c8e84b0ad63d8aa",
          "topics": [
            "0x367184f1bb13aa656fb065e5e2b1104b30f71206d03961639cac77f3a6b33176",
            "0x0000000000000000000000007f99c8bbc04767e4b79ef95b60ab256239c18f61"
          ],
          "data": "0x",
          "blockHash": "0x2a84af19764497c3e2fab690e5800e9afcd7a26ec18a10e6772dfd3289c01df5",
          "blockNumber": "0x2370533",
          "transactionHash": "0xee6a2ffc4481dc8d52ef9a49fb378ea607defaa7f2e6e2ddaa0fe9f55804d587",
          "transactionIndex": "0x0",
          "logIndex": "0x0",
          "removed": false
        },
        {
          "address": "0x11d871cb9f7b7f7d83dceadc9c8e84b0ad63d8aa",
          "topics": [
            "0x8be0079c531659141344cd1fd0a4f28419497f9722a3daafe3b4186f6b6457e0",
            "0x0000000000000000000000000000000000000000000000000000000000000000",
            "0x000000000000000000000000c9cf92dd6ba4c8fb7e9b3600c40fc483fa696741"
          ],
          "data": "0x",
          "blockHash": "0x2a84af19764497c3e2fab690e5800e9afcd7a26ec18a10e6772dfd3289c01df5",
          "blockNumber": "0x2370533",
          "transactionHash": "0xee6a2ffc4481dc8d52ef9a49fb378ea607defaa7f2e6e2ddaa0fe9f55804d587",
          "transactionIndex": "0x0",
          "logIndex": "0x1",
          "removed": false
        },
        {
          "address": "0x11d871cb9f7b7f7d83dceadc9c8e84b0ad63d8aa",
          "topics": [
            "0xc7f505b2f371ae2175ee4913f4499e1f2633a7b5936321eed1cdaeb6115181d2"
          ],
          "data": "0x0000000000000000000000000000000000000000000000000000000000000001",
          "blockHash": "0x2a84af19764497c3e2fab690e5800e9afcd7a26ec18a10e6772dfd3289c01df5",
          "blockNumber": "0x2370533",
          "transactionHash": "0xee6a2ffc4481dc8d52ef9a49fb378ea607defaa7f2e6e2ddaa0fe9f55804d587",
          "transactionIndex": "0x0",
          "logIndex": "0x2",
          "removed": false
        },
        {
          "address": "0x11d871cb9f7b7f7d83dceadc9c8e84b0ad63d8aa",
          "topics": [
            "0x8be0079c531659141344cd1fd0a4f28419497f9722a3daafe3b4186f6b6457e0",
            "0x000000000000000000000000c9cf92dd6ba4c8fb7e9b3600c40fc483fa696741",
            "0x000000000000000000000000161ab371a04755cd2eb1963ca8373fea7bf42d80"
          ],
          "data": "0x",
          "blockHash": "0x2a84af19764497c3e2fab690e5800e9afcd7a26ec18a10e6772dfd3289c01df5",
          "blockNumber": "0x2370533",
          "transactionHash": "0xee6a2ffc4481dc8d52ef9a49fb378ea607defaa7f2e6e2ddaa0fe9f55804d587",
          "transactionIndex": "0x0",
          "logIndex": "0x3",
          "removed": false
        },
        {
          "address": "0xc9cf92dd6ba4c8fb7e9b3600c40fc483fa696741",
          "topics": [
            "0x171ccc46ca30ce15b8e391d7e1db8cf7644ed26a313b10df70a92b13da343541",
            "0x00000000000000000000000011d871cb9f7b7f7d83dceadc9c8e84b0ad63d8aa",
            "0x000000000000000000000000161ab371a04755cd2eb1963ca8373fea7bf42d80"
          ],
          "data": "0x",
          "blockHash": "0x2a84af19764497c3e2fab690e5800e9afcd7a26ec18a10e6772dfd3289c01df5",
          "blockNumber": "0x2370533",
          "transactionHash": "0xee6a2ffc4481dc8d52ef9a49fb378ea607defaa7f2e6e2ddaa0fe9f55804d587",
          "transactionIndex": "0x0",
          "logIndex": "0x4",
          "removed": false
        },
        {
          "address": "0xc9cf92dd6ba4c8fb7e9b3600c40fc483fa696741",
          "topics": [
            "0x2229e9930d25a4974976f5fb5461a33fcd0fefa19393ad50af745b5fa4ccce8b",
            "0x00000000000000000000000011d871cb9f7b7f7d83dceadc9c8e84b0ad63d8aa"
          ],
          "data": "0x0000000000000000000000000000000000000000000000000000000000000020000000000000000000000000000000000000000000000000000000000000003568747470733a2f2f6170692e656d626c656d2e66696e616e63652f657263313135352f6d657461646174612f7b69647d2e6a736f6e0000000000000000000000",
          "blockHash": "0x2a84af19764497c3e2fab690e5800e9afcd7a26ec18a10e6772dfd3289c01df5",
          "blockNumber": "0x2370533",
          "transactionHash": "0xee6a2ffc4481dc8d52ef9a49fb378ea607defaa7f2e6e2ddaa0fe9f55804d587",
          "transactionIndex": "0x0",
          "logIndex": "0x5",
          "removed": false
        },
        {
          "address": "0x161ab371a04755cd2eb1963ca8373fea7bf42d80",
          "topics": [
            "0x5902eed5cd330f690551c9c5095eacb178efeaf6896420b9473fa373b2313f1a",
            "0x00000000000000000000000011d871cb9f7b7f7d83dceadc9c8e84b0ad63d8aa",
            "0x0000000000000000000000000000000000000000000000000000000000000002"
          ],
          "data": "0x0000000000000000000000000000000000000000000000000000000000000020000000000000000000000000000000000000000000000000000000000000001d546573742045524331313535205661756c7420436f6c6c656374696f6e000000",
          "blockHash": "0x2a84af19764497c3e2fab690e5800e9afcd7a26ec18a10e6772dfd3289c01df5",
          "blockNumber": "0x2370533",
          "transactionHash": "0xee6a2ffc4481dc8d52ef9a49fb378ea607defaa7f2e6e2ddaa0fe9f55804d587",
          "transactionIndex": "0x0",
          "logIndex": "0x6",
          "removed": false
        }
      ],
      "logsBloom": "0x04000000000000000000000000000000040000000010000000800000000000000000000000000000000000001000000000000000000000000010004000000000000000000000000000000400000000000109200000000000000000000400000000000000020000000200004002000800000000000801000000800000000000408000000000000000000800004000000000000000000080002000100004000000000000000200000000000140000000000800000000000000002000000000000000000000404000040000000000000000000000040004000000000000000020000000000000000000000000000000002000000000008000000000000008400400",
      "type": "0x2",
      "transactionHash": "0xee6a2ffc4481dc8d52ef9a49fb378ea607defaa7f2e6e2ddaa0fe9f55804d587",
      "transactionIndex": "0x0",
      "blockHash": "0x2a84af19764497c3e2fab690e5800e9afcd7a26ec18a10e6772dfd3289c01df5",
      "blockNumber": "0x2370533",
      "gasUsed": "0x5d299",
      "effectiveGasPrice": "0x5d21dba00",
      "from": "0x107a120f536c8bd891a3c04fca22a7814e260210",
      "to": "0x161ab371a04755cd2eb1963ca8373fea7bf42d80",
      "contractAddress": null
    }
  ],
  "libraries": [],
  "pending": [],
  "returns": {},
  "timestamp": 1734334138,
  "chain": 43113,
  "commit": "bf91bda"
}